:020000040800F2
:10000000280F00209D010008954B0008974B000821
:100010009B4B00089F4B0008A34B0008000000000A
:10002000000000000000000000000000A74B0008D6
:10003000A94B000800000000AB4B0008AD4B0008C6
:10004000B7010008B7010008B7010008B7010008B0
:10005000B7010008B7010008B7010008B7010008A0
:10006000B7010008B7010008B7010008B701000890
:10007000B7010008B7010008B7010008B701000880
:10008000B7010008B7010008B7010008B701000870
:10009000B7010008B7010008B7010008B701000860
:1000A000B7010008B7010008B7010008B701000850
:1000B000EB4C0008B7010008B7010008B7010008C1
:1000C000B7010008B7010008B7010008B701000830
:1000D000B7010008D54B0008634C0008654C0008C8
:1000E000B7010008B7010008B7010008B701000810
:1000F000B7010008B7010008000000000000000080
:100100000000000000000000254D0008B7010008B5
:100110000000000000000000B7010008B70100085F
:10012000B7010008B7010008B7010008B7010008CF
:10013000B7010008B7010008B7010008B7010008BF
:10014000B7010008000000000000000000000000EF
:10015000000000000000000000000000000000009F
:100160000000000000000000B7010008B70100080F
:10017000B701000800000000B701000800000000FF
:1001800000000000B7010008DFF80CD005F0C6F849
:1001900000480047594A0008280F002006488047B9
:1001A00006480047FEE7FEE7FEE7FEE7FEE7FEE75C
:1001B000FEE7FEE7FEE7FEE7194E000889010008AA
:1001C00001460020FE4A106820F00300084310603A
:1001D000704730B1FA49096841F00801F84A1160E6
:1001E00005E0F749096821F00801F54A11607047F8
:1001F00030B1F349096841F01001F14A116005E09E
:10020000EF49096821F01001ED4A11607047EC4890
:10021000006900F0800020B1EA48E9494860EA48F6
:1002200048607047E648006940F08000E449086192
:1002300070470420E249C96801F0010109B10120B9
:100240000EE0DF49C96801F0100109B1022007E0A2
:10025000DB49C96801F0040109B1032000E0042072
:10026000704700B502460423FFF7E3FF034603E0AF
:10027000FFF7DFFF0346521E012B01D1002AF7D101
:1002800002B90523184600BD30B5044604254FF4D5
:100290003020FFF7E6FF0546042D16D1C848006957
:1002A00040F00200C649086108464461006940F018
:1002B000400008614FF43020FFF7D3FF0546C048E7
:1002C000006920F00200BE490861284630BD10B523
:1002D00004244FF43020FFF7C4FF0446042C15D14A
:1002E000B748006940F00400B54908610846006954
:1002F00040F0400008614FF43020FFF7B2FF0446A1
:10030000AF48006920F00400AD490861204610BDE7
:1003100078B506460C460425002000904FF43020A6
:10032000FFF79FFF0546042D24D1A548006940F042
:100330000100A349086134804FF43020FFF791FF9A
:100340000546042D10D1B01C0090200C00990880A7
:100350004FF43020FFF785FF05469948006920F0EB
:1003600001009749086105E09548006920F0010007
:1003700093490861284678BD70B504460D460426A9
:100380004FF43020FFF76DFF0646042E11D18C4844
:10039000006940F001008A49086125804FF430204F
:1003A000FFF75FFF06468648006920F00100844998
:1003B0000861304670BD8248006900F4007020B9C1
:1003C00080487F4988608048886070477C48006921
:1003D00020F400707A49086170477948006940F458
:1003E000005077490861704700207549C96901F0DC
:1003F000060109B1012000E00020704730B5AA25B0
:100400000424FFF7F1FF00B100254FF43020FFF77F
:1004100028FF0446042C34D16948006940F02000CC
:10042000674908610846006940F0400008614FF4E0
:100430003020FFF716FF0446042C1AD160480069EB
:1004400020F020005E4908610846006940F0100075
:1004500008615E4805804FF43020FFF702FF044634
:10046000052C0ED05648006920F010005449086150
:1004700007E0052C05D05248006920F010005049D3
:100480000861204630BD70B505460E4604244FF481
:100490003020FFF7E6FE0446042C13D148480069DB
:1004A00040F01000464908612E804FF43020FFF7DD
:1004B000D8FE0446052C05D04148006920F0100004
:1004C0003F490861204670BD2DE9F04304464FF6D0
:1004D000FF763746B046B1460425E443E6B2C4F39E
:1004E0000727C4F307484FEA14694FF43020FFF799
:1004F000B8FE0546042D3FD13148006940F0100098
:100500002F490861FF2E07D03048083006804FF48D
:100510003020FFF7A6FE0546042D09D1FF2F07D096
:100520002A480A3007804FF43020FFF79AFE05462C
:10053000042D0BD1B8F1FF0F08D024480C30A0F8DF
:1005400000804FF43020FFF78CFE0546042D0BD1C0
:10055000B9F1FF0F08D01D480E30A0F800904FF4FD
:100560003020FFF77EFE0546052D05D014480069B2
:1005700020F01000124908612846BDE8F08330B52C
:10058000054604244FF43020FFF76BFE0446042C8C
:100590003DD10B48006940F0200009490861084638
:1005A000006940F0400008614FF43020FFF759FE29
:1005B0000446042C23D10248006920F0200007E003
:1005C0000020024023016745AB89EFCD00F8FF1FF3
:1005D0008F4908610846006940F0100008618D48A5
:1005E00005804FF43020FFF73CFE0446052C0ED06A
:1005F0008748006920F010008549086107E0052C54
:1006000005D08348006920F0200081490861204618
:1006100030BDF0B507460D46164604244FF4302091
:10062000FFF71FFE0446042C1AD17948006940F0F8
:1006300010007749086147EA050046F0F8010843D1
:100640007449891C08804FF43020FFF70AFE0446E5
:10065000052C05D06E48006920F010006C49086137
:100660002046F0BD30B5054604244FF43020FFF796
:10067000F8FD0446042C17D16548006940F01000CD
:100680006349086145F0EF006249891C08804FF416
:100690003020FFF7E6FD0446052C05D05C480069D4
:1006A00020F010005A490861204630BD30B505469B
:1006B00004244FF43020FFF7D4FD0446042C17D156
:1006C0005348006940F010005149086145F0DF00CF
:1006D0005049891C08804FF43020FFF7C2FD0446C2
:1006E000052C05D04A48006920F0100048490861EF
:1006F000204630BD30B5054604244FF43020FFF7C6
:10070000B0FD0446042C17D14148006940F01000A8
:100710003F49086145F07F003E49891C08804FF43D
:100720003020FFF79EFD0446052C05D038480069AF
:1007300020F0100036490861204630BD30B505462E
:1007400004244FF43020FFF78CFD0446042C17D10D
:100750002F48006940F010002D49086145F0BF00A6
:100760002C49891C08804FF43020FFF77AFD04469D
:10077000052C05D02648006920F0100024490861A6
:10078000204630BD30B5054604244FF43020FFF735
:1007900068FD0446042C17D11D48006940F0100084
:1007A0001B49086145F048001A49891C08804FF42C
:1007B0003020FFF756FD0446052C05D0144800698B
:1007C00020F0100012490861204630BD1048C06971
:1007D000C0F3072070470E48006A704729B10C4AE1
:1007E000126902430A4B1A6104E0094A1269824302
:1007F000074B1A61704701460020054AD2680A403B
:100800000AB1012000E0002070470149C86070472C
:100810000020024000F8FF1F10B50446B4F1904FCD
:1008200009D10121480400F0E8FB00214FF4003019
:1008300000F0E3FB3CE07448844208D1012100024F
:1008400000F0DBFB0021200200F0D7FB30E06F4816
:10085000844208D10121000200F0CFFB00212002D8
:1008600000F0CBFB24E06A48844209D1012108054D
:1008700000F0C3FB00214FF4801000F0BEFB17E036
:100880006448844208D10121400200F0B6FB0021F7
:10089000600200F0B2FB0BE05F48844208D1012106
:1008A000880500F0AAFB00214FF4800000F0A5FBB2
:1008B00010BDF0B50A4600210023002400BF3DE032
:1008C000012505FA01F3156805EA03049C4234D1B9
:1008D0001579012D02D01579022D16D185684F00AA
:1008E0000326BE40B543856055794E00B540866805
:1008F00035438560868801258D40AE438680868895
:1009000095798D40ADB22E43868005684F00032651
:10091000BE40B543056015794E00B54006683543C5
:100920000560C5684F000326BE40B543C560D57954
:100930004E00B540C6683543C560491C1029BFD379
:10094000F0BD4FF6FF71016000210171022141717C
:1009500000218171C171704708B54FF48032009257
:10096000009A0A430092009AC261C161009AC26172
:10097000C2690092C269009208BD02460020138A33
:100980000B400BB1012000E0002070470146088AAF
:10099000704702460020938A0B400BB1012000E013
:1009A000002070470146888A704781617047018541
:1009B00070470AB1816100E001857047818270470C
:1009C000F0B5002300244D07ED0E02FA05F3CE101A
:1009D00000F1200555F826504E07F70E0F26BE40B1
:1009E000B543CF1000F1200646F82750CE1000F195
:1009F000200555F8265045EA0304CE1000F12005E5
:100A000045F82640F0BD00000004004800080048FA
:100A1000000C004800100048001400483149014310
:100A2000314A1160704770B5002100230F22C4784D
:100A300004B32D4C246804F4E064C4F5E064210A96
:100A4000C1F10403CA40447804FA03F184781440E5
:100A500021430901254C0678A155047804F01F05AF
:100A60000124AC4005786D11AD0005F1E025C5F815
:100A7000004109E0047804F01F050124AC401C4D3E
:100A80000678761145F8264070BD1A4A0A4002439E
:100A9000154B1B1F1A60704739B1134A121D12689B
:100AA0000243114B1B1D1A6006E00F4A121D12680B
:100AB00082430D4B1B1D1A607047042808D14FF06C
:100AC000E021096941F004014FF0E022116107E0E3
:100AD0004FF0E021096921F004014FF0E02211619B
:100AE000704700000000FA050CED00E000E400E0B3
:100AF00080E100E080FFFF1FF948006840F001003E
:100B0000F74908600846406800F47F0048600846DE
:100B10000068F4490840F24908600846006820F47B
:100B2000802008600846406820F4FE0048600846BF
:100B3000C06A20F00F00C8620846006BEA4908400E
:100B4000E74908630020886070470021E44A9170FB
:100B500011468870704710B501460022002300201E
:100B60004A1112B9DE4C236806E0012A02D1DC4C9E
:100B7000236A01E0DA4C636A01F01F020124944009
:100B80001C400CB1012000E0002010BD38B5002051
:100B900000900024002500BF1120FFF7DCFF054670
:100BA0000098401C00900098B0F5A06F01D0002D77
:100BB000F2D01120FFF7CFFF08B1012400E000249C
:100BC000204638BD01460020C54A106820F0F800D4
:100BD00040EAC10010607047C44908607047C049CE
:100BE000096A21F00101BE4A11621146096A21F029
:100BF000040111621146096A014311627047B84944
:100C0000096A21F01801B64A11621146096A0143C6
:100C100011627047B64908607047B14A526822F4C1
:100C20007412AF4B5A601A46526840EA01031A43E5
:100C3000AB4B5A607047AD490866704701460020CB
:100C4000A74AD06A20F00F000843D0627047A74936
:100C5000C8647047A249C871704701460020A04A85
:100C6000506820F003000843506070479C4840687B
:100C700000F00C00704701460020994A506820F0AF
:100C8000F00008435060704701460020944A5068C5
:100C900020F4E06008435060704701460020904A0D
:100CA000506820F4605040EAC100506070478C49A1
:100CB000496821F440418A4A51601146496801431C
:100CC000516070478649496821F07841844A5160F3
:100CD000114649680143516070478149096B21F011
:100CE00040017F4A11631146096B0143116370474C
:100CF0000021010F31B97A4A126B22F01002784BB1
:100D00001A6305E0764A126B22F02002744B1A63D4
:100D1000734A126B0243724B1A6370470021010F32
:100D2000012904D0022909D0032915D10DE06C4A0C
:100D3000126B22F003026A4B1A630EE0684A126BD0
:100D400022F44032664B1A6307E0654A126B22F4C4
:100D50004022634B1A6300E000BF00BF604A126B81
:100D600002435F4B1A6370476049D831086070478F
:100D700070B500210023002400250022584E76681B
:100D800006F00C0121B1042905D0082921D105E084
:100D9000584E066020E0574E06601DE0504E7668C3
:100DA00006F470134E4E766806F48034022606EB85
:100DB00093431CB9504E5E43066009E0484EF66A04
:100DC00006F00F06751C4B4EB6FBF5F65E4306604B
:100DD00002E0484E066000BF00BF414E766806F054
:100DE000F0010909454E725C0668D64046603C4EEB
:100DF000766806F4E061090A404E725C4668D640A7
:100E00008660374E766806F46051C90A3B4E725CC4
:100E10004668D640C660324E766806F44041890B7B
:100E2000374E725CC668B6FBF2F606612C4E7668E9
:100E300006F07841C1F3C361324E725C0668B6FBBE
:100E4000F2F64661264E366B06F04006402E03D081
:100E500048F21206866102E04FF400468661204E99
:100E6000366B06F01006102E02D0224EC66101E04D
:100E70000668C6611A4E366B06F02006202E02D098
:100E80001C4E066201E006680662154E366B06F0DF
:100E9000030616B9C668466219E0114E366B06F0B5
:100EA0000306012E02D10668466210E00C4E366B36
:100EB00006F00306022E02D1B603466207E0084E92
:100EC000366B06F00306032E01D10A4E4662044E2D
:100ED000366B06F44036BEB98668866232E00000A2
:100EE00000100240FFFFF6FE8C0FFF0F0000424291
:100EF0008004424200127A0000093D0000000020F8
:100F00001000002014000020604E366B06F44036BE
:100F1000B6F5803F02D10668866213E05B4E366B01
:100F200006F44036B6F5003F03D14FF40046866222
:100F300008E0564E366B06F44036B6F5403F01D118
:100F4000534E8662514E366B06F4402616B98668BB
:100F5000C6621DE04D4E366B06F44026B6F5802F76
:100F600002D10668C66213E0484E366B06F440268E
:100F7000B6F5002F03D14FF40046C66208E0434E99
:100F8000366B06F44026B6F5402F01D1404EC662BE
:100F900070BD3E49096A01433C4A116270473D49B0
:100FA000086070473B49091D0860704729B1374AFE
:100FB00052690243354B5A6104E0344A5269824314
:100FC000324B5A61704729B1304A926902432F4B24
:100FD0009A6104E02D4A926982432C4B9A617047D2
:100FE00029B12A4AD2690243284BDA6104E0274A30
:100FF000D2698243254BDA61704729B1234A926A4C
:101000000243224B9A6204E0204A926A82431F4BB9
:101010009A62704729B11D4AD26802431B4BDA60BD
:1010200004E01A4AD2688243184BDA60704729B14B
:10103000164A12690243154B1A6104E0134A1269F9
:101040008243124B1A61704729B1104A527A024307
:101050000E4B5A7204E00D4A527A82430B4B5A727D
:1010600070470A48406A40F08070084948627047FB
:1010700001460020054A92680A400AB1012000E0BA
:10108000002070470149887270470000001002403C
:1010900000127A003C04424210B50446B4F1804F7D
:1010A00008D101210846FFF7C2FF00210120FFF708
:1010B000BEFF9EE0F748844208D101210220FFF7DD
:1010C000B6FF00210220FFF7B2FF92E0F24884420F
:1010D00008D101210420FFF7AAFF00210420FFF717
:1010E000A6FF86E0ED48844208D101210820FFF7E1
:1010F0009EFF00210820FFF79AFF7AE0E84884422B
:1011000008D101211020FFF792FF00211020FFF7E6
:101110008EFF6EE0E348844208D101212020FFF7D2
:1011200086FF00212020FFF782FF62E0DE48844234
:1011300008D101214020FFF77AFF00214020FFF76E
:1011400076FF56E0D948844208D101218020FFF77C
:101150006EFF00218020FFF76AFF4AE0D4488442F6
:1011600008D101218015FFF762FF0021A015FFF7CC
:101170005EFF3EE0CF48844209D101210804FFF719
:1011800049FF00214FF48030FFF744FF31E0CA48A7
:10119000844209D101214804FFF73CFF00214FF4AC
:1011A0000030FFF737FF24E0C448844209D1012111
:1011B0008804FFF72FFF00214FF48020FFF72AFF5C
:1011C00017E0BF48844208D101214015FFF72FFFE7
:1011D00000216015FFF72BFF0BE0BA48844208D1CD
:1011E0000121C804FFF716FF00214FF40020FFF78C
:1011F00011FF10BD00220288B0F1804F0BD0A54B2B
:10120000984208D0A44B984205D0A44B984202D0F3
:10121000AC4B984204D14FF68F731A404B881A4357
:101220009F4B98420AD09F4B984207D0A44B9842BC
:1012300004D04FF6FF431A400B891A4302804B68D3
:10124000C3620B8803859B4B984205D09A4B98420A
:1012500002D09A4B984201D18B7A03860123838274
:1012600070474FF0FF3141600021018001814180D2
:10127000817270470185828270470A460021018889
:101280004FF68F73194011430180704741627047D8
:10129000C16270470146486A70470146088D704731
:1012A00021B1028842F00202028004E002884FF677
:1012B000FD731A400280704721B1028842F0040297
:1012C000028004E002884FF6FB731A4002807047E8
:1012D00021B1028842F08002028004E002884FF6C9
:1012E0007F731A400280704702884FF6F7731A40E6
:1012F000028002880A430280704702884FF6FF434B
:101300001A40028002880A430280704721B1028895
:1013100042F00102028004E002884FF6FE731A4098
:10132000028070470A884B881A438B881A43CB88FF
:101330001A430B891A434B891A438B891A43B0F815
:1013400044301A43A0F844207047002101804180B6
:101350008180C180018141818181704731B1B0F8C4
:10136000442042F40042A0F8442005E0B0F84420B4
:10137000C2F30E02A0F84420704770B5002400228A
:101380000023058C4FF6FE7635400584028C838859
:10139000048B4FF68F752C40B51E2C400D882C43C6
:1013A000751E2A408D892A434D882A43414DA84203
:1013B00005D0414DA84202D0404DA84213D14FF66E
:1013C000F7752A40CD892A434FF6FB752A408D8850
:1013D0002A434FF6FF652B404FF6FF552B400D8AF1
:1013E0002B434D8A2B43838004838D68456302849D
:1013F00070BD70B5002200230024058C4FF6EF76F7
:1014000035400584038C8488028B48F6FF752A409A
:101410004FF6FF452A400D884FF6FF7606EA052570
:101420002A434FF6DF752B408D8906EA05152B43BD
:101430004D8806EA05152B43848002838D688563F9
:10144000038470BD70B5002200230024058C4FF684
:10145000FF6635400584038C8488828B4FF68F7538
:101460002A404FF6FC752A400D882A434FF6FF5557
:101470002B408D894FF6FF7606EA05252B434D88D4
:1014800006EA05252B43848082838D68C563038427
:1014900070BD00000004004000080040000C004047
:1014A000001000400014004000180040001C0040E4
:1014B000002000400040014000440140004801403D
:1014C000009C0040005C014070B500220023002415
:1014D000058C4EF6FF7635400584038C8488828B1C
:1014E00048F6FF752A404FF6FF452A400D884FF613
:1014F000FF7606EA05252A434DF6FF752B408D89B8
:1015000006EA05352B434D8806EA05352B438480D2
:1015100082838D680564038470BD00210180418051
:10152000818081608181C18101824182704770B573
:101530000346002000241846183001258D40ACB227
:101540001D8CA5431D8409B1082909D100EB610058
:10155000056825F0700505600568154305600EE017
:101560000D1FC5F34E052844056825F4E0450560C8
:1015700005684FF6FF7606EA02263543056070BD22
:101580004163704781637047C1637047016470476E
:101590000A460021018B4FF68F73194011430183D6
:1015A00070470A460021018B48F6FF7319404FF639
:1015B000FF7303EA02231943018370470A4600219F
:1015C000818B4FF68F7319401143818370470A4610
:1015D0000021818B48F6FF7319404FF6FF7303EA31
:1015E000022319438183704721B1828842F00102AE
:1015F000828004E082884FF6FE731A408280704732
:101600000A460021018B4FF6F773194011430183FD
:1016100070470A460021018B4FF2FF7319404FF6C5
:10162000FF7303EA02231943018370470A4600212E
:10163000818B4FF6F77319401143818370470A4637
:101640000021818B4FF2FF7319404FF6FF7303EABD
:1016500002231943818370470A460021018B4FF60C
:10166000FB7319401143018370470A460021018B27
:101670004FF6FF3319404FF6FF7303EA0223194375
:10168000018370470A460021818B4FF6FB73194096
:101690001143818370470A460021818B4FF6FF3347
:1016A00019404FF6FF7303EA022319438183704701
:1016B0000A460021018B4FF67F73194011430183C5
:1016C00070470A460021018BC1F30E014FF6FF73EC
:1016D00003EA02231943018370470A460021818BE4
:1016E0004FF67F7319401143818370470A460021EA
:1016F000818BC1F30E014FF6FF7303EA02231943F6
:10170000818370470A460021018C4FF6FD73194012
:101710001143018470470A460021018C4FF6F7738C
:1017200019401143018470470A460021018C4FF68D
:10173000DF7319404FF6FF7303EA02131943018464
:1017400070470A460021018C4FF6FF5319404FF6AF
:10175000FF7303EA02231943018470470A460021FC
:10176000018C4DF6FF7319404FF6FF7303EA023305
:1017700019430184704702894FF6F7731A400281BA
:1017800002890A430281704730B5002301248C404E
:10179000A3B2048C9C430484048C02FA01F5ADB21C
:1017A0002C43048430BD30B5002304248C40A3B204
:1017B000048C9C430484048C02FA01F5ADB22C43E2
:1017C000048430BD21B1828842F00402828004E0AA
:1017D00082884FF6FB731A4082807047828B4FF2EB
:1017E000FF331A408283828B4FF6FF7303EA012393
:1017F0001A4382837047F0B50C461546002100223B
:101800000026078C4EF6FF7C07EA0C070784818BC5
:10181000028C4FF6FF7707EA043640F6FF4739405F
:101820004FF6FF7707EA052739434FF6FF7707EAB8
:101830000337394347F6FF573A4046F480573A4357
:1018400081830284F0BD828B4FF6F3731A4082834A
:10185000828B0A4382837047F0B50C4615460021FF
:1018600000220026078C4FF6FF6C07EA0C0707845E
:10187000818B028C4FF6FF7707EA04264FF60C7730
:1018800039404FF6FF7707EA03172F4339434FF2EA
:10189000FF573A4046F480773A4381830284F0BD93
:1018A000028B4FF2FF331A400283028B4FF6FF7315
:1018B00003EA01231A4302837047F0B50C4615462C
:1018C000002100220026078C4FF6EF7C07EA0C0768
:1018D0000784018B028C4FF6FF7707EA041640F667
:1018E000FF4739404FF6FF7707EA033739434FF692
:1018F000FF7707EA052739434FF65F773A4046F00E
:1019000010073A4301830284F0BD028B4FF6F37354
:101910001A400283028B0A4302837047F0B50C46DB
:10192000154600210022068C4FF6FE773E400684C5
:10193000018B028C4FF60C7631407E1C06EA0316B2
:101940002E4331434FF6F576324044F001063243E0
:1019500001830284F0BD70B505460C46208850B95D
:101960002389A28861882846FFF7D8FFE1882846A6
:10197000FFF7CBFF25E0208804280AD12389A2881D
:1019800061882846FFF799FFE1882846FFF788FF1E
:1019900017E0208808280AD12389A2886188284670
:1019A000FFF75AFFE1882846FFF74DFF09E023893A
:1019B000A28861882846FFF71EFFE1882846FFF7C6
:1019C0000DFF70BD00210180418001218180002137
:1019D000C180018170472DE9F04105460C46002683
:1019E0000127608808B9022600E00026A0880128A7
:1019F00001D1022700E001272088A0B92389A2880D
:101A000061882846FFF78AFFE1882846FFF77DFFB7
:101A100023893A4631462846FFF74FFFE18828469A
:101A2000FFF73EFF13E02389A28861882846FFF76D
:101A300044FFE1882846FFF733FF23893A463146C1
:101A40002846FFF76BFFE1882846FFF75EFFBDE8F9
:101A5000F0810146486B70470146886B704701462C
:101A6000C86B70470146086C70471AB183890B43F5
:101A7000838102E083898B43838170478182704731
:101A800002460020138A0B400BB1012000E0002029
:101A90007047CA430282704730B5024600200023D7
:101AA0000024158A05EA0103958905EA010413B1AA
:101AB0000CB1012000E0002030BDCA430282704713
:101AC00041EA0203A0F8483070471AB183890B43FA
:101AD000838102E083898B438381704721B18288AF
:101AE00042F00802828004E082884FF6F7731A40C1
:101AF0008280704701894FF6F8721140018170476A
:101B00000A46002101894FF68F7319401143018164
:101B1000704730B504460D4629462046FFF7F0FFD2
:101B2000208940F00700208130BD2DE9F0410446B6
:101B30000D4616461F46602D06D13B460122314612
:101B40002046FFF7BAFE05E03B460122314620461B
:101B5000FFF7E4FE29462046FFF7D2FF208940F038
:101B600007002081BDE8F08130B50C4600210189D5
:101B7000C9B24FF6FF7505EA0325154325432943EE
:101B8000018130BD2DE9F04105460E4617469846C5
:101B9000002443463A4631462846FFF7E5FF2C89A4
:101BA0004FF6F870044044F007044FF68F7004407D
:101BB00044F070042C81BDE8F081F0B504460D4678
:101BC00016461F463B46324629462046FFF7CCFFC5
:101BD000208940F480402081F0BD82884FF68F73C9
:101BE0001A40828082880A438280704702894FF6B9
:101BF000F8731A40028102890A4302817047028900
:101C00004FF67F731A40028102890A4302817047AE
:101C1000F0B50C4615461E4600210022002301891E
:101C2000028B038C4FF6F877394021434FF6FC477F
:101C30003A4040F201173A434FF6DD773B404FF60A
:101C4000FF7707EA06172F433B4301810283038492
:101C5000F0BD21B1828842F08002828004E0828857
:101C60004FF67F731A4082807047A0F8501070477B
:101C700010B50446F848844209D101218803FFF7D2
:101C8000C9F900214FF48040FFF7C4F918E0F34888
:101C9000844209D101214804FFF7C9F900214FF41A
:101CA0000030FFF7C4F90BE0ED48844208D1012170
:101CB0008804FFF7BCF900214FF48020FFF7B7F943
:101CC00010BD2DE9F0418CB004460D460027B84602
:101CD0000026206820F001002060666826F4405647
:101CE000A86806436660266841F20C608643E9688E
:101CF000686808432969084306432660A66826F4F5
:101D0000407668690643A6606846FFF731F8D24816
:101D1000844202D1DDF8248007E0D048844202D119
:101D2000DDF8288001E0DDF82C80206800F4004018
:101D300060B14FEA48002968B0FBF1F74FEA48006C
:101D40002968B0FBF1F201FB120607E02868B8FB36
:101D5000F0F72868B8FBF0F100FB11862868B6EBB5
:101D6000500F00D37F1C206800F4004038B1C7F347
:101D700042064FF6F07107EA010040EA0607A78124
:101D80000CB0BDE8F0814FF41651016000214160B4
:101D90008160C1600C21016100214161704710B573
:101DA0000022426822F47062D1E9003423438C6837
:101DB0002343CC6823431A43426010BD00210160D5
:101DC00041608160C160704721B1026842F0010248
:101DD000026003E0026822F00102026070471AB15B
:101DE00003680B43036002E003688B4303607047A2
:101DF00021B1026842F40042026003E0026822F46A
:101E000000420260704721B1826842F40062826041
:101E100003E0826822F400628260704721B1426868
:101E200042F40022426003E0426822F40022426051
:101E3000704721B1426842F48022426003E0426868
:101E400022F48022426070471AB143680B4343601A
:101E500002E043688B434360704721B1426842F41B
:101E60000042426003E0426822F400424260704750
:101E700021B1426842F40002426003E0426822F469
:101E8000000242607047426902F07F42426142694B
:101E90000A4342617047028A02F47F420282028A48
:101EA0000A430282704721B1026842F002020260D6
:101EB00003E0026822F0020202607047826822F4A6
:101EC0004012826082680A438260704721B1426892
:101ED00042F48012426003E0426822F480124260C1
:101EE0007047426822F4C002426042680A4342607E
:101EF0007047C1F30802028570470146888CC0F321
:101F000008007047426822F07F424260426842EA1D
:101F100001624260704721B1026842F400520260DF
:101F200003E0026822F4005202607047026822F463
:101F30000062026002680A4302607047426822F051
:101F40001002426042680A4342607047426822F0D1
:101F50002002426042680A434260704721B14268F1
:101F600042F48042426003E0426822F480424260D0
:101F7000704721B1826842F00802826003E0826803
:101F800022F0080282607047028AD2B20282028A7C
:101F900042EA01220282704721B1826842F02002A7
:101FA000826003E0826822F020028260704721B1E3
:101FB000826842F01002826003E0826822F0100220
:101FC00082607047826822F460228260826842EAFE
:101FD000414282607047426922F07F424261426919
:101FE00042EA016242617047826822F00402826024
:101FF00082680A438260704721B1826842F002021F
:10200000826003E0826822F002028260704721B1A0
:10201000826842F48042826003E0826822F4804257
:1020200082607047826822F40042826082680A43BC
:1020300082607047026822F078720260026842EAA9
:10204000415202607047026822F4F812026002688E
:1020500042EA0142026070470038014000440040FB
:10206000004800401AB183680B43836002E0836834
:102070008B4383607047826822F4005282608268DA
:102080000A4382607047F0B503460024002600250D
:1020900000201846C1F30724CEB2012707FA06F53F
:1020A000022C01D1001D02E0032C00D108301AB12E
:1020B00007682F43076002E00768AF430760F0BD81
:1020C0001AB1038B0B43038302E0038B8B4303831F
:1020D0007047826822F48052826082680A4382607C
:1020E000704702460020D3690B400BB1012000E08D
:1020F000002070470162704770B502460B4600240D
:10210000002100250020C3F30725D9B2012606FAD5
:1021100001F1012D02D11668314006E0022D02D1F5
:102120005668314001E0966831401C0C012606FAE1
:1021300004F4D669344011B10CB1012000E0002054
:1021400070BD10B5002200230A0C012404FA02F32A
:10215000036210BD01460023002204E0885C18449D
:10216000C3B2501CC2B2FE4800780A308242F5DB8E
:10217000FB4800780A30085C984207D1F84800789C
:102180000B30085C162801D1002070474FF0FF305B
:10219000FBE770B505460C46F248007820B10128EF
:1021A00013D0022869D142E001222146284603F0DB
:1021B0000DF800B962E02078682800D05EE00120C8
:1021C000E8490870E849087000BF0922611C2846E8
:1021D00002F0FCFF68B91421E448008802F01FFFF8
:1021E00030B10020DF490870DF490870DF490880FE
:1021F00044E0E079682803D1607A0C30FF2807DBDF
:102200000020D8490870D8490870D849088035E0BE
:10221000607AD34908700220D24908700020D24960
:102220000870D24908800120CF49087000BFCC480F
:102230000278921C04F10A01284602F0C7FF68B92F
:102240001421CA48008802F0EAFE30B10020C549D6
:102250000870C5490870C54908800FE00020C149D1
:102260000870C1490870C14908802046FFF772FF15
:1022700008B1002070BD0120FCE700BF00BF0020B6
:10228000F8E70246A1F133031B06180CA2F1330351
:10229000DBB2184370472DE9F041044600250026C3
:1022A0000027A07A323809287ED2DFE800F0458482
:1022B0008484840515253500E17BA07BFFF7E1FFD1
:1022C0004FF6AF6100EA010505F13300A07333203A
:1022D00000EB1520E0736FE0E17BA07BFFF7D1FFFF
:1022E0004FF6AF6100EA010505F13300A07333201A
:1022F00000EB1520E0735FE0E17BA07BFFF7C1FFFF
:102300004FF6AF6100EA010505F13300A0733320F9
:1023100000EB1520E0734FE0E17BA07BFFF7B1FFFE
:102320004FF6F77100EA010505F13300A073332081
:1023300000EB1520E0733FE0617D207DFFF7A1FFFA
:102340004FF6AF6100EA010505F133002075332037
:1023500000EB15206075E17DA07DFFF792FF4FF641
:10236000AF6100EA010505F13300A075332000EBF1
:102370001520E075617E207EFFF783FF4FF6AF6189
:1023800000EA010505F133002076332000EB15202B
:102390006076E17EA07EFFF774FF4FF6F77100EAEA
:1023A000010505F1330000E005E0A076332000EBE5
:1023B0001520E07600E000BF00BF002603E0A05D2E
:1023C0003844C7B2761C664800780A308642F6DB8D
:1023D000634800780A302754BDE8F0817FB5089C37
:1023E0000A210098B0FBF1F501FB15000A250099C0
:1023F000B1FBF5F1B1FBF5F605FB161140EA011052
:102400003330107064210098B0FBF1F00A21B0FB6A
:10241000F1F501FB15004FF47A750099B1FBF5F168
:102420000A25B1FBF5F605FB161140EA0110333021
:10243000187042F210710098B0FBF1F00A21B0FB65
:10244000F1F501FB15004A4D0099B1FBF5F140EAA9
:102450000110333020709DF80500012803D1207849
:1024600040F0800020707FBD2DE9F047A2F13309D4
:10247000C9F30214A2F1030909F00F05A1F1330910
:10248000C9F30316A1F1030909F00F07A0F13309FD
:10249000C9F3031CA0F1030909F00F08DFF8D0907D
:1024A00004FB09F940F2712A15FB0AFA09EB0A1933
:1024B00006EB460ACAEBC61A09EBCA0907EBC70ABC
:1024C0000AEB071A09EB8A090CEB8C0A09EB4A099B
:1024D000C144C3F8009093F8049009F1010983F80E
:1024E0000490A2F13309C9F3C01983F80590BDE83F
:1024F000F08701460020704730B5034610791C79FB
:10250000A04205DD10790C79A04201DD002030BD2C
:1025100010791C79A04245D110790C79A04241DD97
:10252000186828B1106818B1587908B9507908B1FD
:102530000020ECE710681C68A0421ED2186800EB6F
:10254000800000016424B0FBF4F01468A04211D9AB
:10255000186800EB800000016424B0FBF4F00AE08E
:1025600026000020250000206C0000206E000020C6
:10257000A08601001068106012E0106800EB800077
:1025800000016424B0FBF4F01C68A04206D9642466
:10259000186860435024B0FBF4F000E0106810604D
:1025A0000120B4E710790C79A0423BD110791C7955
:1025B000A04237DD086828B1106818B1487908B919
:1025C000507908B10020A2E710680C68A04214D22C
:1025D000086800EB800000016424B0FBF4F014688C
:1025E000A04207D9086800EB800000016424B0FB1A
:1025F000F4F000E01068106012E0106800EB80005A
:1026000000016424B0FBF4F00C68A04206D96424F5
:10261000086860435024B0FBF4F000E010681060DC
:10262000012074E710791C79A0426AD110790C79E5
:10263000A04266D1186848B1086838B1106828B15E
:10264000587918B9487908B9507908B100205EE77F
:1026500018680C68A04201D3186800E00868146884
:10266000A0421FD2106800EB800000016424B0FB80
:10267000F4F418680D68A84201D8186800E00868EA
:1026800084420CD318680C68A04201D8186800E096
:102690000868642460435024B0FBF4F000E0106844
:1026A00010602CE018680C68A04201D8186800E09F
:1026B00008681468A04220D918680C68A04201D3A9
:1026C000186800E0086800EB800000016424B0FB9B
:1026D000F4F01468A0420DD918680C68A04201D328
:1026E000186800E0086800EB800000016424B0FB7B
:1026F000F4F000E01068106001E0002007E701201E
:1027000005E7012003E730B504680D682C4415681F
:102710002C440325B4FBF5F303EB430404EBC3049F
:102720000A25B4FBF5F404600B6003EBC304B4FBAF
:10273000F5F4146030BDF8B504460026E07A32287E
:1027400006D0342873D0352872D0362871D142E1B2
:10275000227CE17BA07BFE4BFFF786FEFC484079A4
:1027600028B9FC48407910B9FB48407900B1F8BD60
:10277000F748006828B1F748006810B1F6480068CB
:1027800000B9F4E7F3480068F3490968884202D3C6
:10279000F048006801E0F0480068ED4909688842A7
:1027A00002D8EB4800680AE0EA480068EA4909688C
:1027B000884202D3E748006801E0E748006800EB80
:1027C000800000016421B0FBF1F1E2480068E24AB8
:1027D0001268904202D8DF48006801E0DE480068D5
:1027E000DB4A1268904202D3D94800680AE0D9480F
:1027F0000068D94A1268904202D8D648006801E0C1
:10280000D5480068814200D8B1E7D1480068D14975
:10281000096888420ED3CF480068CF4909688842CA
:1028200008D3CD4ACB49CA48FFF76DFF5BE082E091
:10283000A9E0F8E0C6480068C749096888420BD398
:10284000C5480068C3490968884205D3C14AC249DE
:10285000BF48FFF758FF46E0BE480068BC4909681A
:1028600088420BD3BA480068BB490968884205D33F
:10287000B94AB749B748FFF746FF34E0B5480068A2
:10288000B549096888420BD3B3480068B049096864
:10289000884205D3AE4AB049AE48FFF734FF22E084
:1028A000AD480068AA49096888420BD3A848006867
:1028B000A8490968884205D3A64AA549A648FFF752
:1028C00022FF10E0A4480068A249096888420AD3A0
:1028D000A04800689E490968884204D39C4A9D49E3
:1028E0009D48FFF710FF04F11000431E821E009068
:1028F000974803C8FFF772FD04F11300431E821EC0
:102900000090934803C8FFF769FD04F11600431EC9
:10291000821E00908E4803C8FFF760FD002504E08A
:10292000605D3044C6B2681CC5B2172DF8DBE67591
:102930001620207677E0227CE17BA07B844BFFF79A
:1029400093FD207C333800F0800000B10FE7804A0F
:1029500081498048FFF7D0FDA0B104F11000431E6B
:10296000821E00907A4803C8FFF738FD002504E076
:10297000605D3044C6B2681CC5B2112DF8DB6674C8
:102980001620A0744FE0227CE17BA07B714BFFF707
:102990006BFD207C333800F0800000B1E7E66D4A23
:1029A0006D496B48FFF7A8FDA0B104F11000431E6C
:1029B000821E0090674803C8FFF710FD002504E061
:1029C000605D3044C6B2681CC5B2112DF8DB667478
:1029D0001620A07427E0227CE17BA07B5E4BFFF7F2
:1029E00043FD207C333800F0800000B1BFE65A4A36
:1029F00058495748FFF780FDA0B104F11000431E6D
:102A0000821E0090544803C8FFF7E8FC002504E04C
:102A1000605D3044C6B2681CC5B2112DF8DB667427
:102A20001620A07400BF00BF00BFA0E670B5054629
:102A3000332600241DE0494810F83400A97A884262
:102A400015D1464800EBC4004078E97A88420ED19F
:102A5000424800EBC4008078297B884207D13F4878
:102A600000EBC400C078697B884200D103E0601CA1
:102A7000C4B2B442DFDB00BFB44221DA374800EB16
:102A8000C4004068AFF25131884200D170BD334874
:102A900000EBC4004068AFF2A551884200D1F5E7D1
:102AA0002E4800EBC4004068AFF61501884200D103
:102AB000ECE72A4800EBC40041682846884700E05C
:102AC000E4E700BFE2E770B50546112600241DE0EB
:102AD000234810F83400A97A884215D1204800EB29
:102AE000C4004078E97A88420ED11D4800EBC4004A
:102AF0008078297B884207D1194800EBC400C07850
:102B0000697B884200D103E0601CC4B2B442DFDBC1
:102B100000BFB44206DA124800EBC4004168284600
:102B2000884700E070BD00BFFCE770B50446A07B9D
:102B3000342802D100200B490870A07B332802D131
:102B4000FF20084908700748017807480EE0000098
:102B5000400000204800002050000020E8530008FA
:102B60006053000827000020141F030801F0F3FD44
:102B700010B9D420207201E09420207200206072ED
:102B8000A072002505E0A07A615D0844A072681C6F
:102B9000C5B20A2DF7DB1620E0720020F949087053
:102BA0000C22F949204602F033FBF74802F0D1FA33
:102BB00010B9F64802F050FB0C22F549204602F00D
:102BC00027FBF34802F0C5FA48B90022F149F24860
:102BD000FFF759FA0122F149EF48FFF754FA70BDA7
:102BE000F0B5024600BFA1F13307C7F30313CF1EB0
:102BF00007F00F04A2F13307C7F30315D71E07F040
:102C00000F064FF47A7713FB07F704EBC40C0CEBB9
:102C1000041C07EB8C0705EB850C07EB4C07B81978
:102C2000F0BD2DE9F0410446002500260027E17B98
:102C3000A07BFFF7D5FF0546617C207CFFF7D0FF26
:102C40000646B5421FDDB5F52F6F1CDAB6F5966F57
:102C500019DDD3480560D3480660A17BD24801F056
:102C60007AFDE17BD048001D01F075FD217CCE4846
:102C7000083001F070FD617CCB480C3001F06BFD39
:102C80009420207201E0D420207200206072A07293
:102C9000002704E0A07AE15D0844A0727F1C0A2F9F
:102CA000F8DB1620E0720020B64908700C22B64905
:102CB000204602F0ADFAB44802F04BFA10B9B3481E
:102CC00002F0CAFA0C22B249204602F0A1FAB0483A
:102CD00002F03FFA48B90022AE49AF48FFF7D3F9F6
:102CE0000122AE49AC48FFF7CEF9BDE8F08110B53E
:102CF000014600204FF47A7291FBF2F2F02303EACE
:102D000002124FF47A7391FBF3F403FB141364245F
:102D100093FBF4F303F00F031A443332D0B210BD27
:102D200030B5014600204FF47A7291FBF2F302FBBA
:102D30001312642392FBF3F403FB14220A2392FB85
:102D4000F3F2F02303EA02124FF47A7391FBF3F4E7
:102D500003FB1413642493FBF4F504FB15330A24DA
:102D600093FBF4F504FB153303F00F031A443332DD
:102D7000D0B230BD70B504460025912020720C20E1
:102D800060724FF42F60FFF7CBFFA0734FF42F60FA
:102D9000FFF7ADFFE0734FF49660FFF7C1FF2074BB
:102DA0004FF49660FFF7A3FF60747D480068FFF75B
:102DB000B7FFA0747A480068FFF799FFE07479487C
:102DC0000068FFF7ADFF207576480068FFF78FFFBA
:102DD00060750020A07500BF04E0A07D615D08441F
:102DE000A0756D1C162DF8DB1620E0750C206549CA
:102DF00008700C226449204602F00AFA624802F088
:102E0000A8F910B9614802F027FA18226049204653
:102E100002F0FEF95E4802F09CF948B900225D49D3
:102E20005D48FFF730F901225C495B48FFF72BF959
:102E300070BD70B50446002540F698005B490860F7
:102E40005B4908605B490860FF205B4908700846E1
:102E500001785548143001F07EFC40F62E105049A0
:102E6000086040F2BC704F4908604D480068FFF7A9
:102E700057FF064631464C4801F06DFC4848006853
:102E8000FFF735FF064631464748001D01F063FC59
:102E900044480068FFF744FF064631464248083080
:102EA00001F059FC3F480068FFF721FF0646314614
:102EB0003D480C3001F04FFC9420207200206072DD
:102EC000A07200BF04E0A07A615D0844A0726D1C8E
:102ED0000A2DF8DB1620E07200202A4908700C2227
:102EE0002949204602F094F9274802F032F910B936
:102EF000264802F0B1F90C222549204602F088F953
:102F0000234802F026F948B9002222492248FFF757
:102F1000BAF8012221492048FFF7B5F870BD70B515
:102F20000022002300211F4C2468A4F596641C4D48
:102F30002D681C4E3668AD1B94FBF5F4621C184CD2
:102F40002468C4F52F64164D2D68164E3668AD1BE7
:102F500094FBF5F4631C124C2468A04248DDB0F5E4
:102F60002F6F45DC0E4C24680E4D2D68641B0C4DF4
:102F70002D682C44844221DB094C2468041BA0EBFF
:102F8000440070BD26000020F809002000480040E1
:102F900098070020050105000044004007010700D4
:102FA0002C00002030000020001F03083400002007
:102FB000380000203C00002027000020012115E0FF
:102FC000F74C2468F74D2D68651B4C1CF44E366891
:102FD00005FB0464844208DBF14C2468F14D2D6844
:102FE000651B4C1C05FB140070BD491C9942E7DBB6
:102FF000EC4C2468A0422CDAB0F5966F29DBE84C43
:103000002468E84D2D68641BE64D2D682C1B844216
:1030100005DCE44C2468241A00EB4400E4E70121B9
:1030200015E0DF4C2468DF4D2D68651B4C1CDD4E20
:10303000366805FB1464844208DCD94C2468D94DF9
:103040002D68651B4C1C05FB0400CDE7491C914213
:10305000E7DB00BFC8E770B502460B0901F00F04BB
:10306000150902F00F06032B0FDB0C2B0DDC032CD4
:103070000BDB0C2C09DC032D07DB0C2D05DC032EF0
:1030800003DB0C2E01DC012070BD0020FCE770B5D5
:10309000044600260025C448007800B970BD207A97
:1030A00091287DD1A07A3328FBD1207B3428F8D118
:1030B000607B3528F5D1E07A322877D1E17BA07B9F
:1030C000FFF7C9FF08B3E17BA07BFFF789FDB74994
:1030D000086008460068B2490968884205DCB348C0
:1030E0000068B049096888420FDAB0480068FFF705
:1030F00016FFAE49086008460068FFF711FEA0738E
:10310000AA480068FFF7F3FDE073617C207CFFF7BD
:10311000A2FF08B3617C207CFFF762FDA449086030
:10312000084600689E490968884205DCA048006896
:103130009C49096888420FDA9D480068FFF7EFFE56
:103140009B49086008460068FFF7EAFD207498482C
:103150000068FFF7CCFD6074E17CA07CFFF77BFF8B
:10316000F8B1E17CA07CFFF73BFD9249086008467E
:1031700000688B490968884205DC8E4800688949E7
:103180000968884212DA8B480068FFF7C8FE89494F
:10319000086008460068FFF7C3FDA074854801E099
:1031A00092E003E00068FFF7A2FDE074E07A3428C3
:1031B00026D1E17BA07BFFF74EFF08B3E17BA07B2C
:1031C000FFF70EFD794908600846006874490968F0
:1031D000884205DC754800687249096888420FDA40
:1031E00072480068FFF79BFE704908600846006857
:1031F000FFF796FDA0736D480068FFF778FDE07358
:10320000E07A352826D1E17BA07BFFF724FF08B3C5
:10321000E17BA07BFFF7E4FC654908600846006895
:103220005F490968884205DC614800685D490968B2
:1032300088420FDA5E480068FFF771FE5C4908605B
:1032400008460068FFF76CFDA07359480068FFF757
:103250004EFDE073E07A362826D1E17BA07BFFF7B4
:10326000FAFE08B3E17BA07BFFF7BAFC5149086086
:10327000084600684A490968884205DC4D480068EC
:103280004849096888420FDA4A480068FFF747FE54
:103290004849086008460068FFF742FDA0734548AA
:1032A0000068FFF724FDE073002504E0605D304412
:1032B000C6B2681CC5B2404800780A308542F5DBCA
:1032C0003D4800780A30265400BFE7E610B50446B2
:1032D00001203A49087000203949087039490880AE
:1032E0002046FFF7D4FE10BD70B504460026002529
:1032F000E07A322806D0342851D0352874D03628C8
:1033000073D1DDE0912020720A20607227480068A6
:1033100023490968884208DC244800682149096873
:10332000884202DB2148006801E040F698001F490E
:10333000086008460068FFF7F3FCA0731B480068AC
:10334000FFF7D5FCE0731A48006815490968884200
:1033500008DC1748006813490968884202DB1448F2
:10336000006801E040F698001149086008460068CE
:10337000FFF7D6FC20740E480068FFF7B8FC6074B5
:103380000C4800680649096888421DDC0948006845
:1033900004490968884217DB0648006816E031E0F6
:1033A0002C000020300000202700002034000020E6
:1033B000380000203C0000202600002024000020CF
:1033C0006D0000207000002040F69800FE49086063
:1033D00008460068FFF7A4FCA074FB480068FFF7EC
:1033E00086FCE074002506E03BE098E0605D304438
:1033F000C6B2681CC5B2142DF8DB267516206075A0
:10340000012070BDF1480068F1490968884208DC74
:10341000EE480068EF490968884202DBEB48006823
:1034200001E040F69800E9490860912020720620EA
:10343000607208460068FFF773FCA073E3480068F9
:10344000FFF755FCE073002504E0605D3044C6B230
:10345000681CC5B2102DF8DB26741620607401209C
:10346000CFE7DD480068DA490968884208DCDA48B5
:103470000068D8490968884202DBD748006801E043
:1034800040F69800D44908609120207206206072AE
:1034900008460068FFF744FCA073CF480068FFF7B8
:1034A00026FCE073002504E0605D3044C6B2681C71
:1034B000C5B2102DF8DB2674162060740120A0E739
:1034C000C1480068C2490968884208DCBE480068F3
:1034D000C0490968884202DBBB48006801E040F649
:1034E0009800B94908609120207206206072084651
:1034F0000068FFF715FCA073B3480068FFF7F7FBFF
:10350000E073002504E0605D3044C6B2681CC5B2BB
:10351000102DF8DB267416206074012071E700205E
:103520006FE72DE9F041AD4801F06BF9AC49087047
:10353000AA48143801F065F90446A848103801F08B
:1035400060F90546A5480C3801F05BF90646A3482A
:10355000083801F056F90746FF2C0ED1FF2D0CD18B
:10356000FF2E0AD1FF2F08D140F62E10984908608F
:1035700040F2BC70974908600BE029462046FFF7EF
:103580002FFB9349086039463046FFF729FB9149E4
:103590000860BDE8F08170B5C82092490860924883
:1035A00048608E480C3001F029F90546681C48B97E
:1035B00050208C4988600846816888480C3001F0AA
:1035C000CAF801E0874885608448083001F016F9A0
:1035D0000446601CA0B98348406882498968B0FBF2
:1035E000F1F000EB4000C0000A21B0FBF1F07D4992
:1035F000C8600846C1687948083001F0ACF801E0BD
:103600007848C46070BD0021C37A322B06D0342BB9
:1036100020D0352B30D0362B52D13FE0037C333BCA
:1036200003F022030374C37C333B03F02203C3740F
:10363000837D333B03F022038375002104E0435C68
:103640001344DAB24B1CD9B21729F8DBC275162322
:10365000037635E0037C333B03F02203037400213F
:1036600004E0435C1344DAB24B1CD9B21129F8DBF5
:1036700042741623837423E0037C333B03F022035C
:103680000374002104E0435C1344DAB24B1CD9B24A
:103690001129F8DB42741623837411E0037C333B59
:1036A00003F022030374002104E0435C1344DAB204
:1036B0004B1CD9B21129F8DB42741623837400BF66
:1036C00000BF704770B50446D4202072002060729D
:1036D000A072002505E0A07A615D0844A072681C14
:1036E000C5B20A2DF7DB1620E07200203F490870B2
:1036F0000C223F49204601F08BFD3D4801F029FD99
:1037000010B93C4801F0A8FD0C223B49204601F0CD
:103710007FFD394801F01DFD48B90022374938487E
:10372000FEF7B1FC012237493548FEF7ACFC70BD0D
:1037300070B504460026D420207200206072A0726A
:10374000002505E0A07A615D0844A072681CC5B23E
:103750000A2DF7DB1620E0720020244908700C22A5
:103760002349204601F054FD214801F0F2FC10B934
:10377000204801F071FD0C221F49204601F048FD50
:103780001D4801F0E6FC48B900221C491C48FEF720
:103790007AFC01221B491A48FEF775FC70BD3EB544
:1037A00004461048C068019000208DF8090004F11B
:1037B0001000431E821E0090DDE90101FEF70EFE9F
:1037C0009120207207201FE03C00002034000020E0
:1037D0002C0000203000002038000020141F0308B7
:1037E00027000020F80300200065040026000020C8
:1037F000F809002000480040980700200501050056
:10380000004400400701070060720020607400253A
:1038100005E0607C615D08446074681CC5B2112DD0
:10382000F7DB1620A0740720F84908701322F84926
:10383000204601F0EDFCF64801F08BFC10B9F5488C
:1038400001F00AFD1322F449204601F0E1FCF248A0
:1038500001F07FFC48B90022F049F148FEF713FC63
:103860000122F049EE48FEF70EFC3EBD70B504465D
:103870009120207206206072EB498868FFF750FAA9
:10388000A073E9498868FFF732FAE07300202074DA
:10389000002505E0207C615D08442074681CC5B2E9
:1038A000102DF7DB162060740620D849087012220C
:1038B000D749204601F0ACFCD54801F04AFC10B9CC
:1038C000D44801F0C9FC1222D349204601F0A0FCE3
:1038D000D14801F03EFC48B90022D049D048FEF75B
:1038E000D2FB0122CF49CE48FEF7CDFB70BD70B5AB
:1038F00004469120207206206072CB490868FFF7C9
:103900000FFAA073C8490868FFF7F1F9E0730020C7
:103910002074002505E0207C615D08442074681C4B
:10392000C5B2102DF7DB162060740020B74908706F
:103930001222B749204601F06BFCB54801F009FCA2
:1039400010B9B44801F088FC1222B349204601F0B6
:103950005FFCB14801F0FDFB48B90022AF49B04817
:10396000FEF791FB0122AF49AD48FEF78CFB70BD1D
:103970000020AE490871AE490871AE490871704720
:1039800010B5AD4800F03DFFAC490870AA480838B2
:1039900000F037FF0446FF2C03D15A20A8490870D5
:1039A00001E0A748047010BDF0B5044600BFDD1E5D
:1039B00005F00F06303DC5F3031505EB850506EB55
:1039C0004505A04E7543D61E06F00F07303EC6F3E0
:1039D000031606EB860607EB460640F2712716FB38
:1039E00007F605EB0616CD1E05F00F07303DC5F3B3
:1039F000031505EB850507EB450505EBC50707EB4B
:103A0000051506EB8506E51E05F00F07303DC5F3ED
:103A1000031505EB850507EB45057019F0BDF0B5FD
:103A2000059C6425B0FBF5F605FB16050A26B5FBDB
:103A3000F6F706FB17556426B0FBF6F706FB1706EC
:103A40000A27B6FBF7F645EA061533350D706425EF
:103A5000B0FBF5F56426B5FBF6F706FB17550A260D
:103A6000B5FBF6F706FB17556426B0FBF6F66427A0
:103A7000B6FBF7FC07FB1C660A27B6FBF7F645EA20
:103A800006153335157042F21075B0FBF5F5642656
:103A9000B5FBF6F706FB17550A26B5FBF6F706FB4E
:103AA000175542F21076B0FBF6F66427B6FBF7FC2A
:103AB00007FB1C660A27B6FBF7F645EA0615333501
:103AC0001D70604DB0FBF5F56426B5FBF6F706FBFF
:103AD00017550A26B5FBF6F706FB1755594EB0FBEE
:103AE000F6F66427B6FBF7FC07FB1C660A27B6FB55
:103AF000F7F645EA061533352570F0BD2DE9704F10
:103B0000054689469246484600F078FE8046504673
:103B100000F074FE044608F1010008B1601C50B9C1
:103B20002946484600F017FE2946504600F013FE8D
:103B30002846BDE8708F454513D243482844A0EB82
:103B400008003F490978A0FB0130322213EB020B39
:103B500040F1000164220023584601F08FFB064625
:103B600010E0A5EB080036490978A0FB01303222AD
:103B700013EB020B40F1000164220023584601F0D0
:103B80007DFB064634443048844201D9201A00E0C7
:103B9000204604462946484600F0DDFD21465046B1
:103BA00000F0D9FD2046C4E72DE9F84F044623482C
:103BB000007808B9BDE8F88F637C227CE17BA07BAC
:103BC000FFF7F2FE0646E07A3238062872D2DFE8C6
:103BD00000F0720351596169207B342806D04828CF
:103BE0000BD05C2834D0702841D138E0174A111F1F
:103BF0003046FFF783FF06463AE0144A2832111F89
:103C00003046FFF77BFF064632E00000260000202A
:103C1000F809002000480040980700200501050031
:103C20000044004007010700F80300204000002086
:103C30004800002050000020181F03082800002022
:103C40002900002040420F00FFE0F5057420030822
:103C5000FE4A111F3046FFF751FF064608E0FB4AB7
:103C60000832111F3046FFF749FF064600E000BF4B
:103C700000BF72E0F54A283A111F3046FFF73EFFB9
:103C800006466AE0F14A203A111F3046FFF736FF38
:103C9000064662E0ED4A183A111F3046FFF72EFF44
:103CA00006465AE0E94A103A111F3046FFF726FF50
:103CB000064652E050E0637D227DE17CA07CFFF768
:103CC00073FE0746E14A283A111F3846FFF716FFF0
:103CD0000746637E227EE17DA07DFFF765FE80467C
:103CE000DA4A203A111F4046FFF708FF8046637FFB
:103CF000227FE17EA07EFFF757FE8146D34A183A25
:103D0000111F4846FFF7FAFE814694F8213094F8D7
:103D10002020E17FA07FFFF747FE8246CB4A103A82
:103D2000111F5046FFF7EAFE8246637C227CE17B4E
:103D3000A07BFFF739FE06463146C448343800F010
:103D40000AFD07EB0800484400EB0A063146BF486D
:103D5000303800F000FD00E000BF00BFE07A3238EC
:103D6000062860D2DFE800F01F030405060700BF45
:103D700000BF00BF00BF04F11100431E821EC11E20
:103D800000903046FFF74BFE0020A074002505E0B0
:103D9000A07C615D0844A074681C85B2122DF7DB1D
:103DA0001620E07440E004F11100431E821EC11E83
:103DB00000903046FFF733FE04F11500431E821ECB
:103DC000C11E00903846FFF72AFE04F11900431E79
:103DD000821EC11E00904046FFF721FE04F11D0027
:103DE000431E821EC11E00904846FFF718FE04F1D4
:103DF0002100431E821EC11E00905046FFF70FFE99
:103E0000002084F82200002507E094F82200615D7C
:103E1000084484F82200681C85B2222DF5DB1620A8
:103E200084F8230000E000BF00BF00BFC2E62DE918
:103E3000F84F04468648007808B9BDE8F88F637DDE
:103E4000227DE17CA07CFFF7AFFD07467F4A643A04
:103E50007E49A0393846FFF751FE074604F11500A8
:103E6000431E821EC11E00903846FFF7D8FD637EB8
:103E7000227EE17DA07DFFF797FD8046734A603A80
:103E800072499C394046FFF739FE804604F119001B
:103E9000431E821EC11E00904046FFF7C0FD637F97
:103EA000227FE17EA07EFFF77FFD8146674A5C3A74
:103EB000664998394846FFF721FE814604F11D0006
:103EC000431E821EC11E00904846FFF7A8FD94F8CD
:103ED000213094F82020E17FA07FFFF765FD824626
:103EE0005A4A583A594994395046FFF707FE8246D4
:103EF00004F12100431E821EC11E00905046FFF7B0
:103F00008EFD637C227CE17BA07BFFF74DFD0646A6
:103F100031464E48A43800F01EFC07EB0800484428
:103F200000EB0A0631464948683800F014FC04F1F9
:103F30001100431E821EC11E00903046FFF76FFD28
:103F4000002084F82200002507E094F82200615D3B
:103F5000084484F82200681C85B2222DF5DB162067
:103F600084F8230000BF68E770B50446394800783C
:103F7000A4FB00500646642200232846314601F087
:103F80007DF970BDF8B504463148007800B9F8BD38
:103F9000E07A322871D1637C227CE17BA07BFFF741
:103FA00003FD06463046FFF7DFFF064604F1110029
:103FB000431E821EC11E00903046FFF730FD637D18
:103FC000227DE17CA07CFFF7EFFC06463046FFF740
:103FD000CBFF064604F11500431E821EC11E009051
:103FE0003046FFF71CFD637E227EE17DA07DFFF75A
:103FF000DBFC06463046FFF7B7FF064604F1190022
:10400000431E821EC11E00903046FFF708FD637FED
:10401000227FE17EA07EFFF7C7FC06463046FFF711
:10402000A3FF064604F11D00431E821EC11E009020
:104030003046FFF7F4FC94F8213094F82020E17F1B
:10404000A07FFFF7B1FC0646304605E0A420030838
:104050002800002029000020FFF786FF064604F113
:104060002100431E821EC11E00903046FFF7D7FC80
:10407000002084F82200002508E00DE094F82200DA
:10408000615D084484F82200681C85B2222DF5DBAE
:10409000162084F8230021E0637C227CE17BA07B56
:1040A000FFF782FC06463046FFF75EFF064604F146
:1040B0001100431E821EC11E00903046FFF7AFFC68
:1040C0000020A074002505E0A07C615D0844A07478
:1040D000681C85B2122DF7DB1620E07400BF56E78E
:1040E00070B50446A07BFF2813D1A07BFE49087061
:1040F00008460178FD4800F02EFBFC4800F081FBEB
:10410000F9490978884201D1942000E0D420207236
:104110001FE0A07BD8B9FCF77AF8F448E830FCF748
:10412000B3F8FCF77FF8A07BEF49087008460178E8
:10413000EE4800F010FBED4800F063FBEA49097817
:10414000884201D1942000E0D420207201E0D420E4
:10415000207200206072A072002505E0A07A615DE7
:104160000844A072681C85B20A2DF7DB1620E072A5
:104170000020DF4908700C22DE49204601F048F893
:10418000DC4800F0E6FF10B9DB4801F065F80C22CE
:10419000DA49204601F03CF8D84800F0DAFF48B987
:1041A0000022D749D748FDF76EFF0122D649D548EE
:1041B000FDF769FF70BD2DE9F0410446E07B00F09A
:1041C0000F00E17B090901EB810100EB4100A17BBC
:1041D00001F00F01A27B120902EB820201EB420106
:1041E00001EBC10202EB011100EB8100C5B2002D11
:1041F00003DDFF2D01DC012000E00020074697B120
:104200002946BA48083800F0A6FAC0480570B748F1
:10421000083800F0F6FAA84202D19420207204E097
:10422000D420207201E0D420207200206072A0729D
:10423000002605E0A07AA15D0844A072701C86B239
:104240000A2EF7DB1620E0720020A94908700C2224
:10425000A849204600F0DCFFA64800F07AFF10B91C
:10426000A54800F0F9FF0C22A449204600F0D0FF39
:10427000A24800F06EFF48B90022A149A148FDF70D
:1042800002FF0122A0499F48FDF7FDFEBDE8F08135
:1042900070B50446A07B08B9012000E00020064666
:1042A0003EB3FF21914800F056FAFF208E49087076
:1042B0005A218E48083800F04EFA5A209349087067
:1042C000FBF7A5FF8948E830FBF7DEFFFBF7AAFF05
:1042D0008648083800F095FA5A2807D1834800F03C
:1042E00090FAFF2802D19420207204E0D42020729A
:1042F00001E0D420207200206072A072002505E049
:10430000A07A615D0844A072681C85B20A2DF7DBB3
:104310001620E0720020764908700C22754920466C
:1043200000F076FF734800F014FF10B9724800F0F7
:1043300093FF0C227149204600F06AFF6F4800F09D
:1043400008FF48B900226E496E48FDF79CFE012225
:104350006D496C48FDF797FE70BD70B504460026A8
:104360000025E17BA07BFEF73BFC064640F698006B
:10437000864221DD66480660A17B5C48183800F063
:10438000EAF9E17B5948143800F0E5F95748183844
:1043900000F034FAC0B2A17B88420AD153481438E5
:1043A00000F02CFAC0B2E17B884202D19420207246
:1043B00004E0D420207201E0D4202072002060723A
:1043C000A072002505E0A07A615D0844A072681C17
:1043D00085B20A2DF7DB1620E0720C2247492046F1
:1043E00000F016FF454800F0B4FE48B900224449E9
:1043F0004448FDF748FE012243494248FDF743FE89
:1044000070BD70B5044600260025E17BA07BFEF759
:10441000E7FB064640F6980086421FDA3D480660F4
:10442000A17B3248103800F096F9E17B2F480C3818
:1044300000F091F92D48103800F0E3F9A17B884293
:1044400009D12A480C3800F0DCF9E17B884202D11E
:104450009420207204E0D420207201E0D420207245
:1044600000206072A072002505E0A07A615D08441A
:10447000A072681C85B20A2DF7DB1620E0720C22B0
:104480001E49204600F0C4FE1C4800F062FE48B9F8
:1044900000221B491B48FDF7F6FD01221A49194865
:1044A000FDF7F1FD70BD7047704770B5044691206F
:1044B0002072062060720D4800F0A0F9A0730B482E
:1044C000083800F09BF9C6B20A2096FBF0F100FB19
:1044D00011600A2196FBF1F140EA0110E07300201F
:1044E000207400251EE0000028000020181F03088B
:1044F00026000020F809002000480040980700200E
:1045000005010500004400400701070029000020C4
:104510002C00002030000020207C615D08442074C5
:10452000681C85B2102DF7DB1620607412226E49CC
:10453000204600F06DFE6C4800F00BFE48B90022EA
:104540006A496B48FDF79FFD01226A496848FDF7FB
:104550009AFD70BD2DE9F04704460026657A0027D4
:10456000B146B046207A912802D0207AB12800D1F5
:104570000927207A922802D0207AB22800D1042775
:10458000E81B00EBD071C1F34F0625E007F10B02E9
:10459000022303FB0622A15C07F10A0203FB0622A9
:1045A000A05CFEF71DFB81464846FEF7B8FC81463D
:1045B00051480068FEF7B4FB07F10A01022202FB32
:1045C000061160544C480068FEF791FB07F10B019F
:1045D000022202FB061160543000A6F101018EB2E6
:1045E000D4D1002105F10A00215488460DE005F1DF
:1045F0000A00205C14F808100844C1B205F10A0052
:10460000215408F101001FFA80F805F10A008045E5
:10461000EDDB1021401C2154BDE8F087F0B50021EE
:10462000427A0023002400250026077A912F02D029
:10463000077AB12F00D10923077A922F02D0077A87
:10464000B22F00D10423877A322F09D0342F04D01F
:10465000352F03D0362F04D101E003E002E001E062
:1046600000E000BF00BFF0BD70B50446912020728D
:10467000082060720120A0731420E07308202074C9
:10468000182060740020A074002505E0A07C615D06
:104690000844A074681CC5B2122DF7DB1620E07424
:1046A00008201649087014221549204600F0B0FD74
:1046B000134800F04EFD10B9124800F0CDFD142251
:1046C0000949204600F0A4FD074800F042FD48B922
:1046D000002206490648FDF7D6FC01220549044898
:1046E000FDF7D1FC70BD0000980700200501050012
:1046F000004400400701070034000020260000208D
:10470000F80900200048004010B50220FBF758FDD2
:104710003420FCF77AF810BD70B504460D46022629
:10472000FBF775FD2046FBF7AFFD00BF294620468D
:10473000FBF722FE042804D03000A6F10101CEB21E
:10474000F4D1FBF76FFD206880B2A84201D00020B1
:1047500070BD0120FCE72DE9F04FADF2044D044699
:104760000F464FEA942BC4F30900A4EB0009C4F3ED
:1047700087084FF0020A04F0030020B100200DF278
:10478000044DBDE8F08F002506E059F8250001A989
:1047900041F82500681C85B2FF2DF6DD4FF0FF3093
:1047A00001A941F8280001A850F82800384041F834
:1047B0002800FBF72CFD2046FBF766FD002612E0E3
:1047C00000BF01AA52F8261009EB8600FBF7A0FDF6
:1047D000042806D05FEA0A00AAF1010101F0FF0AED
:1047E000EFD1701C86B2FF2EEADDFBF71BFD2068BF
:1047F000B84201D10120C2E70020C0E701460868A5
:10480000704701460A68D0B2704700001CB501210C
:104810008804FCF7CBFB072206215B48FCF7D0F8A5
:10482000072211465848FCF7CBF802208DF8040007
:1048300000208DF8060001208DF8070002208DF879
:104840000500C020009069464F48FCF732F8072267
:1048500008214D48FCF7B4F8072209214A48FCF723
:10486000AFF800208DF806004FF4407000906946C4
:104870004548FCF71EF801214804FCF797FB01208E
:1048800000908DF804008DF8060002208DF80500D8
:1048900000208DF8070069464FF09040FCF709F8BA
:1048A0000121C804FCF782FB4FF400500090012066
:1048B0008DF804008DF8060002208DF80500002018
:1048C0008DF8070002208DF8070069462F48FBF796
:1048D000F0FF012251032D48FCF76BF802200090F5
:1048E0008DF8040000208DF8060003208DF80500E7
:1048F00001208DF8070069464FF09040FBF7D9FF83
:10490000022201214FF09040FCF75AF807220221C1
:104910004FF09040FCF754F8072203214FF09040ED
:10492000FCF74EF802208DF8040000208DF80600F8
:1049300001208DF8070002208DF805000C20009062
:1049400069464FF09040FBF7B4FF1CBD10B5012144
:104950004FF09040FCF711F830B1002201214FF0E8
:104960009040FCF726F805E0012211464FF09040F8
:10497000FCF71FF810BD10B500224FF4005103489A
:10498000FCF717F810BD00000004004800080048BC
:1049900010B5002807DA0A07140E6F4A00F00F035B
:1049A0001B1FD45403E00A07130E6C4A135410BDA6
:1049B00010B56B48007800BB19216A48008800F0E8
:1049C0002EFBD0B16848FEF78FFCB0B16648407A44
:1049D00000F10C026549644800F01AFC634800F0DD
:1049E000B8FB50B9624800F037FC01205C49087000
:1049F0000020604908705B49088010BD10B504466E
:104A000021465D48FDF7C5FBF8B1207A11280ED18B
:104A1000A07A33280BD1207B342808D1607B35283D
:104A200005D100204E4908700120524908705348B2
:104A300002780C325249204600F0EAFB504800F060
:104A400088FB10B94F4800F007FC10BD10B54FF4BB
:104A5000C060FBF7E3FF10BDFFF7F8FF4A480068AE
:104A6000C408B4F1807F00D311E024F07F40401EE1
:104A70004FF0E02148610F214FF0FF30FFF788FF32
:104A800000204FF0E02188610720086100BF6FF02F
:104A90000400FCF712F84FF0FF310846FFF778FFEB
:104AA000FFF732FEFFF7B2FEFFF750FF00F0E3FA28
:104AB00000F05EFAFEF735FDFEF76DFDFEF760FFD4
:104AC000FFF759FF47E0FFF741FF2B4800F041FB9C
:104AD00010B92548FFF792FF2C4800F03AFB10B1BF
:104AE000FFF766FF37E02A492848FDF752FB08BB6D
:104AF0001B48007878BB19211A48008800F08FFA0B
:104B000048B31948FEF7F0FB28B31748427A174913
:104B100000F07EFB154800F01CFBE0B9144800F0E3
:104B20009BFB01200E4908700020124908700D49B6
:104B3000088010E01648FDF779FF104802780C3223
:104B40000A49134800F064FB084800F002FB10B962
:104B5000074800F081FBB6E718ED00E000E400E054
:104B60002400002070000020A00100203805002053
:104B7000003801406D0000200804002026000020BD
:104B8000F80900200048004058000020C808002014
:104B900074000020704700BFFEE700BFFEE700BFC3
:104BA000FEE700BFFEE770477047704710B54FF44F
:104BB00000515D48FBF7EDFE012805D100224103BD
:104BC0005948FBF7F6FE04E0012251035648FBF773
:104BD000F0FE10BD10B555495548FDF78DFAC0B12E
:104BE000544800F0C1FAA0B95148FDF786F951497F
:104BF000B1F82C114F4A50541046B0F82C01401C0B
:104C00004FF4967190FBF1F201FB12004949A1F8B3
:104C10002C0149494648FDF76FFA08B34649444814
:104C2000FDF78FFA4548B0F82E01444A115C404820
:104C3000FDF75FF94148B0F82E01401C4FF4967122
:104C400090FBF1F201FB12003C49A1F82E0108464D
:104C500000F07FFA20B1002237493548FDF713FAFA
:104C600010BD704710B531493548FDF745FAC0B160
:104C7000344800F079FAA0B93148FDF73EF93149DE
:104C8000B1F82C112F4A50541046B0F82C01401C9A
:104C90004FF4967190FBF1F201FB12002949A1F843
:104CA0002C0125492648FDF727FAE8B12648B0F837
:104CB0002E01254A115C2248FDF71BF92248B0F865
:104CC0002E01401C4FF4967190FBF1F201FB120093
:104CD0001D49A1F82E01084600F03BFA20B1002240
:104CE00015491748FDF7CFF910BD10B50121880708
:104CF000FCF7D2FEA8B101218807FCF7DEFE1348BD
:104D00000078012804D112480088401C104908800E
:104D100010480078012804D10F480088401C0E4933
:104D2000088010BD7047000000080048050105001C
:104D30000038014008040020070107003805002062
:104D400000480040C8080020F80900206C0000203E
:104D50006E0000206D000020700000200CB50020C7
:104D6000019000906A48006840F0010068490860BE
:104D700000BF6748006800F0020000900198401CE6
:104D80000190009818B90198B0F5A06FF1D1604872
:104D9000006800F0020010B10120009001E0002046
:104DA00000900098012836D112205A4908605848CE
:104DB000406857494860084640684860084640686F
:104DC00040F4806048600846406820F47C104860E9
:104DD0000846406840F4601048600846006840F0AB
:104DE0008070086000BF4A48006800F0007000282A
:104DF000F9D04748406820F003004549486008461C
:104E0000406840F00200486000BF4148406800F040
:104E10000C000828F9D10CBD10B53F48006840F4DB
:104E200070003D4908603A48006840F00100384988
:104E300008600846406800F47F0048600846006843
:104E400036490840324908600846006820F480204E
:104E500008600846406820F4FE0048600846C06AC2
:104E600020F00F00C8620846006B2D490840284911
:104E7000086300208860FFF771FF4FF0006026494B
:104E80008039086010BD30B50021002000220023C9
:104E90001F4C646804F00C0121B1042906D00829D4
:104EA00025D107E01F4C204D2C6024E01D4C1E4DE9
:104EB0002C6020E0164C646804F47010144C646894
:104EC00004F48032022404EB904022B9174C44438E
:104ED000154D2C600AE00E4CE46A04F00F04631CCC
:104EE000104CB4FBF3F444430F4D2C6003E00D4C25
:104EF0000D4D2C6000BF00BF054C6468C4F3031463
:104F00000B4D295D084C2468CC40074D2C6030BD0A
:104F1000001002400020024088ED00E0FFFFF6FE96
:104F20008C0FFF0F00127A005800002000093D008E
:104F30005C00002008B51C208DF8000000208DF8D2
:104F4000010001208DF802008DF803006846FBF790
:104F50006AFD32208DF8000000208DF801008DF8E8
:104F6000020001208DF803006846FBF75CFD08BDD8
:104F700000B589B0FFF7DEFF01210846FCF730F8E5
:104F80004CF24F3007904020ADF818000020ADF8EB
:104F90002000ADF81A0006A94FF08040FCF72AF96E
:104FA00001218807FCF7B2F9012211469007FCF7AE
:104FB0005CFD01210820FCF713F81C4800684FF441
:104FC0001641B0FBF1F0401E07900020ADF818002C
:104FD000ADF82000ADF81A0006A91548FCF70AF94B
:104FE00000211348FCF715FB01211148FCF78EF94D
:104FF0006020ADF804000120ADF8060040F24A3010
:1050000003900020ADF8100001A90948FCF7F1F960
:10501000012204210648FCF7B7FB09B000BD024697
:105020008A4201DB012070470020FCE75800002085
:10503000000C004008B525208DF8000001208DF8F7
:1050400001008DF802008DF803006846FBF7EBFCC9
:1050500027208DF8000000208DF802006846FBF73D
:10506000E2FC26208DF8000002208DF80200684640
:10507000FBF7D9FC08BD00B587B001218803FBF719
:10508000A2FF01217848FCF7B3FE4FF416600190AF
:105090000C2005904FF48050029080100490002066
:1050A0000390069001A97048FCF70BFE01218804CB
:1050B000FBF796FF01216D48FCF79AFE4FF416604E
:1050C00001900C2005904FF48050029080100490C5
:1050D00000200390069001A96448FCF7F2FD01212D
:1050E0004804FBF77DFF01216148FCF781FE4FF486
:1050F000966001904FF480500290002003904FF48E
:1051000080600490002006900C20059001A958486A
:10511000FCF7D7FDFFF78EFF012256495248FCF7F6
:10512000B2FF012253495148FCF7ADFF012251491A
:105130004F48FCF7A8FF01214B48FCF745FE012131
:105140004A48FCF741FE01214948FCF73DFE07B003
:1051500000BD0146B1F82E01B1F82C21904201D1D9
:10516000012070470020FCE70146B1F82C01401CEB
:105170004FF4967290FBF2F302FB1300B1F82E216C
:10518000904201D1012070470020FCE710B5014694
:10519000B1F82E21B1F82C31D21A4FF4967392FB4C
:1051A000F3F403FB1422521E90B210BD0146B1F875
:1051B0002C01B1F82E21801A00F596704FF49672EA
:1051C00090FBF2F302FB130080B27047F0B5044687
:1051D0000F4616462046FFF7E9FFB04216DB0025D2
:1051E00010E0B4F82E01205C7855B4F82E01401C74
:1051F0004FF4967190FBF1F201FB1200A4F82E011E
:10520000681C85B2B542ECDB0120F0BD0020FCE754
:10521000F0B507460C4616462046FFF7C7FF304458
:10522000B0F5967F16DC002510E0785DB4F82C11FF
:105230006054B4F82C01401C4FF4967190FBF1F2CD
:1052400001FB1200A4F82C01681C85B2B542ECDB0E
:105250000120F0BD0020FCE710B5044601220649FC
:105260002046FCF710FF10BD003801400048004008
:105270000044004005010500070107002DE9F05F2B
:105280000546002092469B468846064681464024B5
:105290001BE0284641464746224600F02FF8534679
:1052A0005A46C01A914110D311461846224600F0C2
:1052B00016F82D1A67EB01084F46224601200021FF
:1052C00000F00DF817EB00094E41201EA4F1010477
:1052D000DFDC484631462A464346BDE8F09F202A97
:1052E00004DB203A00FA02F1002070479140C2F13D
:1052F000200320FA03F3194390407047202A04DB6F
:10530000203A21FA02F00021704721FA02F3D0403E
:10531000C2F120029140084319467047064C074DE0
:1053200006E0E06840F0010394E807009847103475
:10533000AC42F6D3FAF72CFF80550008A0550008C0
:1053400002E008C8121F08C1002AFAD1704770474E
:10535000002001E001C1121F002AFBD170470000AC
:10536000333734352B2B000833393435752D00088D
:10537000333A3435332E0008333B34355B43000871
:10538000333C343503440008333D3435A74400082A
:10539000333E3435A944000833733433E140000808
:1053A00033743433B7410008337534339142000805
:1053B00033763433AB44000833373535C53600080F
:1053C000333835359F3700083339353531370008E4
:1053D000333A35356D380008333B3535EF38000842
:1053E000323232326946000833343435CD32000867
:1053F00033353435CD32000833363435CD320008FC
:1054000033323435CD32000837383338972200082C
:105410003838333897220008393833389722000853
:105420003A38333897220008323833389722000848
:1054300033333433A93B000833343433A93B0008F9
:1054400033353433A93B000833363433A93B0008E5
:1054500033373433A93B000833323433A93B0008D7
:1054600033334833A93B000833335C33A93B00088E
:1054700033337033A93B0008343439382F3E0008E9
:10548000353439382F3E0008363439382F3E00087D
:1054900034333433853F000834343433853F0008D7
:1054A00034353433853F000834363433853F0008C3
:1054B00034373433853F000834323433853F0008B5
:1054C00034334833853F000834335C33853F00086C
:1054D00034337033853F0008333734352B2B0008C5
:1054E00033383435232C000833393435752D000812
:1054F000333A3435332E000833373535C536000896
:10550000333835359F3700083339353531370008A2
:10551000333A35356D380008333B3535EF38000800
:1055200033733433E140000833743433B741000837
:1055300033753433914200083334433955450008FC
:10554000343443395545000835344339554500084E
:105550003234433955450008333543391D46000878
:10556000343543391D460008353543391D4600089A
:10557000323543391D46000832323232694600085E
:10558000A0550008000000207400000040530008EF
:105590001456000874000020B40E00005053000898
:1055A00000000000010203040102030406070809C9
:1055B00002040608020406080A0C0E1014181C2027
:1055C00024282C3000000000FF0000000000000034
:1055D00000000000980800009808000098080000EB
:1055E00000000000000000000000000000000000BB
:1055F00000000000000000000090D0030000000048
:105600000000000001020304060708090000000072
:045610000000000096
:040000050800018965
:00000001FF
