:020000040800F2
:1000000000600020AD590008D94E0008DD4E000800
:10001000E14E0008E54E0008E94E0008000000002F
:10002000000000000000000000000000ED4E00088D
:10003000F14E000800000000F54E0008F94E0008DF
:10004000F5590008F5590008F5590008F559000858
:10005000F5590008F5590008F5590008F559000848
:10006000F5590008F5590008F5590008F559000838
:10007000F5590008F5590008F5590008F559000828
:10008000F5590008F5590008F5590008F559000818
:10009000F5590008F5590008F559000849520008BB
:1000A000F5590008F5590008F5590008F5590008F8
:1000B000FD510008F5590008F5590008F5590008E8
:1000C000F5590008F5590008F5590008F5590008D8
:1000D000F5590008094F00080950000809510008A7
:1000E000F5590008F5590008F5590008F5590008B8
:1000F000F5590008F5590008000000000000000054
:10010000000000000000000045520008F5590008FA
:100110000000000000000000F5590008F559000833
:10012000F5590008F5590008F5590008F559000877
:10013000F5590008F5590008F5590008F559000867
:10014000F559000800000000000000000000000059
:10015000000000000000000000000000000000009F
:100160000000000000000000F5590008F5590008E3
:10017000F559000800000000F559000800000000D3
:0801800000000000F559000821
:1001880010B5054C237833B9044B13B10448AFF3C9
:1001980000800123237010BD7C00002000000000B7
:1001A80088010008084B10B51BB108490848AFF38F
:1001B80000800848036803B910BD074B002BFBD02B
:1001C800BDE81040184700BF000000008000002074
:1001D800880100087C0000200000000053B94AB9DB
:1001E800002908BF00281CBF4FF0FF314FF0FF3037
:1001F80000F07EB9ADF1080C6DE904CE00F006F808
:10020800DDF804E0DDE9022304B070472DE9F0478A
:100218008C460E460446089D002B50D18A4217464C
:100228006CD9B2FA82FEBEF1000F0BD0CEF12004D9
:1002380020FA04F401FA0EF644EA060C02FA0EF764
:1002480000FA0EF44FEA1749220CBCFBF9F01FFA2A
:1002580087F809FB10C642EA064600FB08F3B342DA
:1002680009D9F61900F1FF3280F02281B34240F239
:100278001F8102383E44F61AA2B2B6FBF9F309FB15
:10028800136642EA064403FB08F8A04509D9E419B5
:1002980003F1FF3280F00A81A04540F20781023B5A
:1002A8003C44C8EB040443EA00400021002D62D01E
:1002B80024FA0EF400232C606B60BDE8F0878B42B3
:1002C80007D9002D55D0002185E841000846BDE832
:1002D800F087B3FA83F1002940F09080B34202D34B
:1002E800824200F2F880841A66EB03060120B446C5
:1002F800002D40D085E81010BDE8F08712B901271D
:10030800B7FBF2F7B7FA87FEBEF1000F35D1F31B42
:100318004FEA17481FFA87FC0121B3FBF8F0220CBB
:1003280008FB103642EA06460CFB00F3B34207D935
:10033800F61900F1FF3202D2B34200F2CE80104625
:10034800F61AA2B2B6FBF8F308FB136642EA0644B3
:100358000CFB03FCA44507D9E41903F1FF3202D2D0
:10036800A44500F2B5801346CCEB040443EA0040F0
:100378009CE729462846BDE8F087CEF1200106FA19
:100388000EF307FA0EF720FA01F94FEA1748CE40A4
:1003980049EA0309B6FBF8FA4FEA194408FB1A665A
:1003A8001FFA87FC44EA06430AFB0CF29A4200FA59
:1003B8000EF40AD9DB190AF1FF3180F087809A42DE
:1003C80040F28480AAF1020A3B449B1A1FFA89F979
:1003D800B3FBF8F108FB113349EA034301FB0CF6C0
:1003E8009E4207D9DB1901F1FF326BD29E4269D9CF
:1003F80002393B449B1B41EA0A418EE7C1F1200EBA
:1004080022FA0EF48B40234320FA0EF706FA01F481
:100418004FEA134C26FA0EF63C43B6FBFCF9270CC0
:100428000CFB19661FFA83F847EA064609FB08F72A
:10043800B74202FA01F200FA01FA08D9F61809F1EE
:10044800FF3041D2B7423FD9A9F102091E44F61B39
:10045800A0B2B6FBFCF40CFB146640EA064704FBAA
:1004680008F8B84507D9FF1804F1FF3028D2B84575
:1004780026D9023C1F4444EA0940C8EB0707A0FB01
:1004880002894F4544464E4614D329D065B3BAEB8A
:10049800040367EB060707FA0EFECB40CF404EEA8F
:1004A800030385E888000021BDE8F0871346F8E6D5
:1004B8001046E0E6B8EB020469EB03060138E5E70D
:1004C8000446D8E7114695E78146C0E78A467CE7A7
:1004D800023B3C4448E708460AE702383E442FE717
:1004E800C245E7D33E46D1E72946BDE8F08700BFBD
:1004F800704700BF054B4FF0FC521A6000225A604B
:100508009A60DA606FF07E425A61704700040140D9
:100518008379002B34D010B4204B1A68016822EA82
:1005280001021A605A68016822EA01025A600279D7
:1005380002F1804202F58232146801682143116099
:100548009A68016822EA01029A60DA68016822EA78
:100558000102DA604379102B09D1104B99680268BF
:100568000A439A60D96802680A43DA6013E003F123
:10057800804303F58233196802680A431A600AE067
:10058800037903F1804303F582331A68016822EA8C
:1005980001021A6070475DF8044B7047000401407F
:1005A800064A136803405269104202D01BB9002062
:1005B8007047002070470120704700BF00040140C9
:1005C800014B5861704700BF00040140034A13689B
:1005D80023F0030318431060704700BF0020024057
:1005E800054B1B6913F0800F05D0034B034A5A6073
:1005F80002F188325A6070470020024023016745A3
:10060800024A136943F080031361704700200240D7
:10061800014BD860704700BF002002400B4BDB68DD
:1006280013F0010F0BD1094BDB6813F0100F08D141
:10063800064BDB6813F0040F05D003207047012038
:100648007047022070470420704700BF0020024016
:1006580010B50446FFF7E2FF02E0FFF7DFFF013CB9
:10066800012801D1002CF8D104B9052010BD00BF24
:1006780038B505464FF43020FFF7EAFF042811D1BA
:10068800094C236943F0020323616561236943F040
:10069800400323614FF43020FFF7DAFF236923F08A
:1006A8000203236138BD00BF0020024030B583B08B
:1006B80005460C46002301934FF43020FFF7C8FF8E
:1006C800042820D1114A136943F001031361A3B22E
:1006D8002B804FF43020FFF7BBFF04280ED10235E2
:1006E8000195019B240C1C804FF43020FFF7B0FFCC
:1006F800064A136923F00103136104E0034A1369EE
:1007080023F00103136103B030BD00BF0020024095
:1007180070B4002341E001229A400C68A2433BD107
:100728000A79013AD2B2012A1CD885685A000324F2
:10073800944025EA0404846085684C7904FA02F23E
:100748002A4382608488A5B29AB20124944025EA9B
:10075800040484808588ADB28C7904FA02F292B2DE
:100768002A43828004685A00032505FA02F624EA1F
:100778000604046006680C79944034430460C46835
:100788009EB27600B54024EA0505C560C568CC79F7
:1007980004FA02F22A43C26001330F2BBBD970BCA2
:1007A800704700BF038A194201D00120704700201A
:1007B800704700BF838A194201D00120704700208A
:1007C800704700BF0AB1816170470185704700BF5B
:1007D80030B401F007039B009A40C908083150F86B
:1007E80021400F2505FA03F324EA030340F82130DA
:1007F80050F821301A4340F8212030BC704700BF20
:1008080040F0BF6040F40030014BD860704700BF33
:1008180000ED00E0C378FBB1154BDB68DB43C3F3A5
:100828000223C3F104010F22DA40437803FA01F1ED
:10083800837813400B431B010278DBB20D490A444D
:1008480082F800330378580903F01F03012202FAE3
:1008580003F341F82030704703785A0903F01F0367
:10086800012101FA03F32032024941F8223070478E
:1008780000ED00E000E100E070B46F4B5B6803F04E
:100888000C03042B05D0082B06D0FBB96B4B036077
:100898001EE06A4B03601BE0674A53685268C3F363
:1008A8008343023312F4803F04D1654A02FB03F309
:1008B80003600DE0604AD26A02F00F02511C5F4AE1
:1008C800B2FBF1F202FB03F3036001E05B4B036050
:1008D800594A5368C3F303135A4EF35CDBB20568F5
:1008E80025FA03F343605168C1F30221715CC9B270
:1008F80023FA01F181605468C4F3C224345DE4B280
:10090800E340C3605468C4F381344F4E345DE4B2AD
:10091800B3FBF4F404615468C4F3C3644B4E345D10
:10092800E4B2B5FBF4F44461126B12F0400F03D14A
:1009380048F21202826102E04FF4004282613E4AAC
:10094800126B12F0100F02D13C4AC26100E0C5617F
:10095800394A126B12F0200F02D1384A026200E0C5
:100968000562354A126B12F0030F01D1436219E098
:10097800314B1B6B03F00303012B01D1456211E0DE
:100988002D4B1B6B03F00303022B03D14FF40043E1
:10099800436207E0284B1B6B03F00303032B01D1D1
:1009A800264B4362244B1B6B13F4403F01D18162F9
:1009B8001CE0214B1B6B03F44033B3F5803F01D19E
:1009C800856213E01C4B1B6B03F44033B3F5003F07
:1009D80003D14FF40043836208E0174B1B6B03F409
:1009E8004033B3F5403F01D1144B8362124B1B6B6C
:1009F80013F4402F01D1C1621CE00F4B1B6B03F4B1
:100A08004023B3F5802F01D1C56213E00A4B1B6B5D
:100A180003F44023B3F5002F03D14FF40043C3621E
:100A280008E0054B1B6B03F44023B3F5402F01D1BD
:100A3800024BC36270BC70470010024000127A007B
:100A480000093D00140000200000002004000020E0
:100A580021B1054B5A69104358617047024A5369DE
:100A680023EA0000506170470010024021B1054B95
:100A78009A69104398617047024A936923EA000013
:100A8800906170470010024021B1054BDA691043AC
:100A9800D8617047024AD36923EA0000D0617047E1
:100AA8000010024021B1054BDA681043D860704746
:100AB800024AD36823EA0000D06070470010024061
:100AC80021B1054B1A69104318617047024A13692E
:100AD80023EA0000106170470010024030B401F0B2
:100AE80003039B000F2404FA03F58908074A02311F
:100AF80052F8214024EA050442F8214052F82140E6
:100B08009840204342F8210030BC70470000014063
:100B180003889BB2B0F1804F0ED01C4A90420BD094
:100B280002F58062904207D002F58062904203D0BD
:100B380002F5A832904203D123F070034A88134388
:100B4800134A90420CD002F58062904208D002F518
:100B58000842904204D023F440739BB20A8913439D
:100B680003804B68C3620B8803850A4B984207D001
:100B780003F58063984203D003F58063984201D15E
:100B88008B7A038601238382704700BF00040040EC
:100B9800001000400040014029B103889BB243F097
:100BA80001030380704703889BB223F001039BB2C3
:100BB8000380704730B4038C9BB223F010039BB2C0
:100BC8000384048CA4B28588ADB2028B92B222F45D
:100BD800E6430A88120292B21A4324F020048B8951
:100BE8001B019BB21C434B881B019BB2234385808E
:100BF80002838A688263038430BC7047038B9BB28C
:100C080023F40063090289B219430183704700BFC6
:100C180010B401238B409BB2048CDB439BB223406E
:100C28000384038C9BB28A4092B21A4302845DF813
:100C3800044B704722B183899BB219438181704765
:100C48008389C94389B2194081817047028A83899F
:100C58000B40114202D01BB900207047002070479A
:100C680001207047C94389B20182704708B5154B06
:100C780098420AD101214FF48040FFF713FF002169
:100C88004FF48040FFF70EFF08BD0F4B98420AD182
:100C980001214FF40030FFF713FF00214FF400301B
:100CA800FFF70EFF08BD094B984209D101214FF407
:100CB8008020FFF705FF00214FF48020FFF700FF99
:100CC80008BD00BF00380140004400400048004013
:100CD80030B58DB004460D46036823F00103036068
:100CE800436823F440528B6813434360036823F43A
:100CF800B05222F00C024968EB6819432B690B4388
:100D080013430360836823F440726B691343836061
:100D18006846FFF7B1FD174B9C4201D1099A05E0DF
:100D2800154B9C4201D10A9A00E00B9A236813F4F0
:100D3800004F06D052002968B2FBF1F301FB1322E1
:100D480004E02968B2FBF1F301FB13222968B2EB36
:100D5800510F00D30133226812F4004F06D0C3F3B9
:100D6800420223F00F031B041B0C13439BB2A38105
:100D78000DB030BD003801400044004021B1036887
:100D880043F0010303607047036823F00103036025
:100D9800704700BF21B1036843F400430360704704
:100DA800036823F400430360704700BFC1F30801E0
:100DB80001857047808CC0F30800704730B4C1F3D8
:100DC8000725C9B2012303FA01F1022D01D1041D3F
:100DD80004E00446032D01D100F108041AB1236888
:100DE8001943216003E0236823EA0101216030BC34
:100DF800704700BFC3690B4201D001207047002033
:100E0800704700BF0162704710B4C1F30722CCB22B
:100E18000123A340012A02D10268134006E0022AF6
:100E280002D14268134001E082681340090C012294
:100E380002FA01F1C269114013B119B9002002E0A8
:100E4800002000E001205DF8044B7047090C0123E5
:100E580003FA01F10162704710B400231A4604E056
:100E6800C45C2244D2B20133DBB20C4C217801F1CC
:100E78000A04A342F4DB43189B7A9A4206D1014440
:100E8800CB7A162B05D04FF0FF3003E04FF0FF3040
:100E980000E000205DF8044B704700BF790800208F
:100EA8000B0901F00F01020900F00F00033BDBB250
:100EB800092B0DD802290DD90C290DD8022A0DD9D4
:100EC8000C2A0DD802280DD90C280DD900207047FE
:100ED80000207047002070470020704700207047AE
:100EE80000207047002070470120704710B4333944
:100EF800C1F3031401F00F013338C0F3031300F0FA
:100F08000F00642202FB01F14FF47A7202FB041411
:100F180003EB83035A00224410445DF8044B7047E6
:100F2800F0B5333AC2F3021702F00F043339C1F3B4
:100F3800031601F00F0C3338C0F3031500F00F004F
:100F480042F2107E0EFB04FE0B4901FB07E74FF44B
:100F58007A7101FB0676642404FB0C6105EB8505B8
:100F68006C000C4404441C60197901311971C2F3F6
:100F7800C0125A71F0BD00BFA0860100F0B482B063
:100F880002AC04E903000698009E2849A1FB064725
:100F9800FF08A1FB0754E40804EB840465007C1BEC
:100FA8002401E4B207EB87077D00751BEDB22C43E3
:100FB800333414701E4CA4FB0624A409A1FB04526C
:100FC800D20802EB82025500621B1201D5B2194FFA
:100FD800A7FB06277F09A1FB0724E20802EB820290
:100FE80054003A1BD2B22A4333321A707309124A98
:100FF800A2FB0332D2091201D2B2104BA3FB063670
:10100800760BA1FB0613D90801EB81014B00F11AFD
:10101800C9B211433331C9B201709DF8053013B11B
:1010280061F07F01017002B0F0BC7047CDCCCCCC30
:10103800D34D62101F85EB51C55A7C0A5917B7D199
:1010480030B413790479A34203D90D79AB4200F285
:10105800AF80A34234D10D79AB4231D90368002B5C
:1010680000F0A8801168002900F0A68040790028C7
:1010780040F0A4805479002C40F0B5808B420CD904
:1010880003EB83031801594BA3FB00035B09994247
:1010980038BF194611600120A5E001EB8104200149
:1010A800524CA4FB0040B3EB501F06D2642101FB55
:1010B80003F34F49A1FB033189091160012092E034
:1010C8000D79AB4230D1A3422ED90B68002B77D0D3
:1010D8001468002C76D04879002875D151790029F8
:1010E80040F08180A3420CD903EB830319013F4BE5
:1010F800A3FB01135B099C4238BF1C461460012006
:1011080071E004EB840001013848A0FB0101B3EB56
:10111800511F06D2642404FB03F3354CA4FB0334AB
:10112800A409146001205EE0A3424FD1AB424FD125
:101138000368002B4ED00C68002C4DD01568002D8C
:101148004CD0407900284BD1497900294BD15079AE
:10115800002847D11946A34238BF21468D4215D9E8
:1011680005EB850001012148A0FB0101A34228BF2E
:101178002346B3EB511F06D8642505FB03F31C4D2A
:10118800A5FB0335AD09156001202CE0A34228BF5B
:1011980023469D4227D201EB81010B011349A1FB94
:1011A80003135B099D4238BF1D46156001201AE0F4
:1011B800002018E0002016E0002014E0002012E0D3
:1011C800002010E000200EE000200CE001200AE0E2
:1011D800012008E0002006E0002004E0002002E0F2
:1011E800002000E0084630BC704700BF1F85EB5167
:1011F800CDCCCCCC30B404680B681C4413682344B1
:101208000324B3FBF4F30B2404FB03F40A25B4FB17
:10121800F5F404600B6003EBC303B3FBF5F3136051
:1012280030BC704730B583B00446C37A323B042BD8
:1012380000F22C81DFE813F005002A01AB00D6008C
:101248000101934D2B46027CC17B807BFFF768FE32
:101258006B79002B40F01A818E4B5B79002B40F0A4
:1012680015818D4B5B79002B40F010812B68002B8A
:1012780000F00C81874A1268002A00F0078186492D
:101288000868002800F002811146824238BF0146F2
:10129800994238BF194601EB81010D017F49A1FB35
:1012A80005151146824228BF0146994228BF1946B2
:1012B800B1EB551F80F0EA80934207D3824205D3F1
:1012C800754A74497248FFF795FF30E0834207D3A7
:1012D800824205D86F4A70496D48FFF78BFF26E0B8
:1012E800934207D8834205D36B4A69496948FFF797
:1012F80081FF1CE0824207D3834205D8644A6649CD
:101308006448FFF777FF12E0834207D8934205D37A
:10131800604A5F496048FFF76DFF08E0824206D8DF
:10132800934204D85A4A5B495B48FFF763FF584D1C
:1013380004F11003009304F10F0304F10E0295E881
:101348000300FFF71BFE04F11303009304F11203DB
:1013580004F1110295E80300FFF710FE04F11603EB
:10136800009304F1150304F1140295E80300FFF754
:1013780005FE0022134604E0E15C0A44D2B20133C0
:10138800DBB2162BF8D9E275162323767EE0404BA4
:10139800027CC17B807BFFF7C3FD237C333B13F0CA
:1013A800800F73D13A4A3C493A48FFF749FE002872
:1013B8006CD0374904F11003009304F10F0304F1D2
:1013C8000E0203C9FFF7DAFD0022134604E0E15CD0
:1013D8000A44D2B20133DBB2102BF8D96274162357
:1013E800A37453E02B4B027CC17B807BFFF798FDF5
:1013F800237C333B13F0800F48D1264A26492448E2
:10140800FFF71EFE002841D0224904F11003009383
:1014180004F10F0304F10E0203C9FFF7AFFD002228
:10142800134604E0E15C0A44D2B20133DBB2102B6C
:10143800F8D962741623A37428E0174B027CC17B89
:10144800807BFFF76DFD237C333B13F0800F1DD1AC
:10145800114A10490E48FFF7F3FDB8B10E4904F1DF
:101468001003009304F10F0304F10E0203C9FFF700
:1014780085FD0022134604E0E15C0A44D2B2013340
:10148800DBB2102BF8D962741623A37403B030BDF5
:10149800800C00206C0C0020740C00201F85EB5180
:1014A800704700BF33393338C0B240EA012080B2F8
:1014B800704700BF10B50446837A323B082B72D8B8
:1014C800DFE803F03D717171710513212F00C17BB5
:1014D800807BFFF7E7FF20F4A87083B2DAB23332DB
:1014E800A2731B0A3333E3735DE0C17B807BFFF794
:1014F800D9FF20F4A87083B2DAB23332A2731B0A80
:101508003333E3734FE0C17B807BFFF7CBFF20F4DD
:10151800A87083B2DAB23332A2731B0A3333E3738F
:1015280041E0C17B807BFFF7BDFF20F0080083B25C
:10153800DAB23332A2731B0A3333E37333E0417DEB
:10154800007DFFF7AFFF20F4A87083B2DAB2333220
:1015580022751B0A33336375E17DA07DFFF7A2FF77
:1015680020F4A87083B2DAB23332A2751B0A33337F
:10157800E375617E207EFFF795FF20F4A87083B2A3
:10158800DAB2333222761B0A33336376E17EA07EE9
:10159800FFF788FF20F0080083B2DAB23332A27670
:1015A8001B0A3333E37600231A4603E0A15C0B449D
:1015B800DBB201320349097801F10A008242F5DB06
:1015C800235410BD79080020114981FB0031C3174D
:1015D800C3EBA1114FF47A7303FB11010D4A82FB8F
:1015E8000132CB17C3EB6212642303FB12120A48C1
:1015F80080FB0230D317C3EBA00000EB80014B0047
:10160800D31A03F00F0303EB00103330C0B2704756
:10161800D34D62101F85EB51676666660C4981FBE6
:101628000031C317C3EBA1110B0103F47F624FF420
:101638007A7303FB1103074880FB0310DB17C3EB26
:10164800601303F00F03134403F13300C0B2704773
:10165800D34D62101F85EB5130B4333BC3F30314F1
:1016680004EB8404650003F00F032B44DBB2333A28
:10167800C2F3031404EB8404650002F00F022A4449
:101688003339C1F3031404EB8404650001F00F013E
:1016980029443338C0F3031404EB8404650000F0D4
:1016A8000F002844632B14D8D2B2C9B2C0B2632A3F
:1016B80012D8632913D8632814D842F2107404FB93
:1016C80002F20A4C04FB0323642202FB01310844A2
:1016D8000AE04FF0FF3007E04FF0FF3004E04FF032
:1016E800FF3001E04FF0FF3030BC704740420F0040
:1016F8002DE9F0432C4DA5FB004C4FEA5C186426FD
:1017080006FB1808294CA4FB08E74FEAD70E0EEB96
:101718008E094FEA4907C7EB080747EA0E17333720
:101728000F704FEA5C1CA5FB0C1E4FEA5E1E06FB01
:101738001ECEA4FB0E71CF0807EB870C4FEA4C01B5
:10174800C1EB0E0141EA071133311170184AA2FBAF
:101758000012520BA5FB02177F0906FB1727A4FBF3
:101768000712D10801EB810E4FEA4E029646BA1ACB
:1017780042EA011233321A700E4BA3FB0030800C80
:10178800A5FB00356D0906FB1505A4FB0534E40827
:1017980004EB84025300EB1A43EA04143334079B26
:1017A8001C70BDE8F08300BF1F85EB51CDCCCCCCBD
:1017B8005917B7D183DE1B43704700BF704700BF7E
:1017C8002DE9F84F064690F80980027A912A03D04D
:1017D800B12A03D0002302E0092300E00923922A5A
:1017E80002D0B22A03D101E0042300E004234746D3
:1017F8009946C3EB080303EBD373C3F34F0315E018
:1018080009F10A044FEA450A544409F10B039A44C2
:10181800DFF84CB0DBF80000FFF7D6FE3055DBF8F8
:101828000000FFF7FBFE06F80A002B465D1EADB26E
:10183800002BE5D108F10A02B118B35405E0F05CB9
:101848000A7802440A7001339BB207F10A029342F4
:10185800F5DB08F10B08102306F80830BDE8F88F0F
:1018680060000020704700BF38B50446837B342BE6
:1018780002D10021244A1170332B02D1FF22224BBE
:101888001A70214B1978214802F03AFE10B9D42376
:10189800237201E09423237200236372A37205E08C
:1018A800E15CA27A0A44A2720133DBB2092BF7D9B0
:1018B8001623E3720022164B1A70164D2B680C2261
:1018C8009968204603F09EFE2B68986803F006FE90
:1018D80010B9114803F022FE104D2B680C229968AC
:1018E800204603F08FFE2B68986803F0F7FD50B987
:1018F8000B4C00220B492046FFF760FA01220A49E7
:101908002046FFF75BFA38BD7808002014EF01087D
:101918007908002034000020004800405C000020C6
:1019280000440040050105000701070070B50446A2
:10193800867BC17B3046FFF7D9FA0546617C207C5F
:10194800FFF7D4FA85421CDDB5F52F6F19DAB0F52B
:10195800966F16DD274B1D60274B186031462748C8
:1019680002F0CEFDE17B264802F0CAFD217C254825
:1019780002F0C6FD617C244802F0C2FD9423237264
:1019880001E0D423237200236372A37204E0E15CB4
:10199800A27A0A44A2720133092BF8DD1623E372F6
:1019A80000221A4B1A701A4D2B680C22996820468F
:1019B80003F028FE2B68986803F090FD10B91548CD
:1019C80003F0ACFD144D2B680C229968204603F0F7
:1019D80019FE2B68986803F081FD50B90F4C00225E
:1019E8000F492046FFF7EAF901220E492046FFF782
:1019F800E5F970BD3C2000205020002000EF0108D0
:101A080004EF010808EF01080CEF0108790800202D
:101A180034000020004800405C00002000440040E2
:101A2800050105000701070038B504469123037234
:101A38000C2343724FF42F60FFF7C6FDA0734FF4D9
:101A48002F60FFF7EBFDE0734FF49660FFF7BCFDE6
:101A580020744FF49660FFF7E1FD6074244B1D6815
:101A68002846FFF7B1FDA0742846FFF7D7FDE074BC
:101A7800204B1D682846FFF7A7FD20752846FFF76D
:101A8800CDFD60750023A37504E0E15CA27D0A44E6
:101A9800A2750133152BF8DD1623E3750C22164BBE
:101AA8001A70164D2B689968204603F0ABFD2B6819
:101AB800986803F013FD10B9114803F02FFD114D7C
:101AC8002B6818229968204603F09CFD2B689868BB
:101AD80003F004FD50B90C4C00220C492046FFF7D6
:101AE8006DF901220A492046FFF768F938BD00BFA1
:101AF8003C200020502000207908002034000020DD
:101B0800004800405C00002000440040050105003A
:101B18000701070070B5044640F69803334A13607E
:101B2800334A1360334A1360FF21334B197033482B
:101B380002F0E6FC324E40F62E103060314D40F295
:101B4800BC732B60FFF740FD01462F4802F0D8FC1C
:101B58003068FFF763FD01462C4802F0D1FC286885
:101B6800FFF732FD01462A4802F0CAFC2868FFF751
:101B780055FD0146274802F0C3FC94232372002335
:101B88006372A37204E0E15CA27A0A44A272013390
:101B9800092BF8DD1623E37200221F4B1A701F4D24
:101BA8002B680C229968204603F02CFD2B68986856
:101BB80003F094FC10B91A4803F0B0FC194D2B68D7
:101BC8000C229968204603F01DFD2B68986803F0E5
:101BD80085FC50B9144C002214492046FFF7EEF852
:101BE800012213492046FFF7E9F870BD6000002084
:101BF8003C000020240000207808002014EF010891
:101C08003C2000205020002000EF010804EF0108CC
:101C180008EF01080CEF01087908002034000020C3
:101C2800004800405C000020004400400501050019
:101C38000701070038B50446D42303720023437212
:101C4800837205E0E15CA27A0A44A2720133DBB236
:101C5800092BF7D91623E3720022144B1A70144D7E
:101C68002B680C229968204603F0CCFC2B689868F6
:101C780003F034FC10B90F4803F050FC0E4D2B68EC
:101C88000C229968204603F0BDFC2B68986803F085
:101C980025FC50B9094C002209492046FFF78EF867
:101CA800012208492046FFF789F838BD7908002045
:101CB80034000020004800405C0000200044004040
:101CC800050105000701070038B50446D42303724F
:101CD80000234372837205E0E15CA27A0A44A2728F
:101CE8000133DBB2092BF7D91623E3720022144B18
:101CF8001A70144D2B680C229968204603F082FC58
:101D08002B68986803F0EAFB10B90F4803F006FC4B
:101D18000E4D2B680C229968204603F073FC2B6843
:101D2800986803F0DBFB50B9094C002209492046AA
:101D3800FFF744F8012208492046FFF73FF838BD6D
:101D48007908002034000020004800405C00002092
:101D580000440040050105000701070030B585B0C3
:101D68000546274BDB68029300248DF80D4000F1EF
:101D78001003009300F10F0300F10E0204A911E90A
:101D88000300FFF7FBF891232B7207236B726C7427
:101D9800234605E0E95C6A7C0A446A740133DBB2D5
:101DA800102BF7D91623AB740722164B1A70164C52
:101DB800236813229968284603F024FC236898684E
:101DC80003F08CFB10B9114803F0A8FB104C2368F2
:101DD80013229968284603F015FC2368986803F0D5
:101DE8007DFB50B90B4C00220B492046FEF7E6FF5D
:101DF80001220A492046FEF7E1FF05B030BD00BFC9
:101E080040200020790800203400002000480040CD
:101E18005C000020004400400501050007010700A0
:101E280038B504469123037206234372204B9D68FC
:101E38002846FFF7C9FBA0732846FFF7EFFBE073BE
:101E48000023237405E0E15C227C0A4422740133F8
:101E5800DBB20F2BF7D9162363740622154B1A70C1
:101E6800154D2B6812229968204603F0CBFB2B688E
:101E7800986803F033FB10B9104803F04FFB104D7E
:101E88002B6812229968204603F0BCFB2B689868DF
:101E980003F024FB50B90B4C00220B492046FEF7F7
:101EA8008DFF012209492046FEF788FF38BD00BF93
:101EB800402000207908002034000020004800401D
:101EC8005C000020004400400501050007010700F0
:101ED80038B504469123037206234372204B1D68CC
:101EE8002846FFF771FBA0732846FFF797FBE073BE
:101EF8000023237405E0E15C227C0A442274013348
:101F0800DBB20F2BF7D9162363740022154B1A7016
:101F1800154D2B6812229968204603F073FB2B6835
:101F2800986803F0DBFA10B9104803F0F7FA104D7F
:101F38002B6812229968204603F064FB2B68986886
:101F480003F0CCFA50B90B4C00220B492046FEF79F
:101F580035FF012209492046FEF730FF38BD00BF92
:101F6800402000207908002034000020004800406C
:101F78005C0000200044004005010500070107003F
:101F880038B5037A912B4CD106234372254B1A7826
:101F98002549A1FB02314909642303FB1123DBB264
:101FA800224AA2FB0342D20802EB82056C001B1BEB
:101FB80043EA02138373C1730023037404E0C15C12
:101FC800027C0A44027401330F2BF8D90446162305
:101FD80043740422164B1A70164D2B681222996806
:101FE80003F010FB2B68986803F078FA10B91248D0
:101FF80003F094FA114D2B6812229968204603F0D9
:1020080001FB2B68986803F069FA50B90C4C002260
:102018000C492046FEF7D2FE01220B492046FEF766
:10202800CDFE38BD542000201F85EB51CDCCCCCC43
:102038007908002034000020004800405C0000209F
:1020480000440040050105000701070038B50446B3
:102058009123037208234372032383730523C373F5
:1020680011230374182343740023837405E0E15C8F
:10207800A27C0A44A2740133DBB2112BF7D91623D0
:10208800E3740822144B1A70144D2B6814229968B3
:10209800204603F0B7FA2B68986803F01FFA10B9C6
:1020A8000F4803F03BFA0F4D2B681422996820461D
:1020B80003F0A8FA2B68986803F010FA50B90A4C94
:1020C80000220A492046FEF779FE012208492046E7
:1020D800FEF774FE38BD00BF7908002034000020E8
:1020E800004800405C000020004400400501050055
:1020F8000701070070B50446817B0809E27B1509D2
:1021080005EB85056B0002F00F02134400EB80021B
:10211800500003EB830303EB83039A00831801F059
:102128000F010B4413F0FF0511D0264E2946304607
:1021380002F0E6F9244B1D70304602F027FA85427A
:1021480002D19423237204E0D423237201E0D42320
:10215800237200236372A37205E0E15CA27A0A4449
:10216800A27201339BB2092BF7D91623E37200221E
:10217800164B1A70164D2B680C229968204603F0EE
:1021880041FA2B68986803F0A9F910B9114803F0CF
:10219800C5F9114D2B680C229968204603F032FAD4
:1021A8002B68986803F09AF950B90C4C00220C4936
:1021B8002046FEF703FE01220A492046FEF7FEFDEF
:1021C80070BD00BF10EF01085420002079080020DE
:1021D80034000020004800405C000020004400401B
:1021E800050105000701070070B50446857BC17B22
:1021F8002846FEF77BFE40F6970398421CDC224BEC
:102208001860224E2946304602F07AF9E17B2048D0
:1022180002F076F9304602F0B9F9A37B984208D16A
:102228001B4802F0B3F9E37B984202D1942323724E
:1022380004E0D423237201E0D423237200236372C1
:10224800A37205E0E15CA27A0A44A27201339BB250
:10225800092BF7D91623E3720E4D2B680C229968C7
:10226800204603F0CFF92B68986803F037F950B986
:10227800094C002209492046FEF7A0FD0122084921
:102288002046FEF79BFD70BD5020002008EF010896
:102298000CEF01085C000020004400400501050027
:1022A8000701070070B582B00446912303720C231E
:1022B8004372304802F068F906462F4802F064F984
:1022C8000546B6F1FF3F00D1002604F11103009343
:1022D80004F1100304F10F0204F10E013046FFF778
:1022E80007FAB5F1FF3F00D1002504F1150300936B
:1022F80004F1140304F1130204F112012846FFF754
:10230800F7F90023A37505E0E15CA27D0A44A275F4
:102318000133DBB2152BF7D91623E3750022174BCF
:102328001A70174D2B6818229968204603F06AF92D
:102338002B68986803F0D2F810B9124803F0EEF849
:10234800114D2B6818229968204603F05BF92B6819
:10235800986803F0C3F850B90C4C00220C49204689
:10236800FEF72CFD01220B492046FEF727FD02B09F
:1023780070BD00BF00F001083CF00108790800209A
:1023880034000020004800405C0000200044004069
:10239800050105000701070070B50446857BC17B70
:1023A8002846FEF7A3FD40F6980398421EDD234B0E
:1023B8001860234E2946304602F0A2F8E17B2148F6
:1023C80002F09EF8304602F0DFF8C0B2A37B9842D4
:1023D80009D11C4802F0D8F8C0B2E37B984202D178
:1023E8009423237204E0D423237201E0D4232372BC
:1023F80000236372A37205E0E15CA27A0A44A27228
:1024080001339BB2092BF7D91623E3720E4D2B68C3
:102418000C229968204603F0F5F82B68986803F0B9
:102428005DF850B9094C002209492046FEF7C6FC60
:10243800012208492046FEF7C1FC70BD3C2000205F
:1024480000EF010804EF01085C0000200044004090
:10245800050105000701070070B50446817BFF29C7
:1024680010D1324D2970324E304602F049F83046CC
:1024780002F08CF82B78984201D1942300E0D42301
:1024880023721BE0C1B9FEF7ABF82A48FEF7F0F853
:10249800FEF7B6F8A17B254D2970254E304602F08F
:1024A8002FF8304602F072F82B78984201D1942325
:1024B80000E0D423237201E0D42303720023637263
:1024C800A37205E0E15CA27A0A44A27201339BB2CE
:1024D800092BF7D91623E3720022174B1A70174DF0
:1024E8002B680C229968204603F08CF82B689868B2
:1024F80002F0F4FF10B9124803F010F8114D2B68E0
:102508000C229968204603F07DF82B68986802F041
:10251800E5FF50B90C4C00220C492046FEF74EFC52
:1025280001220B492046FEF749FC70BD4C000020F3
:1025380018EF010800F00108790800203400002095
:10254800004800405C0000200044004005010500F0
:102558000701070038B50446837BCBB9294DFF2115
:10256800284601F0CDFFFF22274B1A70FEF738F8F6
:102578002648FEF77DF8FEF743F8284602F006F8ED
:10258800FF2802D19423237204E0D423237201E0AC
:10259800D423037200236372A37205E0E15CA27A7C
:1025A8000A44A27201339BB2092BF7D91623E372AE
:1025B8000022174B1A70174D2B680C229968204679
:1025C80003F020F82B68986802F088FF10B91248C9
:1025D80002F0A4FF114D2B680C229968204603F0E5
:1025E80011F82B68986802F079FF50B90C4C00225A
:1025F8000C492046FEF7E2FB01220B492046FEF774
:10260800DDFB38BD18EF01084C00002000F0010880
:102618007908002034000020004800405C000020B9
:10262800004400400501050007010700F8B506460B
:102638000D463A4B1B78012B11D013B1022B41D018
:1026480065E0012202F0B8FF0446002864D02B7828
:10265800682B5ED10123314A1370314A1370092265
:10266800691C304602F0A8FF074680B914212D4B9B
:10267800188802F02DFF044600284DD00023274A71
:102688001370274A1370274A13803C4644E0EB79BD
:10269800682B04D16B7A03F10C02FE2A07DD0024B3
:1026A8001E4B1C701E4B1C701E4B1C8034E01E4AB7
:1026B80013700222194B1A701A4B00221A80012239
:1026C800174B1A70184B1A78023205F10A01304676
:1026D80002F072FF044668B91421124B188802F000
:1026E800F7FEC0B100230D4A13700D4A13700D4A4E
:1026F800138011E00023094A1370094A1370094A2C
:1027080013802846FEF7A8FB30B1002404E000241B
:1027180002E0002400E004462046F8BD7C0C0020BE
:1027280064180020661800207908002010B50023DE
:102738001CE0214A12F83310827A914214D11E4AC1
:1027480002EBC3025178C27A91420DD11A4A02EBC8
:10275800C3029178027B914206D1174A02EBC30467
:10276800E178427B914203D00133DBB2322BE0D9CE
:10277800322B1FD8104A02EBC3035B680F4A9342FF
:1027880018D00F4A934215D00E4A934212D00E4ADF
:1027980093420FD00D4A93420CD00D4A934209D070
:1027A8000C4A934206D00C4A934203D00B4A9342F8
:1027B80000D0984710BD00BF705A00082D120008BD
:1027C800A9140008BD140008D92E00082D310008EE
:1027D8009D32000861240008FD2000085D250008DE
:1027E80010B500231CE01B4A12F83310827A91427C
:1027F80014D1184A02EBC3025178C27A91420DD122
:10280800144A02EBC3029178027B914206D1114A25
:1028180002EBC304E178427B914203D00133DBB27F
:10282800072BE0D9072B13D80A4A02EBC3035B68CE
:10283800094A93420CD0094A934209D0084A934264
:1028480006D0084A934203D0074A934200D09847DB
:1028580010BD00BF085C000861240008FD200008C6
:102868005D250008891F0008AD22000870B50446E0
:10287800C37A323B042B00F2E580DFE813F0050051
:10288800E3005F008B00B700912303720A234372B1
:102898006D4B1D686D4B1E68B54206DC6C4B1B68A2
:1028A8009D4204DA40F6980501E040F69805664B2B
:1028B8001D602846FEF788FEA0732846FEF7AEFE88
:1028C800E073644B1D68AE4206DB614B1B689D429A
:1028D80004DA40F6980501E040F698055D4B1D6066
:1028E8002846FEF771FE20742846FEF797FE6074AE
:1028F800594B1D68AE4206DB554B1B689D4204DAF6
:1029080040F6980501E040F69805534B1D602846AF
:10291800FEF75AFEA0742846FEF780FEE0740023F6
:102928001A4604E0E15C0A44D2B20133DBB2132B4D
:10293800F8D9227516236375012070BD424B1D68B6
:10294800424B1B689D4206DC414B1B689D4204DAE2
:1029580040F6980501E040F698053B4B1D60912331
:102968002372062363722846FEF72EFEA0732846BC
:10297800FEF754FEE07300231A4604E0E15C0A44C3
:10298800D2B20133DBB20F2BF8D922741623637449
:10299800012070BD2F4B1D682C4B1B689D4206DC27
:1029A8002B4B1B689D4204DA40F6980501E040F67F
:1029B8009805284B1D6091232372062363722846CD
:1029C800FEF702FEA0732846FEF728FEE0730023F8
:1029D8001A4604E0E15C0A44D2B20133DBB20F2BA1
:1029E800F8D9227416236374012070BD1A4B1D6830
:1029F800164B1B689D4206DC154B1B689D4204DA8A
:102A080040F6980501E040F69805134B1D609123A8
:102A18002372062363722846FEF7D6FDA073284664
:102A2800FEF7FCFDE07300231A4604E0E15C0A446B
:102A3800D2B20133DBB20F2BF8D922741623637498
:102A4800012070BD002070BD600000203C200020E7
:102A5800502000203C00002024000020F8B5194830
:102A680001F094FD184B1870184801F08FFD0446CA
:102A7800174801F08BFD0546164801F087FD06460C
:102A8800154801F083FD0746FF2C0ED1FF2D0CD110
:102A9800FF2E0AD1FF2808D140F62E120F4B1A60DC
:102AA80040F2BC720E4B1A60F8BD29462046FEF76C
:102AB8001DFA0A4B186039463046FEF717FA084BDC
:102AC8001860F8BD14EF01087808002000EF01082D
:102AD80004EF010808EF01080CEF01083C20002072
:102AE80050200020F0B51F4B1E68A6F596611E4BBE
:102AF8001D68AA1B91FBF2F10131C5F52F6494FB07
:102B0800F2F4854216DA0134B0F52F6F12DCAB18F7
:102B180098420CDC451BA0EB4500F0BD013303FBDC
:102B280002F705EB070E704502DCC01BF0BD012360
:102B3800A342F3DB864214DDB0F5966F11DBB31ABE
:102B480098420BDB361A00EB4600F0BD013303FB5D
:102B580002F4351BA84202DB2044F0BD01238B425E
:102B6800F4DBF0BD502000203C200020F8B57A4B63
:102B78001B78002B00F0EF80037A912B40F0EB805C
:102B8800837A332B40F0E780037B342B40F0E380DB
:102B9800437B352B40F0DF800446C57A322D62D165
:102BA800867BC77B39463046FEF77AF9C8B1394685
:102BB8003046FEF79BF9694B1860694B1B689842D1
:102BC80003DC684B1B6898420BDAFFF78BFF06465D
:102BD800624B1860FEF7F8FCA0733046FEF71EFD46
:102BE800E073267C677C39463046FEF759F9C8B150
:102BF80039463046FEF77AF95B4B1860584B1B682C
:102C0800984203DC574B1B6898420BDAFFF76AFFC0
:102C18000646554B1860FEF7D7FC20743046FEF781
:102C2800FDFC6074A67CE77C39463046FEF738F92F
:102C3800C8B139463046FEF759F94C4B1860484B35
:102C48001B68984203DC474B1B6898420BDAFFF776
:102C580049FF0646454B1860FEF7B6FCA07430469F
:102C6800FEF7DCFCE074342D20D1A67BE77B3946E7
:102C78003046FEF715F9C8B139463046FEF736F941
:102C8800364B1860364B1B68984203DC354B1B6883
:102C980098420BDAFFF726FF0646304B1860FEF71E
:102CA80093FCA0733046FEF7B9FCE073352D20D1B4
:102CB800A67BE77B39463046FEF7F2F8C8B13946BD
:102CC8003046FEF713F9284B1860254B1B689842CD
:102CD80003DC244B1B6898420BDAFFF703FF064618
:102CE800214B1860FEF770FCA0733046FEF796FC87
:102CF800E073362D20D1A57BE67B31462846FEF7CA
:102D0800CFF8C8B131462846FEF7F0F8174B1860DF
:102D1800134B1B68984203DC124B1B6898420BDA72
:102D2800FFF7E0FE0546114B1860FEF74DFCA07357
:102D38002846FEF773FCE07300231A4604E0E15CC2
:102D48000A44D2B20133DBB20949097801F10A0019
:102D58008342F4DB2254F8BD78080020600000208C
:102D68003C200020502000203C00002024000020AF
:102D78007908002008B50122044B1A700023044A80
:102D88001370044A1380FFF7F1FE08BD5520002098
:102D9800681800206218002008B5174BC8221A606E
:102DA800164A5A60164801F0EFFBB0F1FF3F06D112
:102DB8005021114B9960124801F0A2FB01E00E4B23
:102DC8009860104801F0E0FBB0F1FF3F10D10A48CD
:102DD80043688268B3FBF2F202EB4202D3000A496D
:102DE800A1FB0331C908C160064801F089FB08BD91
:102DF800014BD86008BD00BF4020002000650400DA
:102E080020EF01081CEF0108CDCCCCCC08B5084850
:102E180001F0BCFB074B1870074801F0B7FBFF280F
:102E280003D15A22054B1A7008BD044B187008BD0F
:102E380018EF01084C00002010EF01085420002072
:102E48002DE9F041064688461746084601F09CFBE6
:102E58000546384601F098FBB5F1FF3F03D004461C
:102E6800B0F1FF3F0AD13146404601F049FB3146F7
:102E7800384601F045FB3046BDE8F081B5420CD834
:102E8800751B114B1878A0FB050164220023323012
:102E980041F10001FDF7A2F900E0002004440B4BCA
:102EA8009C4205D904F17A4404F5212404F60174FE
:102EB8003146404601F024FB2146384601F020FB0C
:102EC8002046BDE8F08100BF54200020FFE0F50552
:102ED800834B1B78002B00F001812DE9F04383B070
:102EE8000446437C027CC17B807BFEF7B5FB05462C
:102EF800E37A323B052B00F28180DFE803F03F03E1
:102F0800272D3339237B482B0ED002D8342B05D0FC
:102F180074E05C2B0ED0702B12D06FE0714A7249AE
:102F2800FFF78EFF054669E0704A7149FFF788FF91
:102F3800054663E06F4A7049FFF782FF05465DE08A
:102F48006E4A6F49FFF77CFF054657E06D4A6E49A8
:102F5800FFF776FF054651E06C4A6D49FFF770FFB1
:102F680005464BE06B4A6C49FFF76AFF054645E0AA
:102F78006A4A6B49FFF764FF05463FE0637D227D9F
:102F8800E17CA07CFEF768FB5E4A5F49FFF758FFCB
:102F98008146637E227EE17DA07DFEF75DFB5B4A74
:102FA8005B49FFF74DFF8046637F227FE17EA07E6D
:102FB800FEF752FB574A5849FFF742FF074694F875
:102FC800213094F82020E17FA07FFEF745FB534A8B
:102FD8005349FFF735FF0646637C227CE17BA07BE3
:102FE800FEF73AFB0146404801F08AFA09EB08056A
:102FF8003D44354429463B4801F082FAE37A322BB6
:103008001CD068D3372B66D804F11103009304F160
:10301800100304F10F0204F10E012846FEF768FBC5
:103028000023A37405E0E15CA27C0A44A274013386
:103038009BB2112BF7D91623E3744CE004F111036A
:10304800009304F1100304F10F0204F10E01284665
:10305800FEF74EFB04F11503009304F1140304F189
:10306800130204F112014846FEF742FB04F119036A
:10307800009304F1180304F1170204F11601404605
:10308800FEF736FB04F11D03009304F11C0304F161
:103098001B0204F11A013846FEF72AFB04F121034A
:1030A800009304F1200304F11F0204F11E013046CD
:1030B800FEF71EFB002384F8223007E0E15C94F859
:1030C80022200A4484F8222001339BB2212BF5D90F
:1030D800162384F8233003B0BDE8F083704700BF9F
:1030E8004C00002074F0010870F001089CF0010801
:1030F80098F00108A4F00108A0F00108ACF001085C
:10310800A8F001087CF0010878F0010884F00108B3
:1031180080F001088CF0010888F0010894F001089B
:1031280090F001084A4B1B78002B00F08F802DE9A6
:10313800F04182B00446437D027DC17C807CFEF76D
:103148008BFA444A4449FFF77BFE804604F1150395
:10315800009304F1140304F1130204F11201FEF7C1
:10316800C7FA637E227EE17DA07DFEF775FA3B4AB1
:103178003B49FFF765FE064604F11903009304F185
:10318800180304F1170204F11601FEF7B1FA637F80
:10319800227FE17EA07EFEF75FFA324A3249FFF7CE
:1031A8004FFE054604F11D03009304F11C0304F1CE
:1031B8001B0204F11A01FEF79BFA94F8213094F8E7
:1031C8002020E17FA07FFEF747FA284A2849FFF729
:1031D80037FE074604F12103009304F1200304F1AC
:1031E8001F0204F11E01FEF783FA637C227CE17B57
:1031F800A07BFEF731FA01461E4801F081F94644EA
:103208002E44BD1929461C4801F07AF904F111032E
:10321800009304F1100304F10F0204F10E01284693
:10322800FEF766FA002384F8223007E0E15C94F8A0
:1032380022200A4484F8222001339BB2212BF5D99D
:10324800162384F8233002B0BDE8F081704700BF30
:103258004C00002040F0010804F0010844F0010887
:1032680008F0010848F001080CF001084CF00108CA
:1032780010F0010800F001083CF0010808B5044B03
:103288001A78A0FB020164220023FCF7A7FF08BDFF
:1032980054200020504B1B78002B00F09B8010B569
:1032A80082B00446C37A322B72D1437C027CC17B44
:1032B800807BFEF7D1F9FFF7E1FF04F111030093DA
:1032C80004F1100304F10F0204F10E01FEF710FAE5
:1032D800637D227DE17CA07CFEF7BEF9FFF7CEFF7F
:1032E80004F11503009304F1140304F1130204F12B
:1032F8001201FEF7FDF9637E227EE17DA07DFEF7D7
:10330800ABF9FFF7BBFF04F11903009304F11803AD
:1033180004F1170204F11601FEF7EAF9637F227F30
:10332800E17EA07EFEF798F9FFF7A8FF04F11D03E0
:10333800009304F11C0304F11B0204F11A01FEF7C7
:10334800D7F994F8213094F82020E17FA07FFEF788
:1033580083F9FFF793FF04F12103009304F120039D
:1033680004F11F0204F11E01FEF7C2F9002384F8DC
:10337800223007E0E15C94F822200A4484F82220F5
:1033880001339BB2212BF5D9162384F823301FE093
:10339800437C027CC17B807BFEF75EF9FFF76EFF02
:1033A80004F11103009304F1100304F10F0204F176
:1033B8000E01FEF79DF90023A37405E0E15CA27CF1
:1033C8000A44A27401339BB2112BF7D91623E37474
:1033D80002B010BD704700BF4C0000202DE9F0413D
:1033E8000D460378002B00F00C81012B00F00B81B7
:1033F800022B2FD1417811F0800F01D101231DE05C
:1034080001F07F01012902D18178022316E0022907
:1034180005D18178C37843EA012103230EE003290B
:1034280003D181780904042308E0042903D18178B1
:103438000906052302E000234FF0FF310029C0F2FE
:10344800EA800133002202E001339BB201328A4252
:10345800FADBD9E0032B5AD1467816F0800F01D158
:1034680001211DE006F07F06012E02D18678022197
:1034780016E0022E05D18678C37843EA0626032192
:103488000EE0032E03D186783604042108E0042ECA
:1034980003D186783606052102E000214FF0FF3679
:1034A800002EC0F2BC804B1C184400242CE002788B
:1034B80012F0800F01D101211CE002F07F02012AE5
:1034C80002D14278022115E0022A05D1417882789A
:1034D80042EA012203210DE0032A03D142781204B3
:1034E800042107E0042A03D142781206052101E0ED
:1034F8004FF0FF32002AC0F296800B448F183844F0
:1035080012FA83F39BB20134B442D0DB7CE0042B83
:103518002ED1417811F0800F01D101231DE001F077
:103528007F01012902D18178022316E0022905D101
:103538008178C37843EA012103230EE0032903D1EC
:1035480081780904042308E0042903D18178090655
:10355800052302E000234FF0FF31002967DB013328
:10356800002202E002339BB201328A42FADB4BE0CE
:10357800053BDBB2022B5ED8467816F0800F01D1EE
:1035880001221DE006F07F06012E02D18678022274
:1035980016E0022E05D18678C37843EA0626032270
:1035A8000EE0032E03D186783604042208E0042EA8
:1035B80003D186783606052202E000224FF0FF3656
:1035C800002E3CDB531CC4184FF0000816E00134F1
:1035D800581C87B2E91B204600F03EF8002832DB71
:1035E8000444384487B2E91B204600F035F8002827
:1035F8002DDB0444384483B208F10108B045E6DB0A
:1036080002E0012300E0012318469D4221DA4FF031
:10361800FF30BDE8F0814FF0FF30BDE8F0814FF09A
:10362800FF30BDE8F0814FF0FF30BDE8F0814FF08A
:10363800FF30BDE8F0814FF0FF30BDE8F0814FF07A
:10364800FF30BDE8F0814FF0FF30BDE8F0814FF06A
:10365800FF30BDE8F08100BF2DE9F0410D46421C66
:103668000378602B00F2B083DFE813F06100630099
:103678009E00A403D90016011801AE03AE031A0177
:103688004501AE037001AE03AE03A4039B01A4037E
:103698009D01AE039F01A101A403A301A501A701F8
:1036A800A901AB01AD01AE03AE03AE03AE03AE0399
:1036B800AE03AE03AE03AE03AE03AE03AE03AE037A
:1036C800AE03AE03AE03AE03AE03AE03AE03AE036A
:1036D800AE03AE03AE03AE03AE03AE03AE03AE035A
:1036E800AE03AE03AE03AE03AE03AE03AE03AE034A
:1036F800AE03AE03AE03AE03AE03AE03AE03AE033A
:10370800AE03AE03AE03AE03AE03AE03AF01B10129
:10371800B301E301E501E701120212023D02510281
:1037280053025D029702A102CC022403260301245E
:1037380043E3477817F0800F01D101261DE007F019
:103748007F07012F02D18778022616E0022F05D1C4
:103758008778C37843EA072703260EE0032F03D1AF
:1037680087783F04042608E0042F03D187783F06B2
:10377800052602E000264FF0FF37002FC0F228830D
:10378800741C16444FF000080BE0291B3046FFF765
:1037980063FF002840F3208306440444A4B208F1E0
:1037A8000108B845F1DB08E3477817F0800F01D12D
:1037B80001261DE007F07F07012F02D18778022636
:1037C80016E0022F05D18778C37843EA0727032636
:1037D8000EE0032F03D187783F04042608E0042F66
:1037E80003D187783F06052602E000264FF0FF3711
:1037F800002FC0F2F582741C16444FF000080BE04D
:10380800291B3046FFF728FF002840F3ED820644C5
:103818000444A4B208F10108B845F1DBCDE24378CD
:1038280013F0800F01D101221DE003F07F03012B6B
:1038380002D18378022216E0022B05D18278C37860
:1038480043EA022303220EE0032B03D183781B04EF
:10385800042208E0042B03D183781B06052202E02A
:1038680000224FF0FF33002BC0F2C282013213F066
:10387800070F07D11C46002B00DADC1D02EBE4021F
:1038880094B29AE21C46002B00DADC1D02EBE40439
:10389800A4B20134A4B290E205248EE205248CE29D
:1038A800447814F0800F01D101231DE004F07F0457
:1038B800012C02D18478022316E0022C05D18478E9
:1038C800C37843EA042403230EE0032C03D184784D
:1038D8002404042308E0042C03D184782406052357
:1038E80002E000234FF0FF34002CC0F28582013340
:1038F8001C44A4B261E2447814F0800F01D1012382
:103908001DE004F07F04012C02D18478022316E024
:10391800022C05D18478C37843EA042403230EE0FB
:10392800032C03D184782404042308E0042C03D155
:1039380084782406052302E000234FF0FF34002C8E
:10394800C0F25E8201331C44A4B236E2447814F01B
:10395800800F01D101231DE004F07F04012C02D166
:103968008478022316E0022C05D18478C37843EAD0
:10397800042403230EE0032C03D1847824040423B5
:1039880008E0042C03D184782406052302E00023F0
:103998004FF0FF34002CC0F2378201331C44A4B22C
:1039A8000BE2032409E2032407E2092405E20924BF
:1039B80003E2052401E20924FFE10B24FDE10624CA
:1039C800FBE10424F9E10824F7E10324F5E10524E7
:1039D800F3E1427912F0800F01D101241DE002F0D9
:1039E8007F02012A02D18279022416E0022A05D137
:1039F8008279C37943EA022203240EE0032A03D121
:103A080082791204042408E0042A03D18279120678
:103A1800052402E000244FF0FF32002AC0F2F881AA
:103A28000534002302E00434A4B201339342FADBE4
:103A3800C3E10524C1E10424BFE1447814F0800FF8
:103A480001D101231DE004F07F04012C02D1847808
:103A5800022316E0022C05D18478C37843EA0424B3
:103A680003230EE0032C03D184782404042308E004
:103A7800042C03D184782406052302E000234FF0A8
:103A8800FF34002CC0F2C88101331C44A4B294E175
:103A9800447814F0800F01D101231DE004F07F0465
:103AA800012C02D18478022316E0022C05D18478F7
:103AB800C37843EA042403230EE0032C03D184785B
:103AC8002404042308E0042C03D184782406052365
:103AD80002E000234FF0FF34002CC0F2A181013333
:103AE8001C44A4B269E1861CA91E3046FFF7B4FD48
:103AF8000028C0F29981841CA4B2291B3044FFF726
:103B0800ABFD0028C0F294810444A4B255E103241B
:103B180053E1691E104600F0C3F90028C0F28C81F9
:103B2800013084B249E14378002B00F04581012B34
:103B380040F08681827912F0800F01D101241DE0C6
:103B480002F07F02012A02D1C279022416E0022A79
:103B580005D1C279037A43EA022203240EE0032A3C
:103B680003D1C2791204042408E0042A03D1C279DB
:103B78001206052402E000244FF0FF32002AC0F2AA
:103B880063810634002305E0A542C0F26181043454
:103B9800A4B201339342F7DB0FE1691E1046FFF729
:103BA8001DFC0028C0F25881013084B205E1447937
:103BB80014F0800F01D101231DE004F07F04012CD3
:103BC80002D18479022316E0022C05D18479C379C5
:103BD80043EA042403230EE0032C03D1847924044C
:103BE800042308E0042C03D184792406052302E089
:103BF80000234FF0FF34002CC0F2328105331C44FF
:103C0800A4B2DAE0441D437913F0800F01D10122F8
:103C18001DE003F07F03012B02D18379022216E015
:103C2800022B05D18279C37943EA022303220EE0ED
:103C3800032B03D183791B04042208E0042B03D14E
:103C480083791B06052202E000224FF0FF33002B88
:103C5800C0F20A81511DD01826180B449BB2245C6F
:103C680014F0800F01D101221CE004F07F04012C24
:103C780002D17478022215E0022C05D17478B2784A
:103C880042EA042403220DE0032C03D174782404AF
:103C9800042207E0042C03D174782406052201E0ED
:103CA8004FF0FF34002CC0F2E380134414FA83F47D
:103CB800A4B282E0062480E0467816F0800F02D194
:103CC8004FF0010E22E006F07F06012E03D1867820
:103CD8004FF0020E1AE0022E06D18678C37843EA26
:103CE80006264FF0030E11E0032E04D18678360421
:103CF8004FF0040E0AE0042E04D1867836064FF001
:103D0800050E03E04FF0000E4FF0FF36002EC0F214
:103D1800B3800EF1010402EB0E03002747E0A54231
:103D2800C0F2AE801A781AB905330534A4B23DE062
:103D3800012A40F0A9805A1D0534A4B2597911F01E
:103D4800800F02D14FF0010E20E001F07F01012920
:103D580003D199794FF0020E18E0022906D199791A
:103D6800DB7943EA01214FF0030E0FE0032904D168
:103D7800997909044FF0040E08E0042904D19979CF
:103D880009064FF0050E01E04FF0FF3100297FDBF7
:103D98007444A4B202EB0E03002205E0A5427BDBCB
:103DA80004330434A4B201328A42F7DB0137B74244
:103DB800B5DB02E0022400E006242046A5426DDAC5
:103DC8004FF0FF30BDE8F0814FF0FF30BDE8F081E3
:103DD8004FF0FF30BDE8F0814FF0FF30BDE8F081D3
:103DE8004FF0FF30BDE8F0814FF0FF30BDE8F081C3
:103DF8004FF0FF30BDE8F0814FF0FF30BDE8F081B3
:103E08004FF0FF30BDE8F0814FF0FF30BDE8F081A2
:103E18004FF0FF30BDE8F0814FF0FF30BDE8F08192
:103E28004FF0FF30BDE8F0814FF0FF30BDE8F08182
:103E38004FF0FF30BDE8F0814FF0FF30BDE8F08172
:103E48004FF0FF30BDE8F0814FF0FF30BDE8F08162
:103E58004FF0FF30BDE8F0814FF0FF30BDE8F08152
:103E68004FF0FF30BDE8F0814FF0FF30BDE8F08142
:103E78004FF0FF30BDE8F0814FF0FF30BDE8F08132
:103E88004FF0FF30BDE8F0814FF0FF30BDE8F08122
:103E98004FF0FF30BDE8F0814FF0FF30BDE8F08112
:103EA8002DE9F0410D460378002B00F0A680012B88
:103EB80009D105390530FFF7CFFB0028C0F2A780EC
:103EC800431D9BB29CE0022B1ED100F10508053969
:103ED8004046FFF7C1FB0028C0F29D8080440530B2
:103EE80084B2291B4046FFF7B7FB0028C0F2978031
:103EF8000444A4B2291B4044FFF7AEFB0028C0F2DB
:103F0800928023189BB27BE0032B4DD1477817F0A2
:103F1800800F01D101221DE007F07F07012F02D198
:103F28008778022216E0022F05D18778C37843EA02
:103F3800072703220EE0032F03D187783F040422CA
:103F480008E0042F03D187783F06052202E000220B
:103F58004FF0FF37002F6ADB531C00EB03080026E5
:103F68001FE008F1040804339CB2291B4046FFF700
:103F780073FB00285FDB80440444A4B2291B40463D
:103F8800FFF76AFB00285ADB80440444A4B2291BCB
:103F98004046FFF761FB002855DB804423189BB29D
:103FA8000136BE42DDDB2BE01A1FD2B2012A09D846
:103FB80008390830FFF712FA002848DB00F1080337
:103FC8009BB21DE09A1FD2B2022A09D812391230C8
:103FD800FFF704FA00283EDB00F112039BB20FE062
:103FE800092B0CD00A2B3AD102390230FFF7F6F927
:103FF800002838DB023083B202E0012300E002230C
:1040080018469D4231DA4FF0FF30BDE8F0814FF09D
:10401800FF30BDE8F0814FF0FF30BDE8F0814FF090
:10402800FF30BDE8F0814FF0FF30BDE8F0814FF080
:10403800FF30BDE8F0814FF0FF30BDE8F0814FF070
:10404800FF30BDE8F0814FF0FF30BDE8F0814FF060
:10405800FF30BDE8F0814FF0FF30BDE8F0814FF050
:10406800FF30BDE8F0814FF0FF30BDE8F08100BFC0
:1040780010B409E00B784340DBB2074A32F813303A
:1040880083EA102022460131541E002AF2D1C0438F
:1040980080B25DF8044B7047485C0008F8B50446E8
:1040A80085896E1E0768AA1E791C4FF6FF70FFF7F8
:1040B800DFFFB8552368000A58550120F8BD00BF36
:1040C80010600378902B2DD143785BBB817811F079
:1040D800800F01D101231DE001F07F01012902D1E8
:1040E800C178022316E0022905D1C178037943EA91
:1040F800012103230EE0032903D1C1780904042315
:1041080008E0042903D1C1780906052302E0002349
:104118004FF0FF31002903DB02331844106001E03F
:104128004FF0FF310846704708B5838902899B1A0A
:10413800083B0A4699B24068FFF7C2FF80B208BD43
:1041480000B583B0019008464FF48071FFF784FAF8
:1041580003B05DF804FB00BF4378027843EA02230A
:104168000B8083788B70C378CB700420704700BFB6
:10417800F0B583B04378012B02D0022B03D04CE07A
:10418800C41C012604E0041DC67816F0800F47D130
:104198000F4640F2FC520021384601F04FFC012343
:1041A8003B70002535E001A92046FFF7D5FF22180E
:1041B800235C0BB9941C2AE0012B34D1541C2146F2
:1041C8000198FFF7BDFF002830DBBDF80430B3F5D8
:1041D800005F1BD1BA79510001EB020E4FEA8E0342
:1041E8003B444FF4005EA3F808E09DF806E083F82E
:1041F8000AE09DF807E083F80BE0D8811C618B1872
:104208009900394401230B731A44BA7104440135E7
:10421800EDB2B542C7D301200AE04FF0FF3007E006
:104228004FF0FF3004E04FF0FF3001E04FF0FF3077
:1042380003B0F0BD82B080B2A0F5A0439BB2032BBF
:104248000FD945F2040398420DD045F2060398426F
:104258000BD0A0F5405080B2B0F5407F07D20520C2
:1042680006E0022004E0032002E0042000E0002031
:1042780002B070472DE9F84F4378032B02D0042B86
:1042880004D077E0C51C4FF0010805E0C51C90F884
:10429800008018F0800F71D10E4640F2FC520021C8
:1042A800304601F0CBFB00275FE0B11C2846FFF742
:1042B80053FF0446D6F80200FFF7BCFF3070002811
:1042C80060D0601C284415F8049019F0800F5DD167
:1042D80000240EE00378002B5CD1451C04EB44035A
:1042E8009900083131442846FFF736FF2844013445
:1042F800E4B24C45EED303780BB9851C33E0012BAF
:104308004CD1851C90F801B01BF0800F4AD1BBF14D
:10431800000F4BD04FF0000A23E00024B4711AE0DC
:1043280004EB44029300334429469868FFF708FFDA
:1043380000283EDB630019198A0011463244D081F7
:1043480015610A46324401231373B3790133B371FB
:1043580005440134E4B24C45E2D30AF1010A5FFA9C
:104368008AFADA45D9D30137FFB247459DD30120F0
:10437800BDE8F88F4FF0FF30BDE8F88F4FF0FF3001
:10438800BDE8F88F4FF0FF30BDE8F88F4FF0FF30F1
:10439800BDE8F88F4FF0FF30BDE8F88F4FF0FF30E1
:1043A800BDE8F88F4FF0FF30BDE8F88F0020BDE87A
:1043B800F88F4FF0FF30BDE8F88F00BF08B50378DD
:1043C800852B0ED111464378013B032B0CD8DFE82F
:1043D80003F002020505FFF7CBFE08BDFFF74AFF11
:1043E80008BD4FF0FF3008BD4FF0FF3008BD00BFDB
:1043F80070B584680379EBB12378DBB1012B19D14F
:1044080066780334002513E06378207843EA0020B7
:10441800094B1B68984203DC084B1B68984204DA76
:10442800FEF760FB03122370607003340135EDB2B0
:10443800B542E9D370BD00BF3C20002050200020C9
:10444800F0B587B084680023019302930393049323
:1044580005930379002B47D02378002B44D0012BF8
:1044680042D16778083401252EE0E378A07843EA42
:1044780000236278207842EA002043EA004006AB35
:1044880003EB850646F8140C05F1007101F5F841B7
:10449800164A2A4492008900FEF7D2FC46F8140C0A
:1044A800000E207036F8123C637056F8143C1B0A54
:1044B800A37056F8143CE370053456F8143C019A7E
:1044C800134401930135EDB2BD42CED307EB870704
:1044D800E41B9DF807302370BDF806306370019B1C
:1044E8001B0AA370019BE37007B0F0BD0F7C0002AC
:1044F80008B50220FCF76AF83420FCF789F808BDF3
:104508002DE9F041ADF5806DC0F3870410F0030F7D
:1045180033D120F47F7626F00306002305E056F811
:1045280023204DF8232001339BB2FF2BF7D90F46E8
:1045380080464DF82410FCF753F84046FCF798F8ED
:10454800002502240FE01C465DF8251006EB8500C7
:10455800FCF7ACF8042804D0631EDBB2002CF2D1BF
:104568001C460135ADB2FF2DEED9FCF749F8D8F855
:1045780000309F4203D1012002E0002000E000202B
:104588000DF5806DBDE8F081006870470068C0B225
:10459800704700BF2DE9F04383B001214FF480201C
:1045A800FCF756FADFF82881072206214046FCF777
:1045B8000FF9072211464046FCF70AF902248DF844
:1045C800044000278DF8067001258DF807508DF8F6
:1045D800054002AEC02346F8083D31464046FCF788
:1045E80097F8072208214046FCF7F2F8072209212C
:1045F8004046FCF7EDF88DF806704FF440730093D1
:1046080031464046FCF784F829464FF40030FCF761
:104618001FFA00958DF804508DF806508DF8054066
:104628008DF8077031464FF09040FCF771F8294635
:104638004FF40020FCF70CFA4FF40059CDF8009025
:104648008DF804508DF806708DF805408DF80740F8
:1046580008F5806831464046FCF75AF82A4649462C
:104668004046FCF7AFF800948DF804408DF80670CA
:104678004FF003088DF805808DF8075031464FF04C
:104688009040FCF745F8224629464FF09040FCF749
:104698009FF8072221464FF09040FCF799F807222F
:1046A80041464FF09040FCF793F88DF804408DF8A0
:1046B80006708DF807508DF805400C23009331469D
:1046C8004FF09040FCF724F803B0BDE8F08300BF3A
:1046D8000004004830B587B001214FF48020FCF772
:1046E800B7F98025049500248DF814408DF81740FB
:1046F80002238DF8153004A91248FCF709F80121A6
:104708000846FCF7B3F907210120FCF7E7F9029501
:104718008DF80C4010238DF80D3001248DF80E40D3
:1047280002A8FBF7F5FE17238DF804308DF8054035
:104738008DF806408DF8074001A8FCF76BF807B024
:1047480030BD00BF0004004808B501214FF090407B
:10475800FCF728F830B1002201214FF09040FCF717
:1047680031F808BD012211464FF09040FCF72AF8B5
:1047780008BD00BF08B500224FF400510148FCF7FE
:1047880021F808BD00080048A0F235331C2B0DD9CC
:10479800A0F291131C2B0CD9A0F1BF031C2B0BD931
:1047A8005B381C280BD84FF4165070474FF49660AE
:1047B80070474FF4166070474FF4965070474FF4A7
:1047C8001660704738B50446154B1B680146586893
:1047D800FDF72CFF18B3237A112B0ED1A37A332BB4
:1047E8000BD1237B342B08D1637B352B05D10022D9
:1047F8000C4B1A7001220C4B1A700C4D2B680C4A8A
:1048080012780C329968204600F0FCFE2B689868F4
:1048180000F064FE18B92B68186800F07FFE38BDF8
:10482800380000205520002068180020340000209F
:1048380079080020144B1B7823BB10B51921134BA2
:10484800188800F045FEE0B11148FEF70FF8C0B136
:10485800104C23680E48427A0C32996800F0D2FE58
:104868002368986800F03AFE58B92368186800F081
:1048780055FE0122044B1A700023074A1370034A9D
:10488800138010BD704700BF55200020621800201B
:104898006C180020380000206818002008B50F4B5D
:1048A8001A680F4B1B68D31A834215D90C4B1A6030
:1048B8004FF400510B48FBF77DFF012806D1002279
:1048C8004FF400510748FBF77DFF08BD01224FF464
:1048D80000510448FBF776FF08BD00BF402A0020BE
:1048E8005C1800200008004870B586B000230593C6
:1048F800FFF750FE01E0FFF727FFAC4A1368591E87
:104908001160002BF7D14FF4C060FBF779FFFFF778
:10491800EFFDFFF719FF00F07DFDFFF72BFFA4481F
:1049280000F048FD012000F05FFDFFF7D3FE4FF4D3
:104938009661A04B186800F085FFFEF78FF8FEF728
:104948002BFAFEF763FA0224FFF7FEFE994B1B6869
:10495800586800F0C3FDD0B9964B1B689649586853
:10496800FDF764FE98B19448FDF73AFF914B1B6838
:10497800986800F0B3FD50B9904D00229049284640
:10498800FCF71CFA01228F492846FCF717FA012C7C
:104998007DD0002C00F04E81022CD5D1FFF7D4FE3B
:1049A800894B1B688948A0FB03308008FFF776FF16
:1049B800874B9B68002B31D1854B1B68002BC3D1DB
:1049C800FBF798FD824E7068FFF7DEFEB0604FF48B
:1049D8007A7000F0EFFC012000F006FDB1687D4D13
:1049E800286800F02FFFB1687B4E306800F02AFF7E
:1049F800FFF7AAFE744B1B685B084FF47A7277497D
:104A0800286800F07FFE2B68586800F015FF2868BA
:104A180000F08CFD306800F089FD95E7704B1B783D
:104A2800BBB16C4D286800F091FD00226C4B1A70E8
:104A3800FFF78AFE694C684B1A682146286800F01F
:104A480027FA0146204600F0EDF90446286800F0F0
:104A58006DFD644B1B78002B3FF476AF5E4D2868E4
:104A680000F074FD00225F4B1A70FFF76DFE5E4C7C
:104A7800584B1A682146286800F00AFA0146204671
:104A880000F0D0F90446286800F050FD5CE7FFF715
:104A98005BFE4D4B1868FFF701FF4E4B186800F09E
:104AA80045FD4D4B186800F041FD4D4B1B7893B107
:104AB800484D286800F04AFD0022494B1A70FFF75C
:104AC80043FE454B1A684549286800F0E1F9286813
:104AD80000F02CFD38E7434B1B78002B00F0A58035
:104AE800FFF732FE3C4D286800F030FD00233D4AB8
:104AF800137001934FF47A723B49286800F062FE04
:104B0800054600283FF420AF01AA0146364800F0C8
:104B18002DF928B1354B1B78ABB9354B1B7893B9B8
:104B2800FFF712FE284B1B68324AA2FB03239B099E
:104B38004FF47A7202FB03F32A462B492548006892
:104B480000F086FD71E005A901A8FFF7EDFA01461E
:104B580000285DD0284A0598FFF730FC00284FDC74
:104B680056E005EB45029300234A13441B89B3F52D
:104B7800005F07D105EB4503980008301044FFF7A4
:104B880037FC10E0102B0ED11B4B1B6823F47F431E
:104B98001A4A934207D105EB450293000833164899
:104BA8001844FFF74DFC01352BE000BF70000020D2
:104BB80040420F005C0000205820002000440040C4
:104BC800050105000701070040240020CDCCCCCC0E
:104BD8006400002038000020340000206C180020F9
:104BE8006018002058180020541C00207808002065
:104BF8004C000020D34D62104424002003000450D0
:104C080000253F4B9B799D42ABD301A8FFF746FA9D
:104C1800FFF79AFDBDF810203A4B1B685B0802327B
:104C280001993948006800F013FD384B186800F006
:104C38007DFC89E6334B1868FFF730FEFFF784FDEB
:104C4800314B1B68586800F049FC10B93048FFF731
:104C5800B9FD2E4B1B68586800F040FC10B1FFF7F7
:104C6800E9FD71E6294B1B682A495868FDF7DEFC07
:104C780000282CD1284B1B78002B7FF465AE192116
:104C8800264B188800F024FC00283FF45DAE20482D
:104C9800FDF7ECFD00283FF457AE1B4D2B681C4870
:104CA800427A996800F0AEFC2B68986800F016FC10
:104CB80000287FF449AE1A4800F030FC0122164B58
:104CC8001A700023174A1370144A13803CE6114ED9
:104CD8003046FDF72BFD0C4D2B68134A12780C3229
:104CE8009968304600F08EFC2B68986800F0F6FB57
:104CF80000287FF429AE2B68186800F00FFC23E623
:104D080044240020402400203800002034000020E3
:104D18006C180020541C0020552000206218002028
:104D28000038014068180020790800200C4A1368F0
:104D3800013B13600B4B1A680B4B1B68B3F1FF3F29
:104D48000BD0D31A03F57F43FF339BB206490A60A1
:104D58000268934203D203607047034B1A6070479E
:104D680064000020402A0020740000202DE9F84348
:104D78000D461646682100F069FEB0B30446437834
:104D8800877843EA0727BB1CAB4231D8057905F081
:104D98000F0505F1070900F10108AA1D41464FF664
:104DA800FF70FFF765F914F8093005F108020235BC
:104DB800A25C43EA022398421DD107F1FF39BA1ECB
:104DC80041464FF6FF70FFF753F914F80930E25DDA
:104DD80043EA0223984211D1B781358134600735FF
:104DE800254475602046BDE8F8830020BDE8F883B7
:104DF8000020BDE8F8830020BDE8F8830020BDE866
:104E0800F88300BF10B400231A4604E0C45C2244AF
:104E1800D2B20133DBB28B42F8D310465DF8044BB3
:104E2800704700BF2DE9F0410F46682100F00EFEE3
:104E380010B30546467A0C3643788478240204F485
:104E48007C541C430234C379682B0CD1BE420AD867
:104E5800B11E10F80180FFF7D5FF804503D1013E50
:104E6800AB5D162B0BD0631EEB5C162B0AD1BC4234
:104E78000BD90220BDE8F0810220BDE8F0810020B6
:104E8800BDE8F0810220BDE8F0810120BDE8F08195
:104E980070B50E4615464FF47A7200F093FC88B14F
:104EA8000446094B1B68094AA2FB03239B094FF4DC
:104EB8007A7202FB03F302463146284600F0C8FB2B
:104EC800204670BD002070BD40240020D34D6210E4
:104ED800704700BFFEE700BFFEE700BFFEE700BF68
:104EE800FEE700BF704700BF704700BF704700BFB4
:104EF800024A136801331360704700BF402A00203C
:104F080070B5394B1B6808211868FBF773FF28B187
:104F1800354B1B6808211868FBF774FF324B1B6878
:104F280032491868FBF770FFE8B12F4B1B685868C7
:104F380000F0DEFAB8B92C4C23685D68D5F8EC634C
:104F48001868FBF737FFA85523685968D1F8EC2390
:104F58000132274BA3FB02039B094FF47A7000FB35
:104F68001323C1F8EC33204B1B6822491868FBF760
:104F78004BFF38B31C4C23681E491868FBF766FFC3
:104F880023689A68D2F8E813515C1868FBF70EFF9B
:104F980021688868D0F8E8230132154BA3FB024347
:104FA8009B094FF47A7404FB1323C0F8E83388682C
:104FB80000F094FA30B10C4B1B6800220D491868B8
:104FC800FBF7FCFE084B1B680B491868FBF71CFF36
:104FD80040B1054B1B6808491868FBF737FF0122E9
:104FE800064B1A7070BD00BF38000020050105008F
:104FF800D34D621007010700040104006018002067
:1050080070B53B4B1B6808211868FBF7F3FE0128B5
:1050180005D1374B1B6808211868FBF7F3FE344BA2
:105028001B6834491868FBF7EFFE08B3304C236857
:1050380030491868FBF70AFF2368586800F058FAE7
:10504800B0B923685D68D5F8EC631868FBF7B2FE61
:10505800A85523685968D1F8EC230132264BA3FBE5
:1050680002039B094FF47A7000FB1323C1F8EC3359
:105078001F4B1B6821491868FBF7C6FE002836D06D
:105088001B4C23681D491868FBF7E0FE23689A68E3
:10509800D2F8E813515C1868FBF788FE2168886825
:1050A800D0F8E8230132144BA3FB02439B094FF4C9
:1050B8007A7404FB1323C0F8E833886800F00EFA0A
:1050C800A8B10B4B1B6800220C491868FBF776FE49
:1050D800074B1B6840211868FBF78CFE0028F7D0A7
:1050E800034B1B68012203491868FBF767FE70BD74
:1050F8005C00002005010500D34D62100701070080
:1051080070B5364B1B6808211868FBF773FE28B189
:10511800324B1B6808211868FBF774FE2F4B1B687D
:105128002F491868FBF770FEE8B12C4B1B685868CC
:1051380000F0DEF9B8B9294C23685D68D5F8EC634E
:105148001868FBF737FEA85523685968D1F8EC238F
:105158000132244BA3FB02039B094FF47A7000FB36
:105168001323C1F8EC331D4B1B681F491868FBF764
:105178004BFE10B3194C23689A68D2F8E813515CB7
:105188001868FBF713FE21688868D0F8E823013215
:10519800144BA3FB02439B094FF47A7404FB1323BB
:1051A800C0F8E833886800F099F930B10B4B1B68F8
:1051B80000220D491868FBF701FE084B1B680B49D4
:1051C8001868FBF721FE40B1044B1B6807491868B3
:1051D800FBF73CFE0122064B1A7070BD340000201C
:1051E80005010500D34D6210070107000401040002
:1051F8005818002008B501214FF08040FBF726FD24
:1052080090B101214FF08040FBF72CFD074B1B7834
:105218001BB1074A138801331380064B1B781BB157
:10522800054A13880133138008BD00BF64180020A5
:10523800661800206818002062180020704700BF18
:1052480008B58020FBF7ACF928B10348FFF76EFDDD
:105258008020FBF7B5F908BD6800002082B0002364
:1052680001930093274A136843F001031360254B09
:105278001B6803F002030093019B01330193009B19
:105288001BB9019BB3F5A06FF1D11E4B1B6813F03E
:10529800020F02D00123009301E000230093009B3A
:1052A800012B2CD11222184B1A60A3F580535A688F
:1052B8005A605A685A605A6842F480625A605A685A
:1052C80022F47C125A605A6842F460125A601A68D2
:1052D80042F080721A600B4B1B6813F0007FFAD003
:1052E800084B5A6822F003025A605A6842F00202D8
:1052F8005A60044B5B6803F00C03082BF9D102B029
:10530800704700BF001002400020024010B5184C42
:10531800D4F8883043F47003C4F88830154B1A6801
:1053280042F001021A605A6802F47F025A601A6851
:1053380022F0847222F480321A601A6822F48022E1
:105348001A605A6822F4FE025A60DA6A22F00F02E2
:10535800DA621A6B22F0F02222F073021A6300223A
:105368009A60FFF77BFF4FF00063A36010BD00BF9A
:1053780000ED00E00010024030B583B01C238DF82A
:10538800043000258DF8055001248DF806408DF86D
:10539800074001A8FBF73EFA32238DF804308DF858
:1053A80005508DF806508DF8074001A8FBF732FA32
:1053B80003B030BD094B1B68B3FBF0F3B3F1807F3A
:1053C8000AD223F07F43013B054A536000239360D0
:1053D80005231360034B1860704700BF7800002056
:1053E80010E000E040240020012809D1074A136892
:1053F80043F002031360F022054B83F82320704723
:10540800024B1A6800221A60704700BF10E000E0E3
:1054180000ED00E070B588B0FFF7AEFF0121084647
:10542800FBF732FB4CF24F3306934023ADF81430B0
:105438000024ADF81C40ADF8164005A94FF0804097
:10544800FBF766FB01214FF08040FBF7A5FB01222B
:1054580011464FF08040FBF7EDFB01210820FBF7D8
:1054680013FB184B1B68184AA2FB03231B0B013BB9
:105478000693ADF81440ADF81C40ADF81640134D36
:1054880005A92846FBF744FB21462846FBF7B6FB4F
:1054980001212846FBF780FB6023ADF80030012688
:1054A800ADF8026040F24A330293ADF80C40694609
:1054B8002846FBF77FFB324604212846FBF7A8FB6A
:1054C80008B070BD78000020B5814E1B000C00406C
:1054D800884201D30120704700207047D0F8E823A4
:1054E800D0F8EC339A4201D1012070470020704770
:1054F800D0F8E813D0F8EC230132074BA3FB0203E2
:105508009B094FF47A7000FB1323994201D10120C3
:1055180070470020704700BFD34D621008B50122C4
:105528000149FBF74BFC08BD0701070038B50446E5
:105538000068C369044D2946FBF788FC0122294607
:105548002068FBF73BFC38BD0401040038B504466D
:10555800064D002229460068FBF730FC29462068E2
:10556800FBF774FC2368DB6938BD00BF0401040045
:10557800D0F8E833D0F8EC031B1A03F2E733044AF7
:10558800A2FB031292094FF47A7000FB12307047A5
:10559800D34D6210D0F8EC33D0F8E8031B1A03F5AA
:1055A8007A73044AA2FB031292094FF47A7000FB43
:1055B80012307047D34D621070B504460E4615463A
:1055C800FFF7E8FFA84215D2002070BDD4F8E833F1
:1055D800E35CB354D4F8E8130131094BA3FB01038E
:1055E8009B094FF47A7000FB1313C4F8E8330132B7
:1055F80092B200E00022AA42E8D3012070BD00BFA9
:10560800D34D621070B506460C4615460846FFF79E
:10561800C1FF2844B0F57A7F13D9002070BDD4F8B3
:10562800EC13B35C63540131084BA3FB01039B09E2
:105638004FF47A7000FB1313C4F8EC33013292B2C2
:1056480000E00022AA42EAD3012070BDD34D6210C7
:10565800002A4BD0F8B504460F461D46164680680A
:10566800FFF786FF864244D8002214E0A368D3F8E7
:10567800EC13B85C5854A068D0F8EC1301311E4BF9
:10568800A3FB01E39B094FF47A7E0EFB1313C0F8CA
:10569800EC33013292B29642E8D8A368D3F8E863B3
:1056A800012216492068FBF789FB09E0A068FFF78B
:1056B80071FF38B1124B1B6813F4803F00D0013DD5
:1056C800002DF3D100220D492068FBF777FBA36872
:1056D800D3F8E823921B02F57A72074BA3FB021357
:1056E8009B094FF47A7000FB1320F8BD4FF0FF3090
:1056F80070474FF0FF30F8BDD34D62100701070027
:1057080010E000E02DE9F04184B0984600230393AF
:105718000293531EB3F57A7F4CD204460D461646C3
:10572800B8F1FF3F03D008F10108CDF8048067689D
:105738003846FFF72FFF029013E0204B1B6813F445
:10574800803F02D0019B013B01933846FFF722FFBF
:105758000290029A039B9A4203D9CDF80480029BD7
:105768000393029B9E4202D9019B002BE5DC039B1D
:10577800F3B1039B9E4200D9039E0396002214E0D6
:105788006368D3F8E8135B5CAB546068D0F8E8133F
:1057980001310B4BA3FB01639B094FF47A7606FB9F
:1057A8001313C0F8E833013292B2039B9A42E7D34D
:1057B800039800E0002004B0BDE8F08110E000E0AC
:1057C800D34D621070B582B000230193541E4FF67A
:1057D800FE739C422BD814460E4605464068FFF7D8
:1057E800D9FE0190019B03B3019B9C4201D9019A08
:1057F80000E022460192002214E06B68D3F8E81317
:105808005B5CB3546968D1F8E8430134094BA3FBE6
:1058180004039B094FF47A7000FB1343C1F8E83383
:10582800013292B2019B9A42E7D3019800E000202E
:1058380002B070BDD34D6210D0F8EC33C0F8E83335
:10584800704700BFF0B58BB004460D460068FBF703
:105858000DFA23684E4A934227D101214FF4802044
:10586800FBF7F6F84B4E072206213046FAF7B0FF51
:10587800072211463046FAF7ABFF02238DF8243091
:1058880000228DF8262001278DF827708DF8253005
:105898000AA9C02341F8083D3046FAF739FF3946CE
:1058A8004FF48040FBF7E2F833E03B4A934228D1BB
:1058B80001214FF48020FBF7CBF8364E0722082150
:1058C8003046FAF785FF072209213046FAF780FFAC
:1058D80002238DF8243000228DF8262001278DF828
:1058E80027708DF825300AA94FF4407341F8083D18
:1058F8003046FAF70DFF39464FF48020FBF7C4F81D
:1059080007E0264A934204D101214FF40030FBF707
:10591800BBF802950C2306934FF4805303934FF47E
:105928008063059300230493079301212068FBF704
:1059380031FA02A92068FBF7CBF92368144A93428D
:1059480003D125238DF804300CE0134A934203D188
:1059580027238DF8043005E0104A934202D126230C
:105968008DF8043000238DF8063001258DF8055098
:105978008DF8075001A8FAF74DFF2A460849206814
:10598800FBF71CFA29462068FBF7F8F90BB0F0BDC5
:10599800003801400004004800480040004400402E
:1059A80005010500002103E00B4B5B58435004310F
:1059B8000A480B4B42189A42F6D30A4A02E00023DF
:1059C80042F8043B084B9A42F9D3FFF79FFC00F0DA
:1059D8000FF8FEF789FFFEE7705E00080000002060
:1059E8007C0000207C000020442A0020FEE7000004
:1059F80070B50E4B0E4CE41AA41000251E46A542A5
:105A080004D056F8253098470135F8E700F018FA21
:105A1800084C094BE41AA41000251E46A54204D0E0
:105A280056F8253098470135F8E770BD685E0008DC
:105A3800685E00086C5E0008685E00080244034661
:105A4800934202D003F8011BFAE77047C9B2034634
:105A580010F8012B1AB19142F9D118467047002964
:105A68000CBF184600207047333434357D2D0008AC
:105A7800333534357D2D0008333634357D2D000817
:105A8800333234357D2D000837383338BD140008DB
:105A980038383338BD14000839383338BD14000895
:105AA8003A383338BD14000832383338BD1400088A
:105AB80033333433D92E000833343433D92E000825
:105AC80033353433D92E000833363433D92E000811
