:020000040800F2
:1000000000600020D9360008413000084530000863
:10001000493000084D300008513000080000000051
:100020000000000000000000000000005530000843
:1000300059300008000000005D3000086130000801
:100040002137000821370008213700082137000830
:100050002137000821370008213700082137000820
:100060002137000821370008213700082137000810
:100070002137000821370008213700082137000800
:1000800021370008213700082137000821370008F0
:1000900021370008213700082137000821370008E0
:1000A00021370008213700082137000821370008D0
:1000B00009320008213700082137000821370008DD
:1000C00021370008213700082137000821370008B0
:1000D00021370008913000085131000855310008DF
:1000E0002137000821370008213700082137000890
:1000F0002137000821370008000000000000000040
:100100000000000000000000513200082137000804
:10011000000000000000000021370008213700081F
:10012000213700082137000821370008213700084F
:10013000213700082137000821370008213700083F
:10014000213700080000000000000000000000004F
:10015000000000000000000000000000000000009F
:1001600000000000000000002137000821370008CF
:1001700021370008000000002137000800000000BF
:08018000000000002137000817
:1001880010B5054C237833B9044B13B10448AFF3C9
:1001980000800123237010BD3800002000000000FB
:1001A80088010008084B10B51BB108490848AFF38F
:1001B80000800848036803B910BD074B002BFBD02B
:1001C800BDE81040184700BF000000003C000020B8
:1001D80088010008380000200000000053B94AB91F
:1001E800002908BF00281CBF4FF0FF314FF0FF3037
:1001F80000F07EB9ADF1080C6DE904CE00F006F808
:10020800DDF804E0DDE9022304B070472DE9F0478A
:100218008C460E460446089D002B50D18A4217464C
:100228006CD9B2FA82FEBEF1000F0BD0CEF12004D9
:1002380020FA04F401FA0EF644EA060C02FA0EF764
:1002480000FA0EF44FEA1749220CBCFBF9F01FFA2A
:1002580087F809FB10C642EA064600FB08F3B342DA
:1002680009D9F61900F1FF3280F02281B34240F239
:100278001F8102383E44F61AA2B2B6FBF9F309FB15
:10028800136642EA064403FB08F8A04509D9E419B5
:1002980003F1FF3280F00A81A04540F20781023B5A
:1002A8003C44C8EB040443EA00400021002D62D01E
:1002B80024FA0EF400232C606B60BDE8F0878B42B3
:1002C80007D9002D55D0002185E841000846BDE832
:1002D800F087B3FA83F1002940F09080B34202D34B
:1002E800824200F2F880841A66EB03060120B446C5
:1002F800002D40D085E81010BDE8F08712B901271D
:10030800B7FBF2F7B7FA87FEBEF1000F35D1F31B42
:100318004FEA17481FFA87FC0121B3FBF8F0220CBB
:1003280008FB103642EA06460CFB00F3B34207D935
:10033800F61900F1FF3202D2B34200F2CE80104625
:10034800F61AA2B2B6FBF8F308FB136642EA0644B3
:100358000CFB03FCA44507D9E41903F1FF3202D2D0
:10036800A44500F2B5801346CCEB040443EA0040F0
:100378009CE729462846BDE8F087CEF1200106FA19
:100388000EF307FA0EF720FA01F94FEA1748CE40A4
:1003980049EA0309B6FBF8FA4FEA194408FB1A665A
:1003A8001FFA87FC44EA06430AFB0CF29A4200FA59
:1003B8000EF40AD9DB190AF1FF3180F087809A42DE
:1003C80040F28480AAF1020A3B449B1A1FFA89F979
:1003D800B3FBF8F108FB113349EA034301FB0CF6C0
:1003E8009E4207D9DB1901F1FF326BD29E4269D9CF
:1003F80002393B449B1B41EA0A418EE7C1F1200EBA
:1004080022FA0EF48B40234320FA0EF706FA01F481
:100418004FEA134C26FA0EF63C43B6FBFCF9270CC0
:100428000CFB19661FFA83F847EA064609FB08F72A
:10043800B74202FA01F200FA01FA08D9F61809F1EE
:10044800FF3041D2B7423FD9A9F102091E44F61B39
:10045800A0B2B6FBFCF40CFB146640EA064704FBAA
:1004680008F8B84507D9FF1804F1FF3028D2B84575
:1004780026D9023C1F4444EA0940C8EB0707A0FB01
:1004880002894F4544464E4614D329D065B3BAEB8A
:10049800040367EB060707FA0EFECB40CF404EEA8F
:1004A800030385E888000021BDE8F0871346F8E6D5
:1004B8001046E0E6B8EB020469EB03060138E5E70D
:1004C8000446D8E7114695E78146C0E78A467CE7A7
:1004D800023B3C4448E708460AE702383E442FE717
:1004E800C245E7D33E46D1E72946BDE8F08700BFBD
:1004F800704700BF034A136823F0030318431060D2
:10050800704700BF00200240054B1B6913F0800FA5
:1005180005D0034B034A5A6002F188325A6070478B
:100528000020024023016745024A136943F0800313
:100538001361704700200240014BD860704700BF2C
:10054800002002400B4BDB6813F0010F0BD1094B65
:10055800DB6813F0100F08D1064BDB6813F0040FAB
:1005680005D00320704701207047022070470420FF
:10057800704700BF0020024010B50446FFF7E2FFB5
:1005880002E0FFF7DFFF013C012801D1002CF8D180
:1005980004B9052010BD00BF38B505464FF430201A
:1005A800FFF7EAFF042811D1094C236943F002033D
:1005B80023616561236943F0400323614FF43020D0
:1005C800FFF7DAFF236923F00203236138BD00BF78
:1005D8000020024030B583B005460C460023019345
:1005E8004FF43020FFF7C8FF042820D1114A1369BF
:1005F80043F001031361A3B22B804FF43020FFF7BF
:10060800BBFF04280ED102350195019B240C1C80E8
:100618004FF43020FFF7B0FF064A136923F00103B7
:10062800136104E0034A136923F00103136103B063
:1006380030BD00BF0020024070B4002341E0012219
:100648009A400C68A2433BD10A79013AD2B2012AF6
:100658001CD885685A000324944025EA0404846061
:1006680085684C7904FA02F22A4382608488A5B22C
:100678009AB20124944025EA040484808588ADB2A6
:100688008C7904FA02F292B22A43828004685A00F2
:10069800032505FA02F624EA0604046006680C79C4
:1006A800944034430460C4689EB27600B54024EA9E
:1006B8000505C560C568CC7904FA02F22A43C26010
:1006C80001330F2BBBD970BC704700BF038A194296
:1006D80001D0012070470020704700BF838A19426B
:1006E80001D0012070470020704700BF0AB1816126
:1006F80070470185704700BF30B401F007039B00C5
:100708009A40C908083150F821400F2505FA03F32B
:1007180024EA030340F8213050F821301A4340F806
:10072800212030BC704700BF40F0BF6040F400306B
:10073800014BD860704700BF00ED00E0C378FBB103
:10074800154BDB68DB43C3F30223C3F104010F221B
:10075800DA40437803FA01F1837813400B431B0115
:100768000278DBB20D490A4482F80033037858094D
:1007780003F01F03012202FA03F341F82030704707
:1007880003785A0903F01F03012101FA03F3203209
:10079800024941F82230704700ED00E000E100E036
:1007A800042805D1054A136843F004031360704711
:1007B800024A136823F004031360704710E000E056
:1007C80070B46F4B5B6803F00C03042B05D0082B47
:1007D80006D0FBB96B4B03601EE06A4B03601BE05D
:1007E800674A53685268C3F38343023312F4803F65
:1007F80004D1654A02FB03F303600DE0604AD26A44
:1008080002F00F02511C5F4AB2FBF1F202FB03F344
:10081800036001E05B4B0360594A5368C3F3031359
:100828005A4EF35CDBB2056825FA03F3436051685E
:10083800C1F30221715CC9B223FA01F181605468E5
:10084800C4F3C224345DE4B2E340C3605468C4F323
:1008580081344F4E345DE4B2B3FBF4F40461546860
:10086800C4F3C3644B4E345DE4B2B5FBF4F44461A5
:10087800126B12F0400F03D148F21202826102E0BB
:100888004FF4004282613E4A126B12F0100F02D1FF
:100898003C4AC26100E0C561394A126B12F0200F70
:1008A80002D1384A026200E00562354A126B12F042
:1008B800030F01D1436219E0314B1B6B03F00303B3
:1008C800012B01D1456211E02D4B1B6B03F0030393
:1008D800022B03D14FF40043436207E0284B1B6B04
:1008E80003F00303032B01D1264B4362244B1B6BFC
:1008F80013F4403F01D181621CE0214B1B6B03F4D0
:100908004033B3F5803F01D1856213E01C4B1B6B6C
:1009180003F44033B3F5003F03D14FF4004383623F
:1009280008E0174B1B6B03F44033B3F5403F01D18C
:10093800144B8362124B1B6B13F4402F01D1C1621D
:100948001CE00F4B1B6B03F44023B3F5802F01D140
:10095800C56213E00A4B1B6B03F44023B3F5002F69
:1009680003D14FF40043C36208E0054B1B6B03F44B
:100978004023B3F5402F01D1024BC36270BC7047CE
:100988000010024000127A0000093D001400002007
:10099800000000200400002021B1054B5A691043D3
:1009A80058617047024A536923EA00005061704752
:1009B8000010024021B1054B9A69104398617047B5
:1009C800024A936923EA00009061704700100240D0
:1009D80021B1054BDA691043D8617047024AD369DF
:1009E80023EA0000D06170470010024003889BB2E0
:1009F800B0F1804F0ED01C4A90420BD002F58062B5
:100A0800904207D002F58062904203D002F5A832E6
:100A1800904203D123F070034A881343134A90424B
:100A28000CD002F58062904208D002F5084290424C
:100A380004D023F440739BB20A89134303804B68A4
:100A4800C3620B8803850A4B984207D003F580637D
:100A5800984203D003F58063984201D18B7A0386CC
:100A680001238382704700BF00040040001000404B
:100A78000040014029B103889BB243F00103038081
:100A8800704703889BB223F001039BB20380704731
:100A980030B4038C9BB223F010039BB20384048C04
:100AA800A4B28588ADB2028B92B222F4E6430A88DA
:100AB800120292B21A4324F020048B891B019BB2C4
:100AC8001C434B881B019BB22343858002838A68A1
:100AD8008263038430BC7047038B9BB223F40063AA
:100AE800090289B219430183704700BF10B401237A
:100AF8008B409BB2048CDB439BB223400384038C62
:100B08009BB28A4092B21A4302845DF8044B704744
:100B180022B183899BB21943818170478389C94374
:100B280089B2194081817047028A83890B4011423A
:100B380002D01BB900207047002070470120704781
:100B4800C94389B20182704730B58DB004460D465D
:100B5800036823F001030360436823F440528B6861
:100B680013434360036823F4B05222F00C0249682F
:100B7800EB6819432B690B4313430360836823F421
:100B880040726B69134383606846FFF719FE174B81
:100B98009C4201D1099A05E0154B9C4201D10A9A61
:100BA80000E00B9A236813F4004F06D0520029681E
:100BB800B2FBF1F301FB132204E02968B2FBF1F365
:100BC80001FB13222968B2EB510F00D301332268CD
:100BD80012F4004F06D0C3F3420223F00F031B04A4
:100BE8001B0C13439BB2A3810DB030BD00380140EC
:100BF8000044004021B1036843F0010303607047DB
:100C0800036823F001030360704700BF21B1036844
:100C180043F4004303607047036823F40043036010
:100C2800704700BFC1F3080101857047808CC0F38D
:100C38000800704730B4C1F30725C9B2012303FA8D
:100C480001F1022D01D1041D04E00446032D01D158
:100C580000F108041AB123681943216003E02368EE
:100C680023EA0101216030BC704700BFC3690B4211
:100C780001D0012070470020704700BF0162704713
:100C880010B4C1F30722CCB20123A340012A02D138
:100C98000268134006E0022A02D14268134001E0CC
:100CA80082681340090C012202FA01F1C26911405D
:100CB80013B119B9002002E0002000E001205DF81E
:100CC800044B7047090C012303FA01F101627047D4
:100CD80010B400231A4604E0C45C2244D2B20133A3
:100CE800DBB20C4C217801F10A04A342F4DB43186F
:100CF8009B7A9A4206D10144CB7A162B05D04FF045
:100D0800FF3003E04FF0FF3000E000205DF8044BB7
:100D1800704700BF550000200B0901F00F010209C0
:100D280000F00F00033BDBB2092B0DD802290DD9C7
:100D38000C290DD8022A0DD90C2A0DD802280DD954
:100D48000C280DD9002070470020704700207047FC
:100D5800002070470020704700207047002070472F
:100D68000120704710B43339C1F3031401F00F01A7
:100D78003338C0F3031300F00F00642202FB01F1C3
:100D88004FF47A7202FB041403EB83035A002244E3
:100D980010445DF8044B7047F0B5333AC2F30217BC
:100DA80002F00F043339C1F3031601F00F0C333886
:100DB800C0F3031500F00F0042F2107E0EFB04FE94
:100DC8000B4901FB07E74FF47A7101FB06766424AF
:100DD80004FB0C6105EB85056C000C4404441C60A5
:100DE800197901311971C2F3C0125A71F0BD00BFEF
:100DF800A0860100F0B482B002AC04E903000698B2
:100E0800009E2849A1FB0647FF08A1FB0754E408F8
:100E180004EB840465007C1B2401E4B207EB87071C
:100E28007D00751BEDB22C43333414701E4CA4FBAB
:100E38000624A409A1FB0452D20802EB8202550041
:100E4800621B1201D5B2194FA7FB06277F09A1FB28
:100E58000724E20802EB820254003A1BD2B22A436A
:100E680033321A707309124AA2FB0332D2091201F3
:100E7800D2B2104BA3FB0636760BA1FB0613D9089A
:100E880001EB81014B00F11AC9B211433331C9B2E8
:100E980001709DF8053013B161F07F01017002B057
:100EA800F0BC7047CDCCCCCCD34D62101F85EB5134
:100EB800C55A7C0A5917B7D130B413790479A342BB
:100EC80003D90D79AB4200F2AF80A34234D10D793A
:100ED800AB4231D90368002B00F0A88011680029C3
:100EE80000F0A6804079002840F0A4805479002CB6
:100EF80040F0B5808B420CD903EB83031801594BA2
:100F0800A3FB00035B09994238BF19461160012011
:100F1800A5E001EB81042001524CA4FB0040B3EB97
:100F2800501F06D2642101FB03F34F49A1FB033193
:100F380089091160012092E00D79AB4230D1A342BA
:100F48002ED90B68002B77D01468002C76D04879FE
:100F5800002875D15179002940F08180A3420CD92D
:100F680003EB830319013F4BA3FB01135B099C426D
:100F780038BF1C461460012071E004EB84000101B5
:100F88003848A0FB0101B3EB511F06D2642404FBCF
:100F980003F3354CA4FB0334A409146001205EE07C
:100FA800A3424FD1AB424FD10368002B4ED00C68FF
:100FB800002C4DD01568002D4CD0407900284BD11D
:100FC800497900294BD15079002847D11946A342C5
:100FD80038BF21468D4215D905EB8500010121480E
:100FE800A0FB0101A34228BF2346B3EB511F06D83B
:100FF800642505FB03F31C4DA5FB0335AD091560FE
:1010080001202CE0A34228BF23469D4227D201EBB2
:1010180081010B011349A1FB03135B099D4238BFF2
:101028001D46156001201AE0002018E0002016E097
:10103800002014E0002012E0002010E000200EE064
:1010480000200CE001200AE0012008E0002006E072
:10105800002004E0002002E0002000E0084630BC48
:10106800704700BF1F85EB51CDCCCCCC30B40468A1
:101078000B681C44136823440324B3FBF4F30B24C8
:1010880004FB03F40A25B4FBF5F404600B6003EBDE
:10109800C303B3FBF5F3136030BC704730B583B0BE
:1010A8000446C37A323B042B00F22C81DFE813F0AC
:1010B80005002A01AB00D6000101934D2B46027CA6
:1010C800C17B807BFFF768FE6B79002B40F01A81AB
:1010D8008E4B5B79002B40F015818D4B5B79002B93
:1010E80040F010812B68002B00F00C81874A1268B1
:1010F800002A00F0078186490868002800F002816C
:101108001146824238BF0146994238BF194601EB61
:1011180081010D017F49A1FB05151146824228BFB7
:101128000146994228BF1946B1EB551F80F0EA8065
:10113800934207D3824205D3754A74497248FFF730
:1011480095FF30E0834207D3824205D86F4A704941
:101158006D48FFF78BFF26E0934207D8834205D3FB
:101168006B4A69496948FFF781FF1CE0824207D34F
:10117800834205D8644A66496448FFF777FF12E05E
:10118800834207D8934205D3604A5F496048FFF716
:101198006DFF08E0824206D8934204D85A4A5B4958
:1011A8005B48FFF763FF584D04F11003009304F107
:1011B8000F0304F10E0295E80300FFF71BFE04F18C
:1011C8001303009304F1120304F1110295E80300DC
:1011D800FFF710FE04F11603009304F1150304F160
:1011E800140295E80300FFF705FE0022134604E009
:1011F800E15C0A44D2B20133DBB2162BF8D9E275AE
:10120800162323767EE0404B027CC17B807BFFF770
:10121800C3FD237C333B13F0800F73D13A4A3C491A
:101228003A48FFF749FE00286CD0374904F110030B
:10123800009304F10F0304F10E0203C9FFF7DAFD6E
:101248000022134604E0E15C0A44D2B20133DBB267
:10125800102BF8D962741623A37453E02B4B027C2D
:10126800C17B807BFFF798FD237C333B13F0800F15
:1012780048D1264A26492448FFF71EFE002841D0B7
:10128800224904F11003009304F10F0304F10E0244
:1012980003C9FFF7AFFD0022134604E0E15C0A44EE
:1012A800D2B20133DBB2102BF8D962741623A374BF
:1012B80028E0174B027CC17B807BFFF76DFD237C08
:1012C800333B13F0800F1DD1114A10490E48FFF728
:1012D800F3FDB8B10E4904F11003009304F10F03B4
:1012E80004F10E0203C9FFF785FD0022134604E04E
:1012F800E15C0A44D2B20133DBB2102BF8D9627434
:101308001623A37403B030BD6C00002058000020E1
:10131800600000201F85EB51704700BF3339333818
:10132800C0B240EA012080B2704700BF10B5044641
:10133800837A323B082B72D8DFE803F03D71717174
:10134800710513212F00C17B807BFFF7E7FF20F495
:10135800A87083B2DAB23332A2731B0A3333E37351
:101368005DE0C17B807BFFF7D9FF20F4A87083B2D2
:10137800DAB23332A2731B0A3333E3734FE0C17B13
:10138800807BFFF7CBFF20F4A87083B2DAB2333248
:10139800A2731B0A3333E37341E0C17B807BFFF701
:1013A800BDFF20F0080083B2DAB23332A2731B0A01
:1013B8003333E37333E0417D007DFFF7AFFF20F463
:1013C800A87083B2DAB2333222751B0A33336375DD
:1013D800E17DA07DFFF7A2FF20F4A87083B2DAB206
:1013E8003332A2751B0A3333E375617E207EFFF723
:1013F80095FF20F4A87083B2DAB2333222761B0A42
:1014080033336376E17EA07EFFF788FF20F0080083
:1014180083B2DAB23332A2761B0A3333E37600237F
:101428001A4603E0A15C0B44DBB201320349097898
:1014380001F10A008242F5DB235410BD550000205B
:10144800114981FB0031C317C3EBA1114FF47A7323
:1014580003FB11010D4A82FB0132CB17C3EB621269
:10146800642303FB12120A4880FB0230D317C3EB34
:10147800A00000EB80014B00D31A03F00F0303EB2D
:1014880000103330C0B27047D34D62101F85EB5146
:10149800676666660C4981FB0031C317C3EBA1116F
:1014A8000B0103F47F624FF47A7303FB11030748BF
:1014B80080FB0310DB17C3EB601303F00F03134427
:1014C80003F13300C0B27047D34D62101F85EB5152
:1014D80030B4333BC3F3031404EB8404650003F016
:1014E8000F032B44333AC2F3031404EB840465005E
:1014F80002F00F022A4442F2107404FB02F20D4C6F
:1015080004FB03233339C1F3031202EB82025400B4
:1015180001F00F012144642202FB01313338C0F38A
:10152800031303EB83035A0000F00F001044084430
:1015380030BC704740420F002DE9F0432C4DA5FB0D
:10154800004C4FEA5C18642606FB1808294CA4FBDB
:1015580008E74FEAD70E0EEB8E094FEA4907C7EBAB
:10156800080747EA0E1733370F704FEA5C1CA5FBD4
:101578000C1E4FEA5E1E06FB1ECEA4FB0E71CF08A2
:1015880007EB870C4FEA4C01C1EB0E0141EA07114A
:1015980033311170184AA2FB0012520BA5FB021737
:1015A8007F0906FB1727A4FB0712D10801EB810E60
:1015B8004FEA4E029646BA1A42EA011233321A70BC
:1015C8000E4BA3FB0030800CA5FB00356D0906FB14
:1015D8001505A4FB0534E40804EB84025300EB1A58
:1015E80043EA04143334079B1C70BDE8F08300BF42
:1015F8001F85EB51CDCCCCCC5917B7D183DE1B431B
:101608002DE9F84F064690F80980027A912A03D00E
:10161800B12A03D0002302E0092300E00923922A1B
:1016280002D0B22A03D101E0042300E00423474694
:101638009946C3EB080303EBD373C3F34F0315E0D9
:1016480009F10A044FEA450A544409F10B039A4484
:10165800DFF84CB0DBF80000FFF7F2FE3055DBF89E
:101668000000FFF717FF06F80A002B465D1EADB213
:10167800002BE5D108F10A02B118B35405E0F05C7B
:101688000A7802440A7001339BB207F10A029342B6
:10169800F5DB08F10B08102306F80830BDE8F88FD1
:1016A80030000020704700BF38B50446837B342BD8
:1016B80002D10021184A1170332B02D1FF22164B98
:1016C8001A70154B1978154801F0A4FA10B9D423EB
:1016D800237201E09423237200236372A37205E04E
:1016E800E15CA27A0A44A2720133DBB2092BF7D972
:1016F8001623E37200220A4B1A700A4D0C2229465F
:10170800204601F0B5FF284601F050FF10B9064801
:1017180001F0D6FF38BD00BF54000020141F030895
:10172800550000200C0400200048004070B5044615
:10173800867BC17B3046FFF715FB0546617C207C24
:10174800FFF710FB85421CDDB5F52F6F19DAB0F5F0
:10175800966F16DD1B4B1D601B4B186031461B48EE
:1017680001F058FAE17B1A4801F054FA217C194833
:1017780001F050FA617C184801F04CFA9423237266
:1017880001E0D423237200236372A37204E0E15CB6
:10179800A27A0A44A2720133092BF8DD1623E372F8
:1017A80000220E4B1A700E4D0C222946204601F0DD
:1017B8005FFF284601F0FAFE10B90A4801F080FFE1
:1017C80070BD00BF94070020A8070020001F030871
:1017D800041F0308081F03080C1F030855000020F6
:1017E8000C0400200048004038B5044691230372D9
:1017F8000C2343724FF42F60FFF722FEA0734FF4BF
:101808002F60FFF747FEE0734FF49660FFF718FE6E
:1018180020744FF49660FFF73DFE6074174B1D6807
:101828002846FFF70DFEA0742846FFF733FEE07444
:10183800134B1D682846FFF703FE20752846FFF75F
:1018480029FE60750023A37504E0E15CA27D0A44CB
:10185800A2750133152BF8DD1623E3750C22094B0D
:101868001A70094D2946204601F002FF284601F06A
:101878009DFE10B9054801F023FF38BD94070020EC
:10188800A8070020550000200C0400200048004054
:1018980070B5044640F69803274A1360274A136038
:1018A800274A1360FF21274B1970274801F0B2F926
:1018B800264E40F62E103060254D40F2BC732B604A
:1018C800FFF7BEFD0146234801F0A4F93068FFF791
:1018D800E1FD0146204801F09DF92868FFF7B0FDB9
:1018E80001461E4801F096F92868FFF7D3FD014626
:1018F8001B4801F08FF99423237200236372A372AB
:1019080004E0E15CA27A0A44A2720133092BF8DDF3
:101918001623E3720022134B1A70134D0C2229462A
:10192800204601F0A5FE284601F040FE10B90F48F8
:1019380001F0C6FE70BD00BF30000020240000206A
:101948002C00002054000020141F030894070020D6
:10195800A8070020001F0308041F0308081F030826
:101968000C1F0308550000200C040020004800400C
:10197800D423037200234372837205E0C15C827A28
:101988000A4482720133DBB2092BF7D910B516234A
:10199800C3720022074B1A70074C0C22214601F033
:1019A80067FE204601F002FE10B9044801F088FEE7
:1019B80010BD00BF550000200C0400200048004066
:1019C800D423037200234372837205E0C15C827AD8
:1019D8000A4482720133DBB2092BF7D910B51623FA
:1019E800C3720022074B1A70074C0C22214601F0E3
:1019F8003FFE204601F0DAFD10B9044801F060FE10
:101A080010BD00BF550000200C0400200048004015
:101A180030B585B005461A4BDB68029300248DF873
:101A28000D4000F11003009300F10F0300F10E02C6
:101A380004A911E90300FFF7DDF991232B720723AD
:101A48006B726C74234605E0E95C6A7C0A446A742C
:101A58000133DBB2102BF7D91623AB740722094BDD
:101A68001A70094C13222146284601F001FE20462F
:101A780001F09CFD10B9054801F022FE05B030BD0B
:101A880098070020550000200C0400200048004062
:101A980038B504469123037206234372134B9D689D
:101AA8002846FFF7CDFCA0732846FFF7F3FCE07348
:101AB8000023237405E0E15C227C0A44227401338C
:101AC800DBB20F2BF7D9162363740622084B1A7062
:101AD800084D12222946204601F0CAFD284601F089
:101AE80065FD10B9044801F0EBFD38BD98070020EA
:101AF800550000200C0400200048004038B504467A
:101B08009123037206234372134B1D682846FFF77F
:101B180097FCA0732846FFF7BDFCE07300232374ED
:101B280005E0E15C227C0A4422740133DBB20F2B0E
:101B3800F7D9162363740022084B1A70084D122235
:101B48002946204601F094FD284601F02FFD10B9E2
:101B5800044801F0B5FD38BD980700205500002065
:101B68000C0400200048004038B5037A912B32D18C
:101B780006234372184B1A781849A1FB0231490908
:101B8800642303FB1123DBB2154AA2FB0342D208EC
:101B980002EB82056C001B1B43EA02138373C173BB
:101BA8000023037404E0C15C027C0A44027401331C
:101BB8000F2BF8D91623437404220A4B1A700A4CC7
:101BC8001222214601F054FD204601F0EFFC10B925
:101BD800064801F075FD38BDAC0700201F85EB51A4
:101BE800CDCCCCCC550000200C040020004800408F
:101BF8009123037208234372032383730523C3735A
:101C080011230374182343740023837405E0C15C13
:101C1800827C0A4482740133DBB2112BF7D910B5E8
:101C28001623C3740822074B1A70074C1422214646
:101C380001F01EFD204601F0B9FC10B9034801F07F
:101C48003FFD10BD550000200C0400200048004056
:101C580070B50446817B0809E27B150905EB85050B
:101C68006B0002F00F02134400EB8002500003EBFC
:101C7800830303EB83039A00831801F00F010B44DD
:101C880013F0FF0511D0194E2946304600F0C2FF67
:101C9800174B1D70304601F003F8854202D194239A
:101CA800237204E0D423237201E0D4232372002397
:101CB8006372A37205E0E15CA27A0A44A27201335E
:101CC8009BB2092BF7D91623E3720022094B1A702D
:101CD800094D0C222946204601F0CAFC284601F08D
:101CE80065FC10B9054801F0EBFC70BD101F030836
:101CF800AC070020550000200C04002000480040DC
:101D080070B582B00446912303720C2343722348B2
:101D180000F0C4FF0646224800F0C0FF0546B6F1B1
:101D2800FF3F00D1002604F11103009304F11003D2
:101D380004F10F0204F10E013046FFF7FDFBB5F187
:101D4800FF3F00D1002504F11503009304F11403AB
:101D580004F1130204F112012846FFF7EDFB0023FA
:101D6800A37505E0E15CA27D0A44A2750133DBB2EC
:101D7800152BF7D91623E37500220A4B1A700A4D62
:101D880018222946204601F073FC284601F00EFC73
:101D980010B9064801F094FC02B070BD0420030895
:101DA80040200308550000200C0400200048004093
:101DB80070B50446817BFF2910D1264D2970264E27
:101DC800304600F027FF304600F06AFF2B78984233
:101DD80001D1942300E0D42323721BE0C1B9FEF79C
:101DE80093FB1E48FEF7D8FBFEF79EFBA17B194D1F
:101DF8002970194E304600F00DFF304600F050FFB4
:101E08002B78984201D1942300E0D423237201E077
:101E1800D423037200236372A37205E0E15CA27A03
:101E28000A44A27201339BB2092BF7D91623E37235
:101E380000220B4B1A700B4D0C222946204601F04C
:101E480017FC284601F0B2FB10B9074801F038FC2E
:101E580070BD00BF28000020181F030800200308D9
:101E6800550000200C0400200048004038B5044606
:101E7800837BCBB91D4DFF21284600F0CBFEFF2206
:101E88001B4B1A70FEF740FB1A48FEF785FBFEF75E
:101E98004BFB284600F004FFFF2802D1942323724D
:101EA80004E0D423237201E0D42303720023637275
:101EB800A37205E0E15CA27A0A44A27201339BB2E4
:101EC800092BF7D91623E37200220B4B1A700B4D1E
:101ED8000C222946204601F0CBFB284601F066FB80
:101EE80010B9074801F0ECFB38BD00BF181F030804
:101EF8002800002000200308550000200C040020C2
:101F080000480040F8B506460D463A4B1B78012BB1
:101F180011D013B1022B41D065E0012201F080FB02
:101F28000446002864D02B78682B5ED10123314AFF
:101F38001370314A13700922691C304601F070FB96
:101F4800074680B914212D4B188801F089FA0446F8
:101F580000284DD00023274A1370274A1370274AB8
:101F680013803C4644E0EB79682B04D16B7A03F18B
:101F78000C02FE2A07DD00241E4B1C701E4B1C7031
:101F88001E4B1C8034E01E4A13700222194B1A7033
:101F98001A4B00221A800122174B1A70184B1A7814
:101FA800023205F10A01304601F03AFB044668B9ED
:101FB8001421124B188801F053FAC0B100230D4ABE
:101FC80013700D4A13700D4A138011E00023094A5B
:101FD8001370094A1370094A13802846FEF778FEE1
:101FE80030B1002404E0002402E0002400E00446AC
:101FF8002046F8BD68000020760000207800002008
:102008005500002010B500231CE0184A12F83310C0
:10201800827A914214D1154A02EBC3025178C27AEE
:1020280091420DD1114A02EBC3029178027B914291
:1020380006D10E4A02EBC304E178427B914203D0F9
:102048000133DBB2342BE0D9342B0DD8074A02EB2D
:10205800C3035B68064A934206D0064A934203D0FC
:10206800054A934200D0984710BD00BF703700085A
:10207800A5100008211300083513000870B50446A0
:10208800C37A323B042B00F2E580DFE813F0050049
:10209800E3005F008B00B700912303720A234372A9
:1020A8006D4B1D686D4B1E68B54206DC6C4B1B689A
:1020B8009D4204DA40F6980501E040F69805664B23
:1020C8001D602846FFF7BCF9A0732846FFF7E2F920
:1020D800E073644B1D68AE4206DB614B1B689D4292
:1020E80004DA40F6980501E040F698055D4B1D605E
:1020F8002846FFF7A5F920742846FFF7CBF9607446
:10210800594B1D68AE4206DB554B1B689D4204DAED
:1021180040F6980501E040F69805534B1D602846A7
:10212800FFF78EF9A0742846FFF7B4F9E07400238E
:102138001A4604E0E15C0A44D2B20133DBB2132B45
:10214800F8D9227516236375012070BD424B1D68AE
:10215800424B1B689D4206DC414B1B689D4204DADA
:1021680040F6980501E040F698053B4B1D60912329
:102178002372062363722846FFF762F9A073284684
:10218800FFF788F9E07300231A4604E0E15C0A448B
:10219800D2B20133DBB20F2BF8D922741623637441
:1021A800012070BD2F4B1D682C4B1B689D4206DC1F
:1021B8002B4B1B689D4204DA40F6980501E040F677
:1021C8009805284B1D6091232372062363722846C5
:1021D800FFF736F9A0732846FFF75CF9E073002390
:1021E8001A4604E0E15C0A44D2B20133DBB20F2B99
:1021F800F8D9227416236374012070BD1A4B1D6828
:10220800164B1B689D4206DC154B1B689D4204DA81
:1022180040F6980501E040F69805134B1D609123A0
:102228002372062363722846FFF70AF9A07328462B
:10223800FFF730F9E07300231A4604E0E15C0A4432
:10224800D2B20133DBB20F2BF8D922741623637490
:10225800012070BD002070BD3000002094070020D0
:10226800A8070020240000202C000020F8B51948F9
:1022780000F016FD184B1870184800F011FD0446C0
:10228800174800F00DFD0546164800F009FD064602
:10229800154800F005FD0746FF2C0ED1FF2D0CD187
:1022A800FF2E0AD1FF2808D140F62E120F4B1A60D4
:1022B80040F2BC720E4B1A60F8BD29462046FEF764
:1022C80051FD0A4B186039463046FEF74BFD084B66
:1022D8001860F8BD141F030854000020001F0308ED
:1022E800041F0308081F03080C1F03089407002095
:1022F800A8070020F0B51F4B1E68A6F596611E4B77
:102308001D68AA1B91FBF2F10131C5F52F6494FBFE
:10231800F2F4854216DA0134B0F52F6F12DCAB18EF
:1023280098420CDC451BA0EB4500F0BD013303FBD4
:1023380002F705EB070E704502DCC01BF0BD012358
:10234800A342F3DB864214DDB0F5966F11DBB31AB6
:1023580098420BDB361A00EB4600F0BD013303FB55
:1023680002F4351BA84202DB2044F0BD01238B4256
:10237800F4DBF0BDA807002094070020F8B57A4BDD
:102388001B78002B00F0EF80037A912B40F0EB8054
:10239800837A332B40F0E780037B342B40F0E380D3
:1023A800437B352B40F0DF800446C57A322D62D15D
:1023B800867BC77B39463046FEF7AEFCC8B1394646
:1023C8003046FEF7CFFC694B1860694B1B68984292
:1023D80003DC684B1B6898420BDAFFF78BFF064655
:1023E800624B1860FFF72CF8A0733046FFF752F8DD
:1023F800E073267C677C39463046FEF78DFCC8B111
:1024080039463046FEF7AEFC5B4B1860584B1B68EC
:10241800984203DC574B1B6898420BDAFFF76AFFB8
:102428000646554B1860FFF70BF820743046FFF747
:1024380031F86074A67CE77C39463046FEF76CFCC0
:10244800C8B139463046FEF78DFC4C4B1860484BF6
:102458001B68984203DC474B1B6898420BDAFFF76E
:1024680049FF0646454B1860FEF7EAFFA074304660
:10247800FFF710F8E074342D20D1A67BE77B3946AE
:102488003046FEF749FCC8B139463046FEF76AFCCB
:10249800364B1860364B1B68984203DC354B1B687B
:1024A80098420BDAFFF726FF0646304B1860FEF716
:1024B800C7FFA0733046FEF7EDFFE073352D20D13E
:1024C800A67BE77B39463046FEF726FCC8B139467D
:1024D8003046FEF747FC284B1860254B1B6898428E
:1024E80003DC244B1B6898420BDAFFF703FF064610
:1024F800214B1860FEF7A4FFA0733046FEF7CAFF11
:10250800E073362D20D1A57BE67B31462846FEF7C1
:1025180003FCC8B131462846FEF724FC174B186067
:10252800134B1B68984203DC124B1B6898420BDA6A
:10253800FFF7E0FE0546114B1860FEF781FFA07318
:102548002846FEF7A7FFE07300231A4604E0E15C83
:102558000A44D2B20133DBB20949097801F10A0011
:102568008342F4DB2254F8BD5400002030000020E0
:1025780094070020A8070020240000202C00002039
:102588005500002008B50122044B1A700023044AA4
:102598001370044A1380FFF7F1FE08BDAD07002051
:1025A8007A0000207400002008B5174BC8221A6072
:1025B800164A5A60164800F071FBB0F1FF3F06D189
:1025C8005021114B9960124800F024FB01E00E4B9A
:1025D8009860104800F062FBB0F1FF3F10D10A4844
:1025E80043688268B3FBF2F202EB4202D3000A4965
:1025F800A1FB0331C908C160064800F00BFB08BD08
:10260800014BD86008BD00BF980700200065040092
:10261800201F03081C1F0308CDCCCCCC08B50848E4
:1026280000F03EFB074B1870074800F039FBFF2805
:1026380003D15A22054B1A7008BD044B187008BD07
:10264800181F030828000020101F0308AC070020EB
:102658002DE9F041064688461746084600F01EFB5D
:102668000546384600F01AFBB5F1FF3F03D0044693
:10267800B0F1FF3F0AD13146404600F0CBFA31466F
:10268800384600F0C7FA3046BDE8F081B5420ED9A9
:10269800751B17482844174B1A78A2FB00016422BF
:1026A8000023323041F10001FDF798FD0BE0751B66
:1026B800104B1878A0FB050164220023323041F149
:1026C8000001FDF78BFD0444094B9C4205D904F138
:1026D8007A4404F5212404F601743146404600F09A
:1026E80099FA2146384600F095FA2046BDE8F0816F
:1026F800FFE0F505AC070020834B1B78002B00F0AA
:1027080001812DE9F04383B00446437C027CC17B00
:10271800807BFEF7DDFE0546E37A323B052B00F2AF
:102728008180DFE803F03F03272D3339237B482BD3
:102738000ED002D8342B05D074E05C2B0ED0702B51
:1027480012D06FE0714A7249FFF782FF054669E0CF
:10275800704A7149FFF77CFF054663E06F4A70498C
:10276800FFF776FF05465DE06E4A6F49FFF770FF99
:10277800054657E06D4A6E49FFF76AFF054651E086
:102788006C4A6D49FFF764FF05464BE06B4A6C499C
:10279800FFF75EFF054645E06A4A6B49FFF758FFB9
:1027A80005463FE0637D227DE17CA07CFEF790FE3C
:1027B8005E4A5F49FFF74CFF8146637E227EE17DDA
:1027C800A07DFEF785FE5B4A5B49FFF741FF804627
:1027D800637F227FE17EA07EFEF77AFE574A584942
:1027E800FFF736FF074694F8213094F82020E17F60
:1027F800A07FFEF76DFE534A5349FFF729FF0646AF
:10280800637C227CE17BA07BFEF762FE01464048A8
:1028180000F000FA09EB08053D44354429463B48D9
:1028280000F0F8F9E37A322B1CD068D3372B66D83E
:1028380004F11103009304F1100304F10F0204F1F1
:102848000E012846FEF778FE0023A37405E0E15C3C
:10285800A27C0A44A27401339BB2112BF7D9162328
:10286800E3744CE004F11103009304F1100304F144
:102878000F0204F10E012846FEF75EFE04F115036F
:10288800009304F1140304F1130204F11201484601
:10289800FEF752FE04F11903009304F1180304F142
:1028A800170204F116014046FEF746FE04F11D0327
:1028B800009304F11C0304F11B0204F11A013846C9
:1028C800FEF73AFE04F12103009304F1200304F11A
:1028D8001F0204F11E013046FEF72EFE002384F885
:1028E800223007E0E15C94F822200A4484F8222090
:1028F80001339BB2212BF5D9162384F8233003B07A
:10290800BDE8F083704700BF28000020742003084A
:10291800702003089C20030898200308A4200308BB
:10292800A0200308AC200308A82003087C20030883
:102938007820030884200308802003088C200308DB
:102948008820030894200308902003084A4B1B782A
:10295800002B00F08F802DE9F04182B00446437DC2
:10296800027DC17C807CFEF7B3FD444A4449FFF7F1
:102978006FFE804604F11503009304F1140304F17B
:10298800130204F11201FEF7D7FD637E227EE17D7A
:10299800A07DFEF79DFD3B4A3B49FFF759FE0646E1
:1029A80004F11903009304F1180304F1170204F168
:1029B8001601FEF7C1FD637F227FE17EA07EFEF750
:1029C80087FD324A3249FFF743FE054604F11D03ED
:1029D800009304F11C0304F11B0204F11A01FEF731
:1029E800ABFD94F8213094F82020E17FA07FFEF71A
:1029F8006FFD284A2849FFF72BFE074604F12103FB
:102A0800009304F1200304F11F0204F11E01FEF7F4
:102A180093FD637C227CE17BA07BFEF759FD014698
:102A28001E4800F0F7F846442E44BD1929461C48B4
:102A380000F0F0F804F11103009304F1100304F11D
:102A48000F0204F10E012846FEF776FD002384F8F4
:102A5800223007E0E15C94F822200A4484F822201E
:102A680001339BB2212BF5D9162384F8233002B009
:102A7800BDE8F081704700BF28000020402003080F
:102A880004200308442003080820030848200308FA
:102A98000C2003084C20030810200308002003081A
:102AA8003C20030808B5044B1A78A0FB02016422F5
:102AB8000023FDF793FB08BDAC070020504B1B78A3
:102AC800002B00F09B8010B582B00446C37A322BED
:102AD80072D1437C027CC17B807BFEF7F9FCFFF757
:102AE800E1FF04F11103009304F1100304F10F0254
:102AF80004F10E01FEF720FD637D227DE17CA07CC0
:102B0800FEF7E6FCFFF7CEFF04F11503009304F18E
:102B1800140304F1130204F11201FEF70DFD637EA4
:102B2800227EE17DA07DFEF7D3FCFFF7BBFF04F119
:102B38001903009304F1180304F1170204F11601B4
:102B4800FEF7FAFC637F227FE17EA07EFEF7C0FCE1
:102B5800FFF7A8FF04F11D03009304F11C0304F11F
:102B68001B0204F11A01FEF7E7FC94F8213094F8EF
:102B78002020E17FA07FFEF7ABFCFFF793FF04F175
:102B88002103009304F1200304F11F0204F11E0144
:102B9800FEF7D2FC002384F8223007E0E15C94F8C9
:102BA80022200A4484F8222001339BB2212BF5D934
:102BB800162384F823301FE0437C027CC17B807B92
:102BC800FEF786FCFFF76EFF04F11103009304F192
:102BD800100304F10F0204F10E01FEF7ADFC00230F
:102BE800A37405E0E15CA27C0A44A27401339BB2A1
:102BF800112BF7D91623E37402B010BD704700BF3C
:102C08002800002008B50220FDF774FC3420FDF7E9
:102C180093FC08BD2DE9F041ADF5806DC0F3870444
:102C280010F0030F33D120F47F7626F0030600233B
:102C380005E056F823204DF8232001339BB2FF2BE3
:102C4800F7D90F4680464DF82410FDF75DFC404645
:102C5800FDF7A2FC002502240FE01C465DF82510B4
:102C680006EB8500FDF7B6FC042804D0631EDBB232
:102C7800002CF2D11C460135ADB2FF2DEED9FDF77F
:102C880053FCD8F800309F4203D1012002E0002015
:102C980000E000200DF5806DBDE8F0810068704708
:102CA8000068C0B2704700BF2DE9F04383B001212E
:102CB8004FF48020FDF770FE494F07220621384661
:102CC800FDF71AFD072211463846FDF715FD0225C6
:102CD8008DF804504FF000088DF8068001248DF817
:102CE80007408DF8055002AEC02346F8083D31462E
:102CF8003846FDF7A1FC072208213846FDF7FCFC01
:102D0800072209213846FDF7F7FC8DF806804FF4B5
:102D18004073009331463846FDF78EFC21464FF448
:102D28000030FDF739FE00948DF804408DF8064018
:102D38008DF805508DF8078031464FF09040FDF72B
:102D48007BFC21464FF40020FDF726FE4FF4005986
:102D5800CDF800908DF804408DF806408DF80550A8
:102D68008DF8075007F5806731463846FDF764FC53
:102D7800224649463846FDF7B9FC00958DF80450BF
:102D88008DF8068003278DF805708DF807403146C9
:102D98004FF09040FDF750FC2A4621464FF09040F6
:102DA800FDF7AAFC072229464FF09040FDF7A4FC46
:102DB800072239464FF09040FDF79EFC8DF80450ED
:102DC8008DF806808DF807408DF805500C23009388
:102DD80031464FF09040FDF72FFC03B0BDE8F0837B
:102DE8000004004808B501214FF09040FDF76EFC43
:102DF80030B1002201214FF09040FDF777FC08BD6B
:102E0800012211464FF09040FDF770FC08BD00BF4D
:102E180008B500224FF400510148FDF767FC08BDD2
:102E28000008004838B5044601461348FFF76AF819
:102E380000B3237A112B0ED1A37A332B0BD1237B2A
:102E4800342B08D1637B352B05D100220B4B1A702C
:102E580001220B4B1A700B4B1A780B4D0C3229467A
:102E6800204600F005FC284600F0A0FB10B90748F2
:102E780000F026FC38BD00BFDC020020AD070020B2
:102E88007A000020550000200C0400200048004073
:102E9800124B1B780BBB10B51921114B188800F089
:102EA800DFFAC8B10F48FFF7E9F8A8B10D48427A30
:102EB8000D4C0C32214600F0DBFB204600F076FB7F
:102EC80050B90A4800F0FCFB0122044B1A70002399
:102ED800074A1370024A138010BD7047AD070020DF
:102EE800740000203C050020AC010020003801409F
:102EF8007A00002008B54FF4C060FDF715FC08BD46
:102F080008B5FFF7F7FF3F4B1B68DB08B3F1807F7D
:102F18000CD223F07F43013B3B4A5360F0213B4BEB
:102F280083F8231000239360072313606FF00400D5
:102F3800FDF736FCF022354B83F82320FFF762FEBD
:102F4800FFF7B2FEFFF74EFF00F0B4FA00F02AFADE
:102F5800FFF78CF9FFF728FBFFF760FBFFF758FF37
:102F6800FFF740FF2A4800F021FB10B92948FFF776
:102F780059FF294800F01AFB10B1FFF789FFEFE766
:102F880026492548FEF7BEFF30BB254B1B78002B92
:102F9800E6D11921234B188800F062FA0028DFD007
:102FA8001C48FFF76BF80028DAD01A481E4C427A02
:102FB800214600F05DFB204600F0F8FA0028CFD14A
:102FC8001A4800F07DFB0122154B1A700023184A9D
:102FD8001370144A1380C3E7104D2846FFF712F800
:102FE800144B1A78104C0C322146284600F040FB4E
:102FF800204600F0DBFA0028B2D10C4800F060FB54
:10300800AEE700BF3400002010E000E000ED00E073
:10301800DC0200203C0500207C000020680600201F
:10302800AD07002074000020AC01002000380140EA
:103038007A00002055000020704700BFFEE700BF5F
:10304800FEE700BFFEE700BFFEE700BF704700BF16
:10305800704700BF704700BF08B54FF400510948DA
:10306800FDF73CFB012806D100224FF4005105482A
:10307800FDF73CFB08BD01224FF400510148FDF764
:1030880035FB08BD0008004838B508212848FDF779
:10309800EDFD18B108212648FDF7F0FD2549244823
:1030A800FDF7EEFDC8B1244800F08AFAA8B9224C11
:1030B800B4F82C511E48FDF7B9FD6055B4F82C2121
:1030C80001321E4B83FB0231D317C3EB61134FF45C
:1030D800967101FB1323A4F82C3119491448FDF704
:1030E800CFFD18B3124D16492846FDF7EBFD154CD8
:1030F800B4F82E31E15C2846FDF794FDB4F82E2192
:1031080001320E4B83FB0231D317C3EB61134FF42B
:10311800967101FB1323A4F82E31204600F046FADD
:1031280020B1002206492846FDF784FD38BD00BFBE
:103138000038014005010500DC020020B5814E1B66
:1031480007010700AC010020704700BF38B508210F
:103158002548FDF78BFD18B108212348FDF78EFDA2
:1031680022492148FDF78CFDC8B1214800F028FA12
:10317800A8B91F4CB4F82C511B48FDF757FD6055F2
:10318800B4F82C2101321B4B83FB0231D317C3EB5C
:1031980061134FF4967101FB1323A4F82C311649DF
:1031A8001148FDF76DFDF0B1144CB4F82E31E15C17
:1031B8000D48FDF737FDB4F82E2101320D4B83FB86
:1031C8000231D317C3EB61134FF4967101FB13233C
:1031D800A4F82E31204600F0E9F920B10022064972
:1031E8000148FDF727FD38BD0048004005010500EE
:1031F8007C000020B5814E1B070107000C0400204D
:1032080008B501214FF08040FDF78EFC90B10121F7
:103218004FF08040FDF794FC074B1B781BB1074A21
:10322800138801331380064B1B781BB1054A13889A
:103238000133138008BD00BF76000020780000200D
:103248007A00002074000020704700BF82B000237D
:1032580001930093274A136843F001031360254B39
:103268001B6803F002030093019B01330193009B49
:103278001BB9019BB3F5A06FF1D11E4B1B6813F06E
:10328800020F02D00123009301E000230093009B6A
:10329800012B2CD11222184B1A60A3F580535A68BF
:1032A8005A605A685A605A6842F480625A605A688A
:1032B80022F47C125A605A6842F460125A601A6802
:1032C80042F080721A600B4B1B6813F0007FFAD033
:1032D800084B5A6822F003025A605A6842F0020208
:1032E8005A60044B5B6803F00C03082BF9D102B059
:1032F800704700BF001002400020024010B5184C73
:10330800D4F8883043F47003C4F88830154B1A6831
:1033180042F001021A605A6802F47F025A601A6881
:1033280022F0847222F480321A601A6822F4802211
:103338001A605A6822F4FE025A60DA6A22F00F0212
:10334800DA621A6B22F0F02222F073021A6300226A
:103358009A60FFF77BFF4FF00063A36010BD00BFCA
:1033680000ED00E00010024030B583B01C238DF85A
:10337800043000258DF8055001248DF806408DF89D
:10338800074001A8FDF7DAF932238DF804308DF8EB
:1033980005508DF806508DF8074001A8FDF7CEF9C5
:1033A80003B030BD70B588B0FFF7DEFF01210846D5
:1033B800FDF70EFB4CF24F3306934023ADF8143063
:1033C8000024ADF81C40ADF8164005A94FF0804028
:1033D800FDF70CFB01214FF08040FDF74BFB01226C
:1033E80011464FF08040FDF793FB01210820FDF7BF
:1033F800EFFA184B1B68184AA2FB03231B0B013B6F
:103408000693ADF81440ADF81C40ADF81640134DC6
:1034180005A92846FDF7EAFA21462846FDF75CFB90
:1034280001212846FDF726FB6023ADF80030012670
:10343800ADF8026040F24A330293ADF80C40694699
:103448002846FDF725FB324604212846FDF74EFBAA
:1034580008B070BD34000020B5814E1B000C004040
:10346800884201D3012070470020704700B583B01F
:1034780025238DF8043001238DF805308DF80630AA
:103488008DF8073001A8FDF759F927238DF8043086
:1034980000238DF8063001A8FDF750F926238DF892
:1034A800043002238DF8063001A8FDF747F903B070
:1034B8005DF804FB2DE9F04786B001214FF4804008
:1034C800FDF778FA354F01213846FDF79FFB4FF499
:1034D800166500954FF00C08CDF810804FF4805A0F
:1034E800CDF804A04FF48069CDF80C900024029424
:1034F800059469463846FDF727FB01214FF48020E3
:10350800FDF766FA264E01213046FDF77FFB009550
:10351800CDF81080CDF804A0CDF80C900294059455
:1035280069463046FDF710FB01214FF40030FDF7E6
:103538004FFA1C4D01212846FDF768FB4FF49663AE
:103548000093CDF804A00294CDF80C900594CDF822
:10355800108069462846FDF7F7FAFFF787FF124CF7
:10356800012221463846FDF765FB012221463046F7
:10357800FDF760FB012221462846FDF75BFB012190
:103588003846FDF737FB01213046FDF733FB0121B3
:103598002846FDF72FFB06B0BDE8F087003801404C
:1035A800004800400044004005010500B0F82E2105
:1035B800B0F82C319A4201D10120704700207047A1
:1035C80010B4B0F82E41B0F82C210132084B83FB1F
:1035D8000231D317C3EB61134FF4967101FB132328
:1035E8009C4201D1012000E000205DF8044B7047A7
:1035F800B5814E1BB0F82C31B0F82E219B1A03F57B
:103608009673064880FB0320DA17C2EB60104FF46C
:10361800967202FB103080B2704700BFB5814E1B16
:1036280070B504460E461546FFF7E4FFA84217D2C8
:10363800002070BDB4F82E21A25CF254B4F82E110B
:1036480001310A4A82FB0120CA17C2EB60124FF40B
:10365800967000FB1212A4F82E2101339BB200E0F1
:103668000023AB42E6D3012070BD00BFB5814E1BDD
:1036780070B506460C4615460846FFF7BBFF2844BA
:10368800B0F5967F15DD002070BDB4F82C31B15C23
:10369800E1540133094981FB0310D917C1EB6011CB
:1036A8004FF4967000FB1131A4F82C11013292B23C
:1036B80000E00022AA42E8D3012070BDB5814E1B6C
:1036C80008B501220149FDF7B5FA08BD0701070051
:1036D800002103E00B4B5B58435004310A480B4B65
:1036E80042189A42F6D30A4A02E0002342F8043B01
:1036F800084B9A42F9D3FFF701FE00F00FF8FFF7E5
:10370800FFFBFEE7403900080000002038000020D9
:1037180038000020DC080020FEE7000070B50E4BE2
:103728000E4CE41AA41000251E46A54204D056F8F3
:10373800253098470135F8E700F0EAF8084C094BBE
:10374800E41AA41000251E46A54204D056F82530D8
:1037580098470135F8E770BD38390008383900084E
:103768003C39000838390008333434358D250008D1
:10377800333534358D250008333634358D2500082A
:10378800333234358D25000837383338351300087F
:1037980038383338351300083938333835130008CA
:1037A8003A383338351300083238333835130008BF
:1037B8003333343301270008333434330127000806
:1037C80033353433012700083336343301270008F2
:1037D80033373433012700083332343301270008E4
:1037E800333348330127000833335C33012700089B
:1037F8003333703301270008343439385529000829
:1038080035343938552900083634393855290008EF
:1038180034333433C52A000834343433C52A000815
:1038280034353433C52A000834363433C52A000801
:1038380034373433C52A000834323433C52A0008F3
:1038480034334833C52A000834335C33C52A0008AA
:1038580034337033C52A000833373435B1160008BD
:10386800333834353517000833393435F117000843
:10387800333A343599180008333735357919000843
:1038880033383535191A000833393535C919000860
:10389800333A3535991A0008333B3535051B00088E
:1038A80033733433B91D000833743433591C00089A
:1038B80033753433751E000833763433711B0008B2
:1038C80033773433091D00083334433909160008A7
:1038D80034344339091600083534433909160008C9
:1038E800323443390916000833354339AD16000818
:1038F80034354339AD16000835354339AD1600085F
:1039080032354339AD16000832323232F91B00081D
:10391800F8B500BFF8BC08BC9E467047F8B500BFB4
:08392800F8BC08BC9E46704784
:08393000E4C8FF7F0100000064
:04393800AD010008D5
:04393C0089010008F5
:1039400002040608020406080A0C0E1014181C20B3
:1039500024282C30000000000102030401020304AB
:103960000607080998080000FF00000098080000FA
:08397000980800000090D0034C
:04000005080036D9E0
:00000001FF
