:020000040800F2
:1000000000600020452500088D1C0008911C000898
:10001000951C0008991C00089D1C000800000000A9
:10002000000000000000000000000000A11C00080B
:10003000A51C000800000000A91C0008AD1C000859
:100040008D2500088D2500088D2500088D250008C8
:100050008D2500088D2500088D2500088D250008B8
:100060008D2500088D2500088D2500088D250008A8
:100070008D2500088D2500088D2500088D25000898
:100080008D2500088D2500088D2500088D25000888
:100090008D2500088D2500088D2500088D25000878
:1000A0008D2500088D2500088D2500088D25000868
:1000B000B11F00088D2500088D2500088D2500083A
:1000C0008D2500088D2500088D2500088D25000848
:1000D0008D250008BD1C0008BD1D0008BD1E0008C0
:1000E0008D2500088D2500088D2500088D25000828
:1000F0008D2500088D25000800000000000000008C
:100100000000000000000000F91F00088D25000815
:1001100000000000000000008D2500088D2500086B
:100120008D2500088D2500088D2500088D250008E7
:100130008D2500088D2500088D2500088D250008D7
:100140008D250008000000000000000000000000F5
:10015000000000000000000000000000000000009F
:1001600000000000000000008D2500088D2500081B
:100170008D250008000000008D250008000000000B
:08018000000000008D250008BD
:1001880010B5054C237833B9044B13B10448AFF3C9
:1001980000800123237010BD6400002000000000CF
:1001A80088010008084B10B51BB108490848AFF38F
:1001B80000800848036803B910BD074B002BFBD02B
:1001C800BDE81040184700BF00000000680000208C
:1001D800880100086400002000000000034A13683A
:1001E80023F0030318431060704700BF002002404B
:1001F800054B1B6913F0800F05D0034B034A5A6067
:1002080002F188325A607047002002402301674596
:10021800024A136943F080031361704700200240CB
:10022800014BD860704700BF002002400B4BDB68D1
:1002380013F0010F0BD1094BDB6813F0100F08D135
:10024800064BDB6813F0040F05D00320704701202C
:100258007047022070470420704700BF002002400A
:1002680010B50446FFF7E2FF02E0FFF7DFFF013CAD
:10027800012801D1002CF8D104B9052010BD00BF18
:1002880038B505464FF43020FFF7EAFF042811D1AE
:10029800094C236943F0020323616561236943F034
:1002A800400323614FF43020FFF7DAFF236923F07E
:1002B8000203236138BD00BF0020024030B583B07F
:1002C80005460C46002301934FF43020FFF7C8FF82
:1002D800042820D1114A136943F001031361A3B222
:1002E8002B804FF43020FFF7BBFF04280ED10235D6
:1002F8000195019B240C1C804FF43020FFF7B0FFC0
:10030800064A136923F00103136104E0034A1369E1
:1003180023F00103136103B030BD00BF0020024089
:1003280070B4002341E001229A400C68A2433BD1FB
:100338000A79013AD2B2012A1CD885685A000324E6
:10034800944025EA0404846085684C7904FA02F232
:100358002A4382608488A5B29AB20124944025EA8F
:10036800040484808588ADB28C7904FA02F292B2D2
:100378002A43828004685A00032505FA02F624EA13
:100388000604046006680C79944034430460C46829
:100398009EB27600B54024EA0505C560C568CC79EB
:1003A80004FA02F22A43C26001330F2BBBD970BC96
:1003B800704700BF038A194201D00120704700200E
:1003C800704700BF0AB1816170470185704700BF5F
:1003D80030B401F007039B009A40C908083150F86F
:1003E80021400F2505FA03F324EA030340F82130DE
:1003F80050F821301A4340F8212030BC704700BF24
:1004080040F0BF6040F40030014BD860704700BF37
:1004180000ED00E0C378FBB1154BDB68DB43C3F3A9
:100428000223C3F104010F22DA40437803FA01F1F1
:10043800837813400B431B010278DBB20D490A4451
:1004480082F800330378580903F01F03012202FAE7
:1004580003F341F82030704703785A0903F01F036B
:10046800012101FA03F32032024941F82230704792
:1004780000ED00E000E100E0042805D1054A13681A
:1004880043F0040313607047024A136823F004031F
:100498001360704710E000E070B46F4B5B6803F0C6
:1004A8000C03042B05D0082B06D0FBB96B4B03605B
:1004B8001EE06A4B03601BE0674A53685268C3F347
:1004C8008343023312F4803F04D1654A02FB03F3ED
:1004D80003600DE0604AD26A02F00F02511C5F4AC5
:1004E800B2FBF1F202FB03F3036001E05B4B036034
:1004F800594A5368C3F303135A4EF35CDBB20568D9
:1005080025FA03F343605168C1F30221715CC9B253
:1005180023FA01F181605468C4F3C224345DE4B263
:10052800E340C3605468C4F381344F4E345DE4B291
:10053800B3FBF4F404615468C4F3C3644B4E345DF4
:10054800E4B2B5FBF4F44461126B12F0400F03D12E
:1005580048F21202826102E04FF4004282613E4A90
:10056800126B12F0100F02D13C4AC26100E0C56163
:10057800394A126B12F0200F02D1384A026200E0A9
:100588000562354A126B12F0030F01D1436219E07C
:10059800314B1B6B03F00303012B01D1456211E0C2
:1005A8002D4B1B6B03F00303022B03D14FF40043C5
:1005B800436207E0284B1B6B03F00303032B01D1B5
:1005C800264B4362244B1B6B13F4403F01D18162DD
:1005D8001CE0214B1B6B03F44033B3F5803F01D182
:1005E800856213E01C4B1B6B03F44033B3F5003FEB
:1005F80003D14FF40043836208E0174B1B6B03F4ED
:100608004033B3F5403F01D1144B8362124B1B6B4F
:1006180013F4402F01D1C1621CE00F4B1B6B03F494
:100628004023B3F5802F01D1C56213E00A4B1B6B41
:1006380003F44023B3F5002F03D14FF40043C36202
:1006480008E0054B1B6B03F44023B3F5402F01D1A1
:10065800024BC36270BC70470010024000127A005F
:1006680000093D00140000200000002004000020C4
:1006780021B1054B5A69104358617047024A5369C2
:1006880023EA0000506170470010024021B1054B79
:100698009A69104398617047024A936923EA0000F7
:1006A800906170470010024021B1054BDA69104390
:1006B800D8617047024AD36923EA0000D0617047C5
:1006C8000010024003889BB2B0F1804F0ED01C4A44
:1006D80090420BD002F58062904207D002F580620A
:1006E800904203D002F5A832904203D123F0700360
:1006F8004A881343134A90420CD002F58062904214
:1007080008D002F50842904204D023F440739BB20B
:100718000A89134303804B68C3620B8803850A4B1D
:10072800984207D003F58063984203D003F58063AD
:10073800984201D18B7A038601238382704700BFD8
:1007480000040040001000400040014029B1038827
:100758009BB243F001030380704703889BB223F0E8
:1007680001039BB20380704730B4038C9BB223F023
:1007780010039BB20384048CA4B28588ADB2028BAB
:1007880092B222F4E6430A88120292B21A4324F083
:1007980020048B891B019BB21C434B881B019BB215
:1007A8002343858002838A688263038430BC704750
:1007B800038B9BB223F40063090289B219430183B6
:1007C800704700BF10B401238B409BB2048CDB43FD
:1007D8009BB223400384038C9BB28A4092B21A4393
:1007E80002845DF8044B704722B183899BB2194398
:1007F800818170478389C94389B2194081817047D3
:10080800028A83890B40114202D01BB9002070472D
:100818000020704701207047C94389B201827047A0
:1008280030B58DB004460D46036823F0010303601C
:10083800436823F440528B6813434360036823F4EE
:10084800B05222F00C024968EB6819432B690B433C
:1008580013430360836823F440726B691343836016
:100868006846FFF719FE174B9C4201D1099A05E02B
:10087800154B9C4201D10A9A00E00B9A236813F4A5
:10088800004F06D052002968B2FBF1F301FB132296
:1008980004E02968B2FBF1F301FB13222968B2EBEB
:1008A800510F00D30133226812F4004F06D0C3F36E
:1008B800420223F00F031B041B0C13439BB2A381BA
:1008C8000DB030BD003801400044004021B103683C
:1008D80043F0010303607047036823F001030360DA
:1008E800704700BF21B1036843F4004303607047B9
:1008F800036823F400430360704700BFC1F3080195
:1009080001857047808CC0F30800704730B4C1F38C
:100918000725C9B2012303FA01F1022D01D1041DF3
:1009280004E00446032D01D100F108041AB123683C
:100938001943216003E0236823EA0101216030BCE8
:10094800704700BFC3690B4201D0012070470020E7
:10095800704700BF0162704710B4C1F30722CCB2E0
:100968000123A340012A02D10268134006E0022AAB
:1009780002D14268134001E082681340090C012249
:1009880002FA01F1C269114013B119B9002002E05D
:10099800002000E001205DF8044B7047090C01239A
:1009A80003FA01F10162704710B43339C1F303143B
:1009B80001F00F013338C0F3031300F00F00642275
:1009C80002FB01F14FF47A7202FB041403EB830378
:1009D8005A00224410445DF8044B7047F8B5194892
:1009E80000F0CEFF184B1870184800F0C9FF0446F5
:1009F800174800F0C5FF0546164800F0C1FF064637
:100A0800154800F0BDFF0746FF2C0ED1FF2D0CD175
:100A1800FF2E0AD1FF2808D140F62E120F4B1A607C
:100A280040F2BC720E4B1A60F8BD29462046FFF70B
:100A3800BBFF0A4B186039463046FFF7B5FF084B35
:100A48001860F8BD141F030860080020001F030881
:100A5800041F0308081F03080C1F030800200020B8
:100A68001420002008B5174BC8221A60164A5A608D
:100A7800164800F083FFB0F1FF3F06D15021114B1B
:100A88009960124800F036FF01E00E4B986010485C
:100A980000F074FFB0F1FF3F10D10A484368826844
:100AA800B3FBF2F202EB4202D3000A49A1FB033185
:100AB800C908C160064800F01DFF08BD014BD86099
:100AC80008BD00BF0420002000650400201F0308A3
:100AD8001C1F0308CDCCCCCC08B5084800F050FF4B
:100AE800074B1870074800F04BFFFF2803D15A2224
:100AF800054B1A7008BD044B187008BD181F030871
:100B080048000020101F03081820002070B4034676
:100B180020301E685D689C68DA680E604D608C60E5
:100B2800CA60103310318342F3D118685A689B6841
:100B380008604A608B602C2070BC7047437802784C
:100B480043EA02230B8083788B70C378CB70042030
:100B5800704700BF2DE9F0410D460378002B00F0E7
:100B68000C81012B00F00B81022B2FD1417811F061
:100B7800800F01D101231DE001F07F01012902D17D
:100B88008178022316E0022905D18178C37843EAE7
:100B9800012103230EE0032903D1817809040423EA
:100BA80008E0042903D181780906052302E000231F
:100BB8004FF0FF310029C0F2EA800133002202E041
:100BC80001339BB201328A42FADBD9E0032B5AD1B6
:100BD800467816F0800F01D101211DE006F07F064E
:100BE800012E02D18678022116E0022E05D18678E0
:100BF800C37843EA062603210EE0032E03D1867844
:100C08003604042108E0042E03D18678360605212F
:100C180002E000214FF0FF36002EC0F2BC804B1CD2
:100C2800184400242CE0027812F0800F01D1012131
:100C38001CE002F07F02012A02D14278022115E06D
:100C4800022A05D14178827842EA012203210DE087
:100C5800032A03D142781204042107E0042A03D1AD
:100C680042781206052101E04FF0FF32002AC0F257
:100C780096800B448F18384412FA83F39BB20134E0
:100C8800B442D0DB7CE0042B2ED1417811F0800FE8
:100C980001D101231DE001F07F01012902D18178F2
:100CA800022316E0022905D18178C37843EA01219D
:100CB80003230EE0032903D181780904042308E003
:100CC800042903D181780906052302E000234FF0A7
:100CD800FF31002967DB0133002202E002339BB2B7
:100CE80001328A42FADB4BE0053BDBB2022B5ED8CD
:100CF800467816F0800F01D101221DE006F07F062C
:100D0800012E02D18678022216E0022E05D18678BD
:100D1800C37843EA062603220EE0032E03D1867821
:100D28003604042208E0042E03D18678360605220C
:100D380002E000224FF0FF36002E3CDB531CC418A3
:100D48004FF0000816E00134581C87B2E91B204612
:100D580000F03EF8002832DB0444384487B2E91B2F
:100D6800204600F035F800282DDB0444384483B2CF
:100D780008F10108B045E6DB02E0012300E00123A9
:100D880018469D4221DA4FF0FF30BDE8F0814FF060
:100D9800FF30BDE8F0814FF0FF30BDE8F0814FF043
:100DA800FF30BDE8F0814FF0FF30BDE8F0814FF033
:100DB800FF30BDE8F0814FF0FF30BDE8F0814FF023
:100DC800FF30BDE8F0814FF0FF30BDE8F08100BF93
:100DD8002DE9F0410D46421C0378602B00F2B083E8
:100DE800DFE813F0610063009E00A403D900160138
:100DF8001801AE03AE031A014501AE037001AE033C
:100E0800AE03A4039B01A4039D01AE039F01A101AE
:100E1800A403A301A501A701A901AB01AD01AE037C
:100E2800AE03AE03AE03AE03AE03AE03AE03AE0332
:100E3800AE03AE03AE03AE03AE03AE03AE03AE0322
:100E4800AE03AE03AE03AE03AE03AE03AE03AE0312
:100E5800AE03AE03AE03AE03AE03AE03AE03AE0302
:100E6800AE03AE03AE03AE03AE03AE03AE03AE03F2
:100E7800AE03AE03AE03AE03AE03AE03AE03AE03E2
:100E8800AE03AE03AF01B101B301E301E501E70130
:100E9800120212023D02510253025D029702A102A0
:100EA800CC0224032603012443E3477817F0800F7C
:100EB80001D101261DE007F07F07012F02D18778B5
:100EC800022616E0022F05D18778C37843EA072760
:100ED80003260EE0032F03D187783F04042608E099
:100EE800042F03D187783F06052602E000264FF03D
:100EF800FF37002FC0F22883741C16444FF00008F7
:100F08000BE0291B3046FFF763FF002840F32083DE
:100F180006440444A4B208F10108B845F1DB08E32B
:100F2800477817F0800F01D101261DE007F07F07F1
:100F3800012F02D18778022616E0022F05D1877883
:100F4800C37843EA072703260EE0032F03D18778E7
:100F58003F04042608E0042F03D187783F060526BE
:100F680002E000264FF0FF37002FC0F2F582741C14
:100F780016444FF000080BE0291B3046FFF728FF06
:100F8800002840F3ED8206440444A4B208F10108A5
:100F9800B845F1DBCDE2437813F0800F01D101228F
:100FA8001DE003F07F03012B02D18378022216E0B3
:100FB800022B05D18278C37843EA022303220EE08C
:100FC800032B03D183781B04042208E0042B03D1EC
:100FD80083781B06052202E000224FF0FF33002B26
:100FE800C0F2C282013213F0070F07D11C46002B52
:100FF80000DADC1D02EBE40294B29AE21C46002BF4
:1010080000DADC1D02EBE404A4B20134A4B290E2DD
:1010180005248EE205248CE2447814F0800F01D177
:1010280001231DE004F07F04012C02D184780223FF
:1010380016E0022C05D18478C37843EA04240323FC
:101048000EE0032C03D184782404042308E0042C44
:1010580003D184782406052302E000234FF0FF34EF
:10106800002CC0F2858201331C44A4B261E24478AA
:1010780014F0800F01D101231DE004F07F04012C3E
:1010880002D18478022316E0022C05D18478C37833
:1010980043EA042403230EE0032C03D184782404B8
:1010A800042308E0042C03D184782406052302E0F5
:1010B80000234FF0FF34002CC0F25E8201331C4441
:1010C800A4B236E2447814F0800F01D101231DE068
:1010D80004F07F04012C02D18478022316E0022C4C
:1010E80005D18478C37843EA042403230EE0032C53
:1010F80003D184782404042308E0042C03D18478E1
:101108002406052302E000234FF0FF34002CC0F230
:10111800378201331C44A4B20BE2032409E20324FE
:1011280007E2092405E2092403E2052401E209246F
:10113800FFE10B24FDE10624FBE10424F9E1082486
:10114800F7E10324F5E10524F3E1427912F0800F79
:1011580001D101241DE002F07F02012A02D1827927
:10116800022416E0022A05D18279C37943EA0222D1
:1011780003240EE0032A03D182791204042408E030
:10118800042A03D182791206052402E000244FF0D4
:10119800FF32002AC0F2F8810534002302E004344B
:1011A800A4B201339342FADBC3E10524C1E104246C
:1011B800BFE1447814F0800F01D101231DE004F051
:1011C8007F04012C02D18478022316E0022C05D179
:1011D8008478C37843EA042403230EE0032C03D164
:1011E80084782404042308E0042C03D1847824069A
:1011F800052302E000234FF0FF34002CC0F2C88121
:1012080001331C44A4B294E1447814F0800F01D156
:1012180001231DE004F07F04012C02D1847802230D
:1012280016E0022C05D18478C37843EA042403230A
:101238000EE0032C03D184782404042308E0042C52
:1012480003D184782406052302E000234FF0FF34FD
:10125800002CC0F2A18101331C44A4B269E1861CB0
:10126800A91E3046FFF7B4FD0028C0F29981841CFE
:10127800A4B2291B3044FFF7ABFD0028C0F29481CB
:101288000444A4B255E1032453E1691E104600F05A
:10129800C3F90028C0F28C81013084B249E1437857
:1012A800002B00F04581012B40F08681827912F0F5
:1012B800800F01D101241DE002F07F02012A02D132
:1012C800C279022416E0022A05D1C279037A43EAD8
:1012D800022203240EE0032A03D1C2791204042453
:1012E80008E0042A03D1C2791206052402E000248A
:1012F8004FF0FF32002AC0F263810634002305E074
:10130800A542C0F261810434A4B201339342F7DBF1
:101318000FE1691E1046FFF71DFC0028C0F2588136
:10132800013084B205E1447914F0800F01D1012322
:101338001DE004F07F04012C02D18479022316E019
:10134800022C05D18479C37943EA042403230EE0EF
:10135800032C03D184792404042308E0042C03D14A
:1013680084792406052302E000234FF0FF34002C83
:10137800C0F2328105331C44A4B2DAE0441D43793B
:1013880013F0800F01D101221DE003F07F03012B30
:1013980002D18379022216E0022B05D18279C37922
:1013A80043EA022303220EE0032B03D183791B04B3
:1013B800042208E0042B03D183791B06052202E0EE
:1013C80000224FF0FF33002BC0F20A81511DD018C4
:1013D80026180B449BB2245C14F0800F01D1012223
:1013E8001CE004F07F04012C02D17478022215E07D
:1013F800022C05D17478B27842EA042403220DE065
:10140800032C03D174782404042207E0042C03D1AC
:1014180074782406052201E04FF0FF34002CC0F256
:10142800E380134414FA83F4A4B282E0062480E033
:10143800467816F0800F02D14FF0010E22E006F038
:101448007F06012E03D186784FF0020E1AE0022E95
:1014580006D18678C37843EA06264FF0030E11E0DA
:10146800032E04D1867836044FF0040E0AE0042EC9
:1014780004D1867836064FF0050E03E04FF0000ED3
:101488004FF0FF36002EC0F2B3800EF1010402EBDC
:101498000E03002747E0A542C0F2AE801A781AB9B9
:1014A80005330534A4B23DE0012A40F0A9805A1D55
:1014B8000534A4B2597911F0800F02D14FF0010E12
:1014C80020E001F07F01012903D199794FF0020E44
:1014D80018E0022906D19979DB7943EA01214FF016
:1014E800030E0FE0032904D1997909044FF0040E83
:1014F80008E0042904D1997909064FF0050E01E0A6
:101508004FF0FF3100297FDB7444A4B202EB0E03D5
:10151800002205E0A5427BDB04330434A4B2013287
:101528008A42F7DB0137B742B5DB02E0022400E06C
:1015380006242046A5426DDA4FF0FF30BDE8F08161
:101548004FF0FF30BDE8F0814FF0FF30BDE8F0818B
:101558004FF0FF30BDE8F0814FF0FF30BDE8F0817B
:101568004FF0FF30BDE8F0814FF0FF30BDE8F0816B
:101578004FF0FF30BDE8F0814FF0FF30BDE8F0815B
:101588004FF0FF30BDE8F0814FF0FF30BDE8F0814B
:101598004FF0FF30BDE8F0814FF0FF30BDE8F0813B
:1015A8004FF0FF30BDE8F0814FF0FF30BDE8F0812B
:1015B8004FF0FF30BDE8F0814FF0FF30BDE8F0811B
:1015C8004FF0FF30BDE8F0814FF0FF30BDE8F0810B
:1015D8004FF0FF30BDE8F0814FF0FF30BDE8F081FB
:1015E8004FF0FF30BDE8F0814FF0FF30BDE8F081EB
:1015F8004FF0FF30BDE8F0814FF0FF30BDE8F081DB
:101608004FF0FF30BDE8F0814FF0FF30BDE8F081CA
:101618004FF0FF30BDE8F0812DE9F0410D46037829
:10162800002B00F0A880012B09D105390530FFF700
:10163800CFFB0028C0F2A980431D9BB29EE0022B7D
:101648001ED100F1050805394046FFF7C1FB002807
:10165800C0F29F808044053084B2291B4046FFF7C2
:10166800B7FB0028C0F299800444A4B2291B404467
:10167800FFF7AEFB0028C0F2948023189BB27DE0F0
:10168800032B4DD1477817F0800F01D101221DE0BF
:1016980007F07F07012F02D18778022216E0022F78
:1016A80005D18778C37843EA072703220EE0032F82
:1016B80003D187783F04042208E0042F03D18778F8
:1016C8003F06052202E000224FF0FF37002F6CDBB7
:1016D800531C00EB030800261FE008F1040804333C
:1016E8009CB2291B4046FFF773FB002861DB80444E
:1016F8000444A4B2291B4046FFF76AFB00285CDBC0
:1017080080440444A4B2291B4046FFF761FB00282B
:1017180057DB804423189BB20136BE42DDDB2DE047
:101728001A1FD2B2012A09D808390830FFF712FA6D
:1017380000284ADB00F108039BB21FE09A1FD2B2CF
:10174800012A01D9082B09D1A5F112011230FFF79E
:1017580001FA00283DDB123083B20FE0092B0CD0D0
:101768000A2B3AD102390230FFF7F4F9002838DBA6
:10177800023083B202E0012300E0022318469D42B2
:1017880031DA4FF0FF30BDE8F0814FF0FF30BDE8AF
:10179800F0814FF0FF30BDE8F0814FF0FF30BDE839
:1017A800F0814FF0FF30BDE8F0814FF0FF30BDE829
:1017B800F0814FF0FF30BDE8F0814FF0FF30BDE819
:1017C800F0814FF0FF30BDE8F0814FF0FF30BDE809
:1017D800F0814FF0FF30BDE8F0814FF0FF30BDE8F9
:1017E800F0814FF0FF30BDE8F08100BF00B583B055
:1017F800019008464FF48071FFF7EAFA03B05DF8EC
:1018080004FB00BF2DE9F0414378012B02D0022BE5
:1018180004D044E0C51C4FF0010805E0051D90F810
:10182800038018F0800F3ED10F4640F2FC52002191
:10183800384600F0CFFE01233B7000242AE004EB79
:1018480044039900083139442846FFF777F92A18E4
:101858002B5C0BB9951C1BE0012B28D1551C04EB04
:10186800440293003B4429469868FFF7BFFF0028CD
:1018780021DB620011198B0019463B44D8811D6198
:101888000B463B4401221A73BB791344BB710544D0
:101898000134E4B24445D2D30120BDE8F0814FF0D1
:1018A800FF30BDE8F0814FF0FF30BDE8F0814FF028
:1018B800FF30BDE8F0814FF0FF30BDE8F08100BF98
:1018C80008B50378852B07D14378013B012B06D84F
:1018D8001146FFF797FF08BD4FF0FF3008BD4FF0E6
:1018E800FF3008BD08B50220FEF778FC3420FEF76B
:1018F80097FC08BD2DE9F041ADF5806DC0F3870474
:1019080010F0030F33D120F47F7626F0030600236E
:1019180005E056F823204DF8232001339BB2FF2B16
:10192800F7D90F4680464DF82410FEF761FC404673
:10193800FEF7A6FC002502240FE01C465DF82510E2
:1019480006EB8500FEF7BAFC042804D0631EDBB260
:10195800002CF2D11C460135ADB2FF2DEED9FEF7B1
:1019680057FCD8F800309F4203D1012002E0002044
:1019780000E000200DF5806DBDE8F081006870473B
:101988000068C0B2704700BF2DE9F04383B0012161
:101998004FF48020FEF76CFE494F07220621384697
:1019A800FEF716FD072211463846FEF711FD0225FF
:1019B8008DF804504FF000088DF8068001248DF84A
:1019C80007408DF8055002AEC02346F8083D314661
:1019D8003846FEF7A5FC072208213846FEF7F8FC32
:1019E800072209213846FEF7F3FC8DF806804FF4EC
:1019F8004073009331463846FEF792FC21464FF477
:101A08000030FEF735FE00948DF804408DF806404E
:101A18008DF805508DF8078031464FF09040FEF75D
:101A28007FFC21464FF40020FEF722FE4FF40059B8
:101A3800CDF800908DF804408DF806408DF80550DB
:101A48008DF8075007F5806731463846FEF768FC81
:101A5800224649463846FEF7B5FC00958DF80450F5
:101A68008DF8068003278DF805708DF807403146FC
:101A78004FF09040FEF754FC2A4621464FF0904024
:101A8800FEF7A6FC072229464FF09040FEF7A0FC7F
:101A9800072239464FF09040FEF79AFC8DF8045023
:101AA8008DF806808DF807408DF805500C230093BB
:101AB80031464FF09040FEF733FC03B0BDE8F083A9
:101AC8000004004808B501214FF09040FEF772FC71
:101AD80030B1002201214FF09040FEF773FC08BDA1
:101AE800012211464FF09040FEF76CFC08BD00BF84
:101AF80008B500224FF400510148FEF763FC08BD09
:101B08000008004810B5ADF5006D4FF4C060FEF751
:101B180077FC454B1B68454AA2FB03239B09B3F19D
:101B2800807F0CD223F07F43013B414A5360F02170
:101B3800404B83F8231000239360072313606FF052
:101B48000400FEF799FCF0223A4B83F82320FFF7B4
:101B5800C9FEFFF719FFFFF7B5FF00F079FB00F0AA
:101B6800F5FAFEF73BFFFEF77DFFFEF7B5FFFFF73F
:101B7800BFFF314B186800F007FC304B186800F0C5
:101B880003FC2F4B1B7863B12B4C206800F00CFC36
:101B980000222B4B1A70294B1A682A49206800F03A
:101BA8005DF8294B1B78002BE3D0244C206800F00B
:101BB800FBFB0022244B1A704FF47A7223492068E9
:101BC80000F082FC0028D4D069462048FEF79EFF2A
:101BD80001460028CDD01E4A6846FFF771FE01284D
:101BE800C7D11BE003EB4302194901EB82021289BA
:101BF800B2F5005F10D103EB430201EB82021269D8
:101C0800D179907941EA002112480160917A527A9B
:101C180041EA022210490A60013300E000230C4A1D
:101C280092799342DED3A4E760000020CDCCCCCCDF
:101C380010E000E000ED00E034000020300000205B
:101C4800251800203018002024180020181C002017
:101C580004240020380000205C00002070B50E46E7
:101C680015464FF47A7200F02FFC40B10446062363
:101C780002463146284600F0CDFB204670BD0020C4
:101C880070BD00BF704700BFFEE700BFFEE700BFA2
:101C9800FEE700BFFEE700BF704700BF704700BF08
:101CA800704700BF024A138801331380704700BF92
:101CB8002618002070B5394B1B6808211868FEF7F4
:101CC80041FE28B1354B1B6808211868FEF742FE13
:101CD800324B1B6832491868FEF73EFEE8B12F4BBD
:101CE8001B68586800F03AFBB8B92C4C23685D684B
:101CF800D5F8EC631868FEF705FEA85523685968FF
:101D0800D1F8EC230132274BA3FB02039B094FF4C4
:101D18007A7000FB1323C1F8EC33204B1B6822496F
:101D28001868FEF719FE38B31C4C23681E4918685A
:101D3800FEF734FE23689A68D2F8E813515C1868F5
:101D4800FEF7DCFD21688868D0F8E8230132154BDE
:101D5800A3FB02439B094FF47A7404FB1323C0F8D6
:101D6800E833886800F0F0FA30B10C4B1B680022A9
:101D78000D491868FEF7CAFD084B1B680B4918681F
:101D8800FEF7EAFD40B1054B1B6808491868FEF7E5
:101D980005FE0122064B1A7070BD00BF34000020FA
:101DA80005010500D34D6210070107000401040076
:101DB8002518002070B53B4B1B6808211868FEF7F2
:101DC800C1FD012805D1374B1B6808211868FEF7AB
:101DD800C1FD344B1B6834491868FEF7BDFD08B3D4
:101DE800304C236830491868FEF7D8FD23685868D6
:101DF80000F0B4FAB0B923685D68D5F8EC631868E8
:101E0800FEF780FDA85523685968D1F8EC23013204
:101E1800264BA3FB02039B094FF47A7000FB1323A4
:101E2800C1F8EC331F4B1B6821491868FEF794FD75
:101E3800002836D01B4C23681D491868FEF7AEFDF4
:101E480023689A68D2F8E813515C1868FEF756FDC3
:101E580021688868D0F8E8230132144BA3FB0243B9
:101E68009B094FF47A7404FB1323C0F8E83388689D
:101E780000F06AFAA8B10B4B1B6800220C491868DD
:101E8800FEF744FD074B1B6840211868FEF75AFD12
:101E98000028F7D0034B1B68012203491868FEF796
:101EA80035FD70BD5800002005010500D34D6210B6
:101EB8000701070070B5364B1B6808211868FEF744
:101EC80041FD28B1324B1B6808211868FEF742FD16
:101ED8002F4B1B682F491868FEF73EFDE8B12C4BC5
:101EE8001B68586800F03AFAB8B9294C23685D684D
:101EF800D5F8EC631868FEF705FDA85523685968FE
:101F0800D1F8EC230132244BA3FB02039B094FF4C5
:101F18007A7000FB1323C1F8EC331D4B1B681F4973
:101F28001868FEF719FD10B3194C23689A68D2F89F
:101F3800E813515C1868FEF7E1FC21688868D0F85E
:101F4800E8230132144BA3FB02439B094FF47A7434
:101F580004FB1323C0F8E833886800F0F5F930B1C2
:101F68000B4B1B6800220D491868FEF7CFFC084B85
:101F78001B680B491868FEF7EFFC40B1044B1B685F
:101F880007491868FEF70AFD0122064B1A7070BD52
:101F98003000002005010500D34D6210070107003D
:101FA800040104002418002008B501214FF08040E6
:101FB800FEF726FC90B101214FF08040FEF72CFC83
:101FC800074B1B781BB1074A138801331380064B54
:101FD8001B781BB1054A13880133138008BD00BF65
:101FE8002A1800202C1800202E180020281800205D
:101FF800704700BF82B0002301930093274A1368FB
:1020080043F001031360254B1B6803F002030093A0
:10201800019B01330193009B1BB9019BB3F5A06F92
:10202800F1D11E4B1B6813F0020F02D0012300935D
:1020380001E000230093009B012B2CD11222184BA6
:102048001A60A3F580535A685A605A685A605A68E9
:1020580042F480625A605A6822F47C125A605A68C4
:1020680042F460125A601A6842F080721A600B4B90
:102078001B6813F0007FFAD0084B5A6822F003025D
:102088005A605A6842F002025A60044B5B6803F0D7
:102098000C03082BF9D102B0704700BF00100240B2
:1020A8000020024010B5184CD4F8883043F470036F
:1020B800C4F88830154B1A6842F001021A605A6851
:1020C80002F47F025A601A6822F0847222F4803285
:1020D8001A601A6822F480221A605A6822F4FE02F2
:1020E8005A60DA6A22F00F02DA621A6B22F0F022E2
:1020F80022F073021A6300229A60FFF77BFF4FF009
:102108000063A36010BD00BF00ED00E000100240B6
:1021180030B583B01C238DF8043000258DF80550A8
:1021280001248DF806408DF8074001A8FEF772F9E2
:1021380032238DF804308DF805508DF806508DF84F
:10214800074001A8FEF766F903B030BD70B588B046
:10215800FFF7DEFF01210846FEF7A6FA4CF24F33DF
:1021680006934023ADF814300024ADF81C40ADF8B8
:10217800164005A94FF08040FEF7A4FA01214FF060
:102188008040FEF7E3FA012211464FF08040FEF747
:102198002BFB01210820FEF787FA184B1B68184A09
:1021A800A2FB03231B0B013B0693ADF81440ADF8CB
:1021B8001C40ADF81640134D05A92846FEF782FAD3
:1021C80021462846FEF7F4FA01212846FEF7BEFA12
:1021D8006023ADF800300126ADF8026040F24A33C2
:1021E8000293ADF80C4069462846FEF7BDFA324620
:1021F80004212846FEF7E6FA08B070BD600000200A
:10220800B5814E1B000C004000B583B025238DF826
:10221800043001238DF805308DF806308DF807302D
:1022280001A8FEF7F7F827238DF8043000238DF86E
:10223800063001A8FEF7EEF826238DF804300223B5
:102248008DF8063001A8FEF7E5F803B05DF804FB49
:102258002DE9F04786B001214FF48040FEF716FAC9
:10226800354F01213846FEF73DFB4FF416650095C2
:102278004FF00C08CDF810804FF4805ACDF804A028
:102288004FF48069CDF80C900024029405946946B7
:102298003846FEF7C5FA01214FF48020FEF704FA0C
:1022A800264E01213046FEF71DFB0095CDF8108023
:1022B800CDF804A0CDF80C900294059469463046F8
:1022C800FEF7AEFA01214FF40030FEF7EDF91C4D90
:1022D80001212846FEF706FB4FF496630093CDF8DC
:1022E80004A00294CDF80C900594CDF810806946AE
:1022F8002846FEF795FAFFF787FF124C0122214680
:102308003846FEF703FB012221463046FEF7FEFA67
:10231800012221462846FEF7F9FA01213846FEF740
:10232800D5FA01213046FEF7D1FA01212846FEF7F9
:10233800CDFA06B0BDE8F0870038014000480040FB
:102348000044004005010500D0F8E823D0F8EC333C
:102358009A4201D10120704700207047D0F8E81355
:10236800D0F8EC230132074BA3FB02039B094FF47F
:102378007A7000FB1323994201D101207047002095
:10238800704700BFD34D621038B504460068C36972
:10239800044D2946FEF702FB012229462068FEF774
:1023A800B5FA38BD0401040038B50446064D0022CC
:1023B80029460068FEF7AAFA29462068FEF7EEFAD1
:1023C8002368DB6938BD00BF04010400D0F8E83396
:1023D800D0F8EC031B1A03F2E733044AA2FB0312FA
:1023E80092094FF47A7000FB12307047D34D621097
:1023F800D0F8EC33D0F8E8031B1A03F57A73044AD3
:10240800A2FB031292094FF47A7000FB1230704756
:10241800D34D6210002A4BD0F8B504460F461D462E
:1024280016468068FFF7D2FF864244D8002214E09F
:10243800A368D3F8EC13B85C5854A068D0F8EC1330
:1024480001311E4BA3FB01E39B094FF47A7E0EFB7F
:102458001313C0F8EC33013292B29642E8D8A3685D
:10246800D3F8E863012216492068FEF74FFA09E01D
:10247800A068FFF7BDFF38B1124B1B6813F4803F0B
:1024880000D0013D002DF3D100220D492068FEF750
:102498003DFAA368D3F8E823921B02F57A72074B3A
:1024A800A3FB02139B094FF47A7000FB1320F8BDBD
:1024B8004FF0FF3070474FF0FF30F8BDD34D62103A
:1024C8000701070010E000E070B582B00023019317
:1024D800541E4FF6FE739C422BD814460E460546F2
:1024E8004068FFF785FF0190019B03B3019B9C4265
:1024F80001D9019A00E022460192002214E06B689B
:10250800D3F8E8135B5CB3546968D1F8E843013445
:10251800094BA3FB04039B094FF47A7000FB134398
:10252800C1F8E833013292B2019B9A42E7D301988D
:1025380000E0002002B070BDD34D6210002103E01E
:102548000B4B5B58435004310A480B4B42189A42D4
:10255800F6D30A4A02E0002342F8043B084B9A42A9
:10256800F9D3FFF79FFD00F00FF8FFF7CBFAFEE76E
:102578000C260008000000206400002064000020F1
:10258800002A0020FEE7000070B50E4B0E4CE41A3E
:10259800A41000251E46A54204D056F825309847B9
:1025A8000135F8E700F01EF8084C094BE41AA410AE
:1025B80000251E46A54204D056F825309847013517
:1025C800F8E770BD0426000804260008082600085D
:1025D8000426000802440346934202D003F8011B74
:1025E800FAE77047F8B500BFF8BC08BC9E467047CC
:0C25F800F8B500BFF8BC08BC9E46704758
:04260400AD0100081C
:04260800890100083C
:10260C0002040608020406080A0C0E1014181C20FA
:10261C0024282C30000000000102030401020304F2
:10262C0006070809004800407004002080000020C4
:10263C00240000204C0000209808000000440040BA
:10264C00540C002044100020FF0000000038014012
:10265C0064080020341400203C000020980800007E
:04266C000090D00307
:040000050800254585
:00000001FF
