:020000040800F2
:1000000000600020E5580008354E0008394E000811
:100010003D4E0008414E0008454E0008000000001B
:10002000000000000000000000000000494E000831
:100030004D4E000800000000514E0008554E0008CB
:100040002D5900082D5900082D5900082D59000878
:100050002D5900082D5900082D5900082D59000868
:100060002D5900082D5900082D5900082D59000858
:100070002D5900082D5900082D5900082D59000848
:100080002D5900082D5900082D5900082D59000838
:100090002D5900082D5900082D590008A5510008B8
:1000A0002D5900082D5900082D5900082D59000818
:1000B000595100082D5900082D5900082D590008E4
:1000C0002D5900082D5900082D5900082D590008F8
:1000D0002D590008654E0008654F0008655000085E
:1000E0002D5900082D5900082D5900082D590008D8
:1000F0002D5900082D5900080000000000000000E4
:100100000000000000000000A15100082D59000867
:1001100000000000000000002D5900082D590008C3
:100120002D5900082D5900082D5900082D59000897
:100130002D5900082D5900082D5900082D59000887
:100140002D59000800000000000000000000000021
:10015000000000000000000000000000000000009F
:1001600000000000000000002D5900082D59000873
:100170002D590008000000002D5900080000000063
:08018000000000002D590008E9
:1001880010B5054C237833B9044B13B10448AFF3C9
:1001980000800123237010BD7400002000000000BF
:1001A80088010008084B10B51BB108490848AFF38F
:1001B80000800848036803B910BD074B002BFBD02B
:1001C800BDE81040184700BF00000000780000207C
:1001D80088010008740000200000000053B94AB9E3
:1001E800002908BF00281CBF4FF0FF314FF0FF3037
:1001F80000F07EB9ADF1080C6DE904CE00F006F808
:10020800DDF804E0DDE9022304B070472DE9F0478A
:100218008C460E460446089D002B50D18A4217464C
:100228006CD9B2FA82FEBEF1000F0BD0CEF12004D9
:1002380020FA04F401FA0EF644EA060C02FA0EF764
:1002480000FA0EF44FEA1749220CBCFBF9F01FFA2A
:1002580087F809FB10C642EA064600FB08F3B342DA
:1002680009D9F61900F1FF3280F02281B34240F239
:100278001F8102383E44F61AA2B2B6FBF9F309FB15
:10028800136642EA064403FB08F8A04509D9E419B5
:1002980003F1FF3280F00A81A04540F20781023B5A
:1002A8003C44C8EB040443EA00400021002D62D01E
:1002B80024FA0EF400232C606B60BDE8F0878B42B3
:1002C80007D9002D55D0002185E841000846BDE832
:1002D800F087B3FA83F1002940F09080B34202D34B
:1002E800824200F2F880841A66EB03060120B446C5
:1002F800002D40D085E81010BDE8F08712B901271D
:10030800B7FBF2F7B7FA87FEBEF1000F35D1F31B42
:100318004FEA17481FFA87FC0121B3FBF8F0220CBB
:1003280008FB103642EA06460CFB00F3B34207D935
:10033800F61900F1FF3202D2B34200F2CE80104625
:10034800F61AA2B2B6FBF8F308FB136642EA0644B3
:100358000CFB03FCA44507D9E41903F1FF3202D2D0
:10036800A44500F2B5801346CCEB040443EA0040F0
:100378009CE729462846BDE8F087CEF1200106FA19
:100388000EF307FA0EF720FA01F94FEA1748CE40A4
:1003980049EA0309B6FBF8FA4FEA194408FB1A665A
:1003A8001FFA87FC44EA06430AFB0CF29A4200FA59
:1003B8000EF40AD9DB190AF1FF3180F087809A42DE
:1003C80040F28480AAF1020A3B449B1A1FFA89F979
:1003D800B3FBF8F108FB113349EA034301FB0CF6C0
:1003E8009E4207D9DB1901F1FF326BD29E4269D9CF
:1003F80002393B449B1B41EA0A418EE7C1F1200EBA
:1004080022FA0EF48B40234320FA0EF706FA01F481
:100418004FEA134C26FA0EF63C43B6FBFCF9270CC0
:100428000CFB19661FFA83F847EA064609FB08F72A
:10043800B74202FA01F200FA01FA08D9F61809F1EE
:10044800FF3041D2B7423FD9A9F102091E44F61B39
:10045800A0B2B6FBFCF40CFB146640EA064704FBAA
:1004680008F8B84507D9FF1804F1FF3028D2B84575
:1004780026D9023C1F4444EA0940C8EB0707A0FB01
:1004880002894F4544464E4614D329D065B3BAEB8A
:10049800040367EB060707FA0EFECB40CF404EEA8F
:1004A800030385E888000021BDE8F0871346F8E6D5
:1004B8001046E0E6B8EB020469EB03060138E5E70D
:1004C8000446D8E7114695E78146C0E78A467CE7A7
:1004D800023B3C4448E708460AE702383E442FE717
:1004E800C245E7D33E46D1E72946BDE8F08700BFBD
:1004F800704700BF054B4FF0FC521A6000225A604B
:100508009A60DA606FF07E425A61704700040140D9
:100518008379002B34D010B4204B1A68016822EA82
:1005280001021A605A68016822EA01025A600279D7
:1005380002F1804202F58232146801682143116099
:100548009A68016822EA01029A60DA68016822EA78
:100558000102DA604379102B09D1104B99680268BF
:100568000A439A60D96802680A43DA6013E003F123
:10057800804303F58233196802680A431A600AE067
:10058800037903F1804303F582331A68016822EA8C
:1005980001021A6070475DF8044B7047000401407F
:1005A800064A136803405269104202D01BB9002062
:1005B8007047002070470120704700BF00040140C9
:1005C800014B5861704700BF00040140034A13689B
:1005D80023F0030318431060704700BF0020024057
:1005E800054B1B6913F0800F05D0034B034A5A6073
:1005F80002F188325A6070470020024023016745A3
:10060800024A136943F080031361704700200240D7
:10061800014BD860704700BF002002400B4BDB68DD
:1006280013F0010F0BD1094BDB6813F0100F08D141
:10063800064BDB6813F0040F05D003207047012038
:100648007047022070470420704700BF0020024016
:1006580010B50446FFF7E2FF02E0FFF7DFFF013CB9
:10066800012801D1002CF8D104B9052010BD00BF24
:1006780038B505464FF43020FFF7EAFF042811D1BA
:10068800094C236943F0020323616561236943F040
:10069800400323614FF43020FFF7DAFF236923F08A
:1006A8000203236138BD00BF0020024030B583B08B
:1006B80005460C46002301934FF43020FFF7C8FF8E
:1006C800042820D1114A136943F001031361A3B22E
:1006D8002B804FF43020FFF7BBFF04280ED10235E2
:1006E8000195019B240C1C804FF43020FFF7B0FFCC
:1006F800064A136923F00103136104E0034A1369EE
:1007080023F00103136103B030BD00BF0020024095
:1007180070B4002341E001229A400C68A2433BD107
:100728000A79013AD2B2012A1CD885685A000324F2
:10073800944025EA0404846085684C7904FA02F23E
:100748002A4382608488A5B29AB20124944025EA9B
:10075800040484808588ADB28C7904FA02F292B2DE
:100768002A43828004685A00032505FA02F624EA1F
:100778000604046006680C79944034430460C46835
:100788009EB27600B54024EA0505C560C568CC79F7
:1007980004FA02F22A43C26001330F2BBBD970BCA2
:1007A800704700BF038A194201D00120704700201A
:1007B800704700BF838A194201D00120704700208A
:1007C800704700BF0AB1816170470185704700BF5B
:1007D80030B401F007039B009A40C908083150F86B
:1007E80021400F2505FA03F324EA030340F82130DA
:1007F80050F821301A4340F8212030BC704700BF20
:1008080040F0BF6040F40030014BD860704700BF33
:1008180000ED00E0C378FBB1154BDB68DB43C3F3A5
:100828000223C3F104010F22DA40437803FA01F1ED
:10083800837813400B431B010278DBB20D490A444D
:1008480082F800330378580903F01F03012202FAE3
:1008580003F341F82030704703785A0903F01F0367
:10086800012101FA03F32032024941F8223070478E
:1008780000ED00E000E100E070B46F4B5B6803F04E
:100888000C03042B05D0082B06D0FBB96B4B036077
:100898001EE06A4B03601BE0674A53685268C3F363
:1008A8008343023312F4803F04D1654A02FB03F309
:1008B80003600DE0604AD26A02F00F02511C5F4AE1
:1008C800B2FBF1F202FB03F3036001E05B4B036050
:1008D800594A5368C3F303135A4EF35CDBB20568F5
:1008E80025FA03F343605168C1F30221715CC9B270
:1008F80023FA01F181605468C4F3C224345DE4B280
:10090800E340C3605468C4F381344F4E345DE4B2AD
:10091800B3FBF4F404615468C4F3C3644B4E345D10
:10092800E4B2B5FBF4F44461126B12F0400F03D14A
:1009380048F21202826102E04FF4004282613E4AAC
:10094800126B12F0100F02D13C4AC26100E0C5617F
:10095800394A126B12F0200F02D1384A026200E0C5
:100968000562354A126B12F0030F01D1436219E098
:10097800314B1B6B03F00303012B01D1456211E0DE
:100988002D4B1B6B03F00303022B03D14FF40043E1
:10099800436207E0284B1B6B03F00303032B01D1D1
:1009A800264B4362244B1B6B13F4403F01D18162F9
:1009B8001CE0214B1B6B03F44033B3F5803F01D19E
:1009C800856213E01C4B1B6B03F44033B3F5003F07
:1009D80003D14FF40043836208E0174B1B6B03F409
:1009E8004033B3F5403F01D1144B8362124B1B6B6C
:1009F80013F4402F01D1C1621CE00F4B1B6B03F4B1
:100A08004023B3F5802F01D1C56213E00A4B1B6B5D
:100A180003F44023B3F5002F03D14FF40043C3621E
:100A280008E0054B1B6B03F44023B3F5402F01D1BD
:100A3800024BC36270BC70470010024000127A007B
:100A480000093D00140000200000002004000020E0
:100A580021B1054B5A69104358617047024A5369DE
:100A680023EA0000506170470010024021B1054B95
:100A78009A69104398617047024A936923EA000013
:100A8800906170470010024021B1054BDA691043AC
:100A9800D8617047024AD36923EA0000D0617047E1
:100AA8000010024021B1054BDA681043D860704746
:100AB800024AD36823EA0000D06070470010024061
:100AC80021B1054B1A69104318617047024A13692E
:100AD80023EA0000106170470010024030B401F0B2
:100AE80003039B000F2404FA03F58908074A02311F
:100AF80052F8214024EA050442F8214052F82140E6
:100B08009840204342F8210030BC70470000014063
:100B180003889BB2B0F1804F0ED01C4A90420BD094
:100B280002F58062904207D002F58062904203D0BD
:100B380002F5A832904203D123F070034A88134388
:100B4800134A90420CD002F58062904208D002F518
:100B58000842904204D023F440739BB20A8913439D
:100B680003804B68C3620B8803850A4B984207D001
:100B780003F58063984203D003F58063984201D15E
:100B88008B7A038601238382704700BF00040040EC
:100B9800001000400040014029B103889BB243F097
:100BA80001030380704703889BB223F001039BB2C3
:100BB8000380704730B4038C9BB223F010039BB2C0
:100BC8000384048CA4B28588ADB2028B92B222F45D
:100BD800E6430A88120292B21A4324F020048B8951
:100BE8001B019BB21C434B881B019BB2234385808E
:100BF80002838A688263038430BC7047038B9BB28C
:100C080023F40063090289B219430183704700BFC6
:100C180010B401238B409BB2048CDB439BB223406E
:100C28000384038C9BB28A4092B21A4302845DF813
:100C3800044B704722B183899BB219438181704765
:100C48008389C94389B2194081817047028A83899F
:100C58000B40114202D01BB900207047002070479A
:100C680001207047C94389B20182704708B5154B06
:100C780098420AD101214FF48040FFF713FF002169
:100C88004FF48040FFF70EFF08BD0F4B98420AD182
:100C980001214FF40030FFF713FF00214FF400301B
:100CA800FFF70EFF08BD094B984209D101214FF407
:100CB8008020FFF705FF00214FF48020FFF700FF99
:100CC80008BD00BF00380140004400400048004013
:100CD80030B58DB004460D46036823F00103036068
:100CE800436823F440528B6813434360036823F43A
:100CF800B05222F00C024968EB6819432B690B4388
:100D080013430360836823F440726B691343836061
:100D18006846FFF7B1FD174B9C4201D1099A05E0DF
:100D2800154B9C4201D10A9A00E00B9A236813F4F0
:100D3800004F06D052002968B2FBF1F301FB1322E1
:100D480004E02968B2FBF1F301FB13222968B2EB36
:100D5800510F00D30133226812F4004F06D0C3F3B9
:100D6800420223F00F031B041B0C13439BB2A38105
:100D78000DB030BD003801400044004021B1036887
:100D880043F0010303607047036823F00103036025
:100D9800704700BF21B1036843F400430360704704
:100DA800036823F400430360704700BFC1F30801E0
:100DB80001857047808CC0F30800704730B4C1F3D8
:100DC8000725C9B2012303FA01F1022D01D1041D3F
:100DD80004E00446032D01D100F108041AB1236888
:100DE8001943216003E0236823EA0101216030BC34
:100DF800704700BFC3690B4201D001207047002033
:100E0800704700BF0162704710B4C1F30722CCB22B
:100E18000123A340012A02D10268134006E0022AF6
:100E280002D14268134001E082681340090C012294
:100E380002FA01F1C269114013B119B9002002E0A8
:100E4800002000E001205DF8044B7047090C0123E5
:100E580003FA01F10162704710B400231A4604E056
:100E6800C45C2244D2B20133DBB20C4C217801F1CC
:100E78000A04A342F4DB43189B7A9A4206D1014440
:100E8800CB7A162B05D04FF0FF3003E04FF0FF3040
:100E980000E000205DF8044B704700BF7108002097
:100EA8000B0901F00F01020900F00F00033BDBB250
:100EB800092B0DD802290DD90C290DD8022A0DD9D4
:100EC8000C2A0DD802280DD90C280DD900207047FE
:100ED80000207047002070470020704700207047AE
:100EE80000207047002070470120704710B4333944
:100EF800C1F3031401F00F013338C0F3031300F0FA
:100F08000F00642202FB01F14FF47A7202FB041411
:100F180003EB83035A00224410445DF8044B7047E6
:100F2800F0B5333AC2F3021702F00F043339C1F3B4
:100F3800031601F00F0C3338C0F3031500F00F004F
:100F480042F2107E0EFB04FE0B4901FB07E74FF44B
:100F58007A7101FB0676642404FB0C6105EB8505B8
:100F68006C000C4404441C60197901311971C2F3F6
:100F7800C0125A71F0BD00BFA0860100F0B482B063
:100F880002AC04E903000698009E2849A1FB064725
:100F9800FF08A1FB0754E40804EB840465007C1BEC
:100FA8002401E4B207EB87077D00751BEDB22C43E3
:100FB800333414701E4CA4FB0624A409A1FB04526C
:100FC800D20802EB82025500621B1201D5B2194FFA
:100FD800A7FB06277F09A1FB0724E20802EB820290
:100FE80054003A1BD2B22A4333321A707309124A98
:100FF800A2FB0332D2091201D2B2104BA3FB063670
:10100800760BA1FB0613D90801EB81014B00F11AFD
:10101800C9B211433331C9B201709DF8053013B11B
:1010280061F07F01017002B0F0BC7047CDCCCCCC30
:10103800D34D62101F85EB51C55A7C0A5917B7D199
:1010480030B413790479A34203D90D79AB4200F285
:10105800AF80A34234D10D79AB4231D90368002B5C
:1010680000F0A8801168002900F0A68040790028C7
:1010780040F0A4805479002C40F0B5808B420CD904
:1010880003EB83031801594BA3FB00035B09994247
:1010980038BF194611600120A5E001EB8104200149
:1010A800524CA4FB0040B3EB501F06D2642101FB55
:1010B80003F34F49A1FB033189091160012092E034
:1010C8000D79AB4230D1A3422ED90B68002B77D0D3
:1010D8001468002C76D04879002875D151790029F8
:1010E80040F08180A3420CD903EB830319013F4BE5
:1010F800A3FB01135B099C4238BF1C461460012006
:1011080071E004EB840001013848A0FB0101B3EB56
:10111800511F06D2642404FB03F3354CA4FB0334AB
:10112800A409146001205EE0A3424FD1AB424FD125
:101138000368002B4ED00C68002C4DD01568002D8C
:101148004CD0407900284BD1497900294BD15079AE
:10115800002847D11946A34238BF21468D4215D9E8
:1011680005EB850001012148A0FB0101A34228BF2E
:101178002346B3EB511F06D8642505FB03F31C4D2A
:10118800A5FB0335AD09156001202CE0A34228BF5B
:1011980023469D4227D201EB81010B011349A1FB94
:1011A80003135B099D4238BF1D46156001201AE0F4
:1011B800002018E0002016E0002014E0002012E0D3
:1011C800002010E000200EE000200CE001200AE0E2
:1011D800012008E0002006E0002004E0002002E0F2
:1011E800002000E0084630BC704700BF1F85EB5167
:1011F800CDCCCCCC30B404680B681C4413682344B1
:101208000324B3FBF4F30B2404FB03F40A25B4FB17
:10121800F5F404600B6003EBC303B3FBF5F3136051
:1012280030BC704730B583B00446C37A323B042BD8
:1012380000F22C81DFE813F005002A01AB00D6008C
:101248000101934D2B46027CC17B807BFFF768FE32
:101258006B79002B40F01A818E4B5B79002B40F0A4
:1012680015818D4B5B79002B40F010812B68002B8A
:1012780000F00C81874A1268002A00F0078186492D
:101288000868002800F002811146824238BF0146F2
:10129800994238BF194601EB81010D017F49A1FB35
:1012A80005151146824228BF0146994228BF1946B2
:1012B800B1EB551F80F0EA80934207D3824205D3F1
:1012C800754A74497248FFF795FF30E0834207D3A7
:1012D800824205D86F4A70496D48FFF78BFF26E0B8
:1012E800934207D8834205D36B4A69496948FFF797
:1012F80081FF1CE0824207D3834205D8644A6649CD
:101308006448FFF777FF12E0834207D8934205D37A
:10131800604A5F496048FFF76DFF08E0824206D8DF
:10132800934204D85A4A5B495B48FFF763FF584D1C
:1013380004F11003009304F10F0304F10E0295E881
:101348000300FFF71BFE04F11303009304F11203DB
:1013580004F1110295E80300FFF710FE04F11603EB
:10136800009304F1150304F1140295E80300FFF754
:1013780005FE0022134604E0E15C0A44D2B20133C0
:10138800DBB2162BF8D9E275162323767EE0404BA4
:10139800027CC17B807BFFF7C3FD237C333B13F0CA
:1013A800800F73D13A4A3C493A48FFF749FE002872
:1013B8006CD0374904F11003009304F10F0304F1D2
:1013C8000E0203C9FFF7DAFD0022134604E0E15CD0
:1013D8000A44D2B20133DBB2102BF8D96274162357
:1013E800A37453E02B4B027CC17B807BFFF798FDF5
:1013F800237C333B13F0800F48D1264A26492448E2
:10140800FFF71EFE002841D0224904F11003009383
:1014180004F10F0304F10E0203C9FFF7AFFD002228
:10142800134604E0E15C0A44D2B20133DBB2102B6C
:10143800F8D962741623A37428E0174B027CC17B89
:10144800807BFFF76DFD237C333B13F0800F1DD1AC
:10145800114A10490E48FFF7F3FDB8B10E4904F1DF
:101468001003009304F10F0304F10E0203C9FFF700
:1014780085FD0022134604E0E15C0A44D2B2013340
:10148800DBB2102BF8D962741623A37403B030BDF5
:10149800780C0020640C00206C0C00201F85EB5198
:1014A800704700BF33393338C0B240EA012080B2F8
:1014B800704700BF10B50446837A323B082B72D8B8
:1014C800DFE803F03D717171710513212F00C17BB5
:1014D800807BFFF7E7FF20F4A87083B2DAB23332DB
:1014E800A2731B0A3333E3735DE0C17B807BFFF794
:1014F800D9FF20F4A87083B2DAB23332A2731B0A80
:101508003333E3734FE0C17B807BFFF7CBFF20F4DD
:10151800A87083B2DAB23332A2731B0A3333E3738F
:1015280041E0C17B807BFFF7BDFF20F0080083B25C
:10153800DAB23332A2731B0A3333E37333E0417DEB
:10154800007DFFF7AFFF20F4A87083B2DAB2333220
:1015580022751B0A33336375E17DA07DFFF7A2FF77
:1015680020F4A87083B2DAB23332A2751B0A33337F
:10157800E375617E207EFFF795FF20F4A87083B2A3
:10158800DAB2333222761B0A33336376E17EA07EE9
:10159800FFF788FF20F0080083B2DAB23332A27670
:1015A8001B0A3333E37600231A4603E0A15C0B449D
:1015B800DBB201320349097801F10A008242F5DB06
:1015C800235410BD71080020114981FB0031C31755
:1015D800C3EBA1114FF47A7303FB11010D4A82FB8F
:1015E8000132CB17C3EB6212642303FB12120A48C1
:1015F80080FB0230D317C3EBA00000EB80014B0047
:10160800D31A03F00F0303EB00103330C0B2704756
:10161800D34D62101F85EB51676666660C4981FBE6
:101628000031C317C3EBA1110B0103F47F624FF420
:101638007A7303FB1103074880FB0310DB17C3EB26
:10164800601303F00F03134403F13300C0B2704773
:10165800D34D62101F85EB5130B4333BC3F30314F1
:1016680004EB8404650003F00F032B44333AC2F300
:10167800031404EB8404650002F00F022A4442F2CA
:10168800107404FB02F20D4C04FB03233339C1F33D
:10169800031202EB8202540001F00F01214464227C
:1016A80002FB01313338C0F3031303EB83035A0001
:1016B80000F00F001044084430BC704740420F004F
:1016C8002DE9F0432C4DA5FB004C4FEA5C1864262D
:1016D80006FB1808294CA4FB08E74FEAD70E0EEBC7
:1016E8008E094FEA4907C7EB080747EA0E17333751
:1016F8000F704FEA5C1CA5FB0C1E4FEA5E1E06FB32
:101708001ECEA4FB0E71CF0807EB870C4FEA4C01E5
:10171800C1EB0E0141EA071133311170184AA2FBDF
:101728000012520BA5FB02177F0906FB1727A4FB23
:101738000712D10801EB810E4FEA4E029646BA1AFB
:1017480042EA011233321A700E4BA3FB0030800CB0
:10175800A5FB00356D0906FB1505A4FB0534E40857
:1017680004EB84025300EB1A43EA04143334079B56
:101778001C70BDE8F08300BF1F85EB51CDCCCCCCED
:101788005917B7D183DE1B43704700BF704700BFAE
:101798002DE9F84F064690F80980027A912A03D07D
:1017A800B12A03D0002302E0092300E00923922A8A
:1017B80002D0B22A03D101E0042300E00423474603
:1017C8009946C3EB080303EBD373C3F34F0315E048
:1017D80009F10A044FEA450A544409F10B039A44F3
:1017E800DFF84CB0DBF80000FFF7EEFE3055DBF811
:1017F8000000FFF713FF06F80A002B465D1EADB286
:10180800002BE5D108F10A02B118B35405E0F05CE9
:101818000A7802440A7001339BB207F10A02934224
:10182800F5DB08F10B08102306F80830BDE8F88F3F
:1018380060000020704700BF38B50446837B342B16
:1018480002D10021244A1170332B02D1FF22224BEE
:101858001A70214B1978214802F0F4FD10B9D423ED
:10186800237201E09423237200236372A37205E0BC
:10187800E15CA27A0A44A2720133DBB2092BF7D9E0
:101888001623E3720022164B1A70164D2B680C2291
:101898009968204603F064FE2B68986803F0CCFD35
:1018A80010B9114803F0E8FD104D2B680C22996817
:1018B800204603F055FE2B68986803F0BDFD50B92B
:1018C8000B4C00220B492046FFF778FA01220A49FF
:1018D8002046FFF773FA38BD70080020141F03086C
:1018E8007108002034000020004800405C000020FF
:1018F80000440040050105000701070070B50446D3
:10190800867BC17B3046FFF7F1FA0546617C207C77
:10191800FFF7ECFA85421CDDB5F52F6F19DAB0F543
:10192800966F16DD274B1D60274B186031462748F8
:1019380002F088FDE17B264802F084FD217C2548E1
:1019480002F080FD617C244802F07CFD9423237220
:1019580001E0D423237200236372A37204E0E15CE4
:10196800A27A0A44A2720133092BF8DD1623E37226
:1019780000221A4B1A701A4D2B680C2299682046BF
:1019880003F0EEFD2B68986803F056FD10B9154872
:1019980003F072FD144D2B680C229968204603F061
:1019A800DFFD2B68986803F047FD50B90F4C002203
:1019B8000F492046FFF702FA01220E492046FFF799
:1019C800FDF970BD3420002048200020001F0308C6
:1019D800041F0308081F03080C1F030871080020D0
:1019E80034000020004800405C0000200044004013
:1019F800050105000701070038B504469123037265
:101A08000C2343724FF42F60FFF7DEFDA0734FF4F1
:101A18002F60FFF703FEE0734FF49660FFF7D4FDE5
:101A280020744FF49660FFF7F9FD6074244B1D682D
:101A38002846FFF7C9FDA0742846FFF7EFFDE074BC
:101A4800204B1D682846FFF7BFFD20752846FFF785
:101A5800E5FD60750023A37504E0E15CA27D0A44FE
:101A6800A2750133152BF8DD1623E3750C22164BEE
:101A78001A70164D2B689968204603F071FD2B6883
:101A8800986803F0D9FC10B9114803F0F5FC114D22
:101A98002B6818229968204603F062FD2B68986825
:101AA80003F0CAFC50B90C4C00220C492046FFF741
:101AB80085F901220A492046FFF780F938BD00BFA1
:101AC8003420002048200020710800203400002025
:101AD800004800405C00002000440040050105006B
:101AE8000701070070B5044640F69803334A1360AF
:101AF800334A1360334A1360FF21334B197033485C
:101B080002F0A0FC324E40F62E103060314D40F20B
:101B1800BC732B60FFF758FD01462F4802F092FC7A
:101B28003068FFF77BFD01462C4802F08BFC2868E3
:101B3800FFF74AFD01462A4802F084FC2868FFF7AF
:101B48006DFD0146274802F07DFC94232372002393
:101B58006372A37204E0E15CA27A0A44A2720133C0
:101B6800092BF8DD1623E37200221F4B1A701F4D54
:101B78002B680C229968204603F0F2FC2B689868C1
:101B880003F05AFC10B91A4803F076FC194D2B687B
:101B98000C229968204603F0E3FC2B68986803F050
:101BA8004BFC50B9144C002214492046FFF706F9A3
:101BB800012213492046FFF701F970BD600000209B
:101BC8003C0000202400002070080020141F030897
:101BD8003420002048200020001F0308041F0308A9
:101BE800081F03080C1F0308710800203400002098
:101BF800004800405C00002000440040050105004A
:101C08000701070038B50446D42303720023437242
:101C1800837205E0E15CA27A0A44A2720133DBB266
:101C2800092BF7D91623E3720022144B1A70144DAE
:101C38002B680C229968204603F092FC2B68986860
:101C480003F0FAFB10B90F4803F016FC0E4D2B6891
:101C58000C229968204603F083FC2B68986803F0EF
:101C6800EBFB50B9094C002209492046FFF7A6F8BA
:101C7800012208492046FFF7A1F838BD7108002065
:101C880034000020004800405C0000200044004070
:101C9800050105000701070038B50446D42303727F
:101CA80000234372837205E0E15CA27A0A44A272BF
:101CB8000133DBB2092BF7D91623E3720022144B48
:101CC8001A70144D2B680C229968204603F048FCC2
:101CD8002B68986803F0B0FB10B90F4803F0CCFBF1
:101CE8000E4D2B680C229968204603F039FC2B68AE
:101CF800986803F0A1FB50B9094C00220949204615
:101D0800FFF75CF8012208492046FFF757F838BD6D
:101D18007108002034000020004800405C000020CA
:101D280000440040050105000701070030B585B0F3
:101D38000546274BDB68029300248DF80D4000F11F
:101D48001003009300F10F0300F10E0204A911E93A
:101D58000300FFF713F991232B7207236B726C743E
:101D6800234605E0E95C6A7C0A446A740133DBB205
:101D7800102BF7D91623AB740722164B1A70164C82
:101D8800236813229968284603F0EAFB23689868B9
:101D980003F052FB10B9114803F06EFB104C236896
:101DA80013229968284603F0DBFB2368986803F040
:101DB80043FB50B90B4C00220B492046FEF7FEFFAF
:101DC80001220A492046FEF7F9FF05B030BD00BFE1
:101DD800382000207108002034000020004800400E
:101DE8005C000020004400400501050007010700D1
:101DF80038B504469123037206234372204B9D682D
:101E08002846FFF7E1FBA0732846FFF707FCE073BD
:101E18000023237405E0E15C227C0A442274013328
:101E2800DBB20F2BF7D9162363740622154B1A70F1
:101E3800154D2B6812229968204603F091FB2B68F8
:101E4800986803F0F9FA10B9104803F015FB104D23
:101E58002B6812229968204603F082FB2B68986849
:101E680003F0EAFA50B90B4C00220B492046FEF762
:101E7800A5FF012209492046FEF7A0FF38BD00BF93
:101E8800382000207108002034000020004800405D
:101E98005C00002000440040050105000701070020
:101EA80038B504469123037206234372204B1D68FC
:101EB8002846FFF789FBA0732846FFF7AFFBE073BE
:101EC8000023237405E0E15C227C0A442274013378
:101ED800DBB20F2BF7D9162363740022154B1A7047
:101EE800154D2B6812229968204603F039FB2B68A0
:101EF800986803F0A1FA10B9104803F0BDFA104D24
:101F08002B6812229968204603F02AFB2B689868F0
:101F180003F092FA50B90B4C00220B492046FEF709
:101F28004DFF012209492046FEF748FF38BD00BF92
:101F380038200020710800203400002000480040AC
:101F48005C0000200044004005010500070107006F
:101F580038B5037A912B4CD106234372254B1A7856
:101F68002549A1FB02314909642303FB1123DBB294
:101F7800224AA2FB0342D20802EB82056C001B1B1B
:101F880043EA02138373C1730023037404E0C15C42
:101F9800027C0A44027401330F2BF8D90446162335
:101FA80043740422164B1A70164D2B681222996836
:101FB80003F0D6FA2B68986803F03EFA10B9124875
:101FC80003F05AFA114D2B6812229968204603F043
:101FD800C7FA2B68986803F02FFA50B90C4C002206
:101FE8000C492046FEF7EAFE01220B492046FEF77F
:101FF800E5FE38BD4C2000201F85EB51CDCCCCCC64
:102008007108002034000020004800405C000020D7
:1020180000440040050105000701070038B50446E3
:102028009123037208234372032383730523C37325
:1020380011230374182343740023837405E0E15CBF
:10204800A27C0A44A2740133DBB2112BF7D9162300
:10205800E3740822144B1A70144D2B6814229968E3
:10206800204603F07DFA2B68986803F0E5F910B96B
:102078000F4803F001FA0F4D2B6814229968204687
:1020880003F06EFA2B68986803F0D6F950B90A4C39
:1020980000220A492046FEF791FE012208492046FF
:1020A800FEF78CFE38BD00BF710800203400002008
:1020B800004800405C000020004400400501050085
:1020C8000701070070B50446817B0809E27B150902
:1020D80005EB85056B0002F00F02134400EB80024C
:1020E800500003EB830303EB83039A00831801F08A
:1020F8000F010B4413F0FF0511D0264E2946304638
:1021080002F0A0F9244B1D70304602F0E1F9854237
:1021180002D19423237204E0D423237201E0D42350
:10212800237200236372A37205E0E15CA27A0A4479
:10213800A27201339BB2092BF7D91623E37200224E
:10214800164B1A70164D2B680C229968204603F01E
:1021580007FA2B68986803F06FF910B9114803F073
:102168008BF9114D2B680C229968204603F0F8F979
:102178002B68986803F060F950B90C4C00220C49A0
:102188002046FEF71BFE01220A492046FEF716FEEE
:1021980070BD00BF101F03084C20002071080020EC
:1021A80034000020004800405C000020004400404B
:1021B800050105000701070070B50446857BC17B52
:1021C8002846FEF793FE40F6970398421CDC224B04
:1021D8001860224E2946304602F034F9E17B204847
:1021E80002F030F9304602F073F9A37B984208D127
:1021F8001B4802F06DF9E37B984202D194232372C5
:1022080004E0D423237201E0D423237200236372F1
:10221800A37205E0E15CA27A0A44A27201339BB280
:10222800092BF7D91623E3720E4D2B680C229968F7
:10223800204603F095F92B68986803F0FDF850B92B
:10224800094C002209492046FEF7B8FD0122084939
:102258002046FEF7B3FD70BD48200020081F030884
:102268000C1F03085C000020004400400501050025
:102278000701070070B582B00446912303720C234E
:102288004372304802F022F906462F4802F01EF940
:102298000546B6F1FF3F00D1002604F11103009373
:1022A80004F1100304F10F0204F10E013046FFF7A8
:1022B80007FAB5F1FF3F00D1002504F1150300939B
:1022C80004F1140304F1130204F112012846FFF784
:1022D800F7F90023A37505E0E15CA27D0A44A27525
:1022E8000133DBB2152BF7D91623E3750022174B00
:1022F8001A70174D2B6818229968204603F030F998
:102308002B68986803F098F810B9124803F0B4F8ED
:10231800114D2B6818229968204603F021F92B6883
:10232800986803F089F850B90C4C00220C492046F3
:10233800FEF744FD01220B492046FEF73FFD02B09F
:1023480070BD00BF002003083C200308710800206E
:1023580034000020004800405C0000200044004099
:10236800050105000701070070B50446857BC17BA0
:102378002846FEF7BBFD40F6980398421EDD234B26
:102388001860234E2946304602F05CF8E17B21486C
:1023980002F058F8304602F099F8C0B2A37B984290
:1023A80009D11C4802F092F8C0B2E37B984202D1EE
:1023B8009423237204E0D423237201E0D4232372EC
:1023C80000236372A37205E0E15CA27A0A44A27258
:1023D80001339BB2092BF7D91623E3720E4D2B68F4
:1023E8000C229968204603F0BBF82B68986803F024
:1023F80023F850B9094C002209492046FEF7DEFCB3
:10240800012208492046FEF7D9FC70BD342000207F
:10241800001F0308041F03085C000020004400405C
:10242800050105000701070070B50446817BFF29F7
:1024380010D1324D2970324E304602F003F8304642
:1024480002F046F82B78984201D1942300E0D42377
:1024580023721BE0C1B9FEF7C3F82A48FEF708F952
:10246800FEF7CEF8A17B254D2970254E304601F0A8
:10247800E9FF304602F02CF82B78984201D19423DA
:1024880000E0D423237201E0D42303720023637293
:10249800A37205E0E15CA27A0A44A27201339BB2FE
:1024A800092BF7D91623E3720022174B1A70174D20
:1024B8002B680C229968204603F052F82B6898681C
:1024C80002F0BAFF10B9124802F0D6FF114D2B687E
:1024D8000C229968204603F043F82B68986802F0AC
:1024E800ABFF50B90C4C00220C492046FEF766FCA5
:1024F80001220B492046FEF761FC70BD4C0000200C
:10250800181F030800200308710800203400002069
:10251800004800405C000020004400400501050020
:102528000701070038B50446837BCBB9294DFF2145
:10253800284601F087FFFF22274B1A70FEF750F854
:102548002648FEF795F8FEF75BF8284601F0C0FF2D
:10255800FF2802D19423237204E0D423237201E0DC
:10256800D423037200236372A37205E0E15CA27AAC
:102578000A44A27201339BB2092BF7D91623E372DE
:102588000022174B1A70174D2B680C2299682046A9
:1025980002F0E6FF2B68986802F04EFF10B9124867
:1025A80002F06AFF114D2B680C229968204602F050
:1025B800D7FF2B68986802F03FFF50B90C4C0022F7
:1025C8000C492046FEF7FAFB01220B492046FEF78C
:1025D800F5FB38BD181F03084C0000200020030835
:1025E8007108002034000020004800405C000020F2
:1025F800004400400501050007010700F8B506463C
:102608000D463A4B1B78012B11D013B1022B41D048
:1026180065E0012202F07EFF0446002864D02B7892
:10262800682B5ED10123314A1370314A1370092295
:10263800691C304602F06EFF074680B914212D4B05
:10264800188802F0F3FE044600284DD00023274ADC
:102658001370274A1370274A13803C4644E0EB79ED
:10266800682B04D16B7A03F10C02FE2A07DD0024E3
:102678001E4B1C701E4B1C701E4B1C8034E01E4AE7
:1026880013700222194B1A701A4B00221A80012269
:10269800174B1A70184B1A78023205F10A013046A6
:1026A80002F038FF044668B91421124B188802F06A
:1026B800BDFEC0B100230D4A13700D4A13700D4AB8
:1026C800138011E00023094A1370094A1370094A5C
:1026D80013802846FEF7C0FB30B1002404E0002434
:1026E80002E0002400E004462046F8BD740C0020F7
:1026F8005C1800205E1800207108002010B5002327
:102708001CE0214A12F83310827A914214D11E4AF1
:1027180002EBC3025178C27A91420DD11A4A02EBF8
:10272800C3029178027B914206D1174A02EBC30497
:10273800E178427B914203D00133DBB2152BE0D91B
:10274800152B1FD8104A02EBC3035B680F4A93424C
:1027580018D00F4A934215D00E4A934212D00E4A0F
:1027680093420FD00D4A93420CD00D4A934209D0A0
:102778000C4A934206D00C4A934203D00B4A934228
:1027880000D0984710BD00BFA85900082D120008B6
:10279800A9140008BD140008CD2E00082131000836
:1027A8009132000831240008CD2000082D250008AA
:1027B80010B500231CE01D4A12F83310827A9142AA
:1027C80014D11A4A02EBC3025178C27A91420DD150
:1027D800164A02EBC3029178027B914206D1134A52
:1027E80002EBC304E178427B914203D00133DBB2B0
:1027F8000C2BE0D90C2B18D819460D4A02EBC30351
:102808005B680C4A934210D00B4A93420DD00B4A96
:1028180093420AD00A4A934207D00A4A934204D004
:10282800024B03EBC1035B68984710BD585A000878
:10283800A859000831240008CD2000082D250008DB
:10284800591F00087D22000870B50446C37A323B40
:10285800042B00F2E580DFE813F00500E3005F00D9
:102868008B00B700912303720A2343726D4B1D68D6
:102878006D4B1E68B54206DC6C4B1B689D4204DA42
:1028880040F6980501E040F69805664B1D6028461D
:10289800FEF79AFEA0732846FEF7C0FEE073644B6D
:1028A8001D68AE4206DB614B1B689D4204DA40F6A8
:1028B800980501E040F698055D4B1D602846FEF737
:1028C80083FE20742846FEF7A9FE6074594B1D68E4
:1028D800AE4206DB554B1B689D4204DA40F698056C
:1028E80001E040F69805534B1D602846FEF76CFE44
:1028F800A0742846FEF792FEE07400231A4604E00E
:10290800E15C0A44D2B20133DBB2132BF8D9227549
:1029180016236375012070BD424B1D68424B1B682E
:102928009D4206DC414B1B689D4204DA40F698053F
:1029380001E040F698053B4B1D6091232372062366
:1029480063722846FEF740FEA0732846FEF766FE2F
:10295800E07300231A4604E0E15C0A44D2B2013372
:10296800DBB20F2BF8D9227416236374012070BDD3
:102978002F4B1D682C4B1B689D4206DC2B4B1B689C
:102988009D4204DA40F6980501E040F69805284B88
:102998001D6091232372062363722846FEF714FEF6
:1029A800A0732846FEF73AFEE07300231A4604E0B7
:1029B800E15C0A44D2B20133DBB20F2BF8D922749E
:1029C80016236374012070BD1A4B1D68164B1B68D3
:1029D8009D4206DC154B1B689D4204DA40F69805BB
:1029E80001E040F69805134B1D60912323720623DE
:1029F80063722846FEF7E8FDA0732846FEF70EFE30
:102A0800E07300231A4604E0E15C0A44D2B20133C1
:102A1800DBB20F2BF8D9227416236374012070BD22
:102A2800002070BD600000203420002048200020D5
:102A38003C00002024000020F8B5194801F048FDAA
:102A4800184B1870184801F043FD0446174801F068
:102A58003FFD0546164801F03BFD0646154801F0C6
:102A680037FD0746FF2C0ED1FF2D0CD1FF2E0AD1C2
:102A7800FF2808D140F62E120F4B1A6040F2BC72A4
:102A88000E4B1A60F8BD29462046FEF72FFA0A4B6E
:102A9800186039463046FEF729FA084B1860F8BD29
:102AA800141F030870080020001F0308041F0308F0
:102AB800081F03080C1F03083420002048200020AA
:102AC800F0B51F4B1E68A6F596611E4B1D68AA1B24
:102AD80091FBF2F10131C5F52F6494FBF2F48542C4
:102AE80016DA0134B0F52F6F12DCAB1898420CDC03
:102AF800451BA0EB4500F0BD013303FB02F705EBD6
:102B0800070E704502DCC01BF0BD0123A342F3DBB6
:102B1800864214DDB0F5966F11DBB31A98420BDBD1
:102B2800361A00EB4600F0BD013303FB02F4351BF7
:102B3800A84202DB2044F0BD01238B42F4DBF0BD48
:102B48004820002034200020F8B57A4B1B78002B51
:102B580000F0EF80037A912B40F0EB80837A332BDF
:102B680040F0E780037B342B40F0E380437B352B38
:102B780040F0DF800446C57A322D62D1867BC77B60
:102B880039463046FEF78CF9C8B139463046FEF76B
:102B9800ADF9694B1860694B1B68984203DC684BB8
:102BA8001B6898420BDAFFF78BFF0646624B1860EA
:102BB800FEF70AFDA0733046FEF730FDE073267C71
:102BC800677C39463046FEF76BF9C8B1394630465E
:102BD800FEF78CF95B4B1860584B1B68984203DC76
:102BE800574B1B6898420BDAFFF76AFF0646554BAE
:102BF8001860FEF7E9FC20743046FEF70FFD60749C
:102C0800A67CE77C39463046FEF74AF9C8B1394612
:102C18003046FEF76BF94C4B1860484B1B689842DE
:102C280003DC474B1B6898420BDAFFF749FF06465F
:102C3800454B1860FEF7C8FCA0743046FEF7EEFC62
:102C4800E074342D20D1A67BE77B39463046FEF769
:102C580027F9C8B139463046FEF748F9364B1860AF
:102C6800364B1B68984203DC354B1B6898420BDADD
:102C7800FFF726FF0646304B1860FEF7A5FCA07349
:102C88003046FEF7CBFCE073352D20D1A67BE77BE1
:102C980039463046FEF704F9C8B139463046FEF7E2
:102CA80025F9284B1860254B1B68984203DC244BF8
:102CB8001B6898420BDAFFF703FF0646214B1860A2
:102CC800FEF782FCA0733046FEF7A8FCE073362DB1
:102CD80020D1A57BE67B31462846FEF7E1F8C8B14E
:102CE80031462846FEF702F9174B1860134B1B684C
:102CF800984203DC124B1B6898420BDAFFF7E0FEA0
:102D08000546114B1860FEF75FFCA0732846FEF7D6
:102D180085FCE07300231A4604E0E15C0A44D2B261
:102D28000133DBB20949097801F10A008342F4DB77
:102D38002254F8BD700800206000002034200020D4
:102D4800482000203C0000202400002071080020BA
:102D580008B50122044B1A700023044A1370044A70
:102D68001380FFF7F1FE08BD4D20002060180020F9
:102D78005A18002008B5174BC8221A60164A5A601C
:102D8800164801F0A3FBB0F1FF3F06D15021114BCB
:102D98009960124801F056FB01E00E4B986010480C
:102DA80001F094FBB0F1FF3F10D10A4843688268F4
:102DB800B3FBF2F202EB4202D3000A49A1FB033152
:102DC800C908C160064801F03DFB08BD014BD86049
:102DD80008BD00BF3820002000650400201F03083C
:102DE8001C1F0308CDCCCCCC08B5084801F070FBFB
:102DF800074B1870074801F06BFBFF2803D15A22D4
:102E0800054B1A7008BD044B187008BD181F03083D
:102E18004C000020101F03084C2000202DE9F04131
:102E2800064688461746084601F050FB05463846D0
:102E380001F04CFBB5F1FF3F03D00446B0F1FF3F72
:102E48000AD13146404601F0FDFA3146384601F0D4
:102E5800F9FA3046BDE8F081B5420ED9751B17481E
:102E68002844174B1A78A2FB000164220023323051
:102E780041F10001FDF7B2F90BE0751B104B187812
:102E8800A0FB050164220023323041F10001FDF767
:102E9800A5F90444094B9C4205D904F17A4404F588
:102EA800212404F601743146404601F0CBFA21464C
:102EB800384601F0C7FA2046BDE8F081FFE0F50585
:102EC8004C200020834B1B78002B00F001812DE95A
:102ED800F04383B00446437C027CC17B807BFEF7D1
:102EE800BBFB0546E37A323B052B00F28180DFE825
:102EF80003F03F03272D3339237B482B0ED002D80C
:102F0800342B05D074E05C2B0ED0702B12D06FE000
:102F1800714A7249FFF782FF054669E0704A7149B4
:102F2800FFF77CFF054663E06F4A7049FFF776FFBD
:102F380005465DE06E4A6F49FFF770FF054657E0AA
:102F48006D4A6E49FFF76AFF054651E06C4A6D49C4
:102F5800FFF764FF05464BE06B4A6C49FFF75EFFDD
:102F6800054645E06A4A6B49FFF758FF05463FE0CA
:102F7800637D227DE17CA07CFEF76EFB5E4A5F49A3
:102F8800FFF74CFF8146637E227EE17DA07DFEF740
:102F980063FB5B4A5B49FFF741FF8046637F227F03
:102FA800E17EA07EFEF758FB574A5849FFF736FFE7
:102FB800074694F8213094F82020E17FA07FFEF79F
:102FC8004BFB534A5349FFF729FF0646637C227C93
:102FD800E17BA07BFEF740FB0146404801F032FA56
:102FE80009EB08053D44354429463B4801F02AFAD7
:102FF800E37A322B1CD068D3372B66D804F111033F
:10300800009304F1100304F10F0204F10E012846A5
:10301800FEF756FB0023A37405E0E15CA27C0A449A
:10302800A27401339BB2112BF7D91623E3744CE039
:1030380004F11103009304F1100304F10F0204F1E9
:103048000E012846FEF73CFB04F11503009304F13A
:10305800140304F1130204F112014846FEF730FB91
:1030680004F11903009304F1180304F1170204F1A1
:1030780016014046FEF724FB04F11D03009304F1FA
:103088001C0304F11B0204F11A013846FEF718FB71
:1030980004F12103009304F1200304F11F0204F159
:1030A8001E013046FEF70CFB002384F8223007E0AF
:1030B800E15C94F822200A4484F8222001339BB270
:1030C800212BF5D9162384F8233003B0BDE8F0830B
:1030D800704700BF4C0000207420030870200308CC
:1030E8009C20030898200308A4200308A0200308B4
:1030F800AC200308A82003087C20030878200308D4
:1031080084200308802003088C20030888200308F3
:1031180094200308902003084A4B1B78002B00F0EA
:103128008F802DE9F04182B00446437D027DC17C49
:10313800807CFEF791FA444A4449FFF76FFE8046C7
:1031480004F11503009304F1140304F1130204F1CC
:103158001201FEF7B5FA637E227EE17DA07DFEF7BF
:103168007BFA3B4A3B49FFF759FE064604F119032F
:10317800009304F1180304F1170204F11601FEF795
:103188009FFA637F227FE17EA07EFEF765FA324ACE
:103198003249FFF743FE054604F11D03009304F18D
:1031A8001C0304F11B0204F11A01FEF789FA94F8D2
:1031B800213094F82020E17FA07FFEF74DFA284ABD
:1031C8002849FFF72BFE074604F12103009304F179
:1031D800200304F11F0204F11E01FEF771FA637C5B
:1031E800227CE17BA07BFEF737FA01461E4801F0FE
:1031F80029F946442E44BD1929461C4801F022F9F4
:1032080004F11103009304F1100304F10F0204F117
:103218000E012846FEF754FA002384F8223007E00E
:10322800E15C94F822200A4484F8222001339BB2FE
:10323800212BF5D9162384F8233002B0BDE8F0819C
:10324800704700BF4C0000204020030804200308FA
:103258004420030808200308482003080C2003081A
:103268004C20030810200308002003083C20030812
:1032780008B5044B1A78A0FB020164220023FCF76E
:10328800ADFF08BD4C200020504B1B78002B00F0F0
:103298009B8010B582B00446C37A322B72D1437C2E
:1032A800027CC17B807BFEF7D7F9FFF7E1FF04F1D1
:1032B8001103009304F1100304F10F0204F10E014D
:1032C800FEF7FEF9637D227DE17CA07CFEF7C4F960
:1032D800FFF7CEFF04F11503009304F1140304F182
:1032E800130204F11201FEF7EBF9637E227EE17D01
:1032F800A07DFEF7B1F9FFF7BBFF04F119030093B6
:1033080004F1180304F1170204F11601FEF7D8F9C5
:10331800637F227FE17EA07EFEF79EF9FFF7A8FF7C
:1033280004F11D03009304F11C0304F11B0204F1D2
:103338001A01FEF7C5F994F8213094F82020E17FAE
:10334800A07FFEF789F9FFF793FF04F121030093AB
:1033580004F1200304F11F0204F11E01FEF7B0F985
:10336800002384F8223007E0E15C94F822200A4424
:1033780084F8222001339BB2212BF5D9162384F837
:1033880023301FE0437C027CC17B807BFEF764F91D
:10339800FFF76EFF04F11103009304F1100304F129
:1033A8000F0204F10E01FEF78BF90023A37405E068
:1033B800E15CA27C0A44A27401339BB2112BF7D9B9
:1033C8001623E37402B010BD704700BF4C00002004
:1033D8002DE9F0410D460378002B00F00C81012BFC
:1033E80000F00B81022B2FD1417811F0800F01D111
:1033F80001231DE001F07F01012902D18178022318
:1034080016E0022905D18178C37843EA0121032314
:103418000EE0032903D181780904042308E0042974
:1034280003D181780906052302E000234FF0FF311C
:103438000029C0F2EA800133002202E001339BB286
:1034480001328A42FADBD9E0032B5AD1467816F0CA
:10345800800F01D101211DE006F07F06012E02D167
:103468008678022116E0022E05D18678C37843EAD1
:10347800062603210EE0032E03D1867836040421A4
:1034880008E0042E03D186783606052102E00021E3
:103498004FF0FF36002EC0F2BC804B1C18440024AD
:1034A8002CE0027812F0800F01D101211CE002F01B
:1034B8007F02012A02D14278022115E0022A05D1B1
:1034C8004178827842EA012203210DE0032A03D1E0
:1034D80042781204042107E0042A03D14278120634
:1034E800052101E04FF0FF32002AC0F296800B441C
:1034F8008F18384412FA83F39BB20134B442D0DBFC
:103508007CE0042B2ED1417811F0800F01D10123EA
:103518001DE001F07F01012902D18178022316E024
:10352800022905D18178C37843EA012103230EE0FB
:10353800032903D181780904042308E0042903D16D
:1035480081780906052302E000234FF0FF310029A6
:1035580067DB0133002202E002339BB201328A4268
:10356800FADB4BE0053BDBB2022B5ED8467816F05F
:10357800800F01D101221DE006F07F06012E02D145
:103588008678022216E0022E05D18678C37843EAAF
:10359800062603220EE0032E03D186783604042281
:1035A80008E0042E03D186783606052202E00022C0
:1035B8004FF0FF36002E3CDB531CC4184FF00008B8
:1035C80016E00134581C87B2E91B204600F03EF88B
:1035D800002832DB0444384487B2E91B204600F057
:1035E80035F800282DDB0444384483B208F101087B
:1035F800B045E6DB02E0012300E0012318469D42C6
:1036080021DA4FF0FF30BDE8F0814FF0FF30BDE820
:10361800F0814FF0FF30BDE8F0814FF0FF30BDE89A
:10362800F0814FF0FF30BDE8F0814FF0FF30BDE88A
:10363800F0814FF0FF30BDE8F0814FF0FF30BDE87A
:10364800F0814FF0FF30BDE8F08100BF2DE9F04177
:103658000D46421C0378602B00F2B083DFE813F0BC
:10366800610063009E00A403D90016011801AE038F
:10367800AE031A014501AE037001AE03AE03A40305
:103688009B01A4039D01AE039F01A101A403A30113
:10369800A501A701A901AB01AD01AE03AE03AE03BD
:1036A800AE03AE03AE03AE03AE03AE03AE03AE038A
:1036B800AE03AE03AE03AE03AE03AE03AE03AE037A
:1036C800AE03AE03AE03AE03AE03AE03AE03AE036A
:1036D800AE03AE03AE03AE03AE03AE03AE03AE035A
:1036E800AE03AE03AE03AE03AE03AE03AE03AE034A
:1036F800AE03AE03AE03AE03AE03AE03AE03AE033A
:10370800AF01B101B301E301E501E70112021202C1
:103718003D02510253025D029702A102CC0224032A
:103728002603012443E3477817F0800F01D10126CF
:103738001DE007F07F07012F02D18778022616E0E7
:10374800022F05D18778C37843EA072703260EE0BE
:10375800032F03D187783F04042608E0042F03D100
:1037680087783F06052602E000264FF0FF37002F36
:10377800C0F22883741C16444FF000080BE0291B84
:103788003046FFF763FF002840F3208306440444D3
:10379800A4B208F10108B845F1DB08E3477817F04F
:1037A800800F01D101261DE007F07F07012F02D10C
:1037B8008778022616E0022F05D18778C37843EA76
:1037C800072703260EE0032F03D187783F0404263A
:1037D80008E0042F03D187783F06052602E000267B
:1037E8004FF0FF37002FC0F2F582741C16444FF0DB
:1037F80000080BE0291B3046FFF728FF002840F39C
:10380800ED8206440444A4B208F10108B845F1DB8E
:10381800CDE2437813F0800F01D101221DE003F0BF
:103828007F03012B02D18378022216E0022B05D1F7
:103838008278C37843EA022303220EE0032B03D1E4
:1038480083781B04042208E0042B03D183781B0629
:10385800052202E000224FF0FF33002BC0F2C282A3
:10386800013213F0070F07D11C46002B00DADC1DCC
:1038780002EBE40294B29AE21C46002B00DADC1D4B
:1038880002EBE404A4B20134A4B290E205248EE26F
:1038980005248CE2447814F0800F01D101231DE047
:1038A80004F07F04012C02D18478022316E0022C54
:1038B80005D18478C37843EA042403230EE0032C5B
:1038C80003D184782404042308E0042C03D18478E9
:1038D8002406052302E000234FF0FF34002CC0F239
:1038E800858201331C44A4B261E2447814F0800F4D
:1038F80001D101231DE004F07F04012C02D184785A
:10390800022316E0022C05D18478C37843EA042404
:1039180003230EE0032C03D184782404042308E055
:10392800042C03D184782406052302E000234FF0F9
:10393800FF34002CC0F25E8201331C44A4B236E28C
:10394800447814F0800F01D101231DE004F07F04B6
:10395800012C02D18478022316E0022C05D1847848
:10396800C37843EA042403230EE0032C03D18478AC
:103978002404042308E0042C03D1847824060523B6
:1039880002E000234FF0FF34002CC0F237820133ED
:103998001C44A4B20BE2032409E2032407E209242D
:1039A80005E2092403E2052401E20924FFE10B24CE
:1039B800FDE10624FBE10424F9E10824F7E10324EE
:1039C800F5E10524F3E1427912F0800F01D10124D9
:1039D8001DE002F07F02012A02D18279022416E05A
:1039E800022A05D18279C37943EA022203240EE030
:1039F800032A03D182791204042408E0042A03D19B
:103A080082791206052402E000244FF0FF32002AD2
:103A1800C0F2F8810534002302E00434A4B2013373
:103A28009342FADBC3E10524C1E10424BFE14478F1
:103A380014F0800F01D101231DE004F07F04012C54
:103A480002D18478022316E0022C05D18478C37849
:103A580043EA042403230EE0032C03D184782404CE
:103A6800042308E0042C03D184782406052302E00B
:103A780000234FF0FF34002CC0F2C88101331C44EE
:103A8800A4B294E1447814F0800F01D101231DE021
:103A980004F07F04012C02D18478022316E0022C62
:103AA80005D18478C37843EA042403230EE0032C69
:103AB80003D184782404042308E0042C03D18478F7
:103AC8002406052302E000234FF0FF34002CC0F247
:103AD800A18101331C44A4B269E1861CA91E3046A9
:103AE800FFF7B4FD0028C0F29981841CA4B2291BF9
:103AF8003044FFF7ABFD0028C0F294810444A4B21F
:103B080055E1032453E1691E104600F0C3F900286B
:103B1800C0F28C81013084B249E14378002B00F077
:103B28004581012B40F08681827912F0800F01D106
:103B380001241DE002F07F02012A02D1C279022489
:103B480016E0022A05D1C279037A43EA0222032445
:103B58000EE0032A03D1C2791204042408E0042ADF
:103B680003D1C2791206052402E000244FF0FF3287
:103B7800002AC0F263810634002305E0A542C0F2A2
:103B880061810434A4B201339342F7DB0FE1691E6B
:103B98001046FFF71DFC0028C0F25881013084B29E
:103BA80005E1447914F0800F01D101231DE004F0F0
:103BB8007F04012C02D18479022316E0022C05D15E
:103BC8008479C37943EA042403230EE0032C03D148
:103BD80084792404042308E0042C03D1847924067E
:103BE800052302E000234FF0FF34002CC0F232819D
:103BF80005331C44A4B2DAE0441D437913F0800F66
:103C080001D101221DE003F07F03012B02D183794A
:103C1800022216E0022B05D18279C37943EA0223F6
:103C280003220EE0032B03D183791B04042208E04E
:103C3800042B03D183791B06052202E000224FF0F2
:103C4800FF33002BC0F20A81511DD01826180B44EF
:103C58009BB2245C14F0800F01D101221CE004F017
:103C68007F04012C02D17478022215E0022C05D1C0
:103C78007478B27842EA042403220DE0032C03D1BD
:103C880074782404042207E0042C03D174782406F1
:103C9800052201E04FF0FF34002CC0F2E38013440A
:103CA80014FA83F4A4B282E0062480E0467816F081
:103CB800800F02D14FF0010E22E006F07F06012EA0
:103CC80003D186784FF0020E1AE0022E06D18678CC
:103CD800C37843EA06264FF0030E11E0032E04D101
:103CE800867836044FF0040E0AE0042E04D1867854
:103CF80036064FF0050E03E04FF0000E4FF0FF368A
:103D0800002EC0F2B3800EF1010402EB0E0300276F
:103D180047E0A542C0F2AE801A781AB905330534D7
:103D2800A4B23DE0012A40F0A9805A1D0534A4B28E
:103D3800597911F0800F02D14FF0010E20E001F007
:103D48007F01012903D199794FF0020E18E0022969
:103D580006D19979DB7943EA01214FF0030E0FE090
:103D6800032904D1997909044FF0040E08E00429C5
:103D780004D1997909064FF0050E01E04FF0FF31A3
:103D880000297FDB7444A4B202EB0E03002205E095
:103D9800A5427BDB04330434A4B201328A42F7DB48
:103DA8000137B742B5DB02E0022400E006242046D2
:103DB800A5426DDA4FF0FF30BDE8F0814FF0FF30DB
:103DC800BDE8F0814FF0FF30BDE8F0814FF0FF30E3
:103DD800BDE8F0814FF0FF30BDE8F0814FF0FF30D3
:103DE800BDE8F0814FF0FF30BDE8F0814FF0FF30C3
:103DF800BDE8F0814FF0FF30BDE8F0814FF0FF30B3
:103E0800BDE8F0814FF0FF30BDE8F0814FF0FF30A2
:103E1800BDE8F0814FF0FF30BDE8F0814FF0FF3092
:103E2800BDE8F0814FF0FF30BDE8F0814FF0FF3082
:103E3800BDE8F0814FF0FF30BDE8F0814FF0FF3072
:103E4800BDE8F0814FF0FF30BDE8F0814FF0FF3062
:103E5800BDE8F0814FF0FF30BDE8F0814FF0FF3052
:103E6800BDE8F0814FF0FF30BDE8F0814FF0FF3042
:103E7800BDE8F0814FF0FF30BDE8F0814FF0FF3032
:103E8800BDE8F0814FF0FF30BDE8F0814FF0FF3022
:103E9800BDE8F0812DE9F0410D460378002B00F0D4
:103EA800A680012B09D105390530FFF7CFFB002883
:103EB800C0F2A780431D9BB29CE0022B1ED100F1EB
:103EC800050805394046FFF7C1FB0028C0F29D8070
:103ED8008044053084B2291B4046FFF7B7FB002811
:103EE800C0F297800444A4B2291B4044FFF7AEFBFC
:103EF8000028C0F2928023189BB27BE0032B4DD19F
:103F0800477817F0800F01D101221DE007F07F07E5
:103F1800012F02D18778022216E0022F05D1877877
:103F2800C37843EA072703220EE0032F03D18778DB
:103F38003F04042208E0042F03D187783F060522B6
:103F480002E000224FF0FF37002F6ADB531C00EB22
:103F5800030800261FE008F1040804339CB2291B5B
:103F68004046FFF773FB00285FDB80440444A4B29B
:103F7800291B4046FFF76AFB00285ADB80440444AB
:103F8800A4B2291B4046FFF761FB002855DB80449B
:103F980023189BB20136BE42DDDB2BE01A1FD2B2DA
:103FA800012A09D808390830FFF712FA002848DB37
:103FB80000F108039BB21DE09A1FD2B2022A09D869
:103FC80012391230FFF704FA00283EDB00F1120321
:103FD8009BB20FE0092B0CD00A2B3AD102390230E0
:103FE800FFF7F6F9002838DB023083B202E001233C
:103FF80000E0022318469D4231DA4FF0FF30BDE859
:10400800F0814FF0FF30BDE8F0814FF0FF30BDE8A0
:10401800F0814FF0FF30BDE8F0814FF0FF30BDE890
:10402800F0814FF0FF30BDE8F0814FF0FF30BDE880
:10403800F0814FF0FF30BDE8F0814FF0FF30BDE870
:10404800F0814FF0FF30BDE8F0814FF0FF30BDE860
:10405800F0814FF0FF30BDE8F0814FF0FF30BDE850
:10406800F08100BF10B409E00B784340DBB2074A87
:1040780032F8133083EA102022460131541E002AF8
:10408800F2D1C04380B25DF8044B7047C05A0008B3
:10409800F8B5044685896E1E0768AA1E791C4FF676
:1040A800FF70FFF7DFFFB8552368000A5855012055
:1040B800F8BD00BF10600378902B2DD143785BBB0F
:1040C800817811F0800F01D101231DE001F07F01FB
:1040D800012902D1C178022316E0022905D1C1784D
:1040E800037943EA012103230EE0032903D1C178B0
:1040F8000904042308E0042903D1C178090605232B
:1041080002E000234FF0FF31002903DB023318449B
:10411800106001E04FF0FF310846704708B5838909
:1041280002899B1A083B0A4699B24068FFF7C2FF0A
:1041380080B208BD00B583B0019008464FF4807185
:10414800FFF784FA03B05DF804FB00BF43780278F8
:1041580043EA02230B8083788B70C378CB700420EA
:10416800704700BFF0B583B04378012B02D0022B13
:1041780003D04CE0C41C012604E0041DC67816F0E8
:10418800800F47D10F4640F2FC520021384601F01B
:10419800F1FB01233B70002535E001A92046FFF71C
:1041A800D5FF2218235C0BB9941C2AE0012B34D1CB
:1041B800541C21460198FFF7BDFF002830DBBDF8ED
:1041C8000430B3F5005F1BD1BA79510001EB020E40
:1041D8004FEA8E033B444FF4005EA3F808E09DF8D5
:1041E80006E083F80AE09DF807E083F80BE0D88141
:1041F8001C618B189900394401230B731A44BA7156
:1042080004440135EDB2B542C7D301200AE04FF0AE
:10421800FF3007E04FF0FF3004E04FF0FF3001E0DF
:104228004FF0FF3003B0F0BD82B080B2A0F5A043DC
:104238009BB2032B0FD945F2040398420DD045F2E7
:10424800060398420BD0A0F5405080B2B0F5407FED
:1042580007D2052006E0022004E0032002E0042043
:1042680000E0002002B070472DE9F84F4378032B97
:1042780002D0042B04D077E0C51C4FF0010805E0FC
:10428800C51C90F8008018F0800F71D10E4640F2DE
:10429800FC520021304601F06DFB00275FE0B11CA5
:1042A8002846FFF753FF0446D6F80200FFF7BCFF85
:1042B8003070002860D0601C284415F8049019F06C
:1042C800800F5DD100240EE00378002B5CD1451CE3
:1042D80004EB44039900083131442846FFF736FFC0
:1042E80028440134E4B24C45EED303780BB9851C5D
:1042F80033E0012B4CD1851C90F801B01BF0800FE6
:104308004AD1BBF1000F4BD04FF0000A23E0002444
:10431800B4711AE004EB44029300334429469868C8
:10432800FFF708FF00283EDB630019198A001146D1
:104338003244D08115610A46324401231373B3799C
:104348000133B37105440134E4B24C45E2D30AF1B8
:10435800010A5FFA8AFADA45D9D30137FFB247452D
:104368009DD30120BDE8F88F4FF0FF30BDE8F88FEE
:104378004FF0FF30BDE8F88F4FF0FF30BDE8F88F01
:104388004FF0FF30BDE8F88F4FF0FF30BDE8F88FF1
:104398004FF0FF30BDE8F88F4FF0FF30BDE8F88FE1
:1043A8000020BDE8F88F4FF0FF30BDE8F88F00BF60
:1043B80008B50378852B0ED111464378013B032BB2
:1043C8000CD8DFE803F002020505FFF7CBFE08BDB5
:1043D800FFF74AFF08BD4FF0FF3008BD4FF0FF3030
:1043E80008BD00BF70B584680379EBB12378DBB1F1
:1043F800012B19D166780334002513E063782078FF
:1044080043EA0020094B1B68984203DC084B1B68F1
:10441800984204DAFEF754FB0312237060700334E9
:104428000135EDB2B542E9D370BD00BF342000209C
:104438004820002008B50220FCF7C8F83420FCF713
:10444800E7F808BD2DE9F041ADF5806DC0F38704AC
:1044580010F0030F33D120F47F7626F003060023F3
:1044680005E056F823204DF8232001339BB2FF2B9B
:10447800F7D90F4680464DF82410FCF7B1F84046AE
:10448800FCF7F6F8002502240FE01C465DF825101D
:1044980006EB8500FCF70AF9042804D0631EDBB29A
:1044A800002CF2D11C460135ADB2FF2DEED9FCF738
:1044B800A7F8D8F800309F4203D1012002E000207D
:1044C80000E000200DF5806DBDE8F08100687047C0
:1044D8000068C0B2704700BF2DE9F04383B00121E6
:1044E8004FF48020FCF7B4FADFF828810722062170
:1044F8004046FCF76DF9072211464046FCF768F97B
:1045080002248DF8044000278DF8067001258DF8E7
:1045180007508DF8054002AEC02346F8083D3146E5
:104528004046FCF7F5F8072208214046FCF750F909
:10453800072209214046FCF74BF98DF806704FF425
:104548004073009331464046FCF7E2F829464FF4A1
:104558000030FCF77DFA00958DF804508DF8065070
:104568008DF805408DF8077031464FF09040FCF704
:10457800CFF829464FF40020FCF76AFA4FF40059A7
:10458800CDF800908DF804508DF806708DF8054030
:104598008DF8074008F5806831464046FCF7B8F8C2
:1045A8002A4649464046FCF70DF900948DF8044028
:1045B8008DF806704FF003088DF805808DF80750C8
:1045C80031464FF09040FCF7A3F8224629464FF0B9
:1045D8009040FCF7FDF8072221464FF09040FCF789
:1045E800F7F8072241464FF09040FCF7F1F88DF8B4
:1045F80004408DF806708DF807508DF805400C239F
:10460800009331464FF09040FCF782F803B0BDE8C4
:10461800F08300BF0004004830B587B001214FF493
:104628008020FCF715FA8025049500248DF81440A5
:104638008DF8174002238DF8153004A91248FCF7AD
:1046480067F801210846FCF711FA07210120FCF759
:1046580045FA02958DF80C4010238DF80D30012491
:104668008DF80E4002A8FBF753FF17238DF804308E
:104678008DF805408DF806408DF8074001A8FCF735
:10468800C9F807B030BD00BF0004004808B50121D3
:104698004FF09040FCF786F830B1002201214FF02E
:1046A8009040FCF78FF808BD012211464FF090406A
:1046B800FCF788F808BD00BF08B500224FF4005188
:1046C8000148FCF77FF808BD0008004838B50446E3
:1046D800154B1B6801465868FDF790FF18B3237AFD
:1046E800112B0ED1A37A332B0BD1237B342B08D17A
:1046F800637B352B05D100220C4B1A7001220C4B21
:104708001A700C4D2B680C4A12780C3299682046A6
:1047180000F026FF2B68986800F08EFE18B92B6809
:10472800186800F0A9FE38BD380000204D20002090
:10473800601800203400002071080020144B1B78FA
:1047480023BB10B51921134B188800F06FFEE0B198
:104758001148FEF779F8C0B1104C23680E48427A28
:104768000C32996800F0FCFE2368986800F064FE3B
:1047780058B92368186800F07FFE0122044B1A70AC
:104788000023074A1370034A138010BD704700BF07
:104798004D2000205A1800206418002038000020FE
:1047A8006018002008B50F4B1A680F4B1B68D31A06
:1047B800834215D90C4B1A604FF400510B48FBF794
:1047C800F9FF012806D100224FF400510748FBF7F2
:1047D800F9FF08BD01224FF400510448FBF7F2FF2E
:1047E80008BD00BF3C2A00205418002000080048DB
:1047F800A0F235331C2B0DD9A0F291131C2B0CD928
:10480800A0F1BF031C2B0BD95B381C280BD84FF425
:10481800165070474FF4966070474FF41660704713
:104828004FF4965070474FF41660704738B51F48DC
:1048380000F06EFD012000F085FDFFF7EDFE64221B
:104848001B4B1A604FF0FF321A4B1A6001E0FFF75A
:104858001DFF174B1B68002BF9D1FBF74BFE154BBF
:104868001868FFF7C5FF05464FF47A7000F050FD51
:10487800012000F067FD104C2946206800F090FFE9
:1048880029460E4B186800F08BFFFFF7FFFE0C4B14
:104898001B685B084FF47A720A49206800F0E0FE52
:1048A8002368586800F076FF38BD00BF40420F000B
:1048B80064000020382A002038000020340000203E
:1048C800382400206418002070B586B000230593B2
:1048D80001E0FFF7DBFEA44A1368591E1160002BA4
:1048E800F7D14FF4C060FBF78BFFFFF7A3FDFFF78D
:1048F800F3FDFFF7CBFE00F03BFDFFF7DDFEFFF712
:1049080095FFFEF799F8FEF735FAFEF76DFA0224DF
:10491800012C4ED0002C00F0DE80022CF8D1FFF7DD
:10492800B5FE924B1B689248A0FB03308008FFF746
:1049380039FF904B186800F0A7FD8F4B186800F0FE
:10494800A3FD8E4B1B78BBB18A4D286800F0ACFDE7
:1049580000228A4B1A70FFF799FE894C864B1A6819
:104968002146286800F042FA0146204600F008FA7D
:104978000446286800F088FD824B1B78002BC7D0BE
:104988007D4D286800F090FD00227E4B1A70FFF7DD
:104998007DFE7D4C774B1A682146286800F026FA80
:1049A8000146204600F0ECF90446286800F06CFD4A
:1049B800AEE7FFF76BFE6D4B1868FFF7F3FE6D4B24
:1049C800186800F061FD6C4B186800F05DFD6B4BDA
:1049D8001B7893B1674D286800F066FD0022674B8D
:1049E8001A70FFF753FE644B1A686549286800F08F
:1049F800FDF9286800F048FD8AE7624B1B78002B18
:104A080064D0FFF743FE5C4D286800F04DFD00239D
:104A18005C4A137001934FF47A725B49286800F07E
:104A28007FFE054600283FF473AF01AA01465648A9
:104A380000F04AF990B9FFF729FE4C4B1B68534A1E
:104A4800A2FB03239B094FF47A7202FB03F32A4665
:104A58004D494848006800F0A9FD37E04C4B1B78E9
:104A6800002B33D005A901A8FFF758FB014600B376
:104A7800484A0598FFF79CFC002812DC19E005EB72
:104A880045029300434A13441B89B3F5005F06D1DE
:104A980005EB4503980008301044FFF7A3FC0135E7
:104AA80000E000253B4B9B799D42E8D301A8FFF726
:104AB800EFFAFFF7EBFDBDF810202C4B1B685B08E5
:104AC800023201992B48006800F070FD2A4B1868E3
:104AD80000F0DAFC1CE7254B1868FFF763FEFFF7C8
:104AE800D5FD244B1B68586800F0A6FC10B9244873
:104AF800FFF7ECFD204B1B68586800F09DFC10B1D7
:104B0800FFF71CFE66E01C4B1B681F495868FDF741
:104B180075FD002848D1204B1B78002B5AD119214C
:104B28001E4B188800F082FC002853D01448FDF76B
:104B38008BFE00284ED00F4D2B681148427A996899
:104B480000F00EFD2B68986800F076FC002841D133
:104B5800134800F091FC01220F4B1A700023114AF0
:104B680013700E4A138035E06800002038240020B6
:104B7800CDCCCCCC380000203400002058180020C0
:104B880064180020501800204C1C0020D34D6210DF
:104B9800700800203C2400204D2000205A180020D6
:104BA80000380140601800202F4E3046FDF7A6FD62
:104BB8002E4D2B682E4A12780C329968304600F038
:104BC800CFFC2B68986800F037FC18B92B68186878
:104BD80000F052FC274B1B68586800F02DFC002899
:104BE8007FF496AE234B1B6823495868FDF706FDF2
:104BF80000283FF48DAE204B1B7A132B1DD11E4885
:104C0800012343708370C3700371437183719323CD
:104C180003720623437234238372C372037343738C
:104C28008373C373A723037416234374114B1B6840
:104C38001222996800F094FC02E00F48FDF7B8FDD5
:104C48000C4B1B68986800F0F7FB00287FF460AEF7
:104C58000A4D00220A492846FCF7B0F80122094902
:104C68002846FCF7ABF853E64C1C0020380000201F
:104C7800710800205C000020502000200044004003
:104C880005010500070107000C4A1368013B136082
:104C98000B4B1A680B4B1B68B3F1FF3F0BD0D31AB1
:104CA80003F57F43FF339BB206490A6002689342CB
:104CB80003D203607047034B1A60704764000020FA
:104CC8003C2A00206C0000202DE9F8430D461646CA
:104CD800682100F057FEB0B304464378877843EA6A
:104CE8000727BB1CAB4231D8057905F00F0505F144
:104CF800070900F10108AA1D41464FF6FF70FFF7AA
:104D0800B1F914F8093005F108020235A25C43EA4A
:104D1800022398421DD107F1FF39BA1E41464FF6CA
:104D2800FF70FFF79FF914F80930E25D43EA0223A8
:104D3800984211D1B78135813460073525447560B3
:104D48002046BDE8F8830020BDE8F8830020BDE8D0
:104D5800F8830020BDE8F8830020BDE8F88300BF91
:104D680010B400231A4604E0C45C2244D2B20133D2
:104D7800DBB28B42F8D310465DF8044B704700BF96
:104D88002DE9F0410F46682100F0FCFD10B30546FF
:104D9800467A0C3643788478240204F47C541C4305
:104DA8000234C379682B0CD1BE420AD8B11E10F860
:104DB8000180FFF7D5FF804503D1013EAB5D162B7F
:104DC8000BD0631EEB5C162B0AD1BC420BD9022018
:104DD800BDE8F0810220BDE8F0810020BDE8F08147
:104DE8000220BDE8F0810120BDE8F08170B50E46D3
:104DF80015464FF47A7200F093FC88B10446094BCB
:104E08001B68094AA2FB03239B094FF47A7202FB31
:104E180003F302463146284600F0C8FB204670BD21
:104E2800002070BD38240020D34D6210704700BFA9
:104E3800FEE700BFFEE700BFFEE700BFFEE700BFDA
:104E4800704700BF704700BF704700BF024A136831
:104E580001331360704700BF3C2A002070B5394BFE
:104E68001B6808211868FBF7C5FF28B1354B1B687C
:104E780008211868FBF7C6FF324B1B6832491868CF
:104E8800FBF7C2FFE8B12F4B1B68586800F0DEFA49
:104E9800B8B92C4C23685D68D5F8EC631868FBF743
:104EA80089FFA85523685968D1F8EC230132274BAC
:104EB800A3FB02039B094FF47A7000FB1323C1F88C
:104EC800EC33204B1B6822491868FBF79DFF38B369
:104ED8001C4C23681E491868FBF7B8FF23689A68BA
:104EE800D2F8E813515C1868FBF760FF21688868FE
:104EF800D0F8E8230132154BA3FB02439B094FF47A
:104F08007A7404FB1323C0F8E833886800F094FA35
:104F180030B10C4B1B6800220D491868FBF74EFF97
:104F2800084B1B680B491868FBF76EFF40B1054B2F
:104F38001B6808491868FBF789FF0122064B1A709D
:104F480070BD00BF3800002005010500D34D621078
:104F580007010700040104005818002070B53B4BF6
:104F68001B6808211868FBF745FF012805D1374B56
:104F78001B6808211868FBF745FF344B1B68344948
:104F88001868FBF741FF08B3304C236830491868AC
:104F9800FBF75CFF2368586800F058FAB0B923683B
:104FA8005D68D5F8EC631868FBF704FFA85523681B
:104FB8005968D1F8EC230132264BA3FB02039B0965
:104FC8004FF47A7000FB1323C1F8EC331F4B1B68B6
:104FD80021491868FBF718FF002836D01B4C2368B6
:104FE8001D491868FBF732FF23689A68D2F8E8135E
:104FF800515C1868FBF7DAFE21688868D0F8E82366
:105008000132144BA3FB02439B094FF47A7404FB4F
:105018001323C0F8E833886800F00EFAA8B10B4BE8
:105028001B6800220C491868FBF7C8FE074B1B6871
:1050380040211868FBF7DEFE0028F7D0034B1B68F9
:10504800012203491868FBF7B9FE70BD5C00002017
:1050580005010500D34D62100701070070B5364BF6
:105068001B6808211868FBF7C5FE28B1324B1B687E
:1050780008211868FBF7C6FE2F4B1B682F491868D4
:10508800FBF7C2FEE8B12C4B1B68586800F0DEF94C
:10509800B8B9294C23685D68D5F8EC631868FBF744
:1050A80089FEA85523685968D1F8EC230132244BAE
:1050B800A3FB02039B094FF47A7000FB1323C1F88A
:1050C800EC331D4B1B681F491868FBF79DFE10B396
:1050D800194C23689A68D2F8E813515C1868FBF7F2
:1050E80065FE21688868D0F8E8230132144BA3FBD9
:1050F80002439B094FF47A7404FB1323C0F8E83386
:10510800886800F099F930B10B4B1B6800220D49F3
:105118001868FBF753FE084B1B680B491868FBF728
:1051280073FE40B1044B1B6807491868FBF78EFEF5
:105138000122064B1A7070BD3400002005010500DD
:10514800D34D621007010700040104005018002025
:1051580008B501214FF08040FBF778FD90B101219F
:105168004FF08040FBF77EFD074B1B781BB1074AC9
:10517800138801331380064B1B781BB1054A13882B
:105188000133138008BD00BF5C1800205E180020A2
:10519800601800205A180020704700BF08B580200A
:1051A800FBF7FEF928B10348FFF76EFD8020FBF7F7
:1051B80007FA08BD382A002082B000230193009323
:1051C800274A136843F001031360254B1B6803F05B
:1051D80002030093019B01330193009B1BB9019BC0
:1051E800B3F5A06FF1D11E4B1B6813F0020F02D06C
:1051F8000123009301E000230093009B012B2CD195
:105208001222184B1A60A3F580535A685A605A68DC
:105218005A605A6842F480625A605A6822F47C12D2
:105228005A605A6842F460125A601A6842F08072F2
:105238001A600B4B1B6813F0007FFAD0084B5A68B2
:1052480022F003025A605A6842F002025A60044B84
:105258005B6803F00C03082BF9D102B0704700BF5C
:10526800001002400020024010B5184CD4F88830D5
:1052780043F47003C4F88830154B1A6842F00102F1
:105288001A605A6802F47F025A601A6822F084721F
:1052980022F480321A601A6822F480221A605A684E
:1052A80022F4FE025A60DA6A22F00F02DA621A6BFE
:1052B80022F0F02222F073021A6300229A60FFF7AC
:1052C8007BFF4FF00063A36010BD00BF00ED00E05E
:1052D8000010024030B583B01C238DF8043000253F
:1052E8008DF8055001248DF806408DF8074001A877
:1052F800FBF790FA32238DF804308DF805508DF8BD
:1053080006508DF8074001A8FBF784FA03B030BDBA
:10531800094B1B68B3FBF0F3B3F1807F0AD223F08B
:105328007F43013B054A53600023936005231360C4
:10533800034B1860704700BF7000002010E000E0C9
:1053480038240020012809D1074A136843F00203D2
:105358001360F022054B83F823207047024B1A682C
:1053680000221A60704700BF10E000E000ED00E086
:1053780070B588B0FFF7AEFF01210846FBF784FB44
:105388004CF24F3306934023ADF814300024ADF8A7
:105398001C40ADF8164005A94FF08040FBF7B8FB5C
:1053A80001214FF08040FBF7F7FB012211464FF037
:1053B8008040FBF73FFC01210820FBF765FB184BF9
:1053C8001B68184AA2FB03231B0B013B0693ADF88D
:1053D8001440ADF81C40ADF81640134D05A92846F9
:1053E800FBF796FB21462846FBF708FC01212846D7
:1053F800FBF7D2FB6023ADF800300126ADF8026060
:1054080040F24A330293ADF80C4069462846FBF750
:10541800D1FB324604212846FBF7FAFB08B070BDE1
:1054280070000020B5814E1B000C0040884201D35B
:105438000120704700207047D0F8E823D0F8EC33FB
:105448009A4201D10120704700207047D0F8E81334
:10545800D0F8EC230132074BA3FB02039B094FF45E
:105468007A7000FB1323994201D101207047002074
:10547800704700BFD34D621008B501220149FBF700
:105488009DFC08BD0701070038B504460068C369DC
:10549800044D2946FBF7DAFC012229462068FBF770
:1054A8008DFC38BD0401040038B50446064D0022C1
:1054B80029460068FBF782FC29462068FBF7C6FCF2
:1054C8002368DB6938BD00BF04010400D0F8E83365
:1054D800D0F8EC031B1A03F2E733044AA2FB0312C9
:1054E80092094FF47A7000FB12307047D34D621066
:1054F800D0F8EC33D0F8E8031B1A03F57A73044AA2
:10550800A2FB031292094FF47A7000FB1230704725
:10551800D34D621070B504460E461546FFF7E8FFF6
:10552800A84215D2002070BDD4F8E833E35CB35428
:10553800D4F8E8130131094BA3FB01039B094FF48D
:105548007A7000FB1313C4F8E833013292B200E01A
:105558000022AA42E8D3012070BD00BFD34D6210DB
:1055680070B506460C4615460846FFF7C1FF2844A5
:10557800B0F57A7F13D9002070BDD4F8EC13B35C72
:1055880063540131084BA3FB01039B094FF47A7064
:1055980000FB1313C4F8EC33013292B200E000228E
:1055A800AA42EAD3012070BDD34D6210002A4BD025
:1055B800F8B504460F461D4616468068FFF786FF75
:1055C800864244D8002214E0A368D3F8EC13B85CF0
:1055D8005854A068D0F8EC1301311E4BA3FB01E32B
:1055E8009B094FF47A7E0EFB1313C0F8EC3301329B
:1055F80092B29642E8D8A368D3F8E8630122164924
:105608002068FBF7DBFB09E0A068FFF771FF38B102
:10561800124B1B6813F4803F00D0013D002DF3D1DD
:1056280000220D492068FBF7C9FBA368D3F8E823DB
:10563800921B02F57A72074BA3FB02139B094FF4E6
:105648007A7000FB1320F8BD4FF0FF3070474FF021
:10565800FF30F8BDD34D62100701070010E000E0ED
:105668002DE9F04184B09846002303930293531E1A
:10567800B3F57A7F4CD204460D461646B8F1FF3F83
:1056880003D008F10108CDF8048067683846FFF7B1
:105698002FFF029013E0204B1B6813F4803F02D0C9
:1056A800019B013B01933846FFF722FF0290029AC3
:1056B800039B9A4203D9CDF80480029B0393029B73
:1056C8009E4202D9019B002BE5DC039BF3B1039BAF
:1056D8009E4200D9039E0396002214E06368D3F823
:1056E800E8135B5CAB546068D0F8E81301310B4BEE
:1056F800A3FB01639B094FF47A7606FB1313C0F8EA
:10570800E833013292B2039B9A42E7D3039800E050
:10571800002004B0BDE8F08110E000E0D34D621035
:1057280070B582B000230193541E4FF6FE739C425D
:105738002BD814460E4605464068FFF7D9FE01905F
:10574800019B03B3019B9C4201D9019A00E02246C8
:105758000192002214E06B68D3F8E8135B5CB35441
:105768006968D1F8E8430134094BA3FB04039B099A
:105778004FF47A7000FB1343C1F8E833013292B258
:10578800019B9A42E7D3019800E0002002B070BD67
:10579800D34D6210D0F8EC33C0F8E833704700BF3F
:1057A800F0B58BB004460D460068FBF75FFA236836
:1057B800464A934227D101214FF48020FBF748F94C
:1057C800434E072206213046FBF702F8072211460E
:1057D8003046FAF7FDFF02238DF8243000228DF8B9
:1057E800262001278DF827708DF825300AA9C023B7
:1057F80041F8083D3046FAF78BFF39464FF48040B0
:10580800FBF734F92AE0334A934227D101214FF4B8
:105818008020FBF71DF92E4E072208213046FAF7A3
:10582800D7FF072209213046FAF7D2FF02238DF865
:10583800243000228DF8262001278DF827708DF856
:1058480025300AA94FF4407341F8083D3046FAF76D
:105858005FFF39464FF48020FBF716F902950C23B9
:1058680006934FF4805303934FF48063059300230A
:105878000493079301212068FBF78CFA02A920689A
:10588800FBF726FA2368114A934203D125238DF8A2
:10589800043005E00F4A934202D127238DF80430E3
:1058A80000238DF8063001258DF805508DF8075036
:1058B80001A8FAF7AFFF2A4607492068FBF77EFAE6
:1058C80029462068FBF75AFA0BB0F0BD00380140B2
:1058D800000400480048004005010500002103E0DD
:1058E8000B4B5B58435004310A480B4B42189A4201
:1058F800F6D30A4A02E0002342F8043B084B9A42D6
:10590800F9D3FFF7B1FC00F00FF8FEF7DDFFFEE773
:10591800E85C0008000000207400002074000020EB
:10592800402A0020FEE7000070B50E4B0E4CE41A2A
:10593800A41000251E46A54204D056F825309847E5
:105948000135F8E700F0B8F9084C094BE41AA4103F
:1059580000251E46A54204D056F825309847013543
:10596800F8E770BDE05C0008E05C0008E45C000853
:10597800E05C000802440346934202D003F8011B8E
:10598800FAE77047C9B2034610F8012B1AB19142E1
:10599800F9D11846704700290CBF184600207047F7
:1059A80033343435592D000833353435592D000832
:1059B80033363435592D000833323435592D000823
:1059C80037383338BD14000838383338BD14000868
:1059D80039383338BD1400083A383338BD14000854
:1059E80032383338BD1400083337343541180008CD
:1059F800333834350519000833393435011A0008AD
:105A0800333A3435ED1A000833344339991700080E
:105A18003434433999170008353443399917000845
:105A28003234433999170008333543393D18000893
:105A3800343543393D180008353543393D180008D9
:105A4800323543393D1800083232323225200008F9
:105A5800333734354118000833393435011A000812
:105A6800333A3435ED1A0008333B343571230008D6
:105A7800333C3435C1210008333D343591170008D3
:105A8800333E343595170008333735350D1C00087B
:105A980033383535351D000833393535A11C000834
:105AA800333A3535F91D0008333B3535A91E000852
:105AB80032323232252000080000891112239B322D
:105AC8002446AD573665BF74488CC19D5AAFD3BEC6
