:020000040800F2
:100000000060002059530008ED490008F14900083C
:10001000F5490008F9490008FD4900080000000002
:10002000000000000000000000000000014A00087D
:10003000054A000800000000094A00080D4A0008AF
:10004000A1530008A1530008A1530008A1530008C0
:10005000A1530008A1530008A1530008A1530008B0
:10006000A1530008A1530008A1530008A1530008A0
:10007000A1530008A1530008A1530008A153000890
:10008000A1530008A1530008A1530008A153000880
:10009000A1530008A1530008A1530008A153000870
:1000A000A1530008A1530008A1530008A153000860
:1000B000114D0008A1530008A1530008A1530008E6
:1000C000A1530008A1530008A1530008A153000840
:1000D000A15300081D4A00081D4B00081D4C0008D4
:1000E000A1530008A1530008A1530008A153000820
:1000F000A1530008A1530008000000000000000008
:100100000000000000000000594D0008A153000845
:100110000000000000000000A1530008A1530008E7
:10012000A1530008A1530008A1530008A1530008DF
:10013000A1530008A1530008A1530008A1530008CF
:10014000A1530008000000000000000000000000B3
:10015000000000000000000000000000000000009F
:100160000000000000000000A1530008A153000897
:10017000A153000800000000A15300080000000087
:0801800000000000A15300087B
:1001880010B5054C237833B9044B13B10448AFF3C9
:1001980000800123237010BD6800002000000000CB
:1001A80088010008084B10B51BB108490848AFF38F
:1001B80000800848036803B910BD074B002BFBD02B
:1001C800BDE81040184700BF000000006C00002088
:1001D80088010008680000200000000053B94AB9EF
:1001E800002908BF00281CBF4FF0FF314FF0FF3037
:1001F80000F07EB9ADF1080C6DE904CE00F006F808
:10020800DDF804E0DDE9022304B070472DE9F0478A
:100218008C460E460446089D002B50D18A4217464C
:100228006CD9B2FA82FEBEF1000F0BD0CEF12004D9
:1002380020FA04F401FA0EF644EA060C02FA0EF764
:1002480000FA0EF44FEA1749220CBCFBF9F01FFA2A
:1002580087F809FB10C642EA064600FB08F3B342DA
:1002680009D9F61900F1FF3280F02281B34240F239
:100278001F8102383E44F61AA2B2B6FBF9F309FB15
:10028800136642EA064403FB08F8A04509D9E419B5
:1002980003F1FF3280F00A81A04540F20781023B5A
:1002A8003C44C8EB040443EA00400021002D62D01E
:1002B80024FA0EF400232C606B60BDE8F0878B42B3
:1002C80007D9002D55D0002185E841000846BDE832
:1002D800F087B3FA83F1002940F09080B34202D34B
:1002E800824200F2F880841A66EB03060120B446C5
:1002F800002D40D085E81010BDE8F08712B901271D
:10030800B7FBF2F7B7FA87FEBEF1000F35D1F31B42
:100318004FEA17481FFA87FC0121B3FBF8F0220CBB
:1003280008FB103642EA06460CFB00F3B34207D935
:10033800F61900F1FF3202D2B34200F2CE80104625
:10034800F61AA2B2B6FBF8F308FB136642EA0644B3
:100358000CFB03FCA44507D9E41903F1FF3202D2D0
:10036800A44500F2B5801346CCEB040443EA0040F0
:100378009CE729462846BDE8F087CEF1200106FA19
:100388000EF307FA0EF720FA01F94FEA1748CE40A4
:1003980049EA0309B6FBF8FA4FEA194408FB1A665A
:1003A8001FFA87FC44EA06430AFB0CF29A4200FA59
:1003B8000EF40AD9DB190AF1FF3180F087809A42DE
:1003C80040F28480AAF1020A3B449B1A1FFA89F979
:1003D800B3FBF8F108FB113349EA034301FB0CF6C0
:1003E8009E4207D9DB1901F1FF326BD29E4269D9CF
:1003F80002393B449B1B41EA0A418EE7C1F1200EBA
:1004080022FA0EF48B40234320FA0EF706FA01F481
:100418004FEA134C26FA0EF63C43B6FBFCF9270CC0
:100428000CFB19661FFA83F847EA064609FB08F72A
:10043800B74202FA01F200FA01FA08D9F61809F1EE
:10044800FF3041D2B7423FD9A9F102091E44F61B39
:10045800A0B2B6FBFCF40CFB146640EA064704FBAA
:1004680008F8B84507D9FF1804F1FF3028D2B84575
:1004780026D9023C1F4444EA0940C8EB0707A0FB01
:1004880002894F4544464E4614D329D065B3BAEB8A
:10049800040367EB060707FA0EFECB40CF404EEA8F
:1004A800030385E888000021BDE8F0871346F8E6D5
:1004B8001046E0E6B8EB020469EB03060138E5E70D
:1004C8000446D8E7114695E78146C0E78A467CE7A7
:1004D800023B3C4448E708460AE702383E442FE717
:1004E800C245E7D33E46D1E72946BDE8F08700BFBD
:1004F800704700BF034A136823F0030318431060D2
:10050800704700BF00200240054B1B6913F0800FA5
:1005180005D0034B034A5A6002F188325A6070478B
:100528000020024023016745024A136943F0800313
:100538001361704700200240014BD860704700BF2C
:10054800002002400B4BDB6813F0010F0BD1094B65
:10055800DB6813F0100F08D1064BDB6813F0040FAB
:1005680005D00320704701207047022070470420FF
:10057800704700BF0020024010B50446FFF7E2FFB5
:1005880002E0FFF7DFFF013C012801D1002CF8D180
:1005980004B9052010BD00BF38B505464FF430201A
:1005A800FFF7EAFF042811D1094C236943F002033D
:1005B80023616561236943F0400323614FF43020D0
:1005C800FFF7DAFF236923F00203236138BD00BF78
:1005D8000020024030B583B005460C460023019345
:1005E8004FF43020FFF7C8FF042820D1114A1369BF
:1005F80043F001031361A3B22B804FF43020FFF7BF
:10060800BBFF04280ED102350195019B240C1C80E8
:100618004FF43020FFF7B0FF064A136923F00103B7
:10062800136104E0034A136923F00103136103B063
:1006380030BD00BF0020024070B4002341E0012219
:100648009A400C68A2433BD10A79013AD2B2012AF6
:100658001CD885685A000324944025EA0404846061
:1006680085684C7904FA02F22A4382608488A5B22C
:100678009AB20124944025EA040484808588ADB2A6
:100688008C7904FA02F292B22A43828004685A00F2
:10069800032505FA02F624EA0604046006680C79C4
:1006A800944034430460C4689EB27600B54024EA9E
:1006B8000505C560C568CC7904FA02F22A43C26010
:1006C80001330F2BBBD970BC704700BF038A194296
:1006D80001D0012070470020704700BF0AB1816136
:1006E80070470185704700BF30B401F007039B00D5
:1006F8009A40C908083150F821400F2505FA03F33C
:1007080024EA030340F8213050F821301A4340F816
:10071800212030BC704700BF40F0BF6040F400307B
:10072800014BD860704700BF00ED00E0C378FBB113
:10073800154BDB68DB43C3F30223C3F104010F222B
:10074800DA40437803FA01F1837813400B431B0125
:100758000278DBB20D490A4482F80033037858095D
:1007680003F01F03012202FA03F341F82030704717
:1007780003785A0903F01F03012101FA03F3203219
:10078800024941F82230704700ED00E000E100E046
:10079800042805D1054A136843F004031360704721
:1007A800024A136823F004031360704710E000E066
:1007B80070B46F4B5B6803F00C03042B05D0082B57
:1007C80006D0FBB96B4B03601EE06A4B03601BE06D
:1007D800674A53685268C3F38343023312F4803F75
:1007E80004D1654A02FB03F303600DE0604AD26A54
:1007F80002F00F02511C5F4AB2FBF1F202FB03F355
:10080800036001E05B4B0360594A5368C3F3031369
:100818005A4EF35CDBB2056825FA03F3436051686E
:10082800C1F30221715CC9B223FA01F181605468F5
:10083800C4F3C224345DE4B2E340C3605468C4F333
:1008480081344F4E345DE4B2B3FBF4F40461546870
:10085800C4F3C3644B4E345DE4B2B5FBF4F44461B5
:10086800126B12F0400F03D148F21202826102E0CB
:100878004FF4004282613E4A126B12F0100F02D10F
:100888003C4AC26100E0C561394A126B12F0200F80
:1008980002D1384A026200E00562354A126B12F052
:1008A800030F01D1436219E0314B1B6B03F00303C3
:1008B800012B01D1456211E02D4B1B6B03F00303A3
:1008C800022B03D14FF40043436207E0284B1B6B14
:1008D80003F00303032B01D1264B4362244B1B6B0C
:1008E80013F4403F01D181621CE0214B1B6B03F4E0
:1008F8004033B3F5803F01D1856213E01C4B1B6B7D
:1009080003F44033B3F5003F03D14FF4004383624F
:1009180008E0174B1B6B03F44033B3F5403F01D19C
:10092800144B8362124B1B6B13F4402F01D1C1622D
:100938001CE00F4B1B6B03F44023B3F5802F01D150
:10094800C56213E00A4B1B6B03F44023B3F5002F79
:1009580003D14FF40043C36208E0054B1B6B03F45B
:100968004023B3F5402F01D1024BC36270BC7047DE
:100978000010024000127A0000093D001400002017
:10098800000000200400002021B1054B5A691043E3
:1009980058617047024A536923EA00005061704762
:1009A8000010024021B1054B9A69104398617047C5
:1009B800024A936923EA00009061704700100240E0
:1009C80021B1054BDA691043D8617047024AD369EF
:1009D80023EA0000D06170470010024003889BB2F0
:1009E800B0F1804F0ED01C4A90420BD002F58062C5
:1009F800904207D002F58062904203D002F5A832F7
:100A0800904203D123F070034A881343134A90425B
:100A18000CD002F58062904208D002F5084290425C
:100A280004D023F440739BB20A89134303804B68B4
:100A3800C3620B8803850A4B984207D003F580638D
:100A4800984203D003F58063984201D18B7A0386DC
:100A580001238382704700BF00040040001000405B
:100A68000040014029B103889BB243F00103038091
:100A7800704703889BB223F001039BB20380704741
:100A880030B4038C9BB223F010039BB20384048C14
:100A9800A4B28588ADB2028B92B222F4E6430A88EA
:100AA800120292B21A4324F020048B891B019BB2D4
:100AB8001C434B881B019BB22343858002838A68B1
:100AC8008263038430BC7047038B9BB223F40063BA
:100AD800090289B219430183704700BF10B401238A
:100AE8008B409BB2048CDB439BB223400384038C72
:100AF8009BB28A4092B21A4302845DF8044B704755
:100B080022B183899BB21943818170478389C94384
:100B180089B2194081817047028A83890B4011424A
:100B280002D01BB900207047002070470120704791
:100B3800C94389B20182704730B58DB004460D466D
:100B4800036823F001030360436823F440528B6871
:100B580013434360036823F4B05222F00C0249683F
:100B6800EB6819432B690B4313430360836823F431
:100B780040726B69134383606846FFF719FE174B91
:100B88009C4201D1099A05E0154B9C4201D10A9A71
:100B980000E00B9A236813F4004F06D0520029682E
:100BA800B2FBF1F301FB132204E02968B2FBF1F375
:100BB80001FB13222968B2EB510F00D301332268DD
:100BC80012F4004F06D0C3F3420223F00F031B04B4
:100BD8001B0C13439BB2A3810DB030BD00380140FC
:100BE8000044004021B1036843F0010303607047EB
:100BF800036823F001030360704700BF21B1036855
:100C080043F4004303607047036823F40043036020
:100C1800704700BFC1F3080101857047808CC0F39D
:100C28000800704730B4C1F30725C9B2012303FA9D
:100C380001F1022D01D1041D04E00446032D01D168
:100C480000F108041AB123681943216003E02368FE
:100C580023EA0101216030BC704700BFC3690B4221
:100C680001D0012070470020704700BF0162704723
:100C780010B4C1F30722CCB20123A340012A02D148
:100C88000268134006E0022A02D14268134001E0DC
:100C980082681340090C012202FA01F1C26911406D
:100CA80013B119B9002002E0002000E001205DF82E
:100CB800044B7047090C012303FA01F101627047E4
:100CC80010B400231A4604E0C45C2244D2B20133B3
:100CD800DBB20C4C217801F10A04A342F4DB43187F
:100CE8009B7A9A4206D10144CB7A162B05D04FF055
:100CF800FF3003E04FF0FF3000E000205DF8044BC8
:100D0800704700BF650800200B0901F00F010209B8
:100D180000F00F00033BDBB2092B0DD802290DD9D7
:100D28000C290DD8022A0DD90C2A0DD802280DD964
:100D38000C280DD90020704700207047002070470C
:100D4800002070470020704700207047002070473F
:100D58000120704710B43339C1F3031401F00F01B7
:100D68003338C0F3031300F00F00642202FB01F1D3
:100D78004FF47A7202FB041403EB83035A002244F3
:100D880010445DF8044B7047F0B5333AC2F30217CC
:100D980002F00F043339C1F3031601F00F0C333896
:100DA800C0F3031500F00F0042F2107E0EFB04FEA4
:100DB8000B4901FB07E74FF47A7101FB06766424BF
:100DC80004FB0C6105EB85056C000C4404441C60B5
:100DD800197901311971C2F3C0125A71F0BD00BFFF
:100DE800A0860100F0B482B002AC04E903000698C2
:100DF800009E2849A1FB0647FF08A1FB0754E40809
:100E080004EB840465007C1B2401E4B207EB87072C
:100E18007D00751BEDB22C43333414701E4CA4FBBB
:100E28000624A409A1FB0452D20802EB8202550051
:100E3800621B1201D5B2194FA7FB06277F09A1FB38
:100E48000724E20802EB820254003A1BD2B22A437A
:100E580033321A707309124AA2FB0332D209120103
:100E6800D2B2104BA3FB0636760BA1FB0613D908AA
:100E780001EB81014B00F11AC9B211433331C9B2F8
:100E880001709DF8053013B161F07F01017002B067
:100E9800F0BC7047CDCCCCCCD34D62101F85EB5144
:100EA800C55A7C0A5917B7D130B413790479A342CB
:100EB80003D90D79AB4200F2AF80A34234D10D794A
:100EC800AB4231D90368002B00F0A88011680029D3
:100ED80000F0A6804079002840F0A4805479002CC6
:100EE80040F0B5808B420CD903EB83031801594BB2
:100EF800A3FB00035B09994238BF19461160012022
:100F0800A5E001EB81042001524CA4FB0040B3EBA7
:100F1800501F06D2642101FB03F34F49A1FB0331A3
:100F280089091160012092E00D79AB4230D1A342CA
:100F38002ED90B68002B77D01468002C76D048790E
:100F4800002875D15179002940F08180A3420CD93D
:100F580003EB830319013F4BA3FB01135B099C427D
:100F680038BF1C461460012071E004EB84000101C5
:100F78003848A0FB0101B3EB511F06D2642404FBDF
:100F880003F3354CA4FB0334A409146001205EE08C
:100F9800A3424FD1AB424FD10368002B4ED00C680F
:100FA800002C4DD01568002D4CD0407900284BD12D
:100FB800497900294BD15079002847D11946A342D5
:100FC80038BF21468D4215D905EB8500010121481E
:100FD800A0FB0101A34228BF2346B3EB511F06D84B
:100FE800642505FB03F31C4DA5FB0335AD0915600E
:100FF80001202CE0A34228BF23469D4227D201EBC3
:1010080081010B011349A1FB03135B099D4238BF02
:101018001D46156001201AE0002018E0002016E0A7
:10102800002014E0002012E0002010E000200EE074
:1010380000200CE001200AE0012008E0002006E082
:10104800002004E0002002E0002000E0084630BC58
:10105800704700BF1F85EB51CDCCCCCC30B40468B1
:101068000B681C44136823440324B3FBF4F30B24D8
:1010780004FB03F40A25B4FBF5F404600B6003EBEE
:10108800C303B3FBF5F3136030BC704730B583B0CE
:101098000446C37A323B042B00F22C81DFE813F0BC
:1010A80005002A01AB00D6000101934D2B46027CB6
:1010B800C17B807BFFF768FE6B79002B40F01A81BB
:1010C8008E4B5B79002B40F015818D4B5B79002BA3
:1010D80040F010812B68002B00F00C81874A1268C1
:1010E800002A00F0078186490868002800F002817C
:1010F8001146824238BF0146994238BF194601EB72
:1011080081010D017F49A1FB05151146824228BFC7
:101118000146994228BF1946B1EB551F80F0EA8075
:10112800934207D3824205D3754A74497248FFF740
:1011380095FF30E0834207D3824205D86F4A704951
:101148006D48FFF78BFF26E0934207D8834205D30B
:101158006B4A69496948FFF781FF1CE0824207D35F
:10116800834205D8644A66496448FFF777FF12E06E
:10117800834207D8934205D3604A5F496048FFF726
:101188006DFF08E0824206D8934204D85A4A5B4968
:101198005B48FFF763FF584D04F11003009304F117
:1011A8000F0304F10E0295E80300FFF71BFE04F19C
:1011B8001303009304F1120304F1110295E80300EC
:1011C800FFF710FE04F11603009304F1150304F170
:1011D800140295E80300FFF705FE0022134604E019
:1011E800E15C0A44D2B20133DBB2162BF8D9E275BE
:1011F800162323767EE0404B027CC17B807BFFF781
:10120800C3FD237C333B13F0800F73D13A4A3C492A
:101218003A48FFF749FE00286CD0374904F110031B
:10122800009304F10F0304F10E0203C9FFF7DAFD7E
:101238000022134604E0E15C0A44D2B20133DBB277
:10124800102BF8D962741623A37453E02B4B027C3D
:10125800C17B807BFFF798FD237C333B13F0800F25
:1012680048D1264A26492448FFF71EFE002841D0C7
:10127800224904F11003009304F10F0304F10E0254
:1012880003C9FFF7AFFD0022134604E0E15C0A44FE
:10129800D2B20133DBB2102BF8D962741623A374CF
:1012A80028E0174B027CC17B807BFFF76DFD237C18
:1012B800333B13F0800F1DD1114A10490E48FFF738
:1012C800F3FDB8B10E4904F11003009304F10F03C4
:1012D80004F10E0203C9FFF785FD0022134604E05E
:1012E800E15C0A44D2B20133DBB2102BF8D9627444
:1012F8001623A37403B030BD6C0C0020580C0020DA
:10130800600C00201F85EB51704700BF333933381C
:10131800C0B240EA012080B2704700BF10B5044651
:10132800837A323B082B72D8DFE803F03D71717184
:10133800710513212F00C17B807BFFF7E7FF20F4A5
:10134800A87083B2DAB23332A2731B0A3333E37361
:101358005DE0C17B807BFFF7D9FF20F4A87083B2E2
:10136800DAB23332A2731B0A3333E3734FE0C17B23
:10137800807BFFF7CBFF20F4A87083B2DAB2333258
:10138800A2731B0A3333E37341E0C17B807BFFF711
:10139800BDFF20F0080083B2DAB23332A2731B0A11
:1013A8003333E37333E0417D007DFFF7AFFF20F473
:1013B800A87083B2DAB2333222751B0A33336375ED
:1013C800E17DA07DFFF7A2FF20F4A87083B2DAB216
:1013D8003332A2751B0A3333E375617E207EFFF733
:1013E80095FF20F4A87083B2DAB2333222761B0A52
:1013F80033336376E17EA07EFFF788FF20F0080094
:1014080083B2DAB23332A2761B0A3333E37600238F
:101418001A4603E0A15C0B44DBB2013203490978A8
:1014280001F10A008242F5DB235410BD6508002053
:10143800114981FB0031C317C3EBA1114FF47A7333
:1014480003FB11010D4A82FB0132CB17C3EB621279
:10145800642303FB12120A4880FB0230D317C3EB44
:10146800A00000EB80014B00D31A03F00F0303EB3D
:1014780000103330C0B27047D34D62101F85EB5156
:10148800676666660C4981FB0031C317C3EBA1117F
:101498000B0103F47F624FF47A7303FB11030748CF
:1014A80080FB0310DB17C3EB601303F00F03134437
:1014B80003F13300C0B27047D34D62101F85EB5162
:1014C80030B4333BC3F3031404EB8404650003F026
:1014D8000F032B44333AC2F3031404EB840465006E
:1014E80002F00F022A4442F2107404FB02F20D4C7F
:1014F80004FB03233339C1F3031202EB82025400C5
:1015080001F00F012144642202FB01313338C0F39A
:10151800031303EB83035A0000F00F001044084440
:1015280030BC704740420F002DE9F0432C4DA5FB1D
:10153800004C4FEA5C18642606FB1808294CA4FBEB
:1015480008E74FEAD70E0EEB8E094FEA4907C7EBBB
:10155800080747EA0E1733370F704FEA5C1CA5FBE4
:101568000C1E4FEA5E1E06FB1ECEA4FB0E71CF08B2
:1015780007EB870C4FEA4C01C1EB0E0141EA07115A
:1015880033311170184AA2FB0012520BA5FB021747
:101598007F0906FB1727A4FB0712D10801EB810E70
:1015A8004FEA4E029646BA1A42EA011233321A70CC
:1015B8000E4BA3FB0030800CA5FB00356D0906FB24
:1015C8001505A4FB0534E40804EB84025300EB1A68
:1015D80043EA04143334079B1C70BDE8F08300BF52
:1015E8001F85EB51CDCCCCCC5917B7D183DE1B432B
:1015F800704700BF704700BF2DE9F84F064690F8C6
:101608000980027A912A03D0B12A03D0002302E08C
:10161800092300E00923922A02D0B22A03D101E06B
:10162800042300E0042347469946C3EB080303EB71
:10163800D373C3F34F0315E009F10A044FEA450ACF
:10164800544409F10B039A44DFF84CB0DBF800006E
:10165800FFF7EEFE3055DBF80000FFF713FF06F842
:101668000A002B465D1EADB2002BE5D108F10A0237
:10167800B118B35405E0F05C0A7802440A700133EB
:101688009BB207F10A029342F5DB08F10B0810231D
:1016980006F80830BDE8F88F60000020704700BFEA
:1016A80038B50446837B342B02D10021244A1170BB
:1016B800332B02D1FF22224B1A70214B1978214873
:1016C80002F0B6FD10B9D423237201E094232372EB
:1016D80000236372A37205E0E15CA27A0A44A27255
:1016E8000133DBB2092BF7D91623E3720022164B1C
:1016F8001A70164D2B680C229968204603F06EFD6F
:101708002B68986803F0D6FC10B9114803F0F2FC76
:10171800104D2B680C229968204603F05FFD2B685A
:10172800986803F0C7FC50B90B4C00220B492046BF
:10173800FFF778FA01220A492046FFF773FA38BD05
:1017480064080020141F03086508002034000020E6
:10175800004800405C0000200044004005010500EE
:101768000701070070B50446867BC17B3046FFF74A
:10177800F1FA0546617C207CFFF7ECFA85421CDD16
:10178800B5F52F6F19DAB0F5966F16DD274B1D608A
:10179800274B18603146274802F04AFDE17B26486E
:1017A80002F046FD217C254802F042FD617C244878
:1017B80002F03EFD9423237201E0D4232372002318
:1017C8006372A37204E0E15CA27A0A44A272013354
:1017D800092BF8DD1623E37200221A4B1A701A4DF2
:1017E8002B680C229968204603F0F8FC2B6898684F
:1017F80003F060FC10B9154803F07CFC144D2B680D
:101808000C229968204603F0E9FC2B68986803F0DD
:1018180051FC50B90F4C00220F492046FFF702FA3D
:1018280001220E492046FFF7FDF970BD2020002057
:1018380034200020001F0308041F0308081F0308A2
:101848000C1F0308650800203400002000480040F1
:101858005C00002000440040050105000701070066
:1018680038B50446912303720C2343724FF42F605A
:10187800FFF7DEFDA0734FF42F60FFF703FEE07360
:101888004FF49660FFF7D4FD20744FF49660FFF78D
:10189800F9FD6074244B1D682846FFF7C9FDA07444
:1018A8002846FFF7EFFDE074204B1D682846FFF738
:1018B800BFFD20752846FFF7E5FD60750023A37579
:1018C80004E0E15CA27D0A44A2750133152BF8DD22
:1018D8001623E3750C22164B1A70164D2B6899685F
:1018E800204603F07BFC2B68986803F0E3FB10B9F3
:1018F800114803F0FFFB114D2B6818229968204608
:1019080003F06CFC2B68986803F0D4FB50B90C4CBE
:1019180000220C492046FFF785F901220A49204692
:10192800FFF780F938BD00BF2020002034200020B8
:101938006508002034000020004800405C000020BA
:1019480000440040050105000701070070B5044682
:1019580040F69803334A1360334A1360334A1360DE
:10196800FF21334B1970334802F062FC324E40F6C7
:101978002E103060314D40F2BC732B60FFF758FDDC
:1019880001462F4802F054FC3068FFF77BFD014602
:101998002C4802F04DFC2868FFF74AFD01462A480A
:1019A80002F046FC2868FFF76DFD0146274802F063
:1019B8003FFC9423237200236372A37204E0E15C6A
:1019C800A27A0A44A2720133092BF8DD1623E372C6
:1019D80000221F4B1A701F4D2B680C229968204655
:1019E80003F0FCFB2B68986803F064FB10B91A48F5
:1019F80003F080FB194D2B680C229968204603F0F0
:101A0800EDFB2B68986803F055FB50B9144C002285
:101A180014492046FFF706F9012213492046FFF72B
:101A280001F970BD600000203C0000202400002067
:101A380064080020141F0308202000203420002000
:101A4800001F0308041F0308081F03080C1F0308CE
:101A58006508002034000020004800405C00002099
:101A680000440040050105000701070038B5044699
:101A7800D423037200234372837205E0E15CA27AE7
:101A88000A44A2720133DBB2092BF7D91623E37299
:101A98000022144B1A70144D2B680C2299682046AA
:101AA80003F09CFB2B68986803F004FB10B90F48FF
:101AB80003F020FB0E4D2B680C229968204603F09A
:101AC8008DFB2B68986803F0F5FA50B9094C002291
:101AD80009492046FFF7A6F8012208492046FFF7E2
:101AE800A1F838BD650800203400002000480040F7
:101AF8005C000020004400400501050007010700C4
:101B080038B50446D423037200234372837205E078
:101B1800E15CA27A0A44A2720133DBB2092BF7D93D
:101B28001623E3720022144B1A70144D2B680C22F2
:101B38009968204603F052FB2B68986803F0BAFABC
:101B480010B90F4803F0D6FA0E4D2B680C2299688D
:101B5800204603F043FB2B68986803F0ABFA50B9B2
:101B6800094C002209492046FFF75CF80122084980
:101B78002046FFF757F838BD6508002034000020DC
:101B8800004800405C0000200044004005010500BA
:101B98000701070030B585B00546274BDB6802937F
:101BA80000248DF80D4000F11003009300F10F039D
:101BB80000F10E0204A911E90300FFF713F99123BC
:101BC8002B7207236B726C74234605E0E95C6A7C10
:101BD8000A446A740133DBB2102BF7D91623AB74AD
:101BE8000722164B1A70164C236813229968284648
:101BF80003F0F4FA2368986803F05CFA10B9114806
:101C080003F078FA104C236813229968284603F0E9
:101C1800E5FA2368986803F04DFA50B90B4C002296
:101C28000B492046FEF7FEFF01220A492046FEF72F
:101C3800F9FF05B030BD00BF242000206508002052
:101C480034000020004800405C00002000440040B0
:101C5800050105000701070038B504469123037202
:101C680006234372204B9D682846FFF7E1FBA073CB
:101C78002846FFF707FCE0730023237405E0E15CC6
:101C8800227C0A4422740133DBB20F2BF7D91623C6
:101C980063740622154B1A70154D2B681222996829
:101CA800204603F09BFA2B68986803F003FA10B9F2
:101CB800104803F01FFA104D2B681222996820462D
:101CC80003F08CFA2B68986803F0F4F950B90B4CC0
:101CD80000220B492046FEF7A5FF012209492046AC
:101CE800FEF7A0FF38BD00BF2420002065080020B3
:101CF80034000020004800405C0000200044004000
:101D0800050105000701070038B504469123037251
:101D180006234372204B1D682846FFF789FBA073F2
:101D28002846FFF7AFFBE0730023237405E0E15C6E
:101D3800227C0A4422740133DBB20F2BF7D9162315
:101D480063740022154B1A70154D2B68122299687E
:101D5800204603F043FA2B68986803F0ABF910B9F2
:101D6800104803F0C7F9104D2B68122299682046D5
:101D780003F034FA2B68986803F09CF950B90B4CBF
:101D880000220B492046FEF74DFF01220949204653
:101D9800FEF748FF38BD00BF24200020650800205A
:101DA80034000020004800405C000020004400404F
:101DB800050105000701070038B5037A912B4CD1BE
:101DC80006234372254B1A782549A1FB023149099C
:101DD800642303FB1123DBB2224AA2FB0342D2088D
:101DE80002EB82056C001B1B43EA02138373C17369
:101DF8000023037404E0C15C027C0A4402740133CA
:101E08000F2BF8D90446162343740422164B1A7074
:101E1800164D2B681222996803F0E0F92B68986830
:101E280003F048F910B9124803F064F9114D2B6812
:101E380012229968204603F0D1F92B68986803F0BC
:101E480039F950B90C4C00220C492046FEF7EAFE3D
:101E580001220B492046FEF7E5FE38BD3820002058
:101E68001F85EB51CDCCCCCC650800203400002078
:101E7800004800405C0000200044004005010500C7
:101E88000701070038B504469123037208234372FB
:101E9800032383730523C373112303741823437423
:101EA8000023837405E0E15CA27C0A44A274013338
:101EB800DBB2112BF7D91623E3740822144B1A70DE
:101EC800144D2B6814229968204603F087F92B6873
:101ED800986803F0EFF810B90F4803F00BF90F4DAD
:101EE8002B6814229968204603F078F92B689868C3
:101EF80003F0E0F850B90A4C00220A492046FEF7E0
:101F080091FE012208492046FEF78CFE38BD00BF2D
:101F18006508002034000020004800405C000020D4
:101F280000440040050105000701070070B504469C
:101F3800817B0809E27B150905EB85056B0002F03A
:101F48000F02134400EB8002500003EB830303EB02
:101F580083039A00831801F00F010B4413F0FF0567
:101F680011D0264E2946304602F062F9244B1D70E6
:101F7800304602F0A3F9854202D19423237204E08B
:101F8800D423237201E0D423237200236372A37243
:101F980005E0E15CA27A0A44A27201339BB2092BE4
:101FA800F7D91623E3720022164B1A70164D2B68C8
:101FB8000C229968204603F011F92B68986803F001
:101FC80079F810B9114803F095F8114D2B680C22D7
:101FD8009968204603F002F92B68986803F06AF8BC
:101FE80050B90C4C00220C492046FEF71BFE01227A
:101FF8000A492046FEF716FE70BD00BF101F0308F1
:1020080038200020650800203400002000480040E7
:102018005C0000200044004005010500070107009E
:1020280070B50446857BC17B2846FEF793FE40F6D3
:10203800970398421CDC224B1860224E29463046F2
:1020480002F0F6F8E17B204802F0F2F8304602F0A0
:1020580035F9A37B984208D11B4802F02FF9E37B9E
:10206800984202D19423237204E0D423237201E01E
:10207800D423237200236372A37205E0E15CA27A81
:102088000A44A27201339BB2092BF7D91623E372D3
:102098000E4D2B680C229968204603F09FF82B6898
:1020A800986803F007F850B9094C002209492046FE
:1020B800FEF7B8FD012208492046FEF7B3FD70BDC2
:1020C80034200020081F03080C1F03085C000020B0
:1020D80000440040050105000701070070B582B003
:1020E8000446912303720C234372304802F0E4F84B
:1020F80006462F4802F0E0F80546B6F1FF3F00D14A
:10210800002604F11103009304F1100304F10F02F7
:1021180004F10E013046FFF707FAB5F1FF3F00D191
:10212800002504F11503009304F1140304F11302CC
:1021380004F112012846FFF7F7F90023A37505E01B
:10214800E15CA27D0A44A2750133DBB2152BF7D9F5
:102158001623E3750022174B1A70174D2B681822A7
:102168009968204603F03AF82B68986802F0A2FFB5
:1021780010B9124802F0BEFF114D2B681822996859
:10218800204603F02BF82B68986802F093FF50B9AB
:102198000C4C00220C492046FEF744FD01220B4955
:1021A8002046FEF73FFD02B070BD00BF00200308C7
:1021B8003C20030865080020340000200048004047
:1021C8005C000020004400400501050007010700ED
:1021D80070B50446857BC17B2846FEF7BBFD40F6FB
:1021E800980398421EDD234B1860234E294630463B
:1021F80002F01EF8E17B214802F01AF8304602F09E
:102208005BF8C0B2A37B984209D11C4802F054F88D
:10221800C0B2E37B984202D19423237204E0D42312
:10222800237201E0D423237200236372A37205E0B2
:10223800E15CA27A0A44A27201339BB2092BF7D956
:102248001623E3720E4D2B680C229968204602F083
:10225800C5FF2B68986802F02DFF50B9094C002281
:1022680009492046FEF7DEFC012208492046FEF710
:10227800D9FC70BD20200020001F0308041F03089C
:102288005C0000200044004005010500070107002C
:1022980070B50446817BFF2910D1324D2970324E2A
:1022A800304601F0C5FF304602F008F82B78984216
:1022B80001D1942300E0D42323721BE0C1B9FEF7B7
:1022C80023F92A48FEF768F9FEF72EF9A17B254D78
:1022D8002970254E304601F0ABFF304601F0EEFF85
:1022E8002B78984201D1942300E0D423237201E093
:1022F800D423037200236372A37205E0E15CA27A1F
:102308000A44A27201339BB2092BF7D91623E37250
:102318000022174B1A70174D2B680C22996820461B
:1023280002F05CFF2B68986802F0C4FE10B91248EE
:1023380002F0E0FE114D2B680C229968204602F04D
:102348004DFF2B68986802F0B5FE50B90C4C00227E
:102358000C492046FEF766FC01220B492046FEF791
:1023680061FC70BD4C000020181F03080020030802
:102378006508002034000020004800405C00002070
:1023880000440040050105000701070038B5044670
:10239800837BCBB9294DFF21284601F049FFFF2255
:1023A800274B1A70FEF7B0F82648FEF7F5F8FEF747
:1023B800BBF8284601F082FFFF2802D1942323723C
:1023C80004E0D423237201E0D42303720023637250
:1023D800A37205E0E15CA27A0A44A27201339BB2BF
:1023E800092BF7D91623E3720022174B1A70174DE1
:1023F8002B680C229968204602F0F0FE2B6898683A
:1024080002F058FE10B9124802F074FE114D2B6804
:102418000C229968204602F0E1FE2B68986802F0C9
:1024280049FE50B90C4C00220C492046FEF7FAFB35
:1024380001220B492046FEF7F5FB38BD181F03089B
:102448004C0000200020030865080020340000200C
:10245800004800405C0000200044004005010500E1
:1024680007010700F8B506460D463A4B1B78012BC5
:1024780011D013B1022B41D065E0012202F088FE91
:102488000446002864D02B78682B5ED10123314A9A
:102498001370314A13700922691C304602F078FE25
:1024A800074680B914212D4B188802F05DFD0446BB
:1024B80000284DD00023274A1370274A1370274A53
:1024C80013803C4644E0EB79682B04D16B7A03F126
:1024D8000C02FE2A07DD00241E4B1C701E4B1C70CC
:1024E8001E4B1C8034E01E4A13700222194B1A70CE
:1024F8001A4B00221A800122174B1A70184B1A78AF
:10250800023205F10A01304602F042FE044668B97B
:102518001421124B188802F027FDC0B100230D4A80
:1025280013700D4A13700D4A138011E00023094AF5
:102538001370094A1370094A13802846FEF7C0FB36
:1025480030B1002404E0002402E0002400E0044646
:102558002046F8BD680C00204A1800204C180020BE
:102568006508002010B500231CE0184A12F8331043
:10257800827A914214D1154A02EBC3025178C27A89
:1025880091420DD1114A02EBC3029178027B91422C
:1025980006D10E4A02EBC304E178427B914203D094
:1025A8000133DBB2342BE0D9342B0DD8074A02EBC8
:1025B800C3035B68064A934206D0064A934203D097
:1025C800054A934200D0984710BD00BF1C5400082C
:1025D80095100008111300082513000810B50023F2
:1025E8001CE0134A12F83310827A914214D1104A2F
:1025F80002EBC3025178C27A91420DD10C4A02EB28
:10260800C3029178027B914206D1094A02EBC304C6
:10261800E178427B914203D00133DBB2102BE0D941
:10262800102B04D8024A02EBC3035B68984710BD1D
:10263800C455000870B50446C37A323B042B00F237
:10264800E580DFE813F00500E3005F008B00B700CA
:10265800912303720A2343726D4B1D686D4B1E68EC
:10266800B54206DC6C4B1B689D4204DA40F69805BF
:1026780001E040F69805664B1D602846FEF7D8FE37
:10268800A0732846FEF7FEFEE073644B1D68AE4259
:1026980006DB614B1B689D4204DA40F6980501E0B1
:1026A80040F698055D4B1D602846FEF7C1FE207474
:1026B8002846FEF7E7FE6074594B1D68AE4206DBFC
:1026C800554B1B689D4204DA40F6980501E040F638
:1026D8009805534B1D602846FEF7AAFEA0742846AD
:1026E800FEF7D0FEE07400231A4604E0E15C0A44D9
:1026F800D2B20133DBB2132BF8D9227516236375D6
:10270800012070BD424B1D68424B1B689D4206DC90
:10271800414B1B689D4204DA40F6980501E040F6FB
:1027280098053B4B1D60912323720623637228464C
:10273800FEF77EFEA0732846FEF7A4FEE073002392
:102748001A4604E0E15C0A44D2B20133DBB20F2B33
:10275800F8D9227416236374012070BD2F4B1D68AD
:102768002C4B1B689D4206DC2B4B1B689D4204DAF0
:1027780040F6980501E040F69805284B1D60912326
:102788002372062363722846FEF752FEA07328467A
:10279800FEF778FEE07300231A4604E0E15C0A4481
:1027A800D2B20133DBB20F2BF8D92274162363742B
:1027B800012070BD1A4B1D68164B1B689D4206DC34
:1027C800154B1B689D4204DA40F6980501E040F677
:1027D8009805134B1D6091232372062363722846C4
:1027E800FEF726FEA0732846FEF74CFEE073002392
:1027F8001A4604E0E15C0A44D2B20133DBB20F2B83
:10280800F8D9227416236374012070BD002070BDAE
:102818006000002020200020342000203C00002000
:1028280024000020F8B5194801F048FD184B18702D
:10283800184801F043FD0446174801F03FFD0546DE
:10284800164801F03BFD0646154801F037FD0746DE
:10285800FF2C0ED1FF2D0CD1FF2E0AD1FF2808D155
:1028680040F62E120F4B1A6040F2BC720E4B1A60E3
:10287800F8BD29462046FEF76DFA0A4B186039461E
:102888003046FEF767FA084B1860F8BD141F0308B6
:1028980064080020001F0308041F0308081F03081A
:1028A8000C1F03082020002034200020F0B51F4B07
:1028B8001E68A6F596611E4B1D68AA1B91FBF2F1D6
:1028C8000131C5F52F6494FBF2F4854216DA013420
:1028D800B0F52F6F12DCAB1898420CDC451BA0EB4F
:1028E8004500F0BD013303FB02F705EB070E704509
:1028F80002DCC01BF0BD0123A342F3DB864214DDDA
:10290800B0F5966F11DBB31A98420BDB361A00EB61
:102918004600F0BD013303FB02F4351BA84202DB7D
:102928002044F0BD01238B42F4DBF0BD34200020AD
:1029380020200020F8B57A4B1B78002B00F0EF80A0
:10294800037A912B40F0EB80837A332B40F0E780B9
:10295800037B342B40F0E380437B352B40F0DF8052
:102968000446C57A322D62D1867BC77B394630460C
:10297800FEF7CAF9C8B139463046FEF7EBF9694B9C
:102988001860694B1B68984203DC684B1B689842C7
:102998000BDAFFF78BFF0646624B1860FEF748FD1F
:1029A800A0733046FEF76EFDE073267C677C3946DF
:1029B8003046FEF7A9F9C8B139463046FEF7CAF9DC
:1029C8005B4B1860584B1B68984203DC574B1B68DD
:1029D80098420BDAFFF76AFF0646554B1860FEF778
:1029E80027FD20743046FEF74DFD6074A67CE77C19
:1029F80039463046FEF788F9C8B139463046FEF701
:102A0800A9F94C4B1860484B1B68984203DC474BAC
:102A18001B6898420BDAFFF749FF0646454B1860DA
:102A2800FEF706FDA0743046FEF72CFDE074342D49
:102A380020D1A67BE77B39463046FEF765F9C8B159
:102A480039463046FEF786F9364B1860364B1B6818
:102A5800984203DC354B1B6898420BDAFFF726FFD8
:102A68000646304B1860FEF7E3FCA0733046FEF7CD
:102A780009FDE073352D20D1A67BE77B394630462A
:102A8800FEF742F9C8B139463046FEF763F9284BDC
:102A98001860254B1B68984203DC244B1B6898423E
:102AA8000BDAFFF703FF0646214B1860FEF7C0FC60
:102AB800A0733046FEF7E6FCE073362D20D1A57BE7
:102AC800E67B31462846FEF71FF9C8B1314628464D
:102AD800FEF740F9174B1860134B1B68984203DC4C
:102AE800124B1B6898420BDAFFF7E0FE0546114BC4
:102AF8001860FEF79DFCA0732846FEF7C3FCE07340
:102B080000231A4604E0E15C0A44D2B20133DBB286
:102B18000949097801F10A008342F4DB2254F8BD1F
:102B280064080020600000202020002034200020BD
:102B38003C000020240000206508002008B5012280
:102B4800044B1A700023044A1370044A1380FFF7D9
:102B5800F1FE08BD392000204E180020481800203A
:102B680008B5174BC8221A60164A5A60164801F071
:102B7800A3FBB0F1FF3F06D15021114B99601248D9
:102B880001F056FB01E00E4B9860104801F094FBF1
:102B9800B0F1FF3F10D10A4843688268B3FBF2F2F4
:102BA80002EB4202D3000A49A1FB0331C908C16004
:102BB800064801F03DFB08BD014BD86008BD00BFC9
:102BC8002420002000650400201F03081C1F0308A0
:102BD800CDCCCCCC08B5084801F070FB074B187079
:102BE800074801F06BFBFF2803D15A22054B1A70E6
:102BF80008BD044B187008BD181F03084C000020BE
:102C0800101F0308382000202DE9F04106468846A9
:102C18001746084601F050FB0546384601F04CFBC4
:102C2800B5F1FF3F03D00446B0F1FF3F0AD131466A
:102C3800404601F0FDFA3146384601F0F9FA3046CF
:102C4800BDE8F081B5420ED9751B17482844174BCB
:102C58001A78A2FB000164220023323041F10001FE
:102C6800FDF7BCFA0BE0751B104B1878A0FB0501AB
:102C780064220023323041F10001FDF7AFFA044429
:102C8800094B9C4205D904F17A4404F5212404F641
:102C980001743146404601F0CBFA2146384601F02E
:102CA800C7FA2046BDE8F081FFE0F505382000208E
:102CB800834B1B78002B00F001812DE9F04383B092
:102CC8000446437C027CC17B807BFEF7F9FB05460A
:102CD800E37A323B052B00F28180DFE803F03F0303
:102CE800272D3339237B482B0ED002D8342B05D01F
:102CF80074E05C2B0ED0702B12D06FE0714A7249D1
:102D0800FFF782FF054669E0704A7149FFF77CFFCB
:102D1800054663E06F4A7049FFF776FF05465DE0B8
:102D28006E4A6F49FFF770FF054657E06D4A6E49D6
:102D3800FFF76AFF054651E06C4A6D49FFF764FFEB
:102D480005464BE06B4A6C49FFF75EFF054645E0D8
:102D58006A4A6B49FFF758FF05463FE0637D227DCD
:102D6800E17CA07CFEF7ACFB5E4A5F49FFF74CFFB5
:102D78008146637E227EE17DA07DFEF7A1FB5B4A52
:102D88005B49FFF741FF8046637F227FE17EA07E9B
:102D9800FEF796FB574A5849FFF736FF074694F85F
:102DA800213094F82020E17FA07FFEF789FB534A69
:102DB8005349FFF729FF0646637C227CE17BA07B11
:102DC800FEF77EFB0146404801F032FA09EB0805A0
:102DD8003D44354429463B4801F02AFAE37A322B30
:102DE8001CD068D3372B66D804F11103009304F183
:102DF800100304F10F0204F10E012846FEF794FBBC
:102E08000023A37405E0E15CA27C0A44A2740133A8
:102E18009BB2112BF7D91623E3744CE004F111038C
:102E2800009304F1100304F10F0204F10E01284687
:102E3800FEF77AFB04F11503009304F1140304F17F
:102E4800130204F112014846FEF76EFB04F1190360
:102E5800009304F1180304F1170204F11601404627
:102E6800FEF762FB04F11D03009304F11C0304F157
:102E78001B0204F11A013846FEF756FB04F1210340
:102E8800009304F1200304F11F0204F11E013046EF
:102E9800FEF74AFB002384F8223007E0E15C94F84F
:102EA80022200A4484F8222001339BB2212BF5D931
:102EB800162384F8233003B0BDE8F083704700BFC1
:102EC8004C00002074200308702003089C2003088D
:102ED80098200308A4200308A0200308AC200308B6
:102EE800A82003087C20030878200308842003080E
:102EF800802003088C2003088820030894200308F6
:102F0800902003084A4B1B78002B00F08F802DE996
:102F1800F04182B00446437D027DC17C807CFEF78F
:102F2800CFFA444A4449FFF76FFE804604F115037F
:102F3800009304F1140304F1130204F11201FEF7E3
:102F4800F3FA637E227EE17DA07DFEF7B9FA3B4A63
:102F58003B49FFF759FE064604F11903009304F1B3
:102F6800180304F1170204F11601FEF7DDFA637F76
:102F7800227FE17EA07EFEF7A3FA324A3249FFF7AC
:102F880043FE054604F11D03009304F11C0304F1FC
:102F98001B0204F11A01FEF7C7FA94F8213094F8DD
:102FA8002020E17FA07FFEF78BFA284A2849FFF707
:102FB8002BFE074604F12103009304F1200304F1DA
:102FC8001F0204F11E01FEF7AFFA637C227CE17B4D
:102FD800A07BFEF775FA01461E4801F029F9464420
:102FE8002E44BD1929461C4801F022F904F11103A9
:102FF800009304F1100304F10F0204F10E012846B6
:10300800FEF792FA002384F8223007E0E15C94F896
:1030180022200A4484F8222001339BB2212BF5D9BF
:10302800162384F8233002B0BDE8F081704700BF52
:103038004C00002040200308042003084420030813
:1030480008200308482003080C2003084C20030824
:1030580010200308002003083C20030808B5044B8F
:103068001A78A0FB020164220023FDF7B7F808BD17
:1030780038200020504B1B78002B00F09B8010B5A7
:1030880082B00446C37A322B72D1437C027CC17B66
:10309800807BFEF715FAFFF7E1FF04F111030093B7
:1030A80004F1100304F10F0204F10E01FEF73CFADB
:1030B800637D227DE17CA07CFEF702FAFFF7CEFF5C
:1030C80004F11503009304F1140304F1130204F14D
:1030D8001201FEF729FA637E227EE17DA07DFEF7CC
:1030E800EFF9FFF7BBFF04F11903009304F118038C
:1030F80004F1170204F11601FEF716FA637F227F26
:10310800E17EA07EFEF7DCF9FFF7A8FF04F11D03BE
:10311800009304F11C0304F11B0204F11A01FEF7E9
:1031280003FA94F8213094F82020E17FA07FFEF77D
:10313800C7F9FFF793FF04F12103009304F120037B
:1031480004F11F0204F11E01FEF7EEF9002384F8D2
:10315800223007E0E15C94F822200A4484F8222017
:1031680001339BB2212BF5D9162384F823301FE0B5
:10317800437C027CC17B807BFEF7A2F9FFF76EFFE0
:1031880004F11103009304F1100304F10F0204F198
:103198000E01FEF7C9F90023A37405E0E15CA27CE7
:1031A8000A44A27401339BB2112BF7D91623E37496
:1031B80002B010BD704700BF4C0000202DE9F0415F
:1031C8000D460378002B00F00C81012B00F00B81D9
:1031D800022B2FD1417811F0800F01D101231DE07E
:1031E80001F07F01012902D18178022316E002292A
:1031F80005D18178C37843EA012103230EE003292E
:1032080003D181780904042308E0042903D18178D3
:103218000906052302E000234FF0FF310029C0F220
:10322800EA800133002202E001339BB201328A4274
:10323800FADBD9E0032B5AD1467816F0800F01D17A
:1032480001211DE006F07F06012E02D186780221B9
:1032580016E0022E05D18678C37843EA06260321B4
:103268000EE0032E03D186783604042108E0042EEC
:1032780003D186783606052102E000214FF0FF369B
:10328800002EC0F2BC804B1C184400242CE00278AD
:1032980012F0800F01D101211CE002F07F02012A07
:1032A80002D14278022115E0022A05D141788278BC
:1032B80042EA012203210DE0032A03D142781204D5
:1032C800042107E0042A03D142781206052101E00F
:1032D8004FF0FF32002AC0F296800B448F18384412
:1032E80012FA83F39BB20134B442D0DB7CE0042BA6
:1032F8002ED1417811F0800F01D101231DE001F09A
:103308007F01012902D18178022316E0022905D123
:103318008178C37843EA012103230EE0032903D10E
:1033280081780904042308E0042903D18178090677
:10333800052302E000234FF0FF31002967DB01334A
:10334800002202E002339BB201328A42FADB4BE0F0
:10335800053BDBB2022B5ED8467816F0800F01D110
:1033680001221DE006F07F06012E02D18678022296
:1033780016E0022E05D18678C37843EA0626032292
:103388000EE0032E03D186783604042208E0042ECA
:1033980003D186783606052202E000224FF0FF3678
:1033A800002E3CDB531CC4184FF0000816E0013413
:1033B800581C87B2E91B204600F03EF8002832DB93
:1033C8000444384487B2E91B204600F035F8002849
:1033D8002DDB0444384483B208F10108B045E6DB2C
:1033E80002E0012300E0012318469D4221DA4FF054
:1033F800FF30BDE8F0814FF0FF30BDE8F0814FF0BD
:10340800FF30BDE8F0814FF0FF30BDE8F0814FF0AC
:10341800FF30BDE8F0814FF0FF30BDE8F0814FF09C
:10342800FF30BDE8F0814FF0FF30BDE8F0814FF08C
:10343800FF30BDE8F08100BF2DE9F0410D46421C88
:103448000378602B00F2B083DFE813F061006300BB
:103458009E00A403D90016011801AE03AE031A0199
:103468004501AE037001AE03AE03A4039B01A403A0
:103478009D01AE039F01A101A403A301A501A7011A
:10348800A901AB01AD01AE03AE03AE03AE03AE03BB
:10349800AE03AE03AE03AE03AE03AE03AE03AE039C
:1034A800AE03AE03AE03AE03AE03AE03AE03AE038C
:1034B800AE03AE03AE03AE03AE03AE03AE03AE037C
:1034C800AE03AE03AE03AE03AE03AE03AE03AE036C
:1034D800AE03AE03AE03AE03AE03AE03AE03AE035C
:1034E800AE03AE03AE03AE03AE03AE03AF01B1014C
:1034F800B301E301E501E701120212023D025102A4
:1035080053025D029702A102CC0224032603012480
:1035180043E3477817F0800F01D101261DE007F03B
:103528007F07012F02D18778022616E0022F05D1E6
:103538008778C37843EA072703260EE0032F03D1D1
:1035480087783F04042608E0042F03D187783F06D4
:10355800052602E000264FF0FF37002FC0F228832F
:10356800741C16444FF000080BE0291B3046FFF787
:1035780063FF002840F3208306440444A4B208F102
:103588000108B845F1DB08E3477817F0800F01D14F
:1035980001261DE007F07F07012F02D18778022658
:1035A80016E0022F05D18778C37843EA0727032658
:1035B8000EE0032F03D187783F04042608E0042F88
:1035C80003D187783F06052602E000264FF0FF3733
:1035D800002FC0F2F582741C16444FF000080BE06F
:1035E800291B3046FFF728FF002840F3ED820644E8
:1035F8000444A4B208F10108B845F1DBCDE24378F0
:1036080013F0800F01D101221DE003F07F03012B8D
:1036180002D18378022216E0022B05D18278C37882
:1036280043EA022303220EE0032B03D183781B0411
:10363800042208E0042B03D183781B06052202E04C
:1036480000224FF0FF33002BC0F2C282013213F088
:10365800070F07D11C46002B00DADC1D02EBE40241
:1036680094B29AE21C46002B00DADC1D02EBE4045B
:10367800A4B20134A4B290E205248EE205248CE2BF
:10368800447814F0800F01D101231DE004F07F0479
:10369800012C02D18478022316E0022C05D184780B
:1036A800C37843EA042403230EE0032C03D184786F
:1036B8002404042308E0042C03D184782406052379
:1036C80002E000234FF0FF34002CC0F28582013362
:1036D8001C44A4B261E2447814F0800F01D10123A4
:1036E8001DE004F07F04012C02D18478022316E047
:1036F800022C05D18478C37843EA042403230EE01E
:10370800032C03D184782404042308E0042C03D177
:1037180084782406052302E000234FF0FF34002CB0
:10372800C0F25E8201331C44A4B236E2447814F03D
:10373800800F01D101231DE004F07F04012C02D188
:103748008478022316E0022C05D18478C37843EAF2
:10375800042403230EE0032C03D1847824040423D7
:1037680008E0042C03D184782406052302E0002312
:103778004FF0FF34002CC0F2378201331C44A4B24E
:103788000BE2032409E2032407E2092405E20924E1
:1037980003E2052401E20924FFE10B24FDE10624EC
:1037A800FBE10424F9E10824F7E10324F5E1052409
:1037B800F3E1427912F0800F01D101241DE002F0FB
:1037C8007F02012A02D18279022416E0022A05D159
:1037D8008279C37943EA022203240EE0032A03D143
:1037E80082791204042408E0042A03D1827912069B
:1037F800052402E000244FF0FF32002AC0F2F881CD
:103808000534002302E00434A4B201339342FADB06
:10381800C3E10524C1E10424BFE1447814F0800F1A
:1038280001D101231DE004F07F04012C02D184782A
:10383800022316E0022C05D18478C37843EA0424D5
:1038480003230EE0032C03D184782404042308E026
:10385800042C03D184782406052302E000234FF0CA
:10386800FF34002CC0F2C88101331C44A4B294E197
:10387800447814F0800F01D101231DE004F07F0487
:10388800012C02D18478022316E0022C05D1847819
:10389800C37843EA042403230EE0032C03D184787D
:1038A8002404042308E0042C03D184782406052387
:1038B80002E000234FF0FF34002CC0F2A181013355
:1038C8001C44A4B269E1861CA91E3046FFF7B4FD6A
:1038D8000028C0F29981841CA4B2291B3044FFF748
:1038E800ABFD0028C0F294810444A4B255E103243E
:1038F80053E1691E104600F0C3F90028C0F28C811C
:10390800013084B249E14378002B00F04581012B56
:1039180040F08681827912F0800F01D101241DE0E8
:1039280002F07F02012A02D1C279022416E0022A9B
:1039380005D1C279037A43EA022203240EE0032A5E
:1039480003D1C2791204042408E0042A03D1C279FD
:103958001206052402E000244FF0FF32002AC0F2CC
:1039680063810634002305E0A542C0F26181043476
:10397800A4B201339342F7DB0FE1691E1046FFF74B
:103988001DFC0028C0F25881013084B205E1447959
:1039980014F0800F01D101231DE004F07F04012CF5
:1039A80002D18479022316E0022C05D18479C379E7
:1039B80043EA042403230EE0032C03D1847924046E
:1039C800042308E0042C03D184792406052302E0AB
:1039D80000234FF0FF34002CC0F2328105331C4421
:1039E800A4B2DAE0441D437913F0800F01D101221B
:1039F8001DE003F07F03012B02D18379022216E038
:103A0800022B05D18279C37943EA022303220EE00F
:103A1800032B03D183791B04042208E0042B03D170
:103A280083791B06052202E000224FF0FF33002BAA
:103A3800C0F20A81511DD01826180B449BB2245C91
:103A480014F0800F01D101221CE004F07F04012C46
:103A580002D17478022215E0022C05D17478B2786C
:103A680042EA042403220DE0032C03D174782404D1
:103A7800042207E0042C03D174782406052201E00F
:103A88004FF0FF34002CC0F2E380134414FA83F49F
:103A9800A4B282E0062480E0467816F0800F02D1B6
:103AA8004FF0010E22E006F07F06012E03D1867842
:103AB8004FF0020E1AE0022E06D18678C37843EA48
:103AC80006264FF0030E11E0032E04D18678360443
:103AD8004FF0040E0AE0042E04D1867836064FF023
:103AE800050E03E04FF0000E4FF0FF36002EC0F237
:103AF800B3800EF1010402EB0E03002747E0A54254
:103B0800C0F2AE801A781AB905330534A4B23DE084
:103B1800012A40F0A9805A1D0534A4B2597911F040
:103B2800800F02D14FF0010E20E001F07F01012942
:103B380003D199794FF0020E18E0022906D199793C
:103B4800DB7943EA01214FF0030E0FE0032904D18A
:103B5800997909044FF0040E08E0042904D19979F1
:103B680009064FF0050E01E04FF0FF3100297FDB19
:103B78007444A4B202EB0E03002205E0A5427BDBED
:103B880004330434A4B201328A42F7DB0137B74266
:103B9800B5DB02E0022400E006242046A5426DDAE7
:103BA8004FF0FF30BDE8F0814FF0FF30BDE8F08105
:103BB8004FF0FF30BDE8F0814FF0FF30BDE8F081F5
:103BC8004FF0FF30BDE8F0814FF0FF30BDE8F081E5
:103BD8004FF0FF30BDE8F0814FF0FF30BDE8F081D5
:103BE8004FF0FF30BDE8F0814FF0FF30BDE8F081C5
:103BF8004FF0FF30BDE8F0814FF0FF30BDE8F081B5
:103C08004FF0FF30BDE8F0814FF0FF30BDE8F081A4
:103C18004FF0FF30BDE8F0814FF0FF30BDE8F08194
:103C28004FF0FF30BDE8F0814FF0FF30BDE8F08184
:103C38004FF0FF30BDE8F0814FF0FF30BDE8F08174
:103C48004FF0FF30BDE8F0814FF0FF30BDE8F08164
:103C58004FF0FF30BDE8F0814FF0FF30BDE8F08154
:103C68004FF0FF30BDE8F0814FF0FF30BDE8F08144
:103C78004FF0FF30BDE8F0814FF0FF30BDE8F08134
:103C88002DE9F0410D460378002B00F0A680012BAA
:103C980009D105390530FFF7CFFB0028C0F2A7800E
:103CA800431D9BB29CE0022B1ED100F1050805398B
:103CB8004046FFF7C1FB0028C0F29D8080440530D4
:103CC80084B2291B4046FFF7B7FB0028C0F2978053
:103CD8000444A4B2291B4044FFF7AEFB0028C0F2FD
:103CE800928023189BB27BE0032B4DD1477817F0C5
:103CF800800F01D101221DE007F07F07012F02D1BB
:103D08008778022216E0022F05D18778C37843EA24
:103D1800072703220EE0032F03D187783F040422EC
:103D280008E0042F03D187783F06052202E000222D
:103D38004FF0FF37002F6ADB531C00EB0308002607
:103D48001FE008F1040804339CB2291B4046FFF722
:103D580073FB00285FDB80440444A4B2291B40465F
:103D6800FFF76AFB00285ADB80440444A4B2291BED
:103D78004046FFF761FB002855DB804423189BB2BF
:103D88000136BE42DDDB2BE01A1FD2B2012A09D868
:103D980008390830FFF712FA002848DB00F1080359
:103DA8009BB21DE09A1FD2B2022A09D812391230EA
:103DB800FFF704FA00283EDB00F112039BB20FE084
:103DC800092B0CD00A2B3AD102390230FFF7F6F949
:103DD800002838DB023083B202E0012300E002232E
:103DE80018469D4231DA4FF0FF30BDE8F0814FF0C0
:103DF800FF30BDE8F0814FF0FF30BDE8F0814FF0B3
:103E0800FF30BDE8F0814FF0FF30BDE8F0814FF0A2
:103E1800FF30BDE8F0814FF0FF30BDE8F0814FF092
:103E2800FF30BDE8F0814FF0FF30BDE8F0814FF082
:103E3800FF30BDE8F0814FF0FF30BDE8F0814FF072
:103E4800FF30BDE8F0814FF0FF30BDE8F08100BFE2
:103E580010B409E00B784340DBB2074A32F813305C
:103E680083EA102022460131541E002AF2D1C043B1
:103E780080B25DF8044B70474C560008F8B504460C
:103E880085896E1E0768AA1E791C4FF6FF70FFF71A
:103E9800DFFFB8552368000A58550120F8BD00BF58
:103EA80010600378902B2DD143785BBB817811F09B
:103EB800800F01D101231DE001F07F01012902D10A
:103EC800C178022316E0022905D1C178037943EAB3
:103ED800012103230EE0032903D1C1780904042337
:103EE80008E0042903D1C1780906052302E000236C
:103EF8004FF0FF31002903DB02331844106001E062
:103F08004FF0FF310846704708B5838902899B1A2C
:103F1800083B0A4699B24068FFF7C2FF80B208BD65
:103F280000B583B0019008464FF48071FFF784FA1A
:103F380003B05DF804FB00BF4378027843EA02232C
:103F48000B8083788B70C378CB700420704700BFD8
:103F5800F0B583B04378012B02D0022B03D04CE09C
:103F6800C41C012604E0041DC67816F0800F47D152
:103F78000F4640F2FC520021384601F035FA012381
:103F88003B70002535E001A92046FFF7D5FF221830
:103F9800235C0BB9941C2AE0012B34D1541C214614
:103FA8000198FFF7BDFF002830DBBDF80430B3F5FA
:103FB800005F1BD1BA79510001EB020E4FEA8E0364
:103FC8003B444FF4005EA3F808E09DF806E083F850
:103FD8000AE09DF807E083F80BE0D8811C618B1894
:103FE8009900394401230B731A44BA71044401350A
:103FF800EDB2B542C7D301200AE04FF0FF3007E029
:104008004FF0FF3004E04FF0FF3001E04FF0FF3099
:1040180003B0F0BD82B080B2A0F5A0439BB2032BE1
:104028000FD945F2040398420DD045F20603984291
:104038000BD0A0F5405080B2B0F5407F07D20520E4
:1040480006E0022004E0032002E0042000E0002053
:1040580002B070472DE9F84F4378032B02D0042BA8
:1040680004D077E0C51C4FF0010805E0C51C90F8A6
:10407800008018F0800F71D10E4640F2FC520021EA
:10408800304601F0B1F900275FE0B11C2846FFF780
:1040980053FF0446D6F80200FFF7BCFF3070002833
:1040A80060D0601C284415F8049019F0800F5DD189
:1040B80000240EE00378002B5CD1451C04EB44037C
:1040C8009900083131442846FFF736FF2844013467
:1040D800E4B24C45EED303780BB9851C33E0012BD1
:1040E8004CD1851C90F801B01BF0800F4AD1BBF170
:1040F800000F4BD04FF0000A23E00024B4711AE0FF
:1041080004EB44029300334429469868FFF708FFFC
:1041180000283EDB630019198A0011463244D08119
:1041280015610A46324401231373B3790133B3711D
:1041380005440134E4B24C45E2D30AF1010A5FFABE
:104148008AFADA45D9D30137FFB247459DD3012012
:10415800BDE8F88F4FF0FF30BDE8F88F4FF0FF3023
:10416800BDE8F88F4FF0FF30BDE8F88F4FF0FF3013
:10417800BDE8F88F4FF0FF30BDE8F88F4FF0FF3003
:10418800BDE8F88F4FF0FF30BDE8F88F0020BDE89C
:10419800F88F4FF0FF30BDE8F88F00BF08B50378FF
:1041A800852B0ED111464378013B032B0CD8DFE851
:1041B80003F002020505FFF7CBFE08BDFFF74AFF33
:1041C80008BD4FF0FF3008BD4FF0FF3008BD00BFFD
:1041D80070B584680379EBB12378DBB1012B19D171
:1041E80066780334002513E06378207843EA0020DA
:1041F800094B1B68984203DC084B1B68984204DA99
:10420800FEF754FB03122370607003340135EDB2DE
:10421800B542E9D370BD00BF202000203420002023
:1042280008B50220FCF766F93420FCF785F908BDCB
:104238002DE9F041ADF5806DC0F3870410F0030F50
:1042480033D120F47F7626F00306002305E056F8E4
:1042580023204DF8232001339BB2FF2BF7D90F46BB
:1042680080464DF82410FCF74FF94046FCF794F9C6
:10427800002502240FE01C465DF8251006EB85009A
:10428800FCF7A8F9042804D0631EDBB2002CF2D195
:104298001C460135ADB2FF2DEED9FCF745F9D8F82B
:1042A80000309F4203D1012002E0002000E00020FE
:1042B8000DF5806DBDE8F081006870470068C0B2F8
:1042C800704700BF2DE9F04383B001214FF48020EF
:1042D800FCF75AFB494F072206213846FCF704FA37
:1042E800072211463846FCF7FFF902258DF80450DD
:1042F8004FF000088DF8068001248DF807408DF8EE
:10430800055002AEC02346F8083D31463846FCF752
:1043180093F9072208213846FCF7E6F90722092114
:104328003846FCF7E1F98DF806804FF440730093A6
:1043380031463846FCF780F921464FF40030FCF747
:1043480023FB00948DF804408DF806408DF8055045
:104358008DF8078031464FF09040FCF76DF9214603
:104368004FF40020FCF710FB4FF40059CDF80090F3
:104378008DF804408DF806408DF805508DF80750EB
:1043880007F5806731463846FCF756F92246494614
:104398003846FCF7A3F900958DF804508DF806808F
:1043A80003278DF805708DF8074031464FF090408F
:1043B800FCF742F92A4621464FF09040FCF794F961
:1043C800072229464FF09040FCF78EF9072239461C
:1043D8004FF09040FCF788F98DF804508DF806806E
:1043E8008DF807408DF805500C23009331464FF0A7
:1043F8009040FCF721F903B0BDE8F08300040048C1
:1044080008B501214FF09040FCF760F930B1002267
:1044180001214FF09040FCF761F908BD01221146D7
:104428004FF09040FCF75AF908BD00BF08B50022CC
:104438004FF400510148FCF751F908BD0008004845
:1044480038B50446154B1B6801465868FEF70AF84C
:1044580018B3237A112B0ED1A37A332B0BD1237BDC
:10446800342B08D1637B352B05D100220C4B1A70F5
:1044780001220C4B1A700C4D2B680C4A12780C3226
:104488009968204600F0AAFE2B68986800F012FE92
:1044980018B92B68186800F02DFE38BD38000020C8
:1044A800392000204E180020340000206508002024
:1044B800144B1B7823BB10B51921134B188800F037
:1044C80053FDE0B11148FEF7B5F8C0B1104C2368B0
:1044D8000E48427A0C32996800F080FE236898688A
:1044E80000F0E8FD58B92368186800F003FE0122BF
:1044F800044B1A700023074A1370034A138010BD37
:10450800704700BF392000204818002050180020AC
:10451800380000204E18002070B586B0002305939F
:104528004FF4C060FCF7F8F8914B1B68914AA2FB66
:1045380003239B09B3F1807F0CD223F07F43013B17
:104548008D4A5360F0218D4B83F82310002393602C
:10455800072313606FF00400FCF71AF9F022874B69
:1045680083F82320FFF75CFEFFF7ACFEFFF748FF58
:1045780000F024FD00F09AFCFEF754F9FEF7F0FA7B
:10458800FEF728FBFFF752FF0224012C3AD0002C3B
:1045980000F0A880022CF8D1794B186800F0B2FD21
:1045A800784B186800F0AEFD774B1B7893B1744DCB
:1045B800286800F0B7FD0022734B1A70734C714BDA
:1045C8001A682146286800F0F9F90146204600F0EB
:1045D800BFF904466E4B1B78002BD6D0694D28686E
:1045E80000F0A0FD00226A4B1A706A4C644B1A68EE
:1045F8002146286800F0E2F90146204600F0A8F9B3
:104608000446C2E75E4B186800F07CFD5D4B1868F5
:1046180000F078FD5C4B1B7863B1594D286800F0B9
:1046280081FD0022584B1A70564B1A685749286862
:1046380000F0C4F9564B1B78002BA6D0514D2868C2
:1046480000F070FD0023524A137001934FF47A7200
:104658005049286800F042FE0546002895D001AA76
:1046680001464C4800F014F938B90B232A46494949
:104678004348006800F0D8FD87E7474B1B78002BBC
:1046880083D005A901A8FFF73FFC014600B3434AC0
:104698000598FFF783FD002812DC19E005EB4502B9
:1046A80093003E4A13441B89B3F5005F06D105EB1E
:1046B8004503980008301044FFF78AFD013500E0F3
:1046C8000025364B9B799D42E8D301A8FFF7D6FB1E
:1046D800BDF810200623023201992948006800F02D
:1046E800A3FD52E7FFF78CFE254B1B68586800F0C6
:1046F800E1FC10B92548FFF7A3FE224B1B68586858
:1047080000F0D8FC10B1FFF7D3FE67E01D4B1B6823
:1047180020495868FDF7A6FE002849D1204B1B7890
:10472800002B5BD119211F4B188800F01DFC0028B5
:1047380054D01648FDF77EFF00284FD0104D2B6847
:104748001248427A996800F049FD2B68986800F091
:10475800B1FC002842D1144800F0CCFC0122104BD7
:104768001A700023114A13700E4A138036E000BFF6
:1047780064000020CDCCCCCC10E000E000ED00E0DF
:104788003800002034000020451800205018002070
:1047980044180020381C002064080020242400202D
:1047A8003920002048180020003801404E18002009
:1047B8002F4E3046FDF7D6FE2E4D2B682E4A127826
:1047C8000C329968304600F009FD2B68986800F0B3
:1047D80071FC18B92B68186800F08CFC274B1B6813
:1047E800586800F067FC00287FF4CFAE234B1B68A5
:1047F80023495868FDF736FE00283FF4C6AE204B23
:104808001B7A132B1DD11E48012343708370C3707C
:104818000371437183719323037206234372342314
:104828008372C372037343738373C373A7230374BD
:1048380016234374114B1B681222996800F0CEFCB2
:1048480002E00F48FDF7CAFE0C4B1B68986800F0A1
:1048580031FC00287FF499AE0A4D00220A49284607
:10486800FCF7E0F9012209492846FCF7DBF98CE658
:10487800381C002038000020650800205C0000205B
:104888003C20002000440040050105000701070006
:104898002DE9F0470E469046682100F0ADFDD0B3F3
:1048A80004464378857843EA0525AB1CB34235D8DE
:1048B800067906F00F060236374606F1050A00F1BA
:1048C8000109321D49464FF6FF70FFF7C1FA14F887
:1048D8000A30B21DA25C43EA0223984221D105F1B5
:1048E800FF3AAA1E49464FF6FF70FFF7B1FA14F8CF
:1048F8000A30625D43EA0223984215D1A8F80C50A9
:10490800A8F80860C8F8004007372744C8F80470BA
:104918002046BDE8F0870020BDE8F0870020BDE80C
:10492800F0870020BDE8F0870020BDE8F08700BFD1
:1049380010B400231A4604E0C45C2244D2B2013306
:10494800DBB28B42F8D310465DF8044B704700BFCA
:104958002DE9F0410F46682100F04EFD10B30546E1
:10496800467A0C3643788478240204F47C541C4339
:104978000234C379682B0CD1BE420AD8B11E10F894
:104988000180FFF7D5FF804503D1013EAB5D162BB3
:104998000BD0631EEB5C162B0AD1BC420BD902204C
:1049A800BDE8F0810220BDE8F0810020BDE8F0817B
:1049B8000220BDE8F0810120BDE8F08170B50E4607
:1049C80015464FF47A7200F089FC40B104460B2377
:1049D80002463146284600F027FC204670BD0020DC
:1049E80070BD00BF704700BFFEE700BFFEE700BF15
:1049F800FEE700BFFEE700BF704700BF704700BF7B
:104A0800704700BF024A138801331380704700BF04
:104A18004618002070B5394B1B6808211868FCF748
:104A28001DF928B1354B1B6808211868FCF71EF9D9
:104A3800324B1B6832491868FCF71AF9E8B12F4B5A
:104A48001B68586800F040FBB8B92C4C23685D68B7
:104A5800D5F8EC631868FCF7E1F8A855236859689D
:104A6800D1F8EC230132274BA3FB02039B094FF437
:104A78007A7000FB1323C1F8EC33204B1B682249E2
:104A88001868FCF7F5F838B31C4C23681E491868F9
:104A9800FCF710F923689A68D2F8E813515C186893
:104AA800FCF7B8F821688868D0F8E8230132154B7C
:104AB800A3FB02439B094FF47A7404FB1323C0F849
:104AC800E833886800F0F6FA30B10C4B1B68002216
:104AD8000D491868FCF7A6F8084B1B680B491868BD
:104AE800FCF7C6F840B1054B1B6808491868FCF785
:104AF800E1F80122064B1A7070BD00BF3800002093
:104B080005010500D34D62100701070004010400E8
:104B18004518002070B53B4B1B6808211868FCF746
:104B28009DF8012805D1374B1B6808211868FCF748
:104B38009DF8344B1B6834491868FCF799F808B39A
:104B4800304C236830491868FCF7B4F82368586873
:104B580000F0BAFAB0B923685D68D5F8EC63186854
:104B6800FCF75CF8A85523685968D1F8EC230132A2
:104B7800264BA3FB02039B094FF47A7000FB132317
:104B8800C1F8EC331F4B1B6821491868FCF770F813
:104B9800002836D01B4C23681D491868FCF78AF892
:104BA80023689A68D2F8E813515C1868FCF732F861
:104BB80021688868D0F8E8230132144BA3FB02432C
:104BC8009B094FF47A7404FB1323C0F8E833886810
:104BD80000F070FAA8B10B4B1B6800220C4918684A
:104BE800FCF720F8074B1B6840211868FCF736F8DB
:104BF8000028F7D0034B1B68012203491868FCF70B
:104C080011F870BD5C00002005010500D34D62104D
:104C18000701070070B5364B1B6808211868FCF7B8
:104C28001DF828B1324B1B6808211868FCF71EF8DC
:104C38002F4B1B682F491868FCF71AF8E8B12C4B62
:104C48001B68586800F040FAB8B9294C23685D68B9
:104C5800D5F8EC631868FBF7E1FFA8552368596895
:104C6800D1F8EC230132244BA3FB02039B094FF438
:104C78007A7000FB1323C1F8EC331D4B1B681F49E6
:104C88001868FBF7F5FF10B3194C23689A68D2F837
:104C9800E813515C1868FBF7BDFF21688868D0F8F5
:104CA800E8230132144BA3FB02439B094FF47A74A7
:104CB80004FB1323C0F8E833886800F0FBF930B12F
:104CC8000B4B1B6800220D491868FBF7ABFF084B1C
:104CD8001B680B491868FBF7CBFF40B1044B1B68F6
:104CE80007491868FBF7E6FF0122064B1A7070BDEA
:104CF8003400002005010500D34D621007010700AC
:104D0800040104004418002008B501214FF0804038
:104D1800FBF702FF90B101214FF08040FBF708FF3D
:104D2800074B1B781BB1074A138801331380064BC6
:104D38001B781BB1054A13880133138008BD00BFD7
:104D48004A1800204C1800204E180020481800204F
:104D5800704700BF82B0002301930093274A13686D
:104D680043F001031360254B1B6803F00203009313
:104D7800019B01330193009B1BB9019BB3F5A06F05
:104D8800F1D11E4B1B6813F0020F02D001230093D0
:104D980001E000230093009B012B2CD11222184B19
:104DA8001A60A3F580535A685A605A685A605A685C
:104DB80042F480625A605A6822F47C125A605A6837
:104DC80042F460125A601A6842F080721A600B4B03
:104DD8001B6813F0007FFAD0084B5A6822F00302D0
:104DE8005A605A6842F002025A60044B5B6803F04A
:104DF8000C03082BF9D102B0704700BF0010024025
:104E08000020024010B5184CD4F8883043F47003E1
:104E1800C4F88830154B1A6842F001021A605A68C3
:104E280002F47F025A601A6822F0847222F48032F7
:104E38001A601A6822F480221A605A6822F4FE0264
:104E48005A60DA6A22F00F02DA621A6B22F0F02254
:104E580022F073021A6300229A60FFF77BFF4FF07B
:104E68000063A36010BD00BF00ED00E00010024029
:104E780030B583B01C238DF8043000258DF805501B
:104E880001248DF806408DF8074001A8FBF74EFC79
:104E980032238DF804308DF805508DF806508DF8C2
:104EA800074001A8FBF742FC03B030BD70B588B0DD
:104EB800FFF7DEFF01210846FBF782FD4CF24F3376
:104EC80006934023ADF814300024ADF81C40ADF82B
:104ED800164005A94FF08040FBF780FD01214FF0F7
:104EE8008040FBF7BFFD012211464FF08040FBF7E1
:104EF80007FE01210820FBF763FD184B1B68184AC1
:104F0800A2FB03231B0B013B0693ADF81440ADF83D
:104F18001C40ADF81640134D05A92846FBF75EFD69
:104F280021462846FBF7D0FD01212846FBF79AFDCC
:104F38006023ADF800300126ADF8026040F24A3334
:104F48000293ADF80C4069462846FBF799FD3246B6
:104F580004212846FBF7C2FD08B070BD640000209C
:104F6800B5814E1B000C0040884201D301207047D8
:104F78000020704700B583B025238DF80430012345
:104F88008DF805308DF806308DF8073001A8FBF74D
:104F9800CDFB27238DF8043000238DF8063001A8B7
:104FA800FBF7C4FB26238DF8043002238DF8063066
:104FB80001A8FBF7BBFB03B05DF804FB2DE9F04744
:104FC80086B001214FF48040FBF7ECFC354F0121FE
:104FD8003846FBF713FE4FF4166500954FF00C08A2
:104FE800CDF810804FF4805ACDF804A04FF48069B2
:104FF800CDF80C9000240294059469463846FBF7D6
:105008009BFD01214FF48020FBF7DAFC264E01219D
:105018003046FBF7F3FD0095CDF81080CDF804A0DD
:10502800CDF80C900294059469463046FBF784FD50
:1050380001214FF40030FBF7C3FC1C4D0121284629
:10504800FBF7DCFD4FF496630093CDF804A00294BF
:10505800CDF80C900594CDF8108069462846FBF7EA
:105068006BFDFFF787FF124C012221463846FBF7FC
:10507800D9FD012221463046FBF7D4FD0122214605
:105088002846FBF7CFFD01213846FBF7ABFD012190
:105098003046FBF7A7FD01212846FBF7A3FD06B024
:1050A800BDE8F08700380140004800400044004057
:1050B80005010500D0F8E823D0F8EC339A4201D175
:1050C8000120704700207047D0F8E813D0F8EC238F
:1050D8000132074BA3FB02039B094FF47A7000FBD4
:1050E8001323994201D1012070470020704700BF67
:1050F800D34D621008B501220149FBF793FD08BDA5
:105108000701070038B504460068C369044D2946FD
:10511800FBF7D0FD012229462068FBF783FD38BD47
:105128000401040038B50446064D002229460068EB
:10513800FBF778FD29462068FBF7BCFD2368DB698F
:1051480038BD00BF04010400D0F8E833D0F8EC0300
:105158001B1A03F2E733044AA2FB031292094FF425
:105168007A7000FB12307047D34D6210D0F8EC33E0
:10517800D0F8E8031B1A03F57A73044AA2FB03125A
:1051880092094FF47A7000FB12307047D34D6210C9
:1051980070B504460E461546FFF7E8FFA84215D23B
:1051A800002070BDD4F8E833E35CB354D4F8E813B6
:1051B8000131094BA3FB01039B094FF47A7000FBF3
:1051C8001313C4F8E833013292B200E00022AA4275
:1051D800E8D3012070BD00BFD34D621070B50646FC
:1051E8000C4615460846FFF7C1FF2844B0F57A7FFC
:1051F80013D9002070BDD4F8EC13B35C63540131AB
:10520800084BA3FB01039B094FF47A7000FB1313AF
:10521800C4F8EC33013292B200E00022AA42EAD389
:10522800012070BDD34D6210002A4BD0F8B504465A
:105238000F461D4616468068FFF786FF864244D80B
:10524800002214E0A368D3F8EC13B85C5854A068A3
:10525800D0F8EC1301311E4BA3FB01E39B094FF47B
:105268007A7E0EFB1313C0F8EC33013292B29642E9
:10527800E8D8A368D3F8E863012216492068FBF749
:10528800D1FC09E0A068FFF771FF38B1124B1B6829
:1052980013F4803F00D0013D002DF3D100220D49C9
:1052A8002068FBF7BFFCA368D3F8E823921B02F53C
:1052B8007A72074BA3FB02139B094FF47A7000FB29
:1052C8001320F8BD4FF0FF3070474FF0FF30F8BDA6
:1052D800D34D62100701070010E000E070B582B0FE
:1052E80000230193541E4FF6FE739C422BD814469C
:1052F8000E4605464068FFF739FF0190019B03B34E
:10530800019B9C4201D9019A00E0224601920022A9
:1053180014E06B68D3F8E8135B5CB3546968D1F8A0
:10532800E8430134094BA3FB04039B094FF47A704B
:1053380000FB1343C1F8E833013292B2019B9A4251
:10534800E7D3019800E0002002B070BDD34D621091
:10535800002103E00B4B5B58435004310A480B4BC8
:1053680042189A42F6D30A4A02E0002342F8043B64
:10537800084B9A42F9D3FFF745FD00F00FF8FFF705
:10538800CBF8FEE7745800080000002068000020F1
:1053980068000020202A0020FEE7000070B50E4BB0
:1053A8000E4CE41AA41000251E46A54204D056F857
:1053B800253098470135F8E700F044FA084C094BC6
:1053C800E41AA41000251E46A54204D056F825303C
:1053D80098470135F8E770BD6C5800086C5800080C
:1053E800705800086C58000802440346934202D0E3
:1053F80003F8011BFAE77047C9B2034610F8012BFE
:105408001AB19142F9D11846704700290CBF1846C5
:105418000020704733343435452B00083335343594
:10542800452B000833363435452B000833323435E4
:10543800452B0008373833382513000838383338F7
:105448002513000839383338251300083A3833381B
:105458002513000832383338251300083333343322
:10546800B92C000833343433B92C000833353433BD
:10547800B92C000833363433B92C000833373433A9
:10548800B92C000833323433B92C0008333348338D
:10549800B92C000833335C33B92C0008333370332C
:1054A800B92C0008343439380D2F00083534393810
:1054B8000D2F0008363439380D2F000834333433B3
:1054C8007D300008343434337D30000834353433CB
:1054D8007D300008343634337D30000834373433B7
:1054E8007D300008343234337D300008343348339B
:1054F8007D30000834335C337D300008343370333A
:105508007D30000833373435A91600083338343570
:105518006D1700083339343569180008333A3435C3
:105528005519000833373535751A000833383535BD
:105538009D1B000833393535091B0008333A3535CA
:10554800611C0008333B3535111D000833733433B3
:105558009922000833743433351F00083375343307
:105568009523000833763433C11D0008337734336C
:10557800E520000833344339011600083434433930
:10558800011600083534433901160008323443390E
:105598000116000833354339A51600083435433958
:1055A800A516000835354339A516000832354339A4
:1055B800A5160008323232328D1E000833373435D2
:1055C800A91600083339343569180008333A3435D8
:1055D80055190008333B3435D9210008333C34359C
:1055E80029200008333D3435F9150008333E343599
:1055F800FD150008337334339922000833743433AB
:10560800351F000833753433952300083376343357
:10561800C11D000833373535751A0008333835355C
:105628009D1B000833393535091B0008333A3535D9
:10563800611C0008333B3535111D00083232323207
:105648008D1E00080000891112239B322446AD5795
:105658003665BF74488CC19D5AAFD3BE6CCAE5DBB2
:105668007EE9F7F88110080193331A22A5562C47D2
:10567800B7753E64C99C408DDBBF52AEEDDA64CB92
:10568800FFF976E802218B30100299132667AF766E
:105698003444BD554AADC3BC588ED19F6EEBE7FA72
:1056A8007CC8F5D983310A2091121803A7772E6692
:1056B800B5543C45CBBD42ACD99E508FEFFB66EA52
:1056C800FDD874C904428D5316619F702004A91532
:1056D8003227BB364CCEC5DF5EEDD7FC6888E19932
:1056E8007AABF3BA85520C4397711E60A114280552
:1056F800B3373A26CDDE44CFDFFD56ECE998608912
:10570800FBBB72AA06638F7214409D512225AB34ED
:105718003006B9174EEFC7FE5CCCD5DD6AA9E3B8F1
:10572800788AF19B87730E6295501C41A3352A2411
:10573800B1163807CFFF46EEDDDC54CDEBB962A8D1
:10574800F99A708B088481951AA793B62CC2A5D3B1
:105758003EE1B7F04008C919522BDB3A644EED5FC1
:10576800766DFF7C899400859BB712A6ADD224C3C1
:10577800BFF136E0C1184809D33B5A2AE55E6C4FA1
:10578800F77D7E6C0AA583B4188691972EE3A7F25D
:105798003CC0B5D14229CB38500AD91B666FEF7E81
:1057A800744CFD5D8BB502A499961087AFF326E281
:1057B800BDD034C1C3394A28D11A580BE77F6E6E61
:1057C800F55C7C4D0CC685D71EE597F42880A19121
:1057D8003AA3B3B2444ACD5B5669DF78600CE91D41
:1057E800722FFB3E8DD604C79FF516E4A990208141
:1057F800BBB332A2C55A4C4BD7795E68E11C680D21
:10580800F33F7A2E0EE787F61CC495D52AA1A3B0DC
:105818003882B193466BCF7A5448DD59622DEB3C00
:10582800700EF91F8FF706E69DD414C5ABB122A000
:10583800B9923083C77B4E6AD5585C49E33D6A2CE0
:10584800F11E780FF8B500BFF8BC08BC9E4670473B
:0C585800F8B500BFF8BC08BC9E467047C5
:08586400B0A9FF7F0100000064
:04586C00AD01000882
:0458700089010008A2
:1058740002040608020406080A0C0E1014181C2060
:1058840024282C3000000000010203040102030458
:105894000607080998080000004800407404002026
:1058A40084000020280000205000002098080000F8
:1058B40000440040740C002064100020FF0000002D
:1058C40000380140680800205414002040000020E3
:0858D400980800000090D003C9
:040000050800535943
:00000001FF
