:020000040800F2
:1000000000600020893D00081536000819360008F8
:100010001D360008213600082536000800000000C3
:100020000000000000000000000000002936000869
:100030002D36000800000000313600083536000873
:10004000D13D0008D13D0008D13D0008D13D000858
:10005000D13D0008D13D0008D13D0008D13D000848
:10006000D13D0008D13D0008D13D0008D13D000838
:10007000D13D0008D13D0008D13D0008D13D000828
:10008000D13D0008D13D0008D13D0008D13D000818
:10009000D13D0008D13D0008D13D0008D13D000808
:1000A000D13D0008D13D0008D13D0008D13D0008F8
:1000B000B9380008D13D0008D13D0008D13D000805
:1000C000D13D0008D13D0008D13D0008D13D0008D8
:1000D000D13D0008653600082537000805380008BE
:1000E000D13D0008D13D0008D13D0008D13D0008B8
:1000F000D13D0008D13D00080000000000000000D4
:10010000000000000000000001390008D13D000897
:100110000000000000000000D13D0008D13D0008B3
:10012000D13D0008D13D0008D13D0008D13D000877
:10013000D13D0008D13D0008D13D0008D13D000867
:10014000D13D000800000000000000000000000099
:10015000000000000000000000000000000000009F
:100160000000000000000000D13D0008D13D000863
:10017000D13D000800000000D13D00080000000053
:0801800000000000D13D000861
:1001880010B5054C237833B9044B13B10448AFF3C9
:1001980000800123237010BD3800002000000000FB
:1001A80088010008084B10B51BB108490848AFF38F
:1001B80000800848036803B910BD074B002BFBD02B
:1001C800BDE81040184700BF000000003C000020B8
:1001D80088010008380000200000000053B94AB91F
:1001E800002908BF00281CBF4FF0FF314FF0FF3037
:1001F80000F07EB9ADF1080C6DE904CE00F006F808
:10020800DDF804E0DDE9022304B070472DE9F0478A
:100218008C460E460446089D002B50D18A4217464C
:100228006CD9B2FA82FEBEF1000F0BD0CEF12004D9
:1002380020FA04F401FA0EF644EA060C02FA0EF764
:1002480000FA0EF44FEA1749220CBCFBF9F01FFA2A
:1002580087F809FB10C642EA064600FB08F3B342DA
:1002680009D9F61900F1FF3280F02281B34240F239
:100278001F8102383E44F61AA2B2B6FBF9F309FB15
:10028800136642EA064403FB08F8A04509D9E419B5
:1002980003F1FF3280F00A81A04540F20781023B5A
:1002A8003C44C8EB040443EA00400021002D62D01E
:1002B80024FA0EF400232C606B60BDE8F0878B42B3
:1002C80007D9002D55D0002185E841000846BDE832
:1002D800F087B3FA83F1002940F09080B34202D34B
:1002E800824200F2F880841A66EB03060120B446C5
:1002F800002D40D085E81010BDE8F08712B901271D
:10030800B7FBF2F7B7FA87FEBEF1000F35D1F31B42
:100318004FEA17481FFA87FC0121B3FBF8F0220CBB
:1003280008FB103642EA06460CFB00F3B34207D935
:10033800F61900F1FF3202D2B34200F2CE80104625
:10034800F61AA2B2B6FBF8F308FB136642EA0644B3
:100358000CFB03FCA44507D9E41903F1FF3202D2D0
:10036800A44500F2B5801346CCEB040443EA0040F0
:100378009CE729462846BDE8F087CEF1200106FA19
:100388000EF307FA0EF720FA01F94FEA1748CE40A4
:1003980049EA0309B6FBF8FA4FEA194408FB1A665A
:1003A8001FFA87FC44EA06430AFB0CF29A4200FA59
:1003B8000EF40AD9DB190AF1FF3180F087809A42DE
:1003C80040F28480AAF1020A3B449B1A1FFA89F979
:1003D800B3FBF8F108FB113349EA034301FB0CF6C0
:1003E8009E4207D9DB1901F1FF326BD29E4269D9CF
:1003F80002393B449B1B41EA0A418EE7C1F1200EBA
:1004080022FA0EF48B40234320FA0EF706FA01F481
:100418004FEA134C26FA0EF63C43B6FBFCF9270CC0
:100428000CFB19661FFA83F847EA064609FB08F72A
:10043800B74202FA01F200FA01FA08D9F61809F1EE
:10044800FF3041D2B7423FD9A9F102091E44F61B39
:10045800A0B2B6FBFCF40CFB146640EA064704FBAA
:1004680008F8B84507D9FF1804F1FF3028D2B84575
:1004780026D9023C1F4444EA0940C8EB0707A0FB01
:1004880002894F4544464E4614D329D065B3BAEB8A
:10049800040367EB060707FA0EFECB40CF404EEA8F
:1004A800030385E888000021BDE8F0871346F8E6D5
:1004B8001046E0E6B8EB020469EB03060138E5E70D
:1004C8000446D8E7114695E78146C0E78A467CE7A7
:1004D800023B3C4448E708460AE702383E442FE717
:1004E800C245E7D33E46D1E72946BDE8F08700BFBD
:1004F800704700BF034A136823F0030318431060D2
:10050800704700BF00200240054B1B6913F0800FA5
:1005180005D0034B034A5A6002F188325A6070478B
:100528000020024023016745024A136943F0800313
:100538001361704700200240014BD860704700BF2C
:10054800002002400B4BDB6813F0010F0BD1094B65
:10055800DB6813F0100F08D1064BDB6813F0040FAB
:1005680005D00320704701207047022070470420FF
:10057800704700BF0020024010B50446FFF7E2FFB5
:1005880002E0FFF7DFFF013C012801D1002CF8D180
:1005980004B9052010BD00BF38B505464FF430201A
:1005A800FFF7EAFF042811D1094C236943F002033D
:1005B80023616561236943F0400323614FF43020D0
:1005C800FFF7DAFF236923F00203236138BD00BF78
:1005D8000020024030B583B005460C460023019345
:1005E8004FF43020FFF7C8FF042820D1114A1369BF
:1005F80043F001031361A3B22B804FF43020FFF7BF
:10060800BBFF04280ED102350195019B240C1C80E8
:100618004FF43020FFF7B0FF064A136923F00103B7
:10062800136104E0034A136923F00103136103B063
:1006380030BD00BF0020024070B4002341E0012219
:100648009A400C68A2433BD10A79013AD2B2012AF6
:100658001CD885685A000324944025EA0404846061
:1006680085684C7904FA02F22A4382608488A5B22C
:100678009AB20124944025EA040484808588ADB2A6
:100688008C7904FA02F292B22A43828004685A00F2
:10069800032505FA02F624EA0604046006680C79C4
:1006A800944034430460C4689EB27600B54024EA9E
:1006B8000505C560C568CC7904FA02F22A43C26010
:1006C80001330F2BBBD970BC704700BF038A194296
:1006D80001D0012070470020704700BF838A19426B
:1006E80001D0012070470020704700BF0AB1816126
:1006F80070470185704700BF30B401F007039B00C5
:100708009A40C908083150F821400F2505FA03F32B
:1007180024EA030340F8213050F821301A4340F806
:10072800212030BC704700BF40F0BF6040F400306B
:10073800014BD860704700BF00ED00E0C378FBB103
:10074800154BDB68DB43C3F30223C3F104010F221B
:10075800DA40437803FA01F1837813400B431B0115
:100768000278DBB20D490A4482F80033037858094D
:1007780003F01F03012202FA03F341F82030704707
:1007880003785A0903F01F03012101FA03F3203209
:10079800024941F82230704700ED00E000E100E036
:1007A800042805D1054A136843F004031360704711
:1007B800024A136823F004031360704710E000E056
:1007C80070B46F4B5B6803F00C03042B05D0082B47
:1007D80006D0FBB96B4B03601EE06A4B03601BE05D
:1007E800674A53685268C3F38343023312F4803F65
:1007F80004D1654A02FB03F303600DE0604AD26A44
:1008080002F00F02511C5F4AB2FBF1F202FB03F344
:10081800036001E05B4B0360594A5368C3F3031359
:100828005A4EF35CDBB2056825FA03F3436051685E
:10083800C1F30221715CC9B223FA01F181605468E5
:10084800C4F3C224345DE4B2E340C3605468C4F323
:1008580081344F4E345DE4B2B3FBF4F40461546860
:10086800C4F3C3644B4E345DE4B2B5FBF4F44461A5
:10087800126B12F0400F03D148F21202826102E0BB
:100888004FF4004282613E4A126B12F0100F02D1FF
:100898003C4AC26100E0C561394A126B12F0200F70
:1008A80002D1384A026200E00562354A126B12F042
:1008B800030F01D1436219E0314B1B6B03F00303B3
:1008C800012B01D1456211E02D4B1B6B03F0030393
:1008D800022B03D14FF40043436207E0284B1B6B04
:1008E80003F00303032B01D1264B4362244B1B6BFC
:1008F80013F4403F01D181621CE0214B1B6B03F4D0
:100908004033B3F5803F01D1856213E01C4B1B6B6C
:1009180003F44033B3F5003F03D14FF4004383623F
:1009280008E0174B1B6B03F44033B3F5403F01D18C
:10093800144B8362124B1B6B13F4402F01D1C1621D
:100948001CE00F4B1B6B03F44023B3F5802F01D140
:10095800C56213E00A4B1B6B03F44023B3F5002F69
:1009680003D14FF40043C36208E0054B1B6B03F44B
:100978004023B3F5402F01D1024BC36270BC7047CE
:100988000010024000127A0000093D001400002007
:10099800000000200400002021B1054B5A691043D3
:1009A80058617047024A536923EA00005061704752
:1009B8000010024021B1054B9A69104398617047B5
:1009C800024A936923EA00009061704700100240D0
:1009D80021B1054BDA691043D8617047024AD369DF
:1009E80023EA0000D06170470010024003889BB2E0
:1009F800B0F1804F0ED01C4A90420BD002F58062B5
:100A0800904207D002F58062904203D002F5A832E6
:100A1800904203D123F070034A881343134A90424B
:100A28000CD002F58062904208D002F5084290424C
:100A380004D023F440739BB20A89134303804B68A4
:100A4800C3620B8803850A4B984207D003F580637D
:100A5800984203D003F58063984201D18B7A0386CC
:100A680001238382704700BF00040040001000404B
:100A78000040014029B103889BB243F00103038081
:100A8800704703889BB223F001039BB20380704731
:100A980030B4038C9BB223F010039BB20384048C04
:100AA800A4B28588ADB2028B92B222F4E6430A88DA
:100AB800120292B21A4324F020048B891B019BB2C4
:100AC8001C434B881B019BB22343858002838A68A1
:100AD8008263038430BC7047038B9BB223F40063AA
:100AE800090289B219430183704700BF10B401237A
:100AF8008B409BB2048CDB439BB223400384038C62
:100B08009BB28A4092B21A4302845DF8044B704744
:100B180022B183899BB21943818170478389C94374
:100B280089B2194081817047028A83890B4011423A
:100B380002D01BB900207047002070470120704781
:100B4800C94389B20182704730B58DB004460D465D
:100B5800036823F001030360436823F440528B6861
:100B680013434360036823F4B05222F00C0249682F
:100B7800EB6819432B690B4313430360836823F421
:100B880040726B69134383606846FFF719FE174B81
:100B98009C4201D1099A05E0154B9C4201D10A9A61
:100BA80000E00B9A236813F4004F06D0520029681E
:100BB800B2FBF1F301FB132204E02968B2FBF1F365
:100BC80001FB13222968B2EB510F00D301332268CD
:100BD80012F4004F06D0C3F3420223F00F031B04A4
:100BE8001B0C13439BB2A3810DB030BD00380140EC
:100BF8000044004021B1036843F0010303607047DB
:100C0800036823F001030360704700BF21B1036844
:100C180043F4004303607047036823F40043036010
:100C2800704700BFC1F3080101857047808CC0F38D
:100C38000800704730B4C1F30725C9B2012303FA8D
:100C480001F1022D01D1041D04E00446032D01D158
:100C580000F108041AB123681943216003E02368EE
:100C680023EA0101216030BC704700BFC3690B4211
:100C780001D0012070470020704700BF0162704713
:100C880010B4C1F30722CCB20123A340012A02D138
:100C98000268134006E0022A02D14268134001E0CC
:100CA80082681340090C012202FA01F1C26911405D
:100CB80013B119B9002002E0002000E001205DF81E
:100CC800044B7047090C012303FA01F101627047D4
:100CD80010B400231A4604E0C45C2244D2B20133A3
:100CE800DBB20C4C217801F10A04A342F4DB43186F
:100CF8009B7A9A4206D10144CB7A162B05D04FF045
:100D0800FF3003E04FF0FF3000E000205DF8044BB7
:100D1800704700BF550000200B0901F00F010209C0
:100D280000F00F00033BDBB2092B0DD802290DD9C7
:100D38000C290DD8022A0DD90C2A0DD802280DD954
:100D48000C280DD9002070470020704700207047FC
:100D5800002070470020704700207047002070472F
:100D68000120704710B43339C1F3031401F00F01A7
:100D78003338C0F3031300F00F00642202FB01F1C3
:100D88004FF47A7202FB041403EB83035A002244E3
:100D980010445DF8044B7047F0B5333AC2F30217BC
:100DA80002F00F043339C1F3031601F00F0C333886
:100DB800C0F3031500F00F0042F2107E0EFB04FE94
:100DC8000B4901FB07E74FF47A7101FB06766424AF
:100DD80004FB0C6105EB85056C000C4404441C60A5
:100DE800197901311971C2F3C0125A71F0BD00BFEF
:100DF800A0860100F0B482B002AC04E903000698B2
:100E0800009E2849A1FB0647FF08A1FB0754E408F8
:100E180004EB840465007C1B2401E4B207EB87071C
:100E28007D00751BEDB22C43333414701E4CA4FBAB
:100E38000624A409A1FB0452D20802EB8202550041
:100E4800621B1201D5B2194FA7FB06277F09A1FB28
:100E58000724E20802EB820254003A1BD2B22A436A
:100E680033321A707309124AA2FB0332D2091201F3
:100E7800D2B2104BA3FB0636760BA1FB0613D9089A
:100E880001EB81014B00F11AC9B211433331C9B2E8
:100E980001709DF8053013B161F07F01017002B057
:100EA800F0BC7047CDCCCCCCD34D62101F85EB5134
:100EB800C55A7C0A5917B7D130B413790479A342BB
:100EC80003D90D79AB4200F2AF80A34234D10D793A
:100ED800AB4231D90368002B00F0A88011680029C3
:100EE80000F0A6804079002840F0A4805479002CB6
:100EF80040F0B5808B420CD903EB83031801594BA2
:100F0800A3FB00035B09994238BF19461160012011
:100F1800A5E001EB81042001524CA4FB0040B3EB97
:100F2800501F06D2642101FB03F34F49A1FB033193
:100F380089091160012092E00D79AB4230D1A342BA
:100F48002ED90B68002B77D01468002C76D04879FE
:100F5800002875D15179002940F08180A3420CD92D
:100F680003EB830319013F4BA3FB01135B099C426D
:100F780038BF1C461460012071E004EB84000101B5
:100F88003848A0FB0101B3EB511F06D2642404FBCF
:100F980003F3354CA4FB0334A409146001205EE07C
:100FA800A3424FD1AB424FD10368002B4ED00C68FF
:100FB800002C4DD01568002D4CD0407900284BD11D
:100FC800497900294BD15079002847D11946A342C5
:100FD80038BF21468D4215D905EB8500010121480E
:100FE800A0FB0101A34228BF2346B3EB511F06D83B
:100FF800642505FB03F31C4DA5FB0335AD091560FE
:1010080001202CE0A34228BF23469D4227D201EBB2
:1010180081010B011349A1FB03135B099D4238BFF2
:101028001D46156001201AE0002018E0002016E097
:10103800002014E0002012E0002010E000200EE064
:1010480000200CE001200AE0012008E0002006E072
:10105800002004E0002002E0002000E0084630BC48
:10106800704700BF1F85EB51CDCCCCCC30B40468A1
:101078000B681C44136823440324B3FBF4F30B24C8
:1010880004FB03F40A25B4FBF5F404600B6003EBDE
:10109800C303B3FBF5F3136030BC704730B583B0BE
:1010A8000446C37A323B042B00F22C81DFE813F0AC
:1010B80005002A01AB00D6000101934D2B46027CA6
:1010C800C17B807BFFF768FE6B79002B40F01A81AB
:1010D8008E4B5B79002B40F015818D4B5B79002B93
:1010E80040F010812B68002B00F00C81874A1268B1
:1010F800002A00F0078186490868002800F002816C
:101108001146824238BF0146994238BF194601EB61
:1011180081010D017F49A1FB05151146824228BFB7
:101128000146994228BF1946B1EB551F80F0EA8065
:10113800934207D3824205D3754A74497248FFF730
:1011480095FF30E0834207D3824205D86F4A704941
:101158006D48FFF78BFF26E0934207D8834205D3FB
:101168006B4A69496948FFF781FF1CE0824207D34F
:10117800834205D8644A66496448FFF777FF12E05E
:10118800834207D8934205D3604A5F496048FFF716
:101198006DFF08E0824206D8934204D85A4A5B4958
:1011A8005B48FFF763FF584D04F11003009304F107
:1011B8000F0304F10E0295E80300FFF71BFE04F18C
:1011C8001303009304F1120304F1110295E80300DC
:1011D800FFF710FE04F11603009304F1150304F160
:1011E800140295E80300FFF705FE0022134604E009
:1011F800E15C0A44D2B20133DBB2162BF8D9E275AE
:10120800162323767EE0404B027CC17B807BFFF770
:10121800C3FD237C333B13F0800F73D13A4A3C491A
:101228003A48FFF749FE00286CD0374904F110030B
:10123800009304F10F0304F10E0203C9FFF7DAFD6E
:101248000022134604E0E15C0A44D2B20133DBB267
:10125800102BF8D962741623A37453E02B4B027C2D
:10126800C17B807BFFF798FD237C333B13F0800F15
:1012780048D1264A26492448FFF71EFE002841D0B7
:10128800224904F11003009304F10F0304F10E0244
:1012980003C9FFF7AFFD0022134604E0E15C0A44EE
:1012A800D2B20133DBB2102BF8D962741623A374BF
:1012B80028E0174B027CC17B807BFFF76DFD237C08
:1012C800333B13F0800F1DD1114A10490E48FFF728
:1012D800F3FDB8B10E4904F11003009304F10F03B4
:1012E80004F10E0203C9FFF785FD0022134604E04E
:1012F800E15C0A44D2B20133DBB2102BF8D9627434
:101308001623A37403B030BD6C00002058000020E1
:10131800600000201F85EB51704700BF3339333818
:10132800C0B240EA012080B2704700BF10B5044641
:10133800837A323B082B72D8DFE803F03D71717174
:10134800710513212F00C17B807BFFF7E7FF20F495
:10135800A87083B2DAB23332A2731B0A3333E37351
:101368005DE0C17B807BFFF7D9FF20F4A87083B2D2
:10137800DAB23332A2731B0A3333E3734FE0C17B13
:10138800807BFFF7CBFF20F4A87083B2DAB2333248
:10139800A2731B0A3333E37341E0C17B807BFFF701
:1013A800BDFF20F0080083B2DAB23332A2731B0A01
:1013B8003333E37333E0417D007DFFF7AFFF20F463
:1013C800A87083B2DAB2333222751B0A33336375DD
:1013D800E17DA07DFFF7A2FF20F4A87083B2DAB206
:1013E8003332A2751B0A3333E375617E207EFFF723
:1013F80095FF20F4A87083B2DAB2333222761B0A42
:1014080033336376E17EA07EFFF788FF20F0080083
:1014180083B2DAB23332A2761B0A3333E37600237F
:101428001A4603E0A15C0B44DBB201320349097898
:1014380001F10A008242F5DB235410BD550000205B
:10144800114981FB0031C317C3EBA1114FF47A7323
:1014580003FB11010D4A82FB0132CB17C3EB621269
:10146800642303FB12120A4880FB0230D317C3EB34
:10147800A00000EB80014B00D31A03F00F0303EB2D
:1014880000103330C0B27047D34D62101F85EB5146
:10149800676666660C4981FB0031C317C3EBA1116F
:1014A8000B0103F47F624FF47A7303FB11030748BF
:1014B80080FB0310DB17C3EB601303F00F03134427
:1014C80003F13300C0B27047D34D62101F85EB5152
:1014D80030B4333BC3F3031404EB8404650003F016
:1014E8000F032B44333AC2F3031404EB840465005E
:1014F80002F00F022A4442F2107404FB02F20D4C6F
:1015080004FB03233339C1F3031202EB82025400B4
:1015180001F00F012144642202FB01313338C0F38A
:10152800031303EB83035A0000F00F001044084430
:1015380030BC704740420F002DE9F0432C4DA5FB0D
:10154800004C4FEA5C18642606FB1808294CA4FBDB
:1015580008E74FEAD70E0EEB8E094FEA4907C7EBAB
:10156800080747EA0E1733370F704FEA5C1CA5FBD4
:101578000C1E4FEA5E1E06FB1ECEA4FB0E71CF08A2
:1015880007EB870C4FEA4C01C1EB0E0141EA07114A
:1015980033311170184AA2FB0012520BA5FB021737
:1015A8007F0906FB1727A4FB0712D10801EB810E60
:1015B8004FEA4E029646BA1A42EA011233321A70BC
:1015C8000E4BA3FB0030800CA5FB00356D0906FB14
:1015D8001505A4FB0534E40804EB84025300EB1A58
:1015E80043EA04143334079B1C70BDE8F08300BF42
:1015F8001F85EB51CDCCCCCC5917B7D183DE1B431B
:10160800704700BF704700BF2DE9F84F064690F8B5
:101618000980027A912A03D0B12A03D0002302E07C
:10162800092300E00923922A02D0B22A03D101E05B
:10163800042300E0042347469946C3EB080303EB61
:10164800D373C3F34F0315E009F10A044FEA450ABF
:10165800544409F10B039A44DFF84CB0DBF800005E
:10166800FFF7EEFE3055DBF80000FFF713FF06F832
:101678000A002B465D1EADB2002BE5D108F10A0227
:10168800B118B35405E0F05C0A7802440A700133DB
:101698009BB207F10A029342F5DB08F10B0810230D
:1016A80006F80830BDE8F88F30000020704700BF0A
:1016B80038B50446837B342B02D10021224A1170AD
:1016C800332B02D1FF22204B1A701F4B19781F4869
:1016D80001F044FD10B9D423237201E0942323724E
:1016E80000236372A37205E0E15CA27A0A44A27245
:1016F8000133DBB2092BF7D91623E3720022144B0E
:101708001A70144D0C222946204602F009FB28467F
:1017180002F0A4FA10B9104802F02AFB0F4D0C226F
:101728002946204602F0FCFA284602F097FA50B9FA
:101738000B4C00220B492046FFF77CFA01220A498C
:101748002046FFF777FA38BD54000020141F03081D
:10175800550000206C060020004800403C05002091
:1017680000440040050105000701070070B5044664
:10177800867BC17B3046FFF7F5FA0546617C207C05
:10178800FFF7F0FA85421CDDB5F52F6F19DAB0F5D1
:10179800966F16DD254B1D60254B18603146254890
:1017A80001F0DCFCE17B244801F0D8FC217C2348D3
:1017B80001F0D4FC617C224801F0D0FC9423237210
:1017C80001E0D423237200236372A37204E0E15C76
:1017D800A27A0A44A2720133092BF8DD1623E372B8
:1017E8000022184B1A70184D0C222946204602F088
:1017F80097FA284602F032FA10B9144802F0B8FAFB
:10180800134D0C222946204602F08AFA284602F097
:1018180025FA50B90F4C00220F492046FFF70AFA63
:1018280001220E492046FFF705FA70BDF409002091
:10183800080A0020001F0308041F0308081F0308E4
:101848000C1F0308550000206C06002000480040CB
:101858003C05002000440040050105000701070081
:1018680038B50446912303720C2343724FF42F605A
:10187800FFF7E6FDA0734FF42F60FFF70BFEE07350
:101888004FF49660FFF7DCFD20744FF49660FFF785
:1018980001FE6074224B1D682846FFF7D1FDA07435
:1018A8002846FFF7F7FDE0741E4B1D682846FFF732
:1018B800C7FD20752846FFF7EDFD60750023A37569
:1018C80004E0E15CA27D0A44A2750133152BF8DD22
:1018D8001623E3750C22144B1A70144D2946204622
:1018E80002F01EFA284602F0B9F910B9104802F0C1
:1018F8003FFA104D18222946204602F011FA2846D0
:1019080002F0ACF950B90C4C00220C492046FFF704
:1019180091F901220A492046FFF78CF938BD00BF2A
:10192800F4090020080A0020550000206C06002059
:10193800004800403C050020004400400501050027
:101948000701070070B5044640F69803314A136052
:10195800314A1360314A1360FF21314B1970314805
:1019680001F0FCFB304E40F62E1030602F4D40F257
:10197800BC732B60FFF764FD01462D4801F0EEFBB8
:101988003068FFF787FD01462A4801F0E7FB286821
:10199800FFF756FD0146284801F0E0FB2868FFF7ED
:1019A80079FD0146254801F0D9FB942323720023D1
:1019B8006372A37204E0E15CA27A0A44A272013362
:1019C800092BF8DD1623E37200221D4B1A701D4DFA
:1019D8000C222946204602F0A3F9284602F03EF9D7
:1019E80010B9194802F0C4F9184D0C2229462046AE
:1019F80002F096F9284602F031F950B9144C002249
:101A080014492046FFF716F9012213492046FFF72B
:101A180011F970BD30000020240000202C000020A7
:101A280054000020141F0308F4090020080A0020AD
:101A3800001F0308041F0308081F03080C1F0308DE
:101A4800550000206C060020004800403C0500209E
:101A580000440040050105000701070038B50446A9
:101A6800D423037200234372837205E0E15CA27AF7
:101A78000A44A2720133DBB2092BF7D91623E372A9
:101A88000022124B1A70124D0C222946204602F0F1
:101A980047F9284602F0E2F810B90E4802F068F952
:101AA8000D4D0C222946204602F03AF9284602F04C
:101AB800D5F850B9094C002209492046FFF7BAF871
:101AC800012208492046FFF7B5F838BD5500002027
:101AD8006C060020004800403C05002000440040FF
:101AE800050105000701070038B50446D423037231
:101AF80000234372837205E0E15CA27A0A44A27271
:101B08000133DBB2092BF7D91623E3720022124BFB
:101B18001A70124D0C222946204602F001F9284677
:101B280002F09CF810B90E4802F022F90D4D0C2273
:101B38002946204602F0F4F8284602F08FF850B9FA
:101B4800094C002209492046FFF774F80122084988
:101B58002046FFF76FF838BD550000206C060020BE
:101B6800004800403C0500200044004005010500F5
:101B78000701070030B585B00546254BDB680293A1
:101B880000248DF80D4000F11003009300F10F03BD
:101B980000F10E0204A911E90300FFF72BF99123C4
:101BA8002B7207236B726C74234605E0E95C6A7C30
:101BB8000A446A740133DBB2102BF7D91623AB74CD
:101BC8000722144B1A70144C13222146284602F09F
:101BD800A7F8204602F042F810B9104802F0C8F8F9
:101BE8000F4C13222146284602F09AF8204602F0AC
:101BF80035F850B90B4C00220B492046FFF71AF86C
:101C080001220A492046FFF715F805B030BD00BF8C
:101C1800F8090020550000206C060020004800400C
:101C28003C050020004400400501050007010700AD
:101C380038B5044691230372062343721E4B9D68F0
:101C48002846FFF7FDFBA0732846FFF723FCE07347
:101C58000023237405E0E15C227C0A4422740133EA
:101C6800DBB20F2BF7D9162363740622134B1A70B5
:101C7800134D12222946204602F052F8284601F058
:101C8800EDFF10B90F4802F073F80F4D12222946E4
:101C9800204602F045F8284601F0E0FF50B90B4C09
:101CA80000220B492046FEF7C5FF012209492046BC
:101CB800FEF7C0FF38BD00BFF8090020550000201E
:101CC8006C060020004800403C050020004400400D
:101CD800050105000701070038B504469123037282
:101CE800062343721E4B1D682846FFF7A9FBA07305
:101CF8002846FFF7CFFBE0730023237405E0E15C7F
:101D0800227C0A4422740133DBB20F2BF7D9162345
:101D180063740022134B1A70134D12222946204671
:101D280001F0FEFF284601F099FF10B90F4802F0B4
:101D38001FF80F4D12222946204601F0F1FF2846D0
:101D480001F08CFF50B90B4C00220B492046FEF7DE
:101D580071FF012209492046FEF76CFF38BD00BF1C
:101D6800F8090020550000206C06002000480040BB
:101D78003C0500200044004005010500070107005C
:101D880038B5037A912B48D106234372234B1A782E
:101D98002349A1FB02314909642303FB1123DBB268
:101DA800204AA2FB0342D20802EB82056C001B1BEF
:101DB80043EA02138373C1730023037404E0C15C14
:101DC800027C0A44027401330F2BF8D90446162307
:101DD80043740422144B1A70144D1222294601F040
:101DE8009FFF284601F03AFF10B9114801F0C0FFE3
:101DF800104D12222946204601F092FF284601F094
:101E08002DFF50B90C4C00220C492046FEF712FF5A
:101E180001220B492046FEF70DFF38BD0C0A0020B1
:101E28001F85EB51CDCCCCCC550000206C06002092
:101E3800004800403C050020004400400501050022
:101E48000701070038B5044691230372082343723B
:101E5800032383730523C373112303741823437463
:101E68000023837405E0E15CA27C0A44A274013378
:101E7800DBB2112BF7D91623E3740822124B1A7020
:101E8800124D14222946204601F04AFF284601F047
:101E9800E5FE10B90E4801F06BFF0E4D14222946DD
:101EA800204601F03DFF284601F0D8FE50B90A4C03
:101EB80000220A492046FEF7BDFE012208492046B5
:101EC800FEF7B8FE38BD00BF550000206C060020A4
:101ED800004800403C050020004400400501050082
:101EE8000701070070B50446817B0809E27B1509E4
:101EF80005EB85056B0002F00F02134400EB80022E
:101F0800500003EB830303EB83039A00831801F06B
:101F18000F010B4413F0FF0511D0244E294630461B
:101F280001F01CF9224B1D70304601F05DF9854225
:101F380002D19423237204E0D423237201E0D42332
:101F4800237200236372A37205E0E15CA27A0A445B
:101F5800A27201339BB2092BF7D91623E372002230
:101F6800144B1A70144D0C222946204601F0D8FE55
:101F7800284601F073FE10B9104801F0F9FE104D23
:101F88000C222946204601F0CBFE284601F066FEC9
:101F980050B90C4C00220C492046FEF74BFE01229A
:101FA8000A492046FEF746FE70BD00BF101F030811
:101FB8000C0A0020550000206C0600200048004054
:101FC8003C0500200044004005010500070107000A
:101FD80070B50446857BC17B2846FEF7C3FE40F6F4
:101FE800970398421CDC214B1860214E2946304645
:101FF80001F0B4F8E17B1F4801F0B0F8304601F079
:10200800F3F8A37B984208D11A4801F0EDF8E37B76
:10201800984202D19423237204E0D423237201E06E
:10202800D423237200236372A37205E0E15CA27AD1
:102038000A44A27201339BB2092BF7D91623E37223
:102048000D4D0C222946204601F06AFE284601F073
:1020580005FE50B9094C002209492046FEF7EAFD61
:10206800012208492046FEF7E5FD70BD080A002058
:10207800081F03080C1F03083C050020004400400B
:10208800050105000701070070B582B004469123D9
:1020980003720C2343722E4801F0A4F806462D481B
:1020A80001F0A0F80546B6F1FF3F00D1002604F183
:1020B8001103009304F1100304F10F0204F10E015F
:1020C8003046FFF739FAB5F1FF3F00D1002504F19A
:1020D8001503009304F1140304F1130204F112012F
:1020E8002846FFF729FA0023A37505E0E15CA27DE5
:1020F8000A44A2750133DBB2152BF7D91623E37511
:102108000022154B1A70154D18222946204601F059
:1021180007FE284601F0A2FD10B9114801F028FE7B
:10212800104D18222946204601F0FAFD284601F0F4
:1021380095FD50B90C4C00220C492046FEF77AFD5B
:1021480001220B492046FEF775FD02B070BD00BFA5
:102158000420030840200308550000206C060020D6
:10216800004800403C0500200044004005010500EF
:102178000701070070B50446857BC17B2846FEF73A
:10218800F1FD40F6980398421EDD224B1860224E5E
:102198002946304600F0E2FFE17B204800F0DEFFF0
:1021A800304601F01FF8C0B2A37B984209D11B4802
:1021B80001F018F8C0B2E37B984202D1942323724D
:1021C80004E0D423237201E0D42323720023637232
:1021D800A37205E0E15CA27A0A44A27201339BB2C1
:1021E800092BF7D91623E3720D4D0C2229462046F8
:1021F80001F096FD284601F031FD50B9094C002246
:1022080009492046FEF716FD012208492046FEF737
:1022180011FD70BDF4090020001F0308041F030806
:102228003C050020004400400501050007010700A7
:1022380070B50446817BFF2910D1304D2970304E8E
:10224800304600F08BFF304600F0CEFF2B789842E6
:1022580001D1942300E0D42323721BE0C1B9FEF717
:1022680053F92848FEF798F9FEF75EF9A17B234D4C
:102278002970234E304600F071FF304600F0B4FF5D
:102288002B78984201D1942300E0D423237201E0F3
:10229800D423037200236372A37205E0E15CA27A7F
:1022A8000A44A27201339BB2092BF7D91623E372B1
:1022B8000022154B1A70154D0C222946204601F0B4
:1022C8002FFD284601F0CAFC10B9114801F050FD55
:1022D800104D0C222946204601F022FD284601F027
:1022E800BDFC50B90C4C00220C492046FEF7A2FC5C
:1022F80001220B492046FEF79DFC70BD28000020F6
:10230800181F030800200308550000206C06002051
:10231800004800403C05002000440040050105003D
:102328000701070038B50446837BCBB9274DFF2149
:10233800284600F013FFFF22254B1A70FEF7E4F839
:102348002448FEF729F9FEF7EFF8284600F04CFF7D
:10235800FF2802D19423237204E0D423237201E0DE
:10236800D423037200236372A37205E0E15CA27AAE
:102378000A44A27201339BB2092BF7D91623E372E0
:102388000022154B1A70154D0C222946204601F0E3
:10239800C7FC284601F062FC10B9114801F0E8FCBE
:1023A800104D0C222946204601F0BAFC284601F0BF
:1023B80055FC50B90C4C00220C492046FEF73AFC5B
:1023C80001220B492046FEF735FC38BD181F0308CB
:1023D8002800002000200308550000206C0600207B
:1023E800004800403C05002000440040050105006D
:1023F80007010700F8B506460D463A4B1B78012B36
:1024080011D013B1022B41D065E0012201F060FC2C
:102418000446002864D02B78682B5ED10123314A0A
:102428001370314A13700922691C304601F050FCC0
:10243800074680B914212D4B188801F069FB044622
:1024480000284DD00023274A1370274A1370274AC3
:1024580013803C4644E0EB79682B04D16B7A03F196
:102468000C02FE2A07DD00241E4B1C701E4B1C703C
:102478001E4B1C8034E01E4A13700222194B1A703E
:102488001A4B00221A800122174B1A70184B1A781F
:10249800023205F10A01304601F01AFC044668B917
:1024A8001421124B188801F033FBC0B100230D4AE8
:1024B80013700D4A13700D4A138011E00023094A66
:1024C8001370094A1370094A13802846FEF700FC66
:1024D80030B1002404E0002402E0002400E00446B7
:1024E8002046F8BD68000020760000207800002013
:1024F8005500002010B500231CE0184A12F83310CC
:10250800827A914214D1154A02EBC3025178C27AF9
:1025180091420DD1114A02EBC3029178027B91429C
:1025280006D10E4A02EBC304E178427B914203D004
:102538000133DBB2342BE0D9342B0DD8074A02EB38
:10254800C3035B68064A934206D0064A934203D007
:10255800054A934200D0984710BD00BF203E0008AE
:10256800A5100008211300083513000810B5002332
:102578001CE0134A12F83310827A914214D1104A9F
:1025880002EBC3025178C27A91420DD10C4A02EB98
:10259800C3029178027B914206D1094A02EBC30437
:1025A800E178427B914203D00133DBB20C2BE0D9B6
:1025B8000C2B04D8024A02EBC3035B68984710BD92
:1025C800C83F000870B50446C37A323B042B00F2BA
:1025D800E580DFE813F00500E3005F008B00B7003B
:1025E800912303720A2343726D4B1D686D4B1E685D
:1025F800B54206DC6C4B1B689D4204DA40F6980530
:1026080001E040F69805664B1D602846FEF718FF66
:10261800A0732846FEF73EFFE073644B1D68AE4288
:1026280006DB614B1B689D4204DA40F6980501E021
:1026380040F698055D4B1D602846FEF701FF2074A3
:102648002846FEF727FF6074594B1D68AE4206DB2B
:10265800554B1B689D4204DA40F6980501E040F6A8
:102668009805534B1D602846FEF7EAFEA0742846DD
:10267800FEF710FFE07400231A4604E0E15C0A4408
:10268800D2B20133DBB2132BF8D922751623637546
:10269800012070BD424B1D68424B1B689D4206DC01
:1026A800414B1B689D4204DA40F6980501E040F66C
:1026B80098053B4B1D6091232372062363722846BD
:1026C800FEF7BEFEA0732846FEF7E4FEE073002383
:1026D8001A4604E0E15C0A44D2B20133DBB20F2BA4
:1026E800F8D9227416236374012070BD2F4B1D681E
:1026F8002C4B1B689D4206DC2B4B1B689D4204DA61
:1027080040F6980501E040F69805284B1D60912396
:102718002372062363722846FEF792FEA0732846AA
:10272800FEF7B8FEE07300231A4604E0E15C0A44B1
:10273800D2B20133DBB20F2BF8D92274162363749B
:10274800012070BD1A4B1D68164B1B689D4206DCA4
:10275800154B1B689D4204DA40F6980501E040F6E7
:102768009805134B1D609123237206236372284634
:10277800FEF766FEA0732846FEF78CFEE073002382
:102788001A4604E0E15C0A44D2B20133DBB20F2BF3
:10279800F8D9227416236374012070BD002070BD1F
:1027A80030000020F4090020080A0020240000203E
:1027B8002C000020F8B5194800F016FD184B1870C9
:1027C800184800F011FD0446174800F00DFD0546B5
:1027D800164800F009FD0646154800F005FD0746B5
:1027E800FF2C0ED1FF2D0CD1FF2E0AD1FF2808D1C6
:1027F80040F62E120F4B1A6040F2BC720E4B1A6054
:10280800F8BD29462046FEF7ADFA0A4B186039464E
:102818003046FEF7A7FA084B1860F8BD141F0308E6
:1028280054000020001F0308041F0308081F0308A2
:102838000C1F0308F4090020080A0020F0B51F4BFC
:102848001E68A6F596611E4B1D68AA1B91FBF2F146
:102858000131C5F52F6494FBF2F4854216DA013490
:10286800B0F52F6F12DCAB1898420CDC451BA0EBBF
:102878004500F0BD013303FB02F705EB070E704579
:1028880002DCC01BF0BD0123A342F3DB864214DD4A
:10289800B0F5966F11DBB31A98420BDB361A00EBD2
:1028A8004600F0BD013303FB02F4351BA84202DBEE
:1028B8002044F0BD01238B42F4DBF0BD080A002060
:1028C800F4090020F8B57A4B1B78002B00F0EF8054
:1028D800037A912B40F0EB80837A332B40F0E7802A
:1028E800037B342B40F0E380437B352B40F0DF80C3
:1028F8000446C57A322D62D1867BC77B394630467D
:10290800FEF70AFAC8B139463046FEF72BFA694B8A
:102918001860694B1B68984203DC684B1B68984237
:102928000BDAFFF78BFF0646624B1860FEF788FD4F
:10293800A0733046FEF7AEFDE073267C677C39460F
:102948003046FEF7E9F9C8B139463046FEF70AFACB
:102958005B4B1860584B1B68984203DC574B1B684D
:1029680098420BDAFFF76AFF0646554B1860FEF7E8
:1029780067FD20743046FEF78DFD6074A67CE77C09
:1029880039463046FEF7C8F9C8B139463046FEF731
:10299800E9F94C4B1860484B1B68984203DC474BDD
:1029A8001B6898420BDAFFF749FF0646454B18604B
:1029B800FEF746FDA0743046FEF76CFDE074342D3A
:1029C80020D1A67BE77B39463046FEF7A5F9C8B18A
:1029D80039463046FEF7C6F9364B1860364B1B6849
:1029E800984203DC354B1B6898420BDAFFF726FF49
:1029F8000646304B1860FEF723FDA0733046FEF7FD
:102A080049FDE073352D20D1A67BE77B394630465A
:102A1800FEF782F9C8B139463046FEF7A3F9284BCC
:102A28001860254B1B68984203DC244B1B689842AE
:102A38000BDAFFF703FF0646214B1860FEF700FD8F
:102A4800A0733046FEF726FDE073362D20D1A57B16
:102A5800E67B31462846FEF75FF9C8B1314628467D
:102A6800FEF780F9174B1860134B1B68984203DC7C
:102A7800124B1B6898420BDAFFF7E0FE0546114B34
:102A88001860FEF7DDFCA0732846FEF703FDE0732F
:102A980000231A4604E0E15C0A44D2B20133DBB2F7
:102AA8000949097801F10A008342F4DB2254F8BD90
:102AB8005400002030000020F4090020080A0020FB
:102AC800240000202C0000205500002008B5012219
:102AD800044B1A700023044A1370044A1380FFF74A
:102AE800F1FE08BD0D0A00207A00002074000020C5
:102AF80008B5174BC8221A60164A5A60164800F0E3
:102B080071FBB0F1FF3F06D15021114B996012487B
:102B180000F024FB01E00E4B9860104800F062FBC7
:102B2800B0F1FF3F10D10A4843688268B3FBF2F264
:102B380002EB4202D3000A49A1FB0331C908C16074
:102B4800064800F00BFB08BD014BD86008BD00BF6C
:102B5800F809002000650400201F03081C1F030853
:102B6800CDCCCCCC08B5084800F03EFB074B18701C
:102B7800074800F039FBFF2803D15A22054B1A7089
:102B880008BD044B187008BD181F03082800002052
:102B9800101F03080C0A00202DE9F041064688465C
:102BA8001746084600F01EFB0546384600F01AFB9B
:102BB800B5F1FF3F03D00446B0F1FF3F0AD13146DB
:102BC800404600F0CBFA3146384600F0C7FA3046A6
:102BD800BDE8F081B5420ED9751B17482844174B3C
:102BE8001A78A2FB000164220023323041F100016F
:102BF800FDF7F4FA0BE0751B104B1878A0FB0501E4
:102C080064220023323041F10001FDF7E7FA044461
:102C1800094B9C4205D904F17A4404F5212404F6B1
:102C280001743146404600F099FA2146384600F0D2
:102C380095FA2046BDE8F081FFE0F5050C0A002072
:102C4800834B1B78002B00F001812DE9F04383B002
:102C58000446437C027CC17B807BFEF739FC054639
:102C6800E37A323B052B00F28180DFE803F03F0373
:102C7800272D3339237B482B0ED002D8342B05D08F
:102C880074E05C2B0ED0702B12D06FE0714A724941
:102C9800FFF782FF054669E0704A7149FFF77CFF3C
:102CA800054663E06F4A7049FFF776FF05465DE029
:102CB8006E4A6F49FFF770FF054657E06D4A6E4947
:102CC800FFF76AFF054651E06C4A6D49FFF764FF5C
:102CD80005464BE06B4A6C49FFF75EFF054645E049
:102CE8006A4A6B49FFF758FF05463FE0637D227D3E
:102CF800E17CA07CFEF7ECFB5E4A5F49FFF74CFFE6
:102D08008146637E227EE17DA07DFEF7E1FB5B4A82
:102D18005B49FFF741FF8046637F227FE17EA07E0B
:102D2800FEF7D6FB574A5849FFF736FF074694F88F
:102D3800213094F82020E17FA07FFEF7C9FB534A99
:102D48005349FFF729FF0646637C227CE17BA07B81
:102D5800FEF7BEFB0146404800F000FA09EB080503
:102D68003D44354429463B4800F0F8F9E37A322BD4
:102D78001CD068D3372B66D804F11103009304F1F3
:102D8800100304F10F0204F10E012846FEF7D4FBEC
:102D98000023A37405E0E15CA27C0A44A274013319
:102DA8009BB2112BF7D91623E3744CE004F11103FD
:102DB800009304F1100304F10F0204F10E012846F8
:102DC800FEF7BAFB04F11503009304F1140304F1B0
:102DD800130204F112014846FEF7AEFB04F1190391
:102DE800009304F1180304F1170204F11601404698
:102DF800FEF7A2FB04F11D03009304F11C0304F188
:102E08001B0204F11A013846FEF796FB04F1210370
:102E1800009304F1200304F11F0204F11E0130465F
:102E2800FEF78AFB002384F8223007E0E15C94F87F
:102E380022200A4484F8222001339BB2212BF5D9A1
:102E4800162384F8233003B0BDE8F083704700BF31
:102E58002800002074200308702003089C20030821
:102E680098200308A4200308A0200308AC20030826
:102E7800A82003087C20030878200308842003087E
:102E8800802003088C200308882003089420030866
:102E9800902003084A4B1B78002B00F08F802DE907
:102EA800F04182B00446437D027DC17C807CFEF700
:102EB8000FFB444A4449FFF76FFE804604F11503AF
:102EC800009304F1140304F1130204F11201FEF754
:102ED80033FB637E227EE17DA07DFEF7F9FA3B4A53
:102EE8003B49FFF759FE064604F11903009304F124
:102EF800180304F1170204F11601FEF71DFB637FA6
:102F0800227FE17EA07EFEF7E3FA324A3249FFF7DC
:102F180043FE054604F11D03009304F11C0304F16C
:102F28001B0204F11A01FEF707FB94F8213094F80C
:102F38002020E17FA07FFEF7CBFA284A2849FFF737
:102F48002BFE074604F12103009304F1200304F14A
:102F58001F0204F11E01FEF7EFFA637C227CE17B7D
:102F6800A07BFEF7B5FA01461E4800F0F7F8464484
:102F78002E44BD1929461C4800F0F0F804F111034D
:102F8800009304F1100304F10F0204F10E01284626
:102F9800FEF7D2FA002384F8223007E0E15C94F8C7
:102FA80022200A4484F8222001339BB2212BF5D930
:102FB800162384F8233002B0BDE8F081704700BFC3
:102FC80028000020402003080420030844200308A8
:102FD80008200308482003080C2003084C20030895
:102FE80010200308002003083C20030808B5044B00
:102FF8001A78A0FB020164220023FDF7EFF808BD50
:103008000C0A0020504B1B78002B00F09B8010B559
:1030180082B00446C37A322B72D1437C027CC17BD6
:10302800807BFEF755FAFFF7E1FF04F111030093E7
:1030380004F1100304F10F0204F10E01FEF77CFA0B
:10304800637D227DE17CA07CFEF742FAFFF7CEFF8C
:1030580004F11503009304F1140304F1130204F1BD
:103068001201FEF769FA637E227EE17DA07DFEF7FC
:103078002FFAFFF7BBFF04F11903009304F11803BB
:1030880004F1170204F11601FEF756FA637F227F56
:10309800E17EA07EFEF71CFAFFF7A8FF04F11D03EE
:1030A800009304F11C0304F11B0204F11A01FEF75A
:1030B80043FA94F8213094F82020E17FA07FFEF7AE
:1030C80007FAFFF793FF04F12103009304F12003AB
:1030D80004F11F0204F11E01FEF72EFA002384F802
:1030E800223007E0E15C94F822200A4484F8222088
:1030F80001339BB2212BF5D9162384F823301FE026
:10310800437C027CC17B807BFEF7E2F9FFF76EFF10
:1031180004F11103009304F1100304F10F0204F108
:103128000E01FEF709FA0023A37405E0E15CA27C16
:103138000A44A27401339BB2112BF7D91623E37406
:1031480002B010BD704700BF2800002008B502205B
:10315800FDF7D0F93420FDF7EFF908BD2DE9F0416E
:10316800ADF5806DC0F3870410F0030F33D120F460
:103178007F7626F00306002305E056F823204DF855
:10318800232001339BB2FF2BF7D90F4680464DF819
:103198002410FDF7B9F94046FDF7FEF90025022491
:1031A8000FE01C465DF8251006EB8500FDF712FAC6
:1031B800042804D0631EDBB2002CF2D11C46013572
:1031C800ADB2FF2DEED9FDF7AFF9D8F800309F4228
:1031D80003D1012002E0002000E000200DF5806D01
:1031E800BDE8F081006870470068C0B2704700BF52
:1031F8002DE9F04383B001214FF48020FDF7CCFB8B
:10320800494F072206213846FDF776FA072211466C
:103218003846FDF771FA02258DF804504FF0000882
:103228008DF8068001248DF807408DF8055002AE10
:10323800C02346F8083D31463846FDF7FDF9072218
:1032480008213846FDF758FA072209213846FDF7C4
:1032580053FA8DF806804FF4407300933146384690
:10326800FDF7EAF921464FF40030FDF795FB00948D
:103278008DF804408DF806408DF805508DF80780CC
:1032880031464FF09040FDF7D7F921464FF4002022
:10329800FDF782FB4FF40059CDF800908DF80440FB
:1032A8008DF806408DF805508DF8075007F58067B2
:1032B80031463846FDF7C0F9224649463846FDF7FB
:1032C80015FA00958DF804508DF8068003278DF8BF
:1032D80005708DF8074031464FF09040FDF7ACF986
:1032E8002A4621464FF09040FDF706FA0722294664
:1032F8004FF09040FDF700FA072239464FF0904012
:10330800FDF7FAF98DF804508DF806808DF807401E
:103318008DF805500C23009331464FF09040FDF78F
:103328008BF903B0BDE8F0830004004808B501211B
:103338004FF09040FDF7CAF930B1002201214FF05B
:103348009040FDF7D3F908BD012211464FF0904097
:10335800FDF7CCF908BD00BF08B500224FF40051B5
:103368000148FDF7C3F908BD0008004838B5044610
:1033780001461348FFF73EF800B3237A112B0ED10C
:10338800A37A332B0BD1237B342B08D1637B352BCA
:1033980005D100220B4B1A7001220B4B1A700B4BF4
:1033A8001A780B4D0C322946204600F0B9FC284605
:1033B80000F054FC10B9074800F0DAFC38BD00BF33
:1033C8000C0400200D0A00207A000020550000207F
:1033D8006C06002000480040124B1B780BBB10B550
:1033E8001921114B188800F093FBC8B10F48FFF75B
:1033F800E9F8A8B10D48427A0D4C0C32214600F08C
:103408008FFC204600F02AFC50B90A4800F0B0FCB6
:103418000122044B1A700023074A1370024A1380D2
:1034280010BD70470D0A0020740000209C07002082
:10343800DC020020003801407A00002008B54FF473
:10344800C060FDF771F908BD08B5FFF7F7FF5C4BE1
:103458001B68DB08B3F1807F0CD223F07F43013B6C
:10346800584A5360F021584B83F823100023936087
:10347800072313606FF00400FDF792F9F022524B16
:1034880083F82320FFF762FEFFF7B2FEFFF74EFF37
:1034980000F068FB00F0DEFAFFF78CF9FFF728FB75
:1034A800FFF760FBFFF758FFFFF740FF474800F0C2
:1034B800D5FB10B94648FFF759FF464800F0CEFB48
:1034C80010B1FFF789FF3BE043494248FEF792FFFE
:1034D80018BB424B1B78002B32D11921404B18885E
:1034E80000F016FB60B33A48FFF76CF840B3384871
:1034F8003C4C427A214600F013FC204600F0AEFB1B
:10350800F0B9394800F034FC0122344B1A7000231A
:10351800364A1370324A138012E02F4D2846FEF7C0
:10352800E9FF334B1A782F4C0C322146284600F01D
:10353800F7FB204600F092FB10B92B4800F018FC6E
:103548002C4800F08BFB0028AED12B492948FEF708
:1035580051FF0028A8D0284B1B7A132B1BD12648D3
:10356800012343708370C370037143718371932384
:1035780003720623437234238372C3720373437343
:103588008373C373A72303741623437412221B493E
:1035980000F0C6FB02E01848FEF7E8FF174800F005
:1035A8005DFB002880D1164C002216492046FDF705
:1035B80041FB012214492046FDF73CFB74E700BF9C
:1035C8003400002010E000E000ED00E00C040020D2
:1035D8009C070020AC010020C80800200D0A00202C
:1035E80074000020DC020020003801407A0000202E
:1035F800550000207C000020100A00203C05002017
:10360800004400400501050007010700704700BF9E
:10361800FEE700BFFEE700BFFEE700BFFEE700BF12
:10362800704700BF704700BF704700BF08B54FF430
:1036380000510948FDF752F8012806D100224FF43D
:1036480000510548FDF752F808BD01224FF400511A
:103658000148FDF74BF808BD0008004838B50821B7
:103668002848FDF703FB18B108212648FDF706FB9B
:1036780025492448FDF704FBC8B1244800F0F8FAAE
:10368800A8B9224CB4F82C511E48FDF7CFFA605562
:10369800B4F82C2101321E4B83FB0231D317C3EB44
:1036A80061134FF4967101FB1323A4F82C311949C7
:1036B8001448FDF7E5FA18B3124D16492846FDF7E8
:1036C80001FB154CB4F82E31E15C2846FDF7AAFA47
:1036D800B4F82E2101320E4B83FB0231D317C3EB12
:1036E80061134FF4967101FB1323A4F82E31204681
:1036F80000F0B4FA20B1002206492846FDF79AFAEC
:1037080038BD00BF00380140050105000C04002049
:10371800B5814E1B07010700DC02002038B50821DF
:103728003048FDF7A3FA012803D108212D48FDF7F9
:10373800A5FA2D492B48FDF7A3FAE8B12A492948EB
:10374800FDF7C0FA294800F093FAA8B9274CB4F855
:103758002C512448FDF76AFA6055B4F82C2101323F
:10376800234B83FB0231D317C3EB61134FF49671DC
:1037780001FB1323A4F82C311E491A48FDF780FADF
:1037880070B3184D1B492846FDF79CFA1A4CB4F83B
:103798002E31E15C2846FDF745FAB4F82E210132B6
:1037A800134B83FB0231D317C3EB61134FF49671AC
:1037B80001FB1323A4F82E31204600F04FFA78B10C
:1037C80000220C492846FDF735FA40210548FDF747
:1037D8004DFA0028F9D0012203490248FDF72AFAD8
:1037E80038BD00BF00440040050105007C000020F2
:1037F800B5814E1B070107003C05002038B508219C
:103808002548FDF733FA18B108212348FDF736FAA1
:1038180022492148FDF734FAC8B1214800F028FAB6
:10382800A8B91F4CB4F82C511B48FDF7FFF9605597
:10383800B4F82C2101321B4B83FB0231D317C3EBA5
:1038480061134FF4967101FB1323A4F82C31164928
:103858001148FDF715FAF0B1144CB4F82E31E15CBB
:103868000D48FDF7DFF9B4F82E2101320D4B83FB2B
:103878000231D317C3EB61134FF4967101FB132385
:10388800A4F82E31204600F0E9F920B100220649BB
:103898000148FDF7CFF938BD004800400501050093
:1038A800AC010020B5814E1B070107006C06002003
:1038B80008B501214FF08040FDF736F990B101219C
:1038C8004FF08040FDF73CF9074B1B781BB1074AC6
:1038D800138801331380064B1B781BB1054A1388E4
:1038E8000133138008BD00BF760000207800002057
:1038F8007A00002074000020704700BF82B00023C7
:1039080001930093274A136843F001031360254B82
:103918001B6803F002030093019B01330193009B92
:103928001BB9019BB3F5A06FF1D11E4B1B6813F0B7
:10393800020F02D00123009301E000230093009BB3
:10394800012B2CD11222184B1A60A3F580535A6808
:103958005A605A685A605A6842F480625A605A68D3
:1039680022F47C125A605A6842F460125A601A684B
:1039780042F080721A600B4B1B6813F0007FFAD07C
:10398800084B5A6822F003025A605A6842F0020251
:103998005A60044B5B6803F00C03082BF9D102B0A2
:1039A800704700BF001002400020024010B5184CBC
:1039B800D4F8883043F47003C4F88830154B1A687B
:1039C80042F001021A605A6802F47F025A601A68CB
:1039D80022F0847222F480321A601A6822F480225B
:1039E8001A605A6822F4FE025A60DA6A22F00F025C
:1039F800DA621A6B22F0F02222F073021A630022B4
:103A08009A60FFF77BFF4FF00063A36010BD00BF13
:103A180000ED00E00010024030B583B01C238DF8A3
:103A2800043000258DF8055001248DF806408DF8E6
:103A3800074001A8FCF782FE32238DF804308DF888
:103A480005508DF806508DF8074001A8FCF776FE62
:103A580003B030BD70B588B0FFF7DEFF012108461E
:103A6800FCF7B6FF4CF24F3306934023ADF8143001
:103A78000024ADF81C40ADF8164005A94FF0804071
:103A8800FCF7B4FF01214FF08040FCF7F3FF01225F
:103A980011464FF08040FDF73BF801210820FCF764
:103AA80097FF184B1B68184AA2FB03231B0B013B0B
:103AB8000693ADF81440ADF81C40ADF81640134D10
:103AC80005A92846FCF792FF21462846FDF704F889
:103AD80001212846FCF7CEFF6023ADF8003001260F
:103AE800ADF8026040F24A330293ADF80C406946E3
:103AF8002846FCF7CDFF324604212846FCF7F6FF9E
:103B080008B070BD34000020B5814E1B000C004089
:103B1800884201D3012070470020704700B583B068
:103B280025238DF8043001238DF805308DF80630F3
:103B38008DF8073001A8FCF701FE27238DF8043023
:103B480000238DF8063001A8FCF7F8FD26238DF830
:103B5800043002238DF8063001A8FCF7EFFD03B00E
:103B68005DF804FB2DE9F04786B001214FF4804051
:103B7800FCF720FF354F01213846FDF747F84FF491
:103B8800166500954FF00C08CDF810804FF4805A58
:103B9800CDF804A04FF48069CDF80C90002402946D
:103BA800059469463846FCF7CFFF01214FF4802081
:103BB800FCF70EFF264E01213046FDF727F8009549
:103BC800CDF81080CDF804A0CDF80C90029405949F
:103BD80069463046FCF7B8FF01214FF40030FCF786
:103BE800F7FE1C4D01212846FDF710F84FF49663A7
:103BF8000093CDF804A00294CDF80C900594CDF86C
:103C0800108069462846FCF79FFFFFF787FF124C94
:103C1800012221463846FDF70DF80122214630469B
:103C2800FDF708F8012221462846FDF703F801218F
:103C38003846FCF7DFFF01213046FCF7DBFF0121A6
:103C48002846FCF7D7FF06B0BDE8F08700380140EA
:103C5800004800400044004005010500B0F82E214E
:103C6800B0F82C319A4201D10120704700207047EA
:103C780010B4B0F82E41B0F82C210132084B83FB68
:103C88000231D317C3EB61134FF4967101FB132371
:103C98009C4201D1012000E000205DF8044B7047F0
:103CA800B5814E1BB0F82C31B0F82E219B1A03F5C4
:103CB8009673064880FB0320DA17C2EB60104FF4B6
:103CC800967202FB103080B2704700BFB5814E1B60
:103CD80070B504460E461546FFF7E4FFA84217D212
:103CE800002070BDB4F82E21A25CF254B4F82E1155
:103CF80001310A4A82FB0120CA17C2EB60124FF455
:103D0800967000FB1212A4F82E2101339BB200E03A
:103D18000023AB42E6D3012070BD00BFB5814E1B26
:103D280070B506460C4615460846FFF7BBFF284403
:103D3800B0F5967F15DD002070BDB4F82C31B15C6C
:103D4800E1540133094981FB0310D917C1EB601114
:103D58004FF4967000FB1131A4F82C11013292B285
:103D680000E00022AA42E8D3012070BDB5814E1BB5
:103D780008B501220149FCF75DFF08BD07010700EE
:103D8800002103E00B4B5B58435004310A480B4BAE
:103D980042189A42F6D30A4A02E0002342F8043B4A
:103DA800084B9A42F9D3FFF701FE00F00FF8FFF72E
:103DB8004BFBFEE7584000080000002038000020B8
:103DC800380000203C0B0020FEE7000070B50E4BC9
:103DD8000E4CE41AA41000251E46A54204D056F83D
:103DE800253098470135F8E700F01EF9084C094BD3
:103DF800E41AA41000251E46A54204D056F8253022
:103E080098470135F8E770BD504000085040000859
:103E1800544000085040000833343435D52A00088F
:103E280033353435D52A000833363435D52A0008D9
:103E380033323435D52A000837383338351300087B
:103E48003838333835130008393833383513000813
:103E58003A38333835130008323833383513000808
:103E680033333433492C000833343433492C0008B5
:103E780033353433492C000833363433492C0008A1
:103E880033373433492C000833323433492C000893
:103E980033334833492C000833335C33492C00084A
:103EA80033337033492C0008343439389D2E0008D8
:103EB800353439389D2E0008363439389D2E00089F
:103EC800343334330D300008343434330D300008C3
:103ED800343534330D300008343634330D300008AF
:103EE800343734330D300008343234330D300008A1
:103EF800343348330D30000834335C330D30000858
:103F0800343370330D30000833373435B9160008B0
:103F180033383435751700083339343569180008D3
:103F2800333A34354D19000833373535651A0008EA
:103F3800333835357D1B000833393535F11A00081B
:103F4800333A3535391C0008333B3535E11C000858
:103F5800337334333922000833743433ED1E0008C8
:103F6800337534332D23000833763433891D000824
:103F7800337734339120000833344339111600085D
:103F88003434433911160008353443391116000802
:103F9800323443391116000833354339B516000851
:103FA80034354339B516000835354339B516000898
:103FB80032354339B5160008323232324D1E000808
:103FC80033373435B91600083339343569180008E1
:103FD800333A34354D190008333B34357D21000818
:103FE800333C3435D91F0008333D343509160008F1
:103FF800333E34350D160008337334333922000844
:1040080033743433ED1E0008337534332D23000820
:1040180033763433891D0008337734339120000810
:10402800323232324D1E0008F8B500BFF8BC08BC69
:104038009E467047F8B500BFF8BC08BC9E4670475E
:08404800CCC1FF7F0100000064
:04405000AD010008B6
:0440540089010008D6
:1040580002040608020406080A0C0E1014181C2094
:1040680024282C300000000001020304010203048C
:104078000607080998080000FF00000098080000DB
:08408800980800000090D0032D
:0400000508003D8929
:00000001FF
